{
  "_format": "hh-sol-artifact-1",
  "contractName": "Blockdemy",
  "sourceName": "contracts/Blockdemy.sol",
  "abi": [
    {
      "inputs": [
        {
          "internalType": "address payable[]",
          "name": "_owners",
          "type": "address[]"
        },
        {
          "internalType": "address",
          "name": "_blockdemycourse_address",
          "type": "address"
        },
        {
          "internalType": "address",
          "name": "_blockdemyToken_address",
          "type": "address"
        }
      ],
      "stateMutability": "nonpayable",
      "type": "constructor"
    },
    {
      "anonymous": false,
      "inputs": [
        {
          "indexed": true,
          "internalType": "address",
          "name": "previousOwner",
          "type": "address"
        },
        {
          "indexed": true,
          "internalType": "address",
          "name": "newOwner",
          "type": "address"
        }
      ],
      "name": "OwnershipTransferred",
      "type": "event"
    },
    {
      "inputs": [
        {
          "internalType": "uint256",
          "name": "tokenId",
          "type": "uint256"
        }
      ],
      "name": "buyCourse",
      "outputs": [],
      "stateMutability": "payable",
      "type": "function"
    },
    {
      "inputs": [
        {
          "internalType": "uint256",
          "name": "tokenId",
          "type": "uint256"
        },
        {
          "internalType": "uint256",
          "name": "amount",
          "type": "uint256"
        }
      ],
      "name": "increaseVisibility",
      "outputs": [],
      "stateMutability": "payable",
      "type": "function"
    },
    {
      "inputs": [],
      "name": "owner",
      "outputs": [
        {
          "internalType": "address",
          "name": "",
          "type": "address"
        }
      ],
      "stateMutability": "view",
      "type": "function"
    },
    {
      "inputs": [],
      "name": "renounceOwnership",
      "outputs": [],
      "stateMutability": "nonpayable",
      "type": "function"
    },
    {
      "inputs": [
        {
          "internalType": "address",
          "name": "newOwner",
          "type": "address"
        }
      ],
      "name": "transferOwnership",
      "outputs": [],
      "stateMutability": "nonpayable",
      "type": "function"
    }
  ],
  "bytecode": "0x60806040523480156200001157600080fd5b50604051620014f2380380620014f2833981810160405281019062000037919062000345565b620000576200004b620000fb60201b60201c565b6200010360201b60201c565b82600190805190602001906200006f929190620001c7565b5081600260006101000a81548173ffffffffffffffffffffffffffffffffffffffff021916908373ffffffffffffffffffffffffffffffffffffffff16021790555080600360006101000a81548173ffffffffffffffffffffffffffffffffffffffff021916908373ffffffffffffffffffffffffffffffffffffffff160217905550505050620004c2565b600033905090565b60008060009054906101000a900473ffffffffffffffffffffffffffffffffffffffff169050816000806101000a81548173ffffffffffffffffffffffffffffffffffffffff021916908373ffffffffffffffffffffffffffffffffffffffff1602179055508173ffffffffffffffffffffffffffffffffffffffff168173ffffffffffffffffffffffffffffffffffffffff167f8be0079c531659141344cd1fd0a4f28419497f9722a3daafe3b4186f6b6457e060405160405180910390a35050565b82805482825590600052602060002090810192821562000243579160200282015b82811115620002425782518260006101000a81548173ffffffffffffffffffffffffffffffffffffffff021916908373ffffffffffffffffffffffffffffffffffffffff16021790555091602001919060010190620001e8565b5b50905062000252919062000256565b5090565b5b808211156200027157600081600090555060010162000257565b5090565b60006200028c6200028684620003e8565b620003b4565b90508083825260208201905082856020860282011115620002ac57600080fd5b60005b85811015620002e05781620002c5888262000301565b845260208401935060208301925050600181019050620002af565b5050509392505050565b600081519050620002fb816200048e565b92915050565b6000815190506200031281620004a8565b92915050565b600082601f8301126200032a57600080fd5b81516200033c84826020860162000275565b91505092915050565b6000806000606084860312156200035b57600080fd5b600084015167ffffffffffffffff8111156200037657600080fd5b620003848682870162000318565b93505060206200039786828701620002ea565b9250506040620003aa86828701620002ea565b9150509250925092565b6000604051905081810181811067ffffffffffffffff82111715620003de57620003dd6200045f565b5b8060405250919050565b600067ffffffffffffffff8211156200040657620004056200045f565b5b602082029050602081019050919050565b600062000424826200043f565b9050919050565b600062000438826200043f565b9050919050565b600073ffffffffffffffffffffffffffffffffffffffff82169050919050565b7f4e487b7100000000000000000000000000000000000000000000000000000000600052604160045260246000fd5b620004998162000417565b8114620004a557600080fd5b50565b620004b3816200042b565b8114620004bf57600080fd5b50565b61102080620004d26000396000f3fe60806040526004361061004a5760003560e01c8063194d73a21461004f578063715018a61461006b57806380d3b88a146100825780638da5cb5b1461009e578063f2fde38b146100c9575b600080fd5b61006960048036038101906100649190610bee565b6100f2565b005b34801561007757600080fd5b50610080610750565b005b61009c60048036038101906100979190610c40565b6107d8565b005b3480156100aa57600080fd5b506100b361091d565b6040516100c09190610d8f565b60405180910390f35b3480156100d557600080fd5b506100f060048036038101906100eb9190610b73565b610946565b005b34600260009054906101000a900473ffffffffffffffffffffffffffffffffffffffff1673ffffffffffffffffffffffffffffffffffffffff16637e2dcf6e836040518263ffffffff1660e01b815260040161014e9190610e6a565b60206040518083038186803b15801561016657600080fd5b505afa15801561017a573d6000803e3d6000fd5b505050506040513d601f19601f8201168201806040525081019061019e9190610c17565b11156101df576040517f08c379a00000000000000000000000000000000000000000000000000000000081526004016101d690610e4a565b60405180910390fd5b6000600260009054906101000a900473ffffffffffffffffffffffffffffffffffffffff1673ffffffffffffffffffffffffffffffffffffffff16636352211e836040518263ffffffff1660e01b815260040161023c9190610e6a565b60206040518083038186803b15801561025457600080fd5b505afa158015610268573d6000803e3d6000fd5b505050506040513d601f19601f8201168201806040525081019061028c9190610b9c565b73ffffffffffffffffffffffffffffffffffffffff16600260009054906101000a900473ffffffffffffffffffffffffffffffffffffffff1673ffffffffffffffffffffffffffffffffffffffff1663d48e638a846040518263ffffffff1660e01b81526004016102fd9190610e6a565b60206040518083038186803b15801561031557600080fd5b505afa158015610329573d6000803e3d6000fd5b505050506040513d601f19601f8201168201806040525081019061034d9190610b9c565b73ffffffffffffffffffffffffffffffffffffffff161461050757600260009054906101000a900473ffffffffffffffffffffffffffffffffffffffff1673ffffffffffffffffffffffffffffffffffffffff166364bb499c836040518263ffffffff1660e01b81526004016103c39190610e6a565b60206040518083038186803b1580156103db57600080fd5b505afa1580156103ef573d6000803e3d6000fd5b505050506040513d601f19601f820116820180604052508101906104139190610c17565b9050600260009054906101000a900473ffffffffffffffffffffffffffffffffffffffff1673ffffffffffffffffffffffffffffffffffffffff1663d48e638a836040518263ffffffff1660e01b81526004016104709190610e6a565b60206040518083038186803b15801561048857600080fd5b505afa15801561049c573d6000803e3d6000fd5b505050506040513d601f19601f820116820180604052508101906104c09190610b9c565b73ffffffffffffffffffffffffffffffffffffffff166108fc829081150290604051600060405180830381858888f19350505050158015610505573d6000803e3d6000fd5b505b600260009054906101000a900473ffffffffffffffffffffffffffffffffffffffff1673ffffffffffffffffffffffffffffffffffffffff16636352211e836040518263ffffffff1660e01b81526004016105629190610e6a565b60206040518083038186803b15801561057a57600080fd5b505afa15801561058e573d6000803e3d6000fd5b505050506040513d601f19601f820116820180604052508101906105b29190610b9c565b73ffffffffffffffffffffffffffffffffffffffff166108fc82346105d79190610ee8565b9081150290604051600060405180830381858888f19350505050158015610602573d6000803e3d6000fd5b50600360009054906101000a900473ffffffffffffffffffffffffffffffffffffffff1673ffffffffffffffffffffffffffffffffffffffff1663a9059cbb3369021e19e0c9bab24000006040518363ffffffff1660e01b815260040161066a929190610de1565b602060405180830381600087803b15801561068457600080fd5b505af1158015610698573d6000803e3d6000fd5b505050506040513d601f19601f820116820180604052508101906106bc9190610bc5565b50600260009054906101000a900473ffffffffffffffffffffffffffffffffffffffff1673ffffffffffffffffffffffffffffffffffffffff1663ef24d69583336040518363ffffffff1660e01b815260040161071a929190610e85565b600060405180830381600087803b15801561073457600080fd5b505af1158015610748573d6000803e3d6000fd5b505050505050565b610758610a3e565b73ffffffffffffffffffffffffffffffffffffffff1661077661091d565b73ffffffffffffffffffffffffffffffffffffffff16146107cc576040517f08c379a00000000000000000000000000000000000000000000000000000000081526004016107c390610e2a565b60405180910390fd5b6107d66000610a46565b565b600360009054906101000a900473ffffffffffffffffffffffffffffffffffffffff1673ffffffffffffffffffffffffffffffffffffffff166323b872dd3330846040518463ffffffff1660e01b815260040161083793929190610daa565b602060405180830381600087803b15801561085157600080fd5b505af1158015610865573d6000803e3d6000fd5b505050506040513d601f19601f820116820180604052508101906108899190610bc5565b50600260009054906101000a900473ffffffffffffffffffffffffffffffffffffffff1673ffffffffffffffffffffffffffffffffffffffff1663caa60a5d83836040518363ffffffff1660e01b81526004016108e7929190610eae565b600060405180830381600087803b15801561090157600080fd5b505af1158015610915573d6000803e3d6000fd5b505050505050565b60008060009054906101000a900473ffffffffffffffffffffffffffffffffffffffff16905090565b61094e610a3e565b73ffffffffffffffffffffffffffffffffffffffff1661096c61091d565b73ffffffffffffffffffffffffffffffffffffffff16146109c2576040517f08c379a00000000000000000000000000000000000000000000000000000000081526004016109b990610e2a565b60405180910390fd5b600073ffffffffffffffffffffffffffffffffffffffff168173ffffffffffffffffffffffffffffffffffffffff161415610a32576040517f08c379a0000000000000000000000000000000000000000000000000000000008152600401610a2990610e0a565b60405180910390fd5b610a3b81610a46565b50565b600033905090565b60008060009054906101000a900473ffffffffffffffffffffffffffffffffffffffff169050816000806101000a81548173ffffffffffffffffffffffffffffffffffffffff021916908373ffffffffffffffffffffffffffffffffffffffff1602179055508173ffffffffffffffffffffffffffffffffffffffff168173ffffffffffffffffffffffffffffffffffffffff167f8be0079c531659141344cd1fd0a4f28419497f9722a3daafe3b4186f6b6457e060405160405180910390a35050565b600081359050610b1981610fa5565b92915050565b600081519050610b2e81610fa5565b92915050565b600081519050610b4381610fbc565b92915050565b600081359050610b5881610fd3565b92915050565b600081519050610b6d81610fd3565b92915050565b600060208284031215610b8557600080fd5b6000610b9384828501610b0a565b91505092915050565b600060208284031215610bae57600080fd5b6000610bbc84828501610b1f565b91505092915050565b600060208284031215610bd757600080fd5b6000610be584828501610b34565b91505092915050565b600060208284031215610c0057600080fd5b6000610c0e84828501610b49565b91505092915050565b600060208284031215610c2957600080fd5b6000610c3784828501610b5e565b91505092915050565b60008060408385031215610c5357600080fd5b6000610c6185828601610b49565b9250506020610c7285828601610b49565b9150509250929050565b610c8581610f1c565b82525050565b610c9481610f64565b82525050565b6000610ca7602683610ed7565b91507f4f776e61626c653a206e6577206f776e657220697320746865207a65726f206160008301527f64647265737300000000000000000000000000000000000000000000000000006020830152604082019050919050565b6000610d0d602083610ed7565b91507f4f776e61626c653a2063616c6c6572206973206e6f7420746865206f776e65726000830152602082019050919050565b6000610d4d601083610ed7565b91507f6e6f7420656e6f7567682066756e6473000000000000000000000000000000006000830152602082019050919050565b610d8981610f5a565b82525050565b6000602082019050610da46000830184610c7c565b92915050565b6000606082019050610dbf6000830186610c7c565b610dcc6020830185610c7c565b610dd96040830184610d80565b949350505050565b6000604082019050610df66000830185610c7c565b610e036020830184610c8b565b9392505050565b60006020820190508181036000830152610e2381610c9a565b9050919050565b60006020820190508181036000830152610e4381610d00565b9050919050565b60006020820190508181036000830152610e6381610d40565b9050919050565b6000602082019050610e7f6000830184610d80565b92915050565b6000604082019050610e9a6000830185610d80565b610ea76020830184610c7c565b9392505050565b6000604082019050610ec36000830185610d80565b610ed06020830184610d80565b9392505050565b600082825260208201905092915050565b6000610ef382610f5a565b9150610efe83610f5a565b925082821015610f1157610f10610f76565b5b828203905092915050565b6000610f2782610f3a565b9050919050565b60008115159050919050565b600073ffffffffffffffffffffffffffffffffffffffff82169050919050565b6000819050919050565b6000610f6f82610f5a565b9050919050565b7f4e487b7100000000000000000000000000000000000000000000000000000000600052601160045260246000fd5b610fae81610f1c565b8114610fb957600080fd5b50565b610fc581610f2e565b8114610fd057600080fd5b50565b610fdc81610f5a565b8114610fe757600080fd5b5056fea26469706673582212201506fb1fe3d033d18c47318e364d035ede982a4c368b015e84cdebdc2534200764736f6c63430008000033",
  "linkReferences": {},
  "deployedLinkReferences": {}
}