{
  "contractName": "BlockdemyCourse",
  "abi": [
    {
      "inputs": [],
      "stateMutability": "nonpayable",
      "type": "constructor"
    },
    {
      "anonymous": false,
      "inputs": [
        {
          "indexed": true,
          "internalType": "address",
          "name": "owner",
          "type": "address"
        },
        {
          "indexed": true,
          "internalType": "address",
          "name": "approved",
          "type": "address"
        },
        {
          "indexed": true,
          "internalType": "uint256",
          "name": "tokenId",
          "type": "uint256"
        }
      ],
      "name": "Approval",
      "type": "event"
    },
    {
      "anonymous": false,
      "inputs": [
        {
          "indexed": true,
          "internalType": "address",
          "name": "owner",
          "type": "address"
        },
        {
          "indexed": true,
          "internalType": "address",
          "name": "operator",
          "type": "address"
        },
        {
          "indexed": false,
          "internalType": "bool",
          "name": "approved",
          "type": "bool"
        }
      ],
      "name": "ApprovalForAll",
      "type": "event"
    },
    {
      "anonymous": false,
      "inputs": [
        {
          "indexed": true,
          "internalType": "address",
          "name": "from",
          "type": "address"
        },
        {
          "indexed": true,
          "internalType": "address",
          "name": "to",
          "type": "address"
        },
        {
          "indexed": true,
          "internalType": "uint256",
          "name": "tokenId",
          "type": "uint256"
        }
      ],
      "name": "Transfer",
      "type": "event"
    },
    {
      "inputs": [
        {
          "internalType": "address",
          "name": "to",
          "type": "address"
        },
        {
          "internalType": "uint256",
          "name": "tokenId",
          "type": "uint256"
        }
      ],
      "name": "approve",
      "outputs": [],
      "stateMutability": "nonpayable",
      "type": "function"
    },
    {
      "inputs": [
        {
          "internalType": "address",
          "name": "owner",
          "type": "address"
        }
      ],
      "name": "balanceOf",
      "outputs": [
        {
          "internalType": "uint256",
          "name": "",
          "type": "uint256"
        }
      ],
      "stateMutability": "view",
      "type": "function",
      "constant": true
    },
    {
      "inputs": [
        {
          "internalType": "uint256",
          "name": "tokenId",
          "type": "uint256"
        }
      ],
      "name": "getApproved",
      "outputs": [
        {
          "internalType": "address",
          "name": "",
          "type": "address"
        }
      ],
      "stateMutability": "view",
      "type": "function",
      "constant": true
    },
    {
      "inputs": [
        {
          "internalType": "address",
          "name": "owner",
          "type": "address"
        },
        {
          "internalType": "address",
          "name": "operator",
          "type": "address"
        }
      ],
      "name": "isApprovedForAll",
      "outputs": [
        {
          "internalType": "bool",
          "name": "",
          "type": "bool"
        }
      ],
      "stateMutability": "view",
      "type": "function",
      "constant": true
    },
    {
      "inputs": [],
      "name": "name",
      "outputs": [
        {
          "internalType": "string",
          "name": "",
          "type": "string"
        }
      ],
      "stateMutability": "view",
      "type": "function",
      "constant": true
    },
    {
      "inputs": [
        {
          "internalType": "uint256",
          "name": "tokenId",
          "type": "uint256"
        }
      ],
      "name": "ownerOf",
      "outputs": [
        {
          "internalType": "address",
          "name": "",
          "type": "address"
        }
      ],
      "stateMutability": "view",
      "type": "function",
      "constant": true
    },
    {
      "inputs": [
        {
          "internalType": "address",
          "name": "from",
          "type": "address"
        },
        {
          "internalType": "address",
          "name": "to",
          "type": "address"
        },
        {
          "internalType": "uint256",
          "name": "tokenId",
          "type": "uint256"
        }
      ],
      "name": "safeTransferFrom",
      "outputs": [],
      "stateMutability": "nonpayable",
      "type": "function"
    },
    {
      "inputs": [
        {
          "internalType": "address",
          "name": "from",
          "type": "address"
        },
        {
          "internalType": "address",
          "name": "to",
          "type": "address"
        },
        {
          "internalType": "uint256",
          "name": "tokenId",
          "type": "uint256"
        },
        {
          "internalType": "bytes",
          "name": "_data",
          "type": "bytes"
        }
      ],
      "name": "safeTransferFrom",
      "outputs": [],
      "stateMutability": "nonpayable",
      "type": "function"
    },
    {
      "inputs": [
        {
          "internalType": "address",
          "name": "operator",
          "type": "address"
        },
        {
          "internalType": "bool",
          "name": "approved",
          "type": "bool"
        }
      ],
      "name": "setApprovalForAll",
      "outputs": [],
      "stateMutability": "nonpayable",
      "type": "function"
    },
    {
      "inputs": [
        {
          "internalType": "bytes4",
          "name": "interfaceId",
          "type": "bytes4"
        }
      ],
      "name": "supportsInterface",
      "outputs": [
        {
          "internalType": "bool",
          "name": "",
          "type": "bool"
        }
      ],
      "stateMutability": "view",
      "type": "function",
      "constant": true
    },
    {
      "inputs": [],
      "name": "symbol",
      "outputs": [
        {
          "internalType": "string",
          "name": "",
          "type": "string"
        }
      ],
      "stateMutability": "view",
      "type": "function",
      "constant": true
    },
    {
      "inputs": [
        {
          "internalType": "uint256",
          "name": "tokenId",
          "type": "uint256"
        }
      ],
      "name": "tokenURI",
      "outputs": [
        {
          "internalType": "string",
          "name": "",
          "type": "string"
        }
      ],
      "stateMutability": "view",
      "type": "function",
      "constant": true
    },
    {
      "inputs": [
        {
          "internalType": "address",
          "name": "from",
          "type": "address"
        },
        {
          "internalType": "address",
          "name": "to",
          "type": "address"
        },
        {
          "internalType": "uint256",
          "name": "tokenId",
          "type": "uint256"
        }
      ],
      "name": "transferFrom",
      "outputs": [],
      "stateMutability": "nonpayable",
      "type": "function"
    },
    {
      "inputs": [
        {
          "internalType": "uint256",
          "name": "tokenId",
          "type": "uint256"
        },
        {
          "internalType": "string",
          "name": "_title",
          "type": "string"
        }
      ],
      "name": "setTokenTitle",
      "outputs": [],
      "stateMutability": "nonpayable",
      "type": "function"
    },
    {
      "inputs": [
        {
          "internalType": "uint256",
          "name": "tokenId",
          "type": "uint256"
        },
        {
          "internalType": "string",
          "name": "_description",
          "type": "string"
        }
      ],
      "name": "setTokenDescription",
      "outputs": [],
      "stateMutability": "nonpayable",
      "type": "function"
    },
    {
      "inputs": [
        {
          "internalType": "uint256",
          "name": "tokenId",
          "type": "uint256"
        },
        {
          "internalType": "bool",
          "name": "_sale",
          "type": "bool"
        }
      ],
      "name": "setTokenOnSale",
      "outputs": [],
      "stateMutability": "nonpayable",
      "type": "function"
    },
    {
      "inputs": [
        {
          "internalType": "uint256",
          "name": "tokenId",
          "type": "uint256"
        },
        {
          "internalType": "uint256",
          "name": "_price",
          "type": "uint256"
        }
      ],
      "name": "setTokenPrice",
      "outputs": [],
      "stateMutability": "nonpayable",
      "type": "function"
    },
    {
      "inputs": [
        {
          "internalType": "uint256",
          "name": "tokenId",
          "type": "uint256"
        },
        {
          "internalType": "string[]",
          "name": "_uris",
          "type": "string[]"
        }
      ],
      "name": "setTokenUris",
      "outputs": [],
      "stateMutability": "nonpayable",
      "type": "function"
    },
    {
      "inputs": [
        {
          "internalType": "uint256",
          "name": "tokenId",
          "type": "uint256"
        },
        {
          "internalType": "string[]",
          "name": "_uris",
          "type": "string[]"
        }
      ],
      "name": "addTokenUris",
      "outputs": [],
      "stateMutability": "nonpayable",
      "type": "function"
    },
    {
      "inputs": [
        {
          "internalType": "uint256",
          "name": "tokenId",
          "type": "uint256"
        },
        {
          "internalType": "uint256",
          "name": "amount",
          "type": "uint256"
        }
      ],
      "name": "setOnSale",
      "outputs": [],
      "stateMutability": "nonpayable",
      "type": "function"
    },
    {
      "inputs": [
        {
          "internalType": "address",
          "name": "_owner",
          "type": "address"
        },
        {
          "internalType": "string",
          "name": "_title",
          "type": "string"
        },
        {
          "internalType": "string",
          "name": "_description",
          "type": "string"
        },
        {
          "internalType": "string[]",
          "name": "_uris",
          "type": "string[]"
        },
        {
          "internalType": "uint256",
          "name": "_price",
          "type": "uint256"
        },
        {
          "internalType": "bool",
          "name": "_sale",
          "type": "bool"
        }
      ],
      "name": "mintCourse",
      "outputs": [
        {
          "internalType": "uint256",
          "name": "",
          "type": "uint256"
        }
      ],
      "stateMutability": "nonpayable",
      "type": "function"
    },
    {
      "inputs": [
        {
          "internalType": "uint256",
          "name": "tokenId",
          "type": "uint256"
        },
        {
          "internalType": "string",
          "name": "_hash",
          "type": "string"
        }
      ],
      "name": "deleteUri",
      "outputs": [],
      "stateMutability": "nonpayable",
      "type": "function"
    },
    {
      "inputs": [
        {
          "internalType": "string",
          "name": "a",
          "type": "string"
        },
        {
          "internalType": "string",
          "name": "b",
          "type": "string"
        }
      ],
      "name": "compareStrings",
      "outputs": [
        {
          "internalType": "bool",
          "name": "",
          "type": "bool"
        }
      ],
      "stateMutability": "pure",
      "type": "function",
      "constant": true
    },
    {
      "inputs": [
        {
          "internalType": "uint256",
          "name": "tokenId",
          "type": "uint256"
        }
      ],
      "name": "getCourseById",
      "outputs": [
        {
          "components": [
            {
              "internalType": "uint256",
              "name": "id",
              "type": "uint256"
            },
            {
              "internalType": "address",
              "name": "owner",
              "type": "address"
            },
            {
              "internalType": "uint256",
              "name": "price",
              "type": "uint256"
            },
            {
              "internalType": "string",
              "name": "title",
              "type": "string"
            },
            {
              "internalType": "string",
              "name": "description",
              "type": "string"
            },
            {
              "internalType": "string[]",
              "name": "uris",
              "type": "string[]"
            },
            {
              "internalType": "bool",
              "name": "onSale",
              "type": "bool"
            }
          ],
          "internalType": "struct BlockdemyCourse.TokenProps",
          "name": "",
          "type": "tuple"
        }
      ],
      "stateMutability": "view",
      "type": "function",
      "constant": true
    },
    {
      "inputs": [],
      "name": "getAllCourses",
      "outputs": [
        {
          "components": [
            {
              "internalType": "uint256",
              "name": "id",
              "type": "uint256"
            },
            {
              "internalType": "address",
              "name": "owner",
              "type": "address"
            },
            {
              "internalType": "uint256",
              "name": "price",
              "type": "uint256"
            },
            {
              "internalType": "string",
              "name": "title",
              "type": "string"
            },
            {
              "internalType": "string",
              "name": "description",
              "type": "string"
            },
            {
              "internalType": "string[]",
              "name": "uris",
              "type": "string[]"
            },
            {
              "internalType": "bool",
              "name": "onSale",
              "type": "bool"
            }
          ],
          "internalType": "struct BlockdemyCourse.TokenProps[]",
          "name": "",
          "type": "tuple[]"
        }
      ],
      "stateMutability": "view",
      "type": "function",
      "constant": true
    }
  ],
  "bytecode": "0x60806040523480156200001157600080fd5b506040518060400160405280600c81526020017f4244454d5920436f7572736500000000000000000000000000000000000000008152506040518060400160405280600681526020017f4244454d59430000000000000000000000000000000000000000000000000000815250816000908051906020019062000096929190620000b8565b508060019080519060200190620000af929190620000b8565b505050620001cd565b828054620000c69062000168565b90600052602060002090601f016020900481019282620000ea576000855562000136565b82601f106200010557805160ff191683800117855562000136565b8280016001018555821562000136579182015b828111156200013557825182559160200191906001019062000118565b5b50905062000145919062000149565b5090565b5b80821115620001645760008160009055506001016200014a565b5090565b600060028204905060018216806200018157607f821691505b602082108114156200019857620001976200019e565b5b50919050565b7f4e487b7100000000000000000000000000000000000000000000000000000000600052602260045260246000fd5b6145c580620001dd6000396000f3fe608060405234801561001057600080fd5b50600436106101735760003560e01c80636352211e116100de578063b88d4fde11610097578063c87b56dd11610071578063c87b56dd14610442578063e985e9c514610472578063ea5b210f146104a2578063eb685c47146104d257610173565b8063b88d4fde146103da578063bed34bba146103f6578063c0da00c61461042657610173565b80636352211e146103085780636f2c408b1461033857806370a08231146103545780637b286c9b1461038457806395d89b41146103a0578063a22cb465146103be57610173565b806310e6c3431161013057806310e6c3431461024c57806323b872dd1461027c5780632449a88a14610298578063246a908b146102b457806342842e0e146102d057806347b99a21146102ec57610173565b806301ffc9a71461017857806304e48bd1146101a857806306fdde03146101c6578063081812fc146101e4578063095ea7b3146102145780630b8d27c314610230575b600080fd5b610192600480360381019061018d9190613183565b6104ee565b60405161019f9190613e0c565b60405180910390f35b6101b06105d0565b6040516101bd9190613dea565b60405180910390f35b6101ce610990565b6040516101db9190613e27565b60405180910390f35b6101fe60048036038101906101f99190613241565b610a22565b60405161020b9190613d83565b60405180910390f35b61022e60048036038101906102299190613147565b610aa7565b005b61024a6004803603810190610245919061334e565b610bbf565b005b61026660048036038101906102619190613076565b610cc9565b60405161027391906140ab565b60405180910390f35b61029660048036038101906102919190612f70565b610d39565b005b6102b260048036038101906102ad91906132be565b610d99565b005b6102ce60048036038101906102c991906132fa565b610e8a565b005b6102ea60048036038101906102e59190612f70565b610f78565b005b610306600480360381019061030191906132fa565b610f98565b005b610322600480360381019061031d9190613241565b6112a4565b60405161032f9190613d83565b60405180910390f35b610352600480360381019061034d919061326a565b611356565b005b61036e60048036038101906103699190612f0b565b611444565b60405161037b91906140ab565b60405180910390f35b61039e6004803603810190610399919061326a565b6114fc565b005b6103a861166f565b6040516103b59190613e27565b60405180910390f35b6103d860048036038101906103d3919061303a565b611701565b005b6103f460048036038101906103ef9190612fbf565b611882565b005b610410600480360381019061040b91906131d5565b6118e4565b60405161041d9190613e0c565b60405180910390f35b610440600480360381019061043b91906132fa565b61193d565b005b61045c60048036038101906104579190613241565b611a2b565b6040516104699190613e27565b60405180910390f35b61048c60048036038101906104879190612f34565b611ad2565b6040516104999190613e0c565b60405180910390f35b6104bc60048036038101906104b79190613241565b611b66565b6040516104c99190614089565b60405180910390f35b6104ec60048036038101906104e7919061334e565b611e71565b005b60007f80ac58cd000000000000000000000000000000000000000000000000000000007bffffffffffffffffffffffffffffffffffffffffffffffffffffffff1916827bffffffffffffffffffffffffffffffffffffffffffffffffffffffff191614806105b957507f5b5e139f000000000000000000000000000000000000000000000000000000007bffffffffffffffffffffffffffffffffffffffffffffffffffffffff1916827bffffffffffffffffffffffffffffffffffffffffffffffffffffffff1916145b806105c957506105c882611f4f565b5b9050919050565b606060006105de6006611fb9565b67ffffffffffffffff81111561061d577f4e487b7100000000000000000000000000000000000000000000000000000000600052604160045260246000fd5b60405190808252806020026020018201604052801561065657816020015b610643612b8f565b81526020019060019003908161063b5790505b509050600080600190505b600161066d6006611fb9565b6106779190614249565b8110156109875760006040518060e0016040528083815260200161069a846112a4565b73ffffffffffffffffffffffffffffffffffffffff16815260200160086000858152602001908152602001600020548152602001600a600085815260200190815260200160002080546106ec906143ba565b80601f0160208091040260200160405190810160405280929190818152602001828054610718906143ba565b80156107655780601f1061073a57610100808354040283529160200191610765565b820191906000526020600020905b81548152906001019060200180831161074857829003601f168201915b50505050508152602001600b6000858152602001908152602001600020805461078d906143ba565b80601f01602080910402602001604051908101604052809291908181526020018280546107b9906143ba565b80156108065780601f106107db57610100808354040283529160200191610806565b820191906000526020600020905b8154815290600101906020018083116107e957829003601f168201915b5050505050815260200160076000858152602001908152602001600020805480602002602001604051908101604052809291908181526020016000905b828210156108ef578382906000526020600020018054610862906143ba565b80601f016020809104026020016040519081016040528092919081815260200182805461088e906143ba565b80156108db5780601f106108b0576101008083540402835291602001916108db565b820191906000526020600020905b8154815290600101906020018083116108be57829003601f168201915b505050505081526020019060010190610843565b5050505081526020016009600085815260200190815260200160002060009054906101000a900460ff16151581525090508084848151811061095a577f4e487b7100000000000000000000000000000000000000000000000000000000600052603260045260246000fd5b60200260200101819052508280610970906143ec565b93505050808061097f906143ec565b915050610661565b50819250505090565b60606000805461099f906143ba565b80601f01602080910402602001604051908101604052809291908181526020018280546109cb906143ba565b8015610a185780601f106109ed57610100808354040283529160200191610a18565b820191906000526020600020905b8154815290600101906020018083116109fb57829003601f168201915b5050505050905090565b6000610a2d82611fc7565b610a6c576040517f08c379a0000000000000000000000000000000000000000000000000000000008152600401610a6390613f89565b60405180910390fd5b6004600083815260200190815260200160002060009054906101000a900473ffffffffffffffffffffffffffffffffffffffff169050919050565b6000610ab2826112a4565b90508073ffffffffffffffffffffffffffffffffffffffff168373ffffffffffffffffffffffffffffffffffffffff161415610b23576040517f08c379a0000000000000000000000000000000000000000000000000000000008152600401610b1a90614009565b60405180910390fd5b8073ffffffffffffffffffffffffffffffffffffffff16610b42612033565b73ffffffffffffffffffffffffffffffffffffffff161480610b715750610b7081610b6b612033565b611ad2565b5b610bb0576040517f08c379a0000000000000000000000000000000000000000000000000000000008152600401610ba790613f09565b60405180910390fd5b610bba838361203b565b505050565b813373ffffffffffffffffffffffffffffffffffffffff16610be0826112a4565b73ffffffffffffffffffffffffffffffffffffffff1614610c36576040517f08c379a0000000000000000000000000000000000000000000000000000000008152600401610c2d90613fa9565b60405180910390fd5b82610c4081611fc7565b610c7f576040517f08c379a0000000000000000000000000000000000000000000000000000000008152600401610c7690614069565b60405180910390fd5b60016009600086815260200190815260200160002060006101000a81548160ff02191690831515021790555082600860008681526020019081526020016000208190555050505050565b6000808311610cd757600080fd5b610ce160066120f4565b6000610ced6006611fb9565b9050610cf9888261210a565b610d038185611e71565b610d0d8186611356565b610d178184610d99565b610d21818861193d565b610d2b8187610e8a565b809150509695505050505050565b610d4a610d44612033565b826122d8565b610d89576040517f08c379a0000000000000000000000000000000000000000000000000000000008152600401610d8090614029565b60405180910390fd5b610d948383836123b6565b505050565b81610da381611fc7565b610de2576040517f08c379a0000000000000000000000000000000000000000000000000000000008152600401610dd990614069565b60405180910390fd5b823373ffffffffffffffffffffffffffffffffffffffff16610e03826112a4565b73ffffffffffffffffffffffffffffffffffffffff1614610e59576040517f08c379a0000000000000000000000000000000000000000000000000000000008152600401610e5090613fa9565b60405180910390fd5b826009600086815260200190815260200160002060006101000a81548160ff02191690831515021790555050505050565b81610e9481611fc7565b610ed3576040517f08c379a0000000000000000000000000000000000000000000000000000000008152600401610eca90614069565b60405180910390fd5b823373ffffffffffffffffffffffffffffffffffffffff16610ef4826112a4565b73ffffffffffffffffffffffffffffffffffffffff1614610f4a576040517f08c379a0000000000000000000000000000000000000000000000000000000008152600401610f4190613fa9565b60405180910390fd5b82600b60008681526020019081526020016000209080519060200190610f71929190612be4565b5050505050565b610f9383838360405180602001604052806000815250611882565b505050565b81610fa281611fc7565b610fe1576040517f08c379a0000000000000000000000000000000000000000000000000000000008152600401610fd890614069565b60405180910390fd5b823373ffffffffffffffffffffffffffffffffffffffff16611002826112a4565b73ffffffffffffffffffffffffffffffffffffffff1614611058576040517f08c379a000000000000000000000000000000000000000000000000000000000815260040161104f90613fa9565b60405180910390fd5b60006110648585612612565b9050600060076000878152602001908152602001600020805480602002602001604051908101604052809291908181526020016000905b828210156111475783829060005260206000200180546110ba906143ba565b80601f01602080910402602001604051908101604052809291908181526020018280546110e6906143ba565b80156111335780601f1061110857610100808354040283529160200191611133565b820191906000526020600020905b81548152906001019060200180831161111657829003601f168201915b50505050508152602001906001019061109b565b50505050905060008290505b6001825161116191906142d0565b81101561120c57816001826111769190614249565b815181106111ad577f4e487b7100000000000000000000000000000000000000000000000000000000600052603260045260246000fd5b60200260200101518282815181106111ee577f4e487b7100000000000000000000000000000000000000000000000000000000600052603260045260246000fd5b60200260200101819052508080611204906143ec565b915050611153565b5080600760008881526020019081526020016000209080519060200190611234929190612c6a565b506007600087815260200190815260200160002080548061127e577f4e487b7100000000000000000000000000000000000000000000000000000000600052603160045260246000fd5b60019003818190600052602060002001600061129a9190612cca565b9055505050505050565b6000806002600084815260200190815260200160002060009054906101000a900473ffffffffffffffffffffffffffffffffffffffff169050600073ffffffffffffffffffffffffffffffffffffffff168173ffffffffffffffffffffffffffffffffffffffff16141561134d576040517f08c379a000000000000000000000000000000000000000000000000000000000815260040161134490613f49565b60405180910390fd5b80915050919050565b8161136081611fc7565b61139f576040517f08c379a000000000000000000000000000000000000000000000000000000000815260040161139690614069565b60405180910390fd5b823373ffffffffffffffffffffffffffffffffffffffff166113c0826112a4565b73ffffffffffffffffffffffffffffffffffffffff1614611416576040517f08c379a000000000000000000000000000000000000000000000000000000000815260040161140d90613fa9565b60405180910390fd5b8260076000868152602001908152602001600020908051906020019061143d929190612c6a565b5050505050565b60008073ffffffffffffffffffffffffffffffffffffffff168273ffffffffffffffffffffffffffffffffffffffff1614156114b5576040517f08c379a00000000000000000000000000000000000000000000000000000000081526004016114ac90613f29565b60405180910390fd5b600360008373ffffffffffffffffffffffffffffffffffffffff1673ffffffffffffffffffffffffffffffffffffffff168152602001908152602001600020549050919050565b8161150681611fc7565b611545576040517f08c379a000000000000000000000000000000000000000000000000000000000815260040161153c90614069565b60405180910390fd5b823373ffffffffffffffffffffffffffffffffffffffff16611566826112a4565b73ffffffffffffffffffffffffffffffffffffffff16146115bc576040517f08c379a00000000000000000000000000000000000000000000000000000000081526004016115b390613fa9565b60405180910390fd5b60005b83518110156116685760076000868152602001908152602001600020848281518110611614577f4e487b7100000000000000000000000000000000000000000000000000000000600052603260045260246000fd5b6020026020010151908060018154018082558091505060019003906000526020600020016000909190919091509080519060200190611654929190612be4565b508080611660906143ec565b9150506115bf565b5050505050565b60606001805461167e906143ba565b80601f01602080910402602001604051908101604052809291908181526020018280546116aa906143ba565b80156116f75780601f106116cc576101008083540402835291602001916116f7565b820191906000526020600020905b8154815290600101906020018083116116da57829003601f168201915b5050505050905090565b611709612033565b73ffffffffffffffffffffffffffffffffffffffff168273ffffffffffffffffffffffffffffffffffffffff161415611777576040517f08c379a000000000000000000000000000000000000000000000000000000000815260040161176e90613ea9565b60405180910390fd5b8060056000611784612033565b73ffffffffffffffffffffffffffffffffffffffff1673ffffffffffffffffffffffffffffffffffffffff16815260200190815260200160002060008473ffffffffffffffffffffffffffffffffffffffff1673ffffffffffffffffffffffffffffffffffffffff16815260200190815260200160002060006101000a81548160ff0219169083151502179055508173ffffffffffffffffffffffffffffffffffffffff16611831612033565b73ffffffffffffffffffffffffffffffffffffffff167f17307eab39ab6107e8899845ad3d59bd9653f200f220920489ca2b5937696c31836040516118769190613e0c565b60405180910390a35050565b61189361188d612033565b836122d8565b6118d2576040517f08c379a00000000000000000000000000000000000000000000000000000000081526004016118c990614029565b60405180910390fd5b6118de848484846127c0565b50505050565b6000816040516020016118f79190613d48565b604051602081830303815290604052805190602001208360405160200161191e9190613d48565b6040516020818303038152906040528051906020012014905092915050565b8161194781611fc7565b611986576040517f08c379a000000000000000000000000000000000000000000000000000000000815260040161197d90614069565b60405180910390fd5b823373ffffffffffffffffffffffffffffffffffffffff166119a7826112a4565b73ffffffffffffffffffffffffffffffffffffffff16146119fd576040517f08c379a00000000000000000000000000000000000000000000000000000000081526004016119f490613fa9565b60405180910390fd5b82600a60008681526020019081526020016000209080519060200190611a24929190612be4565b5050505050565b6060611a3682611fc7565b611a75576040517f08c379a0000000000000000000000000000000000000000000000000000000008152600401611a6c90613fe9565b60405180910390fd5b6000611a7f61281c565b90506000815111611a9f5760405180602001604052806000815250611aca565b80611aa984612833565b604051602001611aba929190613d5f565b6040516020818303038152906040525b915050919050565b6000600560008473ffffffffffffffffffffffffffffffffffffffff1673ffffffffffffffffffffffffffffffffffffffff16815260200190815260200160002060008373ffffffffffffffffffffffffffffffffffffffff1673ffffffffffffffffffffffffffffffffffffffff16815260200190815260200160002060009054906101000a900460ff16905092915050565b611b6e612b8f565b600082118015611b875750611b836006611fb9565b8211155b611bc6576040517f08c379a0000000000000000000000000000000000000000000000000000000008152600401611bbd90614049565b60405180910390fd5b60006040518060e00160405280848152602001611be2856112a4565b73ffffffffffffffffffffffffffffffffffffffff16815260200160086000868152602001908152602001600020548152602001600a60008681526020019081526020016000208054611c34906143ba565b80601f0160208091040260200160405190810160405280929190818152602001828054611c60906143ba565b8015611cad5780601f10611c8257610100808354040283529160200191611cad565b820191906000526020600020905b815481529060010190602001808311611c9057829003601f168201915b50505050508152602001600b60008681526020019081526020016000208054611cd5906143ba565b80601f0160208091040260200160405190810160405280929190818152602001828054611d01906143ba565b8015611d4e5780601f10611d2357610100808354040283529160200191611d4e565b820191906000526020600020905b815481529060010190602001808311611d3157829003601f168201915b5050505050815260200160076000868152602001908152602001600020805480602002602001604051908101604052809291908181526020016000905b82821015611e37578382906000526020600020018054611daa906143ba565b80601f0160208091040260200160405190810160405280929190818152602001828054611dd6906143ba565b8015611e235780601f10611df857610100808354040283529160200191611e23565b820191906000526020600020905b815481529060010190602001808311611e0657829003601f168201915b505050505081526020019060010190611d8b565b5050505081526020016009600086815260200190815260200160002060009054906101000a900460ff161515815250905080915050919050565b81611e7b81611fc7565b611eba576040517f08c379a0000000000000000000000000000000000000000000000000000000008152600401611eb190614069565b60405180910390fd5b823373ffffffffffffffffffffffffffffffffffffffff16611edb826112a4565b73ffffffffffffffffffffffffffffffffffffffff1614611f31576040517f08c379a0000000000000000000000000000000000000000000000000000000008152600401611f2890613fa9565b60405180910390fd5b82600860008681526020019081526020016000208190555050505050565b60007f01ffc9a7000000000000000000000000000000000000000000000000000000007bffffffffffffffffffffffffffffffffffffffffffffffffffffffff1916827bffffffffffffffffffffffffffffffffffffffffffffffffffffffff1916149050919050565b600081600001549050919050565b60008073ffffffffffffffffffffffffffffffffffffffff166002600084815260200190815260200160002060009054906101000a900473ffffffffffffffffffffffffffffffffffffffff1673ffffffffffffffffffffffffffffffffffffffff1614159050919050565b600033905090565b816004600083815260200190815260200160002060006101000a81548173ffffffffffffffffffffffffffffffffffffffff021916908373ffffffffffffffffffffffffffffffffffffffff160217905550808273ffffffffffffffffffffffffffffffffffffffff166120ae836112a4565b73ffffffffffffffffffffffffffffffffffffffff167f8c5be1e5ebec7d5bd14f71427d1e84f3dd0314c0f7b2291e5b200ac8c7c3b92560405160405180910390a45050565b6001816000016000828254019250508190555050565b600073ffffffffffffffffffffffffffffffffffffffff168273ffffffffffffffffffffffffffffffffffffffff16141561217a576040517f08c379a000000000000000000000000000000000000000000000000000000000815260040161217190613f69565b60405180910390fd5b61218381611fc7565b156121c3576040517f08c379a00000000000000000000000000000000000000000000000000000000081526004016121ba90613e69565b60405180910390fd5b6121cf600083836129e0565b6001600360008473ffffffffffffffffffffffffffffffffffffffff1673ffffffffffffffffffffffffffffffffffffffff168152602001908152602001600020600082825461221f9190614249565b92505081905550816002600083815260200190815260200160002060006101000a81548173ffffffffffffffffffffffffffffffffffffffff021916908373ffffffffffffffffffffffffffffffffffffffff160217905550808273ffffffffffffffffffffffffffffffffffffffff16600073ffffffffffffffffffffffffffffffffffffffff167fddf252ad1be2c89b69c2b068fc378daa952ba7f163c4a11628f55a4df523b3ef60405160405180910390a45050565b60006122e382611fc7565b612322576040517f08c379a000000000000000000000000000000000000000000000000000000000815260040161231990613ee9565b60405180910390fd5b600061232d836112a4565b90508073ffffffffffffffffffffffffffffffffffffffff168473ffffffffffffffffffffffffffffffffffffffff16148061239c57508373ffffffffffffffffffffffffffffffffffffffff1661238484610a22565b73ffffffffffffffffffffffffffffffffffffffff16145b806123ad57506123ac8185611ad2565b5b91505092915050565b8273ffffffffffffffffffffffffffffffffffffffff166123d6826112a4565b73ffffffffffffffffffffffffffffffffffffffff161461242c576040517f08c379a000000000000000000000000000000000000000000000000000000000815260040161242390613fc9565b60405180910390fd5b600073ffffffffffffffffffffffffffffffffffffffff168273ffffffffffffffffffffffffffffffffffffffff16141561249c576040517f08c379a000000000000000000000000000000000000000000000000000000000815260040161249390613e89565b60405180910390fd5b6124a78383836129e0565b6124b260008261203b565b6001600360008573ffffffffffffffffffffffffffffffffffffffff1673ffffffffffffffffffffffffffffffffffffffff168152602001908152602001600020600082825461250291906142d0565b925050819055506001600360008473ffffffffffffffffffffffffffffffffffffffff1673ffffffffffffffffffffffffffffffffffffffff16815260200190815260200160002060008282546125599190614249565b92505081905550816002600083815260200190815260200160002060006101000a81548173ffffffffffffffffffffffffffffffffffffffff021916908373ffffffffffffffffffffffffffffffffffffffff160217905550808273ffffffffffffffffffffffffffffffffffffffff168473ffffffffffffffffffffffffffffffffffffffff167fddf252ad1be2c89b69c2b068fc378daa952ba7f163c4a11628f55a4df523b3ef60405160405180910390a4505050565b60008060076000858152602001908152602001600020805480602002602001604051908101604052809291908181526020016000905b828210156126f4578382906000526020600020018054612667906143ba565b80601f0160208091040260200160405190810160405280929190818152602001828054612693906143ba565b80156126e05780601f106126b5576101008083540402835291602001916126e0565b820191906000526020600020905b8154815290600101906020018083116126c357829003601f168201915b505050505081526020019060010190612648565b50505050905060005b6001825161270b91906142d0565b81101561277e5761275c82828151811061274e577f4e487b7100000000000000000000000000000000000000000000000000000000600052603260045260246000fd5b6020026020010151856118e4565b1561276b5780925050506127ba565b8080612776906143ec565b9150506126fd565b506040517f08c379a00000000000000000000000000000000000000000000000000000000081526004016127b190613ec9565b60405180910390fd5b92915050565b6127cb8484846123b6565b6127d7848484846129e5565b612816576040517f08c379a000000000000000000000000000000000000000000000000000000000815260040161280d90613e49565b60405180910390fd5b50505050565b606060405180602001604052806000815250905090565b6060600082141561287b576040518060400160405280600181526020017f300000000000000000000000000000000000000000000000000000000000000081525090506129db565b600082905060005b600082146128ad578080612896906143ec565b915050600a826128a6919061429f565b9150612883565b60008167ffffffffffffffff8111156128ef577f4e487b7100000000000000000000000000000000000000000000000000000000600052604160045260246000fd5b6040519080825280601f01601f1916602001820160405280156129215781602001600182028036833780820191505090505b5090505b600085146129d45760018261293a91906142d0565b9150600a856129499190614435565b60306129559190614249565b60f81b818381518110612991577f4e487b7100000000000000000000000000000000000000000000000000000000600052603260045260246000fd5b60200101907effffffffffffffffffffffffffffffffffffffffffffffffffffffffffffff1916908160001a905350600a856129cd919061429f565b9450612925565b8093505050505b919050565b505050565b6000612a068473ffffffffffffffffffffffffffffffffffffffff16612b7c565b15612b6f578373ffffffffffffffffffffffffffffffffffffffff1663150b7a02612a2f612033565b8786866040518563ffffffff1660e01b8152600401612a519493929190613d9e565b602060405180830381600087803b158015612a6b57600080fd5b505af1925050508015612a9c57506040513d601f19601f82011682018060405250810190612a9991906131ac565b60015b612b1f573d8060008114612acc576040519150601f19603f3d011682016040523d82523d6000602084013e612ad1565b606091505b50600081511415612b17576040517f08c379a0000000000000000000000000000000000000000000000000000000008152600401612b0e90613e49565b60405180910390fd5b805181602001fd5b63150b7a0260e01b7bffffffffffffffffffffffffffffffffffffffffffffffffffffffff1916817bffffffffffffffffffffffffffffffffffffffffffffffffffffffff191614915050612b74565b600190505b949350505050565b600080823b905060008111915050919050565b6040518060e0016040528060008152602001600073ffffffffffffffffffffffffffffffffffffffff168152602001600081526020016060815260200160608152602001606081526020016000151581525090565b828054612bf0906143ba565b90600052602060002090601f016020900481019282612c125760008555612c59565b82601f10612c2b57805160ff1916838001178555612c59565b82800160010185558215612c59579182015b82811115612c58578251825591602001919060010190612c3d565b5b509050612c669190612d0a565b5090565b828054828255906000526020600020908101928215612cb9579160200282015b82811115612cb8578251829080519060200190612ca8929190612be4565b5091602001919060010190612c8a565b5b509050612cc69190612d27565b5090565b508054612cd6906143ba565b6000825580601f10612ce85750612d07565b601f016020900490600052602060002090810190612d069190612d0a565b5b50565b5b80821115612d23576000816000905550600101612d0b565b5090565b5b80821115612d475760008181612d3e9190612cca565b50600101612d28565b5090565b6000612d5e612d59846140f7565b6140c6565b9050808382526020820190508260005b85811015612d9e5781358501612d848882612ecc565b845260208401935060208301925050600181019050612d6e565b5050509392505050565b6000612dbb612db684614123565b6140c6565b905082815260208101848484011115612dd357600080fd5b612dde848285614378565b509392505050565b6000612df9612df484614153565b6140c6565b905082815260208101848484011115612e1157600080fd5b612e1c848285614378565b509392505050565b600081359050612e3381614533565b92915050565b600082601f830112612e4a57600080fd5b8135612e5a848260208601612d4b565b91505092915050565b600081359050612e728161454a565b92915050565b600081359050612e8781614561565b92915050565b600081519050612e9c81614561565b92915050565b600082601f830112612eb357600080fd5b8135612ec3848260208601612da8565b91505092915050565b600082601f830112612edd57600080fd5b8135612eed848260208601612de6565b91505092915050565b600081359050612f0581614578565b92915050565b600060208284031215612f1d57600080fd5b6000612f2b84828501612e24565b91505092915050565b60008060408385031215612f4757600080fd5b6000612f5585828601612e24565b9250506020612f6685828601612e24565b9150509250929050565b600080600060608486031215612f8557600080fd5b6000612f9386828701612e24565b9350506020612fa486828701612e24565b9250506040612fb586828701612ef6565b9150509250925092565b60008060008060808587031215612fd557600080fd5b6000612fe387828801612e24565b9450506020612ff487828801612e24565b935050604061300587828801612ef6565b925050606085013567ffffffffffffffff81111561302257600080fd5b61302e87828801612ea2565b91505092959194509250565b6000806040838503121561304d57600080fd5b600061305b85828601612e24565b925050602061306c85828601612e63565b9150509250929050565b60008060008060008060c0878903121561308f57600080fd5b600061309d89828a01612e24565b965050602087013567ffffffffffffffff8111156130ba57600080fd5b6130c689828a01612ecc565b955050604087013567ffffffffffffffff8111156130e357600080fd5b6130ef89828a01612ecc565b945050606087013567ffffffffffffffff81111561310c57600080fd5b61311889828a01612e39565b935050608061312989828a01612ef6565b92505060a061313a89828a01612e63565b9150509295509295509295565b6000806040838503121561315a57600080fd5b600061316885828601612e24565b925050602061317985828601612ef6565b9150509250929050565b60006020828403121561319557600080fd5b60006131a384828501612e78565b91505092915050565b6000602082840312156131be57600080fd5b60006131cc84828501612e8d565b91505092915050565b600080604083850312156131e857600080fd5b600083013567ffffffffffffffff81111561320257600080fd5b61320e85828601612ecc565b925050602083013567ffffffffffffffff81111561322b57600080fd5b61323785828601612ecc565b9150509250929050565b60006020828403121561325357600080fd5b600061326184828501612ef6565b91505092915050565b6000806040838503121561327d57600080fd5b600061328b85828601612ef6565b925050602083013567ffffffffffffffff8111156132a857600080fd5b6132b485828601612e39565b9150509250929050565b600080604083850312156132d157600080fd5b60006132df85828601612ef6565b92505060206132f085828601612e63565b9150509250929050565b6000806040838503121561330d57600080fd5b600061331b85828601612ef6565b925050602083013567ffffffffffffffff81111561333857600080fd5b61334485828601612ecc565b9150509250929050565b6000806040838503121561336157600080fd5b600061336f85828601612ef6565b925050602061338085828601612ef6565b9150509250929050565b60006133968383613511565b905092915050565b60006133aa8383613bd6565b905092915050565b6133bb81614304565b82525050565b6133ca81614304565b82525050565b60006133db826141a3565b6133e581856141e9565b9350836020820285016133f785614183565b8060005b858110156134335784840389528151613414858261338a565b945061341f836141cf565b925060208a019950506001810190506133fb565b50829750879550505050505092915050565b6000613450826141ae565b61345a81856141fa565b93508360208202850161346c85614193565b8060005b858110156134a85784840389528151613489858261339e565b9450613494836141dc565b925060208a01995050600181019050613470565b50829750879550505050505092915050565b6134c381614316565b82525050565b6134d281614316565b82525050565b60006134e3826141b9565b6134ed818561420b565b93506134fd818560208601614387565b61350681614522565b840191505092915050565b600061351c826141c4565b613526818561421c565b9350613536818560208601614387565b61353f81614522565b840191505092915050565b6000613555826141c4565b61355f818561422d565b935061356f818560208601614387565b61357881614522565b840191505092915050565b600061358e826141c4565b613598818561423e565b93506135a8818560208601614387565b80840191505092915050565b60006135c160328361422d565b91507f4552433732313a207472616e7366657220746f206e6f6e20455243373231526560008301527f63656976657220696d706c656d656e74657200000000000000000000000000006020830152604082019050919050565b6000613627601c8361422d565b91507f4552433732313a20746f6b656e20616c7265616479206d696e746564000000006000830152602082019050919050565b600061366760248361422d565b91507f4552433732313a207472616e7366657220746f20746865207a65726f2061646460008301527f72657373000000000000000000000000000000000000000000000000000000006020830152604082019050919050565b60006136cd60198361422d565b91507f4552433732313a20617070726f766520746f2063616c6c6572000000000000006000830152602082019050919050565b600061370d60118361422d565b91507f6e6f6e206578697374656e7420686173680000000000000000000000000000006000830152602082019050919050565b600061374d602c8361422d565b91507f4552433732313a206f70657261746f7220717565727920666f72206e6f6e657860008301527f697374656e7420746f6b656e00000000000000000000000000000000000000006020830152604082019050919050565b60006137b360388361422d565b91507f4552433732313a20617070726f76652063616c6c6572206973206e6f74206f7760008301527f6e6572206e6f7220617070726f76656420666f7220616c6c00000000000000006020830152604082019050919050565b6000613819602a8361422d565b91507f4552433732313a2062616c616e636520717565727920666f7220746865207a6560008301527f726f2061646472657373000000000000000000000000000000000000000000006020830152604082019050919050565b600061387f60298361422d565b91507f4552433732313a206f776e657220717565727920666f72206e6f6e657869737460008301527f656e7420746f6b656e00000000000000000000000000000000000000000000006020830152604082019050919050565b60006138e560208361422d565b91507f4552433732313a206d696e7420746f20746865207a65726f20616464726573736000830152602082019050919050565b6000613925602c8361422d565b91507f4552433732313a20617070726f76656420717565727920666f72206e6f6e657860008301527f697374656e7420746f6b656e00000000000000000000000000000000000000006020830152604082019050919050565b600061398b60178361422d565b91507f63616c6c6572206973206e6f7420746865206f776e65720000000000000000006000830152602082019050919050565b60006139cb60298361422d565b91507f4552433732313a207472616e73666572206f6620746f6b656e2074686174206960008301527f73206e6f74206f776e00000000000000000000000000000000000000000000006020830152604082019050919050565b6000613a31602f8361422d565b91507f4552433732314d657461646174613a2055524920717565727920666f72206e6f60008301527f6e6578697374656e7420746f6b656e00000000000000000000000000000000006020830152604082019050919050565b6000613a9760218361422d565b91507f4552433732313a20617070726f76616c20746f2063757272656e74206f776e6560008301527f72000000000000000000000000000000000000000000000000000000000000006020830152604082019050919050565b6000613afd60318361422d565b91507f4552433732313a207472616e736665722063616c6c6572206973206e6f74206f60008301527f776e6572206e6f7220617070726f7665640000000000000000000000000000006020830152604082019050919050565b6000613b63600e8361422d565b91507f77726f6e6720746f6b656e2069640000000000000000000000000000000000006000830152602082019050919050565b6000613ba360148361422d565b91507f746f6b656e20646f6573206e6f742065786973740000000000000000000000006000830152602082019050919050565b600060e083016000830151613bee6000860182613d2a565b506020830151613c0160208601826133b2565b506040830151613c146040860182613d2a565b5060608301518482036060860152613c2c8282613511565b91505060808301518482036080860152613c468282613511565b91505060a083015184820360a0860152613c6082826133d0565b91505060c0830151613c7560c08601826134ba565b508091505092915050565b600060e083016000830151613c986000860182613d2a565b506020830151613cab60208601826133b2565b506040830151613cbe6040860182613d2a565b5060608301518482036060860152613cd68282613511565b91505060808301518482036080860152613cf08282613511565b91505060a083015184820360a0860152613d0a82826133d0565b91505060c0830151613d1f60c08601826134ba565b508091505092915050565b613d338161436e565b82525050565b613d428161436e565b82525050565b6000613d548284613583565b915081905092915050565b6000613d6b8285613583565b9150613d778284613583565b91508190509392505050565b6000602082019050613d9860008301846133c1565b92915050565b6000608082019050613db360008301876133c1565b613dc060208301866133c1565b613dcd6040830185613d39565b8181036060830152613ddf81846134d8565b905095945050505050565b60006020820190508181036000830152613e048184613445565b905092915050565b6000602082019050613e2160008301846134c9565b92915050565b60006020820190508181036000830152613e41818461354a565b905092915050565b60006020820190508181036000830152613e62816135b4565b9050919050565b60006020820190508181036000830152613e828161361a565b9050919050565b60006020820190508181036000830152613ea28161365a565b9050919050565b60006020820190508181036000830152613ec2816136c0565b9050919050565b60006020820190508181036000830152613ee281613700565b9050919050565b60006020820190508181036000830152613f0281613740565b9050919050565b60006020820190508181036000830152613f22816137a6565b9050919050565b60006020820190508181036000830152613f428161380c565b9050919050565b60006020820190508181036000830152613f6281613872565b9050919050565b60006020820190508181036000830152613f82816138d8565b9050919050565b60006020820190508181036000830152613fa281613918565b9050919050565b60006020820190508181036000830152613fc28161397e565b9050919050565b60006020820190508181036000830152613fe2816139be565b9050919050565b6000602082019050818103600083015261400281613a24565b9050919050565b6000602082019050818103600083015261402281613a8a565b9050919050565b6000602082019050818103600083015261404281613af0565b9050919050565b6000602082019050818103600083015261406281613b56565b9050919050565b6000602082019050818103600083015261408281613b96565b9050919050565b600060208201905081810360008301526140a38184613c80565b905092915050565b60006020820190506140c06000830184613d39565b92915050565b6000604051905081810181811067ffffffffffffffff821117156140ed576140ec6144f3565b5b8060405250919050565b600067ffffffffffffffff821115614112576141116144f3565b5b602082029050602081019050919050565b600067ffffffffffffffff82111561413e5761413d6144f3565b5b601f19601f8301169050602081019050919050565b600067ffffffffffffffff82111561416e5761416d6144f3565b5b601f19601f8301169050602081019050919050565b6000819050602082019050919050565b6000819050602082019050919050565b600081519050919050565b600081519050919050565b600081519050919050565b600081519050919050565b6000602082019050919050565b6000602082019050919050565b600082825260208201905092915050565b600082825260208201905092915050565b600082825260208201905092915050565b600082825260208201905092915050565b600082825260208201905092915050565b600081905092915050565b60006142548261436e565b915061425f8361436e565b9250827fffffffffffffffffffffffffffffffffffffffffffffffffffffffffffffffff0382111561429457614293614466565b5b828201905092915050565b60006142aa8261436e565b91506142b58361436e565b9250826142c5576142c4614495565b5b828204905092915050565b60006142db8261436e565b91506142e68361436e565b9250828210156142f9576142f8614466565b5b828203905092915050565b600061430f8261434e565b9050919050565b60008115159050919050565b60007fffffffff0000000000000000000000000000000000000000000000000000000082169050919050565b600073ffffffffffffffffffffffffffffffffffffffff82169050919050565b6000819050919050565b82818337600083830152505050565b60005b838110156143a557808201518184015260208101905061438a565b838111156143b4576000848401525b50505050565b600060028204905060018216806143d257607f821691505b602082108114156143e6576143e56144c4565b5b50919050565b60006143f78261436e565b91507fffffffffffffffffffffffffffffffffffffffffffffffffffffffffffffffff82141561442a57614429614466565b5b600182019050919050565b60006144408261436e565b915061444b8361436e565b92508261445b5761445a614495565b5b828206905092915050565b7f4e487b7100000000000000000000000000000000000000000000000000000000600052601160045260246000fd5b7f4e487b7100000000000000000000000000000000000000000000000000000000600052601260045260246000fd5b7f4e487b7100000000000000000000000000000000000000000000000000000000600052602260045260246000fd5b7f4e487b7100000000000000000000000000000000000000000000000000000000600052604160045260246000fd5b6000601f19601f8301169050919050565b61453c81614304565b811461454757600080fd5b50565b61455381614316565b811461455e57600080fd5b50565b61456a81614322565b811461457557600080fd5b50565b6145818161436e565b811461458c57600080fd5b5056fea2646970667358221220f8b2a32da913edaa81bafb0d08d246af76b0fdff6d47697ef5a3de12e74773ce64736f6c63430008000033",
  "immutableReferences": {},
  "source": "// SPDX-License-Identifier: MIT\r\npragma solidity ^0.8.0;\r\n\r\nimport \"@openzeppelin/contracts/token/ERC721/ERC721.sol\";\r\nimport \"@openzeppelin/contracts/utils/Counters.sol\";\r\n\r\n\r\ncontract BlockdemyCourse is ERC721 {\r\n    using Counters for Counters.Counter;\r\n    Counters.Counter private _tokenIds;\r\n\r\n    mapping(uint256 => string[]) private _tokenUris;\r\n    mapping(uint256 => uint256) private _tokenPrices;\r\n    mapping(uint256 => bool) private _tokenOnSale;\r\n    mapping(uint256 => string) private _tokenTitles;\r\n    mapping(uint256 => string) private _tokenDescriptions;\r\n\r\n    struct TokenProps {\r\n        uint256 id;\r\n        address owner;\r\n        uint256 price;\r\n        string title;\r\n        string description;\r\n        string[] uris;\r\n        bool onSale;\r\n    }\r\n\r\n\r\n    constructor() ERC721(\"BDEMY Course\", \"BDEMYC\") {}\r\n\r\n    function setTokenTitle(uint256 tokenId, string memory _title)\r\n        public\r\n        TokenExists(tokenId)\r\n        IsOwner(tokenId)\r\n    {\r\n        _tokenTitles[tokenId] = _title;\r\n    }\r\n\r\n    function setTokenDescription(uint256 tokenId, string memory _description)\r\n        public\r\n        TokenExists(tokenId)\r\n        IsOwner(tokenId)\r\n    {\r\n        _tokenDescriptions[tokenId] = _description;\r\n    }\r\n\r\n    function setTokenOnSale(uint256 tokenId, bool _sale)\r\n        public\r\n        TokenExists(tokenId)\r\n        IsOwner(tokenId)\r\n    {\r\n        _tokenOnSale[tokenId] = _sale;\r\n    }\r\n\r\n    function setTokenPrice(uint256 tokenId, uint256 _price)\r\n        public\r\n        TokenExists(tokenId)\r\n        IsOwner(tokenId)\r\n    {\r\n        _tokenPrices[tokenId] = _price;\r\n    }\r\n\r\n    function setTokenUris(uint256 tokenId, string[] memory _uris)\r\n        public\r\n        TokenExists(tokenId)\r\n        IsOwner(tokenId)\r\n    {\r\n        _tokenUris[tokenId] = _uris;\r\n    }\r\n\r\n\r\n\r\n    function addTokenUris(uint256 tokenId, string[] memory _uris)\r\n        public\r\n        TokenExists(tokenId)\r\n        IsOwner(tokenId)\r\n    {\r\n        for(uint i=0;i<_uris.length;i++){\r\n            _tokenUris[tokenId].push(_uris[i]);\r\n        }\r\n    }\r\n\r\n    modifier TokenExists(uint256 tokenId) {\r\n        require(_exists(tokenId), \"token does not exist\");\r\n        _;\r\n    }\r\n\r\n    modifier IsOwner(uint256 tokenId) {\r\n        require(ownerOf(tokenId) == msg.sender, \"caller is not the owner\");\r\n        _;\r\n    }\r\n\r\n\r\n    function setOnSale(uint256 tokenId,uint amount) external IsOwner(tokenId) TokenExists(tokenId){\r\n            _tokenOnSale[tokenId] = true;\r\n            _tokenPrices[tokenId] = amount;\r\n    }\r\n\r\n    /*\r\n        MINT COURSE DOES A MINT OF THE COURSE WITH ALL THE VIDEOS, IT MUST BE CALLED WHEN THE   \r\n        INSTRUCTOR HAS ALREADY DEFINED THE COURSE IN ITS ENTIRETY (OR AT LEAST THINKS SO), SINCE WE WILL ADD\r\n        OPTIONS TO REMOVE AND POST VIDEOS LATER, BUT REMEMBER THAT EACH INTERACTION COSTS MONEY\r\n    */\r\n    function mintCourse(\r\n        address _owner,\r\n        string memory _title,\r\n        string memory _description,\r\n        string[] memory _uris,\r\n        uint256 _price, //IN USDT\r\n        bool _sale\r\n    ) public returns (uint256) {\r\n        require(_price > 0);\r\n\r\n        _tokenIds.increment();\r\n\r\n        uint256 newItemId = _tokenIds.current();\r\n        _mint(_owner, newItemId);\r\n        setTokenPrice(newItemId, _price);\r\n        setTokenUris(newItemId, _uris);\r\n        setTokenOnSale(newItemId, _sale);\r\n        setTokenTitle(newItemId, _title);\r\n        setTokenDescription(newItemId, _description);\r\n\r\n        return newItemId;\r\n    }\r\n\r\n    function deleteUri(uint256 tokenId, string memory _hash)\r\n        external\r\n        TokenExists(tokenId)\r\n        IsOwner(tokenId)\r\n    {\r\n        uint256 index = getTokenIndexByHash(tokenId, _hash);\r\n        string[] memory uris = _tokenUris[tokenId];\r\n        for (uint256 i = index; i < uris.length - 1; i++) {\r\n            uris[i] = uris[i + 1];\r\n        }\r\n        _tokenUris[tokenId] = uris;\r\n        _tokenUris[tokenId].pop();\r\n    }\r\n\r\n    function getTokenIndexByHash(uint256 tokenId, string memory _hash)\r\n        internal\r\n        view\r\n        returns (uint256)\r\n    {\r\n        string[] memory uris = _tokenUris[tokenId];\r\n        for (uint256 i = 0; i < uris.length - 1; i++) {\r\n            if (compareStrings(uris[i], _hash)) {\r\n                return i;\r\n            }\r\n        }\r\n\r\n        revert(\"non existent hash\");\r\n    }\r\n\r\n    function compareStrings(string memory a, string memory b)\r\n        public\r\n        pure\r\n        returns (bool)\r\n    {\r\n        return (keccak256(abi.encodePacked((a))) ==\r\n            keccak256(abi.encodePacked((b))));\r\n    }\r\n\r\n    function getCourseById(uint256 tokenId)\r\n        public\r\n        view\r\n        returns (TokenProps memory)\r\n    {\r\n        require(\r\n            tokenId > 0 && tokenId <= _tokenIds.current(),\r\n            \"wrong token id\"\r\n        );\r\n        TokenProps memory token = TokenProps(\r\n            tokenId,\r\n            ownerOf(tokenId),\r\n            _tokenPrices[tokenId],\r\n            _tokenTitles[tokenId],\r\n            _tokenDescriptions[tokenId],\r\n            _tokenUris[tokenId],\r\n            _tokenOnSale[tokenId]\r\n        );\r\n        return token;\r\n    }\r\n\r\n    function getAllCourses() public view returns (TokenProps[] memory) {\r\n        TokenProps[] memory tokens = new TokenProps[](_tokenIds.current());\r\n        uint256 counter = 0;\r\n\r\n        for (uint256 i = 1; i < _tokenIds.current() + 1; i++) {\r\n            TokenProps memory token = TokenProps(\r\n                i,\r\n                ownerOf(i),\r\n                _tokenPrices[i],\r\n                _tokenTitles[i],\r\n                _tokenDescriptions[i],\r\n                _tokenUris[i],\r\n                _tokenOnSale[i]\r\n            );\r\n            tokens[counter] = token;\r\n            counter++;\r\n        }\r\n\r\n        return tokens;\r\n    }\r\n}\r\n",
  "sourcePath": "E:\\blockdemy\\contracts\\BlockdemyCourse.sol",
  "compiler": {
    "name": "solc",
    "version": "0.8.0+commit.c7dfd78e.Emscripten.clang"
  },
  "schemaVersion": "3.4.1",
  "updatedAt": "2021-08-14T14:27:08.401Z",
  "networkType": "ethereum",
  "devdoc": {
    "kind": "dev",
    "methods": {
      "approve(address,uint256)": {
        "details": "See {IERC721-approve}."
      },
      "balanceOf(address)": {
        "details": "See {IERC721-balanceOf}."
      },
      "getApproved(uint256)": {
        "details": "See {IERC721-getApproved}."
      },
      "isApprovedForAll(address,address)": {
        "details": "See {IERC721-isApprovedForAll}."
      },
      "name()": {
        "details": "See {IERC721Metadata-name}."
      },
      "ownerOf(uint256)": {
        "details": "See {IERC721-ownerOf}."
      },
      "safeTransferFrom(address,address,uint256)": {
        "details": "See {IERC721-safeTransferFrom}."
      },
      "safeTransferFrom(address,address,uint256,bytes)": {
        "details": "See {IERC721-safeTransferFrom}."
      },
      "setApprovalForAll(address,bool)": {
        "details": "See {IERC721-setApprovalForAll}."
      },
      "supportsInterface(bytes4)": {
        "details": "See {IERC165-supportsInterface}."
      },
      "symbol()": {
        "details": "See {IERC721Metadata-symbol}."
      },
      "tokenURI(uint256)": {
        "details": "See {IERC721Metadata-tokenURI}."
      },
      "transferFrom(address,address,uint256)": {
        "details": "See {IERC721-transferFrom}."
      }
    },
    "version": 1
  },
  "userdoc": {
    "kind": "user",
    "methods": {},
    "version": 1
  }
}