{
  "contractName": "BlockdemyCourse",
  "abi": [
    {
      "inputs": [],
      "stateMutability": "nonpayable",
      "type": "constructor"
    },
    {
      "anonymous": false,
      "inputs": [
        {
          "indexed": true,
          "internalType": "address",
          "name": "owner",
          "type": "address"
        },
        {
          "indexed": true,
          "internalType": "address",
          "name": "approved",
          "type": "address"
        },
        {
          "indexed": true,
          "internalType": "uint256",
          "name": "tokenId",
          "type": "uint256"
        }
      ],
      "name": "Approval",
      "type": "event"
    },
    {
      "anonymous": false,
      "inputs": [
        {
          "indexed": true,
          "internalType": "address",
          "name": "owner",
          "type": "address"
        },
        {
          "indexed": true,
          "internalType": "address",
          "name": "operator",
          "type": "address"
        },
        {
          "indexed": false,
          "internalType": "bool",
          "name": "approved",
          "type": "bool"
        }
      ],
      "name": "ApprovalForAll",
      "type": "event"
    },
    {
      "anonymous": false,
      "inputs": [
        {
          "indexed": true,
          "internalType": "address",
          "name": "from",
          "type": "address"
        },
        {
          "indexed": true,
          "internalType": "address",
          "name": "to",
          "type": "address"
        },
        {
          "indexed": true,
          "internalType": "uint256",
          "name": "tokenId",
          "type": "uint256"
        }
      ],
      "name": "Transfer",
      "type": "event"
    },
    {
      "inputs": [
        {
          "internalType": "address",
          "name": "to",
          "type": "address"
        },
        {
          "internalType": "uint256",
          "name": "tokenId",
          "type": "uint256"
        }
      ],
      "name": "approve",
      "outputs": [],
      "stateMutability": "nonpayable",
      "type": "function"
    },
    {
      "inputs": [
        {
          "internalType": "address",
          "name": "owner",
          "type": "address"
        }
      ],
      "name": "balanceOf",
      "outputs": [
        {
          "internalType": "uint256",
          "name": "",
          "type": "uint256"
        }
      ],
      "stateMutability": "view",
      "type": "function",
      "constant": true
    },
    {
      "inputs": [
        {
          "internalType": "uint256",
          "name": "tokenId",
          "type": "uint256"
        }
      ],
      "name": "getApproved",
      "outputs": [
        {
          "internalType": "address",
          "name": "",
          "type": "address"
        }
      ],
      "stateMutability": "view",
      "type": "function",
      "constant": true
    },
    {
      "inputs": [
        {
          "internalType": "address",
          "name": "owner",
          "type": "address"
        },
        {
          "internalType": "address",
          "name": "operator",
          "type": "address"
        }
      ],
      "name": "isApprovedForAll",
      "outputs": [
        {
          "internalType": "bool",
          "name": "",
          "type": "bool"
        }
      ],
      "stateMutability": "view",
      "type": "function",
      "constant": true
    },
    {
      "inputs": [],
      "name": "name",
      "outputs": [
        {
          "internalType": "string",
          "name": "",
          "type": "string"
        }
      ],
      "stateMutability": "view",
      "type": "function",
      "constant": true
    },
    {
      "inputs": [
        {
          "internalType": "uint256",
          "name": "tokenId",
          "type": "uint256"
        }
      ],
      "name": "ownerOf",
      "outputs": [
        {
          "internalType": "address",
          "name": "",
          "type": "address"
        }
      ],
      "stateMutability": "view",
      "type": "function",
      "constant": true
    },
    {
      "inputs": [
        {
          "internalType": "address",
          "name": "from",
          "type": "address"
        },
        {
          "internalType": "address",
          "name": "to",
          "type": "address"
        },
        {
          "internalType": "uint256",
          "name": "tokenId",
          "type": "uint256"
        }
      ],
      "name": "safeTransferFrom",
      "outputs": [],
      "stateMutability": "nonpayable",
      "type": "function"
    },
    {
      "inputs": [
        {
          "internalType": "address",
          "name": "from",
          "type": "address"
        },
        {
          "internalType": "address",
          "name": "to",
          "type": "address"
        },
        {
          "internalType": "uint256",
          "name": "tokenId",
          "type": "uint256"
        },
        {
          "internalType": "bytes",
          "name": "_data",
          "type": "bytes"
        }
      ],
      "name": "safeTransferFrom",
      "outputs": [],
      "stateMutability": "nonpayable",
      "type": "function"
    },
    {
      "inputs": [
        {
          "internalType": "address",
          "name": "operator",
          "type": "address"
        },
        {
          "internalType": "bool",
          "name": "approved",
          "type": "bool"
        }
      ],
      "name": "setApprovalForAll",
      "outputs": [],
      "stateMutability": "nonpayable",
      "type": "function"
    },
    {
      "inputs": [
        {
          "internalType": "bytes4",
          "name": "interfaceId",
          "type": "bytes4"
        }
      ],
      "name": "supportsInterface",
      "outputs": [
        {
          "internalType": "bool",
          "name": "",
          "type": "bool"
        }
      ],
      "stateMutability": "view",
      "type": "function",
      "constant": true
    },
    {
      "inputs": [],
      "name": "symbol",
      "outputs": [
        {
          "internalType": "string",
          "name": "",
          "type": "string"
        }
      ],
      "stateMutability": "view",
      "type": "function",
      "constant": true
    },
    {
      "inputs": [
        {
          "internalType": "uint256",
          "name": "tokenId",
          "type": "uint256"
        }
      ],
      "name": "tokenURI",
      "outputs": [
        {
          "internalType": "string",
          "name": "",
          "type": "string"
        }
      ],
      "stateMutability": "view",
      "type": "function",
      "constant": true
    },
    {
      "inputs": [
        {
          "internalType": "address",
          "name": "from",
          "type": "address"
        },
        {
          "internalType": "address",
          "name": "to",
          "type": "address"
        },
        {
          "internalType": "uint256",
          "name": "tokenId",
          "type": "uint256"
        }
      ],
      "name": "transferFrom",
      "outputs": [],
      "stateMutability": "nonpayable",
      "type": "function"
    },
    {
      "inputs": [
        {
          "internalType": "uint256",
          "name": "tokenId",
          "type": "uint256"
        },
        {
          "internalType": "string",
          "name": "_title",
          "type": "string"
        }
      ],
      "name": "setTokenTitle",
      "outputs": [],
      "stateMutability": "nonpayable",
      "type": "function"
    },
    {
      "inputs": [
        {
          "internalType": "uint256",
          "name": "tokenId",
          "type": "uint256"
        },
        {
          "internalType": "string",
          "name": "_description",
          "type": "string"
        }
      ],
      "name": "setTokenDescription",
      "outputs": [],
      "stateMutability": "nonpayable",
      "type": "function"
    },
    {
      "inputs": [
        {
          "internalType": "uint256",
          "name": "tokenId",
          "type": "uint256"
        },
        {
          "internalType": "bool",
          "name": "_sale",
          "type": "bool"
        }
      ],
      "name": "setTokenOnSale",
      "outputs": [],
      "stateMutability": "nonpayable",
      "type": "function"
    },
    {
      "inputs": [
        {
          "internalType": "uint256",
          "name": "tokenId",
          "type": "uint256"
        },
        {
          "internalType": "uint256",
          "name": "_price",
          "type": "uint256"
        }
      ],
      "name": "setTokenPrice",
      "outputs": [],
      "stateMutability": "nonpayable",
      "type": "function"
    },
    {
      "inputs": [
        {
          "internalType": "uint256",
          "name": "tokenId",
          "type": "uint256"
        },
        {
          "internalType": "string[]",
          "name": "_uris",
          "type": "string[]"
        }
      ],
      "name": "setTokenUris",
      "outputs": [],
      "stateMutability": "nonpayable",
      "type": "function"
    },
    {
      "inputs": [
        {
          "internalType": "uint256",
          "name": "tokenId",
          "type": "uint256"
        },
        {
          "internalType": "string[]",
          "name": "_uris",
          "type": "string[]"
        }
      ],
      "name": "addTokenUris",
      "outputs": [],
      "stateMutability": "nonpayable",
      "type": "function"
    },
    {
      "inputs": [
        {
          "internalType": "uint256",
          "name": "tokenId",
          "type": "uint256"
        }
      ],
      "name": "notMoreOnSale",
      "outputs": [],
      "stateMutability": "nonpayable",
      "type": "function"
    },
    {
      "inputs": [
        {
          "internalType": "uint256",
          "name": "tokenId",
          "type": "uint256"
        },
        {
          "internalType": "uint256",
          "name": "amount",
          "type": "uint256"
        }
      ],
      "name": "setOnSale",
      "outputs": [],
      "stateMutability": "nonpayable",
      "type": "function"
    },
    {
      "inputs": [
        {
          "internalType": "address",
          "name": "_owner",
          "type": "address"
        },
        {
          "internalType": "string",
          "name": "_title",
          "type": "string"
        },
        {
          "internalType": "string",
          "name": "_description",
          "type": "string"
        },
        {
          "internalType": "string[]",
          "name": "_uris",
          "type": "string[]"
        },
        {
          "internalType": "uint256",
          "name": "_price",
          "type": "uint256"
        },
        {
          "internalType": "bool",
          "name": "_sale",
          "type": "bool"
        }
      ],
      "name": "mintCourse",
      "outputs": [
        {
          "internalType": "uint256",
          "name": "",
          "type": "uint256"
        }
      ],
      "stateMutability": "nonpayable",
      "type": "function"
    },
    {
      "inputs": [
        {
          "internalType": "uint256",
          "name": "tokenId",
          "type": "uint256"
        },
        {
          "internalType": "string",
          "name": "_hash",
          "type": "string"
        }
      ],
      "name": "deleteUri",
      "outputs": [],
      "stateMutability": "nonpayable",
      "type": "function"
    },
    {
      "inputs": [
        {
          "internalType": "string",
          "name": "a",
          "type": "string"
        },
        {
          "internalType": "string",
          "name": "b",
          "type": "string"
        }
      ],
      "name": "compareStrings",
      "outputs": [
        {
          "internalType": "bool",
          "name": "",
          "type": "bool"
        }
      ],
      "stateMutability": "pure",
      "type": "function",
      "constant": true
    },
    {
      "inputs": [
        {
          "internalType": "uint256",
          "name": "tokenId",
          "type": "uint256"
        }
      ],
      "name": "getCourseById",
      "outputs": [
        {
          "components": [
            {
              "internalType": "uint256",
              "name": "id",
              "type": "uint256"
            },
            {
              "internalType": "address",
              "name": "owner",
              "type": "address"
            },
            {
              "internalType": "uint256",
              "name": "price",
              "type": "uint256"
            },
            {
              "internalType": "string",
              "name": "title",
              "type": "string"
            },
            {
              "internalType": "string",
              "name": "description",
              "type": "string"
            },
            {
              "internalType": "string[]",
              "name": "uris",
              "type": "string[]"
            },
            {
              "internalType": "bool",
              "name": "onSale",
              "type": "bool"
            }
          ],
          "internalType": "struct BlockdemyCourse.TokenProps",
          "name": "",
          "type": "tuple"
        }
      ],
      "stateMutability": "view",
      "type": "function",
      "constant": true
    },
    {
      "inputs": [],
      "name": "getAllCourses",
      "outputs": [
        {
          "components": [
            {
              "internalType": "uint256",
              "name": "id",
              "type": "uint256"
            },
            {
              "internalType": "address",
              "name": "owner",
              "type": "address"
            },
            {
              "internalType": "uint256",
              "name": "price",
              "type": "uint256"
            },
            {
              "internalType": "string",
              "name": "title",
              "type": "string"
            },
            {
              "internalType": "string",
              "name": "description",
              "type": "string"
            },
            {
              "internalType": "string[]",
              "name": "uris",
              "type": "string[]"
            },
            {
              "internalType": "bool",
              "name": "onSale",
              "type": "bool"
            }
          ],
          "internalType": "struct BlockdemyCourse.TokenProps[]",
          "name": "",
          "type": "tuple[]"
        }
      ],
      "stateMutability": "view",
      "type": "function",
      "constant": true
    }
  ],
  "bytecode": "0x60806040523480156200001157600080fd5b506040518060400160405280600c81526020017f4244454d5920436f7572736500000000000000000000000000000000000000008152506040518060400160405280600681526020017f4244454d59430000000000000000000000000000000000000000000000000000815250816000908051906020019062000096929190620000b8565b508060019080519060200190620000af929190620000b8565b505050620001cd565b828054620000c69062000168565b90600052602060002090601f016020900481019282620000ea576000855562000136565b82601f106200010557805160ff191683800117855562000136565b8280016001018555821562000136579182015b828111156200013557825182559160200191906001019062000118565b5b50905062000145919062000149565b5090565b5b80821115620001645760008160009055506001016200014a565b5090565b600060028204905060018216806200018157607f821691505b602082108114156200019857620001976200019e565b5b50919050565b7f4e487b7100000000000000000000000000000000000000000000000000000000600052602260045260246000fd5b6146ed80620001dd6000396000f3fe608060405234801561001057600080fd5b506004361061018e5760003560e01c80636f2c408b116100de578063b88d4fde11610097578063c87b56dd11610071578063c87b56dd14610479578063e985e9c5146104a9578063ea5b210f146104d9578063eb685c47146105095761018e565b8063b88d4fde14610411578063bed34bba1461042d578063c0da00c61461045d5761018e565b80636f2c408b1461035357806370a082311461036f5780637b286c9b1461039f5780637d976eaa146103bb57806395d89b41146103d7578063a22cb465146103f55761018e565b806310e6c3431161014b578063246a908b11610125578063246a908b146102cf57806342842e0e146102eb57806347b99a21146103075780636352211e146103235761018e565b806310e6c3431461026757806323b872dd146102975780632449a88a146102b35761018e565b806301ffc9a71461019357806304e48bd1146101c357806306fdde03146101e1578063081812fc146101ff578063095ea7b31461022f5780630b8d27c31461024b575b600080fd5b6101ad60048036038101906101a891906132ab565b610525565b6040516101ba9190613f34565b60405180910390f35b6101cb610607565b6040516101d89190613f12565b60405180910390f35b6101e96109c7565b6040516101f69190613f4f565b60405180910390f35b61021960048036038101906102149190613369565b610a59565b6040516102269190613eab565b60405180910390f35b6102496004803603810190610244919061326f565b610ade565b005b61026560048036038101906102609190613476565b610bf6565b005b610281600480360381019061027c919061319e565b610d00565b60405161028e91906141d3565b60405180910390f35b6102b160048036038101906102ac9190613098565b610d70565b005b6102cd60048036038101906102c891906133e6565b610dd0565b005b6102e960048036038101906102e49190613422565b610ec1565b005b61030560048036038101906103009190613098565b610faf565b005b610321600480360381019061031c9190613422565b610fcf565b005b61033d60048036038101906103389190613369565b6112db565b60405161034a9190613eab565b60405180910390f35b61036d60048036038101906103689190613392565b61138d565b005b61038960048036038101906103849190613033565b61147b565b60405161039691906141d3565b60405180910390f35b6103b960048036038101906103b49190613392565b611533565b005b6103d560048036038101906103d09190613369565b6116a6565b005b6103df611797565b6040516103ec9190613f4f565b60405180910390f35b61040f600480360381019061040a9190613162565b611829565b005b61042b600480360381019061042691906130e7565b6119aa565b005b610447600480360381019061044291906132fd565b611a0c565b6040516104549190613f34565b60405180910390f35b61047760048036038101906104729190613422565b611a65565b005b610493600480360381019061048e9190613369565b611b53565b6040516104a09190613f4f565b60405180910390f35b6104c360048036038101906104be919061305c565b611bfa565b6040516104d09190613f34565b60405180910390f35b6104f360048036038101906104ee9190613369565b611c8e565b60405161050091906141b1565b60405180910390f35b610523600480360381019061051e9190613476565b611f99565b005b60007f80ac58cd000000000000000000000000000000000000000000000000000000007bffffffffffffffffffffffffffffffffffffffffffffffffffffffff1916827bffffffffffffffffffffffffffffffffffffffffffffffffffffffff191614806105f057507f5b5e139f000000000000000000000000000000000000000000000000000000007bffffffffffffffffffffffffffffffffffffffffffffffffffffffff1916827bffffffffffffffffffffffffffffffffffffffffffffffffffffffff1916145b8061060057506105ff82612077565b5b9050919050565b6060600061061560066120e1565b67ffffffffffffffff811115610654577f4e487b7100000000000000000000000000000000000000000000000000000000600052604160045260246000fd5b60405190808252806020026020018201604052801561068d57816020015b61067a612cb7565b8152602001906001900390816106725790505b509050600080600190505b60016106a460066120e1565b6106ae9190614371565b8110156109be5760006040518060e001604052808381526020016106d1846112db565b73ffffffffffffffffffffffffffffffffffffffff16815260200160086000858152602001908152602001600020548152602001600a60008581526020019081526020016000208054610723906144e2565b80601f016020809104026020016040519081016040528092919081815260200182805461074f906144e2565b801561079c5780601f106107715761010080835404028352916020019161079c565b820191906000526020600020905b81548152906001019060200180831161077f57829003601f168201915b50505050508152602001600b600085815260200190815260200160002080546107c4906144e2565b80601f01602080910402602001604051908101604052809291908181526020018280546107f0906144e2565b801561083d5780601f106108125761010080835404028352916020019161083d565b820191906000526020600020905b81548152906001019060200180831161082057829003601f168201915b5050505050815260200160076000858152602001908152602001600020805480602002602001604051908101604052809291908181526020016000905b82821015610926578382906000526020600020018054610899906144e2565b80601f01602080910402602001604051908101604052809291908181526020018280546108c5906144e2565b80156109125780601f106108e757610100808354040283529160200191610912565b820191906000526020600020905b8154815290600101906020018083116108f557829003601f168201915b50505050508152602001906001019061087a565b5050505081526020016009600085815260200190815260200160002060009054906101000a900460ff161515815250905080848481518110610991577f4e487b7100000000000000000000000000000000000000000000000000000000600052603260045260246000fd5b602002602001018190525082806109a790614514565b9350505080806109b690614514565b915050610698565b50819250505090565b6060600080546109d6906144e2565b80601f0160208091040260200160405190810160405280929190818152602001828054610a02906144e2565b8015610a4f5780601f10610a2457610100808354040283529160200191610a4f565b820191906000526020600020905b815481529060010190602001808311610a3257829003601f168201915b5050505050905090565b6000610a64826120ef565b610aa3576040517f08c379a0000000000000000000000000000000000000000000000000000000008152600401610a9a906140b1565b60405180910390fd5b6004600083815260200190815260200160002060009054906101000a900473ffffffffffffffffffffffffffffffffffffffff169050919050565b6000610ae9826112db565b90508073ffffffffffffffffffffffffffffffffffffffff168373ffffffffffffffffffffffffffffffffffffffff161415610b5a576040517f08c379a0000000000000000000000000000000000000000000000000000000008152600401610b5190614131565b60405180910390fd5b8073ffffffffffffffffffffffffffffffffffffffff16610b7961215b565b73ffffffffffffffffffffffffffffffffffffffff161480610ba85750610ba781610ba261215b565b611bfa565b5b610be7576040517f08c379a0000000000000000000000000000000000000000000000000000000008152600401610bde90614031565b60405180910390fd5b610bf18383612163565b505050565b813373ffffffffffffffffffffffffffffffffffffffff16610c17826112db565b73ffffffffffffffffffffffffffffffffffffffff1614610c6d576040517f08c379a0000000000000000000000000000000000000000000000000000000008152600401610c64906140d1565b60405180910390fd5b82610c77816120ef565b610cb6576040517f08c379a0000000000000000000000000000000000000000000000000000000008152600401610cad90614191565b60405180910390fd5b60016009600086815260200190815260200160002060006101000a81548160ff02191690831515021790555082600860008681526020019081526020016000208190555050505050565b6000808311610d0e57600080fd5b610d18600661221c565b6000610d2460066120e1565b9050610d308882612232565b610d3a8185611f99565b610d44818661138d565b610d4e8184610dd0565b610d588188611a65565b610d628187610ec1565b809150509695505050505050565b610d81610d7b61215b565b82612400565b610dc0576040517f08c379a0000000000000000000000000000000000000000000000000000000008152600401610db790614151565b60405180910390fd5b610dcb8383836124de565b505050565b81610dda816120ef565b610e19576040517f08c379a0000000000000000000000000000000000000000000000000000000008152600401610e1090614191565b60405180910390fd5b823373ffffffffffffffffffffffffffffffffffffffff16610e3a826112db565b73ffffffffffffffffffffffffffffffffffffffff1614610e90576040517f08c379a0000000000000000000000000000000000000000000000000000000008152600401610e87906140d1565b60405180910390fd5b826009600086815260200190815260200160002060006101000a81548160ff02191690831515021790555050505050565b81610ecb816120ef565b610f0a576040517f08c379a0000000000000000000000000000000000000000000000000000000008152600401610f0190614191565b60405180910390fd5b823373ffffffffffffffffffffffffffffffffffffffff16610f2b826112db565b73ffffffffffffffffffffffffffffffffffffffff1614610f81576040517f08c379a0000000000000000000000000000000000000000000000000000000008152600401610f78906140d1565b60405180910390fd5b82600b60008681526020019081526020016000209080519060200190610fa8929190612d0c565b5050505050565b610fca838383604051806020016040528060008152506119aa565b505050565b81610fd9816120ef565b611018576040517f08c379a000000000000000000000000000000000000000000000000000000000815260040161100f90614191565b60405180910390fd5b823373ffffffffffffffffffffffffffffffffffffffff16611039826112db565b73ffffffffffffffffffffffffffffffffffffffff161461108f576040517f08c379a0000000000000000000000000000000000000000000000000000000008152600401611086906140d1565b60405180910390fd5b600061109b858561273a565b9050600060076000878152602001908152602001600020805480602002602001604051908101604052809291908181526020016000905b8282101561117e5783829060005260206000200180546110f1906144e2565b80601f016020809104026020016040519081016040528092919081815260200182805461111d906144e2565b801561116a5780601f1061113f5761010080835404028352916020019161116a565b820191906000526020600020905b81548152906001019060200180831161114d57829003601f168201915b5050505050815260200190600101906110d2565b50505050905060008290505b6001825161119891906143f8565b81101561124357816001826111ad9190614371565b815181106111e4577f4e487b7100000000000000000000000000000000000000000000000000000000600052603260045260246000fd5b6020026020010151828281518110611225577f4e487b7100000000000000000000000000000000000000000000000000000000600052603260045260246000fd5b6020026020010181905250808061123b90614514565b91505061118a565b508060076000888152602001908152602001600020908051906020019061126b929190612d92565b50600760008781526020019081526020016000208054806112b5577f4e487b7100000000000000000000000000000000000000000000000000000000600052603160045260246000fd5b6001900381819060005260206000200160006112d19190612df2565b9055505050505050565b6000806002600084815260200190815260200160002060009054906101000a900473ffffffffffffffffffffffffffffffffffffffff169050600073ffffffffffffffffffffffffffffffffffffffff168173ffffffffffffffffffffffffffffffffffffffff161415611384576040517f08c379a000000000000000000000000000000000000000000000000000000000815260040161137b90614071565b60405180910390fd5b80915050919050565b81611397816120ef565b6113d6576040517f08c379a00000000000000000000000000000000000000000000000000000000081526004016113cd90614191565b60405180910390fd5b823373ffffffffffffffffffffffffffffffffffffffff166113f7826112db565b73ffffffffffffffffffffffffffffffffffffffff161461144d576040517f08c379a0000000000000000000000000000000000000000000000000000000008152600401611444906140d1565b60405180910390fd5b82600760008681526020019081526020016000209080519060200190611474929190612d92565b5050505050565b60008073ffffffffffffffffffffffffffffffffffffffff168273ffffffffffffffffffffffffffffffffffffffff1614156114ec576040517f08c379a00000000000000000000000000000000000000000000000000000000081526004016114e390614051565b60405180910390fd5b600360008373ffffffffffffffffffffffffffffffffffffffff1673ffffffffffffffffffffffffffffffffffffffff168152602001908152602001600020549050919050565b8161153d816120ef565b61157c576040517f08c379a000000000000000000000000000000000000000000000000000000000815260040161157390614191565b60405180910390fd5b823373ffffffffffffffffffffffffffffffffffffffff1661159d826112db565b73ffffffffffffffffffffffffffffffffffffffff16146115f3576040517f08c379a00000000000000000000000000000000000000000000000000000000081526004016115ea906140d1565b60405180910390fd5b60005b835181101561169f576007600086815260200190815260200160002084828151811061164b577f4e487b7100000000000000000000000000000000000000000000000000000000600052603260045260246000fd5b602002602001015190806001815401808255809150506001900390600052602060002001600090919091909150908051906020019061168b929190612d0c565b50808061169790614514565b9150506115f6565b5050505050565b803373ffffffffffffffffffffffffffffffffffffffff166116c7826112db565b73ffffffffffffffffffffffffffffffffffffffff161461171d576040517f08c379a0000000000000000000000000000000000000000000000000000000008152600401611714906140d1565b60405180910390fd5b81611727816120ef565b611766576040517f08c379a000000000000000000000000000000000000000000000000000000000815260040161175d90614191565b60405180910390fd5b60006009600085815260200190815260200160002060006101000a81548160ff021916908315150217905550505050565b6060600180546117a6906144e2565b80601f01602080910402602001604051908101604052809291908181526020018280546117d2906144e2565b801561181f5780601f106117f45761010080835404028352916020019161181f565b820191906000526020600020905b81548152906001019060200180831161180257829003601f168201915b5050505050905090565b61183161215b565b73ffffffffffffffffffffffffffffffffffffffff168273ffffffffffffffffffffffffffffffffffffffff16141561189f576040517f08c379a000000000000000000000000000000000000000000000000000000000815260040161189690613fd1565b60405180910390fd5b80600560006118ac61215b565b73ffffffffffffffffffffffffffffffffffffffff1673ffffffffffffffffffffffffffffffffffffffff16815260200190815260200160002060008473ffffffffffffffffffffffffffffffffffffffff1673ffffffffffffffffffffffffffffffffffffffff16815260200190815260200160002060006101000a81548160ff0219169083151502179055508173ffffffffffffffffffffffffffffffffffffffff1661195961215b565b73ffffffffffffffffffffffffffffffffffffffff167f17307eab39ab6107e8899845ad3d59bd9653f200f220920489ca2b5937696c318360405161199e9190613f34565b60405180910390a35050565b6119bb6119b561215b565b83612400565b6119fa576040517f08c379a00000000000000000000000000000000000000000000000000000000081526004016119f190614151565b60405180910390fd5b611a06848484846128e8565b50505050565b600081604051602001611a1f9190613e70565b6040516020818303038152906040528051906020012083604051602001611a469190613e70565b6040516020818303038152906040528051906020012014905092915050565b81611a6f816120ef565b611aae576040517f08c379a0000000000000000000000000000000000000000000000000000000008152600401611aa590614191565b60405180910390fd5b823373ffffffffffffffffffffffffffffffffffffffff16611acf826112db565b73ffffffffffffffffffffffffffffffffffffffff1614611b25576040517f08c379a0000000000000000000000000000000000000000000000000000000008152600401611b1c906140d1565b60405180910390fd5b82600a60008681526020019081526020016000209080519060200190611b4c929190612d0c565b5050505050565b6060611b5e826120ef565b611b9d576040517f08c379a0000000000000000000000000000000000000000000000000000000008152600401611b9490614111565b60405180910390fd5b6000611ba7612944565b90506000815111611bc75760405180602001604052806000815250611bf2565b80611bd18461295b565b604051602001611be2929190613e87565b6040516020818303038152906040525b915050919050565b6000600560008473ffffffffffffffffffffffffffffffffffffffff1673ffffffffffffffffffffffffffffffffffffffff16815260200190815260200160002060008373ffffffffffffffffffffffffffffffffffffffff1673ffffffffffffffffffffffffffffffffffffffff16815260200190815260200160002060009054906101000a900460ff16905092915050565b611c96612cb7565b600082118015611caf5750611cab60066120e1565b8211155b611cee576040517f08c379a0000000000000000000000000000000000000000000000000000000008152600401611ce590614171565b60405180910390fd5b60006040518060e00160405280848152602001611d0a856112db565b73ffffffffffffffffffffffffffffffffffffffff16815260200160086000868152602001908152602001600020548152602001600a60008681526020019081526020016000208054611d5c906144e2565b80601f0160208091040260200160405190810160405280929190818152602001828054611d88906144e2565b8015611dd55780601f10611daa57610100808354040283529160200191611dd5565b820191906000526020600020905b815481529060010190602001808311611db857829003601f168201915b50505050508152602001600b60008681526020019081526020016000208054611dfd906144e2565b80601f0160208091040260200160405190810160405280929190818152602001828054611e29906144e2565b8015611e765780601f10611e4b57610100808354040283529160200191611e76565b820191906000526020600020905b815481529060010190602001808311611e5957829003601f168201915b5050505050815260200160076000868152602001908152602001600020805480602002602001604051908101604052809291908181526020016000905b82821015611f5f578382906000526020600020018054611ed2906144e2565b80601f0160208091040260200160405190810160405280929190818152602001828054611efe906144e2565b8015611f4b5780601f10611f2057610100808354040283529160200191611f4b565b820191906000526020600020905b815481529060010190602001808311611f2e57829003601f168201915b505050505081526020019060010190611eb3565b5050505081526020016009600086815260200190815260200160002060009054906101000a900460ff161515815250905080915050919050565b81611fa3816120ef565b611fe2576040517f08c379a0000000000000000000000000000000000000000000000000000000008152600401611fd990614191565b60405180910390fd5b823373ffffffffffffffffffffffffffffffffffffffff16612003826112db565b73ffffffffffffffffffffffffffffffffffffffff1614612059576040517f08c379a0000000000000000000000000000000000000000000000000000000008152600401612050906140d1565b60405180910390fd5b82600860008681526020019081526020016000208190555050505050565b60007f01ffc9a7000000000000000000000000000000000000000000000000000000007bffffffffffffffffffffffffffffffffffffffffffffffffffffffff1916827bffffffffffffffffffffffffffffffffffffffffffffffffffffffff1916149050919050565b600081600001549050919050565b60008073ffffffffffffffffffffffffffffffffffffffff166002600084815260200190815260200160002060009054906101000a900473ffffffffffffffffffffffffffffffffffffffff1673ffffffffffffffffffffffffffffffffffffffff1614159050919050565b600033905090565b816004600083815260200190815260200160002060006101000a81548173ffffffffffffffffffffffffffffffffffffffff021916908373ffffffffffffffffffffffffffffffffffffffff160217905550808273ffffffffffffffffffffffffffffffffffffffff166121d6836112db565b73ffffffffffffffffffffffffffffffffffffffff167f8c5be1e5ebec7d5bd14f71427d1e84f3dd0314c0f7b2291e5b200ac8c7c3b92560405160405180910390a45050565b6001816000016000828254019250508190555050565b600073ffffffffffffffffffffffffffffffffffffffff168273ffffffffffffffffffffffffffffffffffffffff1614156122a2576040517f08c379a000000000000000000000000000000000000000000000000000000000815260040161229990614091565b60405180910390fd5b6122ab816120ef565b156122eb576040517f08c379a00000000000000000000000000000000000000000000000000000000081526004016122e290613f91565b60405180910390fd5b6122f760008383612b08565b6001600360008473ffffffffffffffffffffffffffffffffffffffff1673ffffffffffffffffffffffffffffffffffffffff16815260200190815260200160002060008282546123479190614371565b92505081905550816002600083815260200190815260200160002060006101000a81548173ffffffffffffffffffffffffffffffffffffffff021916908373ffffffffffffffffffffffffffffffffffffffff160217905550808273ffffffffffffffffffffffffffffffffffffffff16600073ffffffffffffffffffffffffffffffffffffffff167fddf252ad1be2c89b69c2b068fc378daa952ba7f163c4a11628f55a4df523b3ef60405160405180910390a45050565b600061240b826120ef565b61244a576040517f08c379a000000000000000000000000000000000000000000000000000000000815260040161244190614011565b60405180910390fd5b6000612455836112db565b90508073ffffffffffffffffffffffffffffffffffffffff168473ffffffffffffffffffffffffffffffffffffffff1614806124c457508373ffffffffffffffffffffffffffffffffffffffff166124ac84610a59565b73ffffffffffffffffffffffffffffffffffffffff16145b806124d557506124d48185611bfa565b5b91505092915050565b8273ffffffffffffffffffffffffffffffffffffffff166124fe826112db565b73ffffffffffffffffffffffffffffffffffffffff1614612554576040517f08c379a000000000000000000000000000000000000000000000000000000000815260040161254b906140f1565b60405180910390fd5b600073ffffffffffffffffffffffffffffffffffffffff168273ffffffffffffffffffffffffffffffffffffffff1614156125c4576040517f08c379a00000000000000000000000000000000000000000000000000000000081526004016125bb90613fb1565b60405180910390fd5b6125cf838383612b08565b6125da600082612163565b6001600360008573ffffffffffffffffffffffffffffffffffffffff1673ffffffffffffffffffffffffffffffffffffffff168152602001908152602001600020600082825461262a91906143f8565b925050819055506001600360008473ffffffffffffffffffffffffffffffffffffffff1673ffffffffffffffffffffffffffffffffffffffff16815260200190815260200160002060008282546126819190614371565b92505081905550816002600083815260200190815260200160002060006101000a81548173ffffffffffffffffffffffffffffffffffffffff021916908373ffffffffffffffffffffffffffffffffffffffff160217905550808273ffffffffffffffffffffffffffffffffffffffff168473ffffffffffffffffffffffffffffffffffffffff167fddf252ad1be2c89b69c2b068fc378daa952ba7f163c4a11628f55a4df523b3ef60405160405180910390a4505050565b60008060076000858152602001908152602001600020805480602002602001604051908101604052809291908181526020016000905b8282101561281c57838290600052602060002001805461278f906144e2565b80601f01602080910402602001604051908101604052809291908181526020018280546127bb906144e2565b80156128085780601f106127dd57610100808354040283529160200191612808565b820191906000526020600020905b8154815290600101906020018083116127eb57829003601f168201915b505050505081526020019060010190612770565b50505050905060005b6001825161283391906143f8565b8110156128a657612884828281518110612876577f4e487b7100000000000000000000000000000000000000000000000000000000600052603260045260246000fd5b602002602001015185611a0c565b156128935780925050506128e2565b808061289e90614514565b915050612825565b506040517f08c379a00000000000000000000000000000000000000000000000000000000081526004016128d990613ff1565b60405180910390fd5b92915050565b6128f38484846124de565b6128ff84848484612b0d565b61293e576040517f08c379a000000000000000000000000000000000000000000000000000000000815260040161293590613f71565b60405180910390fd5b50505050565b606060405180602001604052806000815250905090565b606060008214156129a3576040518060400160405280600181526020017f30000000000000000000000000000000000000000000000000000000000000008152509050612b03565b600082905060005b600082146129d55780806129be90614514565b915050600a826129ce91906143c7565b91506129ab565b60008167ffffffffffffffff811115612a17577f4e487b7100000000000000000000000000000000000000000000000000000000600052604160045260246000fd5b6040519080825280601f01601f191660200182016040528015612a495781602001600182028036833780820191505090505b5090505b60008514612afc57600182612a6291906143f8565b9150600a85612a71919061455d565b6030612a7d9190614371565b60f81b818381518110612ab9577f4e487b7100000000000000000000000000000000000000000000000000000000600052603260045260246000fd5b60200101907effffffffffffffffffffffffffffffffffffffffffffffffffffffffffffff1916908160001a905350600a85612af591906143c7565b9450612a4d565b8093505050505b919050565b505050565b6000612b2e8473ffffffffffffffffffffffffffffffffffffffff16612ca4565b15612c97578373ffffffffffffffffffffffffffffffffffffffff1663150b7a02612b5761215b565b8786866040518563ffffffff1660e01b8152600401612b799493929190613ec6565b602060405180830381600087803b158015612b9357600080fd5b505af1925050508015612bc457506040513d601f19601f82011682018060405250810190612bc191906132d4565b60015b612c47573d8060008114612bf4576040519150601f19603f3d011682016040523d82523d6000602084013e612bf9565b606091505b50600081511415612c3f576040517f08c379a0000000000000000000000000000000000000000000000000000000008152600401612c3690613f71565b60405180910390fd5b805181602001fd5b63150b7a0260e01b7bffffffffffffffffffffffffffffffffffffffffffffffffffffffff1916817bffffffffffffffffffffffffffffffffffffffffffffffffffffffff191614915050612c9c565b600190505b949350505050565b600080823b905060008111915050919050565b6040518060e0016040528060008152602001600073ffffffffffffffffffffffffffffffffffffffff168152602001600081526020016060815260200160608152602001606081526020016000151581525090565b828054612d18906144e2565b90600052602060002090601f016020900481019282612d3a5760008555612d81565b82601f10612d5357805160ff1916838001178555612d81565b82800160010185558215612d81579182015b82811115612d80578251825591602001919060010190612d65565b5b509050612d8e9190612e32565b5090565b828054828255906000526020600020908101928215612de1579160200282015b82811115612de0578251829080519060200190612dd0929190612d0c565b5091602001919060010190612db2565b5b509050612dee9190612e4f565b5090565b508054612dfe906144e2565b6000825580601f10612e105750612e2f565b601f016020900490600052602060002090810190612e2e9190612e32565b5b50565b5b80821115612e4b576000816000905550600101612e33565b5090565b5b80821115612e6f5760008181612e669190612df2565b50600101612e50565b5090565b6000612e86612e818461421f565b6141ee565b9050808382526020820190508260005b85811015612ec65781358501612eac8882612ff4565b845260208401935060208301925050600181019050612e96565b5050509392505050565b6000612ee3612ede8461424b565b6141ee565b905082815260208101848484011115612efb57600080fd5b612f068482856144a0565b509392505050565b6000612f21612f1c8461427b565b6141ee565b905082815260208101848484011115612f3957600080fd5b612f448482856144a0565b509392505050565b600081359050612f5b8161465b565b92915050565b600082601f830112612f7257600080fd5b8135612f82848260208601612e73565b91505092915050565b600081359050612f9a81614672565b92915050565b600081359050612faf81614689565b92915050565b600081519050612fc481614689565b92915050565b600082601f830112612fdb57600080fd5b8135612feb848260208601612ed0565b91505092915050565b600082601f83011261300557600080fd5b8135613015848260208601612f0e565b91505092915050565b60008135905061302d816146a0565b92915050565b60006020828403121561304557600080fd5b600061305384828501612f4c565b91505092915050565b6000806040838503121561306f57600080fd5b600061307d85828601612f4c565b925050602061308e85828601612f4c565b9150509250929050565b6000806000606084860312156130ad57600080fd5b60006130bb86828701612f4c565b93505060206130cc86828701612f4c565b92505060406130dd8682870161301e565b9150509250925092565b600080600080608085870312156130fd57600080fd5b600061310b87828801612f4c565b945050602061311c87828801612f4c565b935050604061312d8782880161301e565b925050606085013567ffffffffffffffff81111561314a57600080fd5b61315687828801612fca565b91505092959194509250565b6000806040838503121561317557600080fd5b600061318385828601612f4c565b925050602061319485828601612f8b565b9150509250929050565b60008060008060008060c087890312156131b757600080fd5b60006131c589828a01612f4c565b965050602087013567ffffffffffffffff8111156131e257600080fd5b6131ee89828a01612ff4565b955050604087013567ffffffffffffffff81111561320b57600080fd5b61321789828a01612ff4565b945050606087013567ffffffffffffffff81111561323457600080fd5b61324089828a01612f61565b935050608061325189828a0161301e565b92505060a061326289828a01612f8b565b9150509295509295509295565b6000806040838503121561328257600080fd5b600061329085828601612f4c565b92505060206132a18582860161301e565b9150509250929050565b6000602082840312156132bd57600080fd5b60006132cb84828501612fa0565b91505092915050565b6000602082840312156132e657600080fd5b60006132f484828501612fb5565b91505092915050565b6000806040838503121561331057600080fd5b600083013567ffffffffffffffff81111561332a57600080fd5b61333685828601612ff4565b925050602083013567ffffffffffffffff81111561335357600080fd5b61335f85828601612ff4565b9150509250929050565b60006020828403121561337b57600080fd5b60006133898482850161301e565b91505092915050565b600080604083850312156133a557600080fd5b60006133b38582860161301e565b925050602083013567ffffffffffffffff8111156133d057600080fd5b6133dc85828601612f61565b9150509250929050565b600080604083850312156133f957600080fd5b60006134078582860161301e565b925050602061341885828601612f8b565b9150509250929050565b6000806040838503121561343557600080fd5b60006134438582860161301e565b925050602083013567ffffffffffffffff81111561346057600080fd5b61346c85828601612ff4565b9150509250929050565b6000806040838503121561348957600080fd5b60006134978582860161301e565b92505060206134a88582860161301e565b9150509250929050565b60006134be8383613639565b905092915050565b60006134d28383613cfe565b905092915050565b6134e38161442c565b82525050565b6134f28161442c565b82525050565b6000613503826142cb565b61350d8185614311565b93508360208202850161351f856142ab565b8060005b8581101561355b578484038952815161353c85826134b2565b9450613547836142f7565b925060208a01995050600181019050613523565b50829750879550505050505092915050565b6000613578826142d6565b6135828185614322565b935083602082028501613594856142bb565b8060005b858110156135d057848403895281516135b185826134c6565b94506135bc83614304565b925060208a01995050600181019050613598565b50829750879550505050505092915050565b6135eb8161443e565b82525050565b6135fa8161443e565b82525050565b600061360b826142e1565b6136158185614333565b93506136258185602086016144af565b61362e8161464a565b840191505092915050565b6000613644826142ec565b61364e8185614344565b935061365e8185602086016144af565b6136678161464a565b840191505092915050565b600061367d826142ec565b6136878185614355565b93506136978185602086016144af565b6136a08161464a565b840191505092915050565b60006136b6826142ec565b6136c08185614366565b93506136d08185602086016144af565b80840191505092915050565b60006136e9603283614355565b91507f4552433732313a207472616e7366657220746f206e6f6e20455243373231526560008301527f63656976657220696d706c656d656e74657200000000000000000000000000006020830152604082019050919050565b600061374f601c83614355565b91507f4552433732313a20746f6b656e20616c7265616479206d696e746564000000006000830152602082019050919050565b600061378f602483614355565b91507f4552433732313a207472616e7366657220746f20746865207a65726f2061646460008301527f72657373000000000000000000000000000000000000000000000000000000006020830152604082019050919050565b60006137f5601983614355565b91507f4552433732313a20617070726f766520746f2063616c6c6572000000000000006000830152602082019050919050565b6000613835601183614355565b91507f6e6f6e206578697374656e7420686173680000000000000000000000000000006000830152602082019050919050565b6000613875602c83614355565b91507f4552433732313a206f70657261746f7220717565727920666f72206e6f6e657860008301527f697374656e7420746f6b656e00000000000000000000000000000000000000006020830152604082019050919050565b60006138db603883614355565b91507f4552433732313a20617070726f76652063616c6c6572206973206e6f74206f7760008301527f6e6572206e6f7220617070726f76656420666f7220616c6c00000000000000006020830152604082019050919050565b6000613941602a83614355565b91507f4552433732313a2062616c616e636520717565727920666f7220746865207a6560008301527f726f2061646472657373000000000000000000000000000000000000000000006020830152604082019050919050565b60006139a7602983614355565b91507f4552433732313a206f776e657220717565727920666f72206e6f6e657869737460008301527f656e7420746f6b656e00000000000000000000000000000000000000000000006020830152604082019050919050565b6000613a0d602083614355565b91507f4552433732313a206d696e7420746f20746865207a65726f20616464726573736000830152602082019050919050565b6000613a4d602c83614355565b91507f4552433732313a20617070726f76656420717565727920666f72206e6f6e657860008301527f697374656e7420746f6b656e00000000000000000000000000000000000000006020830152604082019050919050565b6000613ab3601783614355565b91507f63616c6c6572206973206e6f7420746865206f776e65720000000000000000006000830152602082019050919050565b6000613af3602983614355565b91507f4552433732313a207472616e73666572206f6620746f6b656e2074686174206960008301527f73206e6f74206f776e00000000000000000000000000000000000000000000006020830152604082019050919050565b6000613b59602f83614355565b91507f4552433732314d657461646174613a2055524920717565727920666f72206e6f60008301527f6e6578697374656e7420746f6b656e00000000000000000000000000000000006020830152604082019050919050565b6000613bbf602183614355565b91507f4552433732313a20617070726f76616c20746f2063757272656e74206f776e6560008301527f72000000000000000000000000000000000000000000000000000000000000006020830152604082019050919050565b6000613c25603183614355565b91507f4552433732313a207472616e736665722063616c6c6572206973206e6f74206f60008301527f776e6572206e6f7220617070726f7665640000000000000000000000000000006020830152604082019050919050565b6000613c8b600e83614355565b91507f77726f6e6720746f6b656e2069640000000000000000000000000000000000006000830152602082019050919050565b6000613ccb601483614355565b91507f746f6b656e20646f6573206e6f742065786973740000000000000000000000006000830152602082019050919050565b600060e083016000830151613d166000860182613e52565b506020830151613d2960208601826134da565b506040830151613d3c6040860182613e52565b5060608301518482036060860152613d548282613639565b91505060808301518482036080860152613d6e8282613639565b91505060a083015184820360a0860152613d8882826134f8565b91505060c0830151613d9d60c08601826135e2565b508091505092915050565b600060e083016000830151613dc06000860182613e52565b506020830151613dd360208601826134da565b506040830151613de66040860182613e52565b5060608301518482036060860152613dfe8282613639565b91505060808301518482036080860152613e188282613639565b91505060a083015184820360a0860152613e3282826134f8565b91505060c0830151613e4760c08601826135e2565b508091505092915050565b613e5b81614496565b82525050565b613e6a81614496565b82525050565b6000613e7c82846136ab565b915081905092915050565b6000613e9382856136ab565b9150613e9f82846136ab565b91508190509392505050565b6000602082019050613ec060008301846134e9565b92915050565b6000608082019050613edb60008301876134e9565b613ee860208301866134e9565b613ef56040830185613e61565b8181036060830152613f078184613600565b905095945050505050565b60006020820190508181036000830152613f2c818461356d565b905092915050565b6000602082019050613f4960008301846135f1565b92915050565b60006020820190508181036000830152613f698184613672565b905092915050565b60006020820190508181036000830152613f8a816136dc565b9050919050565b60006020820190508181036000830152613faa81613742565b9050919050565b60006020820190508181036000830152613fca81613782565b9050919050565b60006020820190508181036000830152613fea816137e8565b9050919050565b6000602082019050818103600083015261400a81613828565b9050919050565b6000602082019050818103600083015261402a81613868565b9050919050565b6000602082019050818103600083015261404a816138ce565b9050919050565b6000602082019050818103600083015261406a81613934565b9050919050565b6000602082019050818103600083015261408a8161399a565b9050919050565b600060208201905081810360008301526140aa81613a00565b9050919050565b600060208201905081810360008301526140ca81613a40565b9050919050565b600060208201905081810360008301526140ea81613aa6565b9050919050565b6000602082019050818103600083015261410a81613ae6565b9050919050565b6000602082019050818103600083015261412a81613b4c565b9050919050565b6000602082019050818103600083015261414a81613bb2565b9050919050565b6000602082019050818103600083015261416a81613c18565b9050919050565b6000602082019050818103600083015261418a81613c7e565b9050919050565b600060208201905081810360008301526141aa81613cbe565b9050919050565b600060208201905081810360008301526141cb8184613da8565b905092915050565b60006020820190506141e86000830184613e61565b92915050565b6000604051905081810181811067ffffffffffffffff821117156142155761421461461b565b5b8060405250919050565b600067ffffffffffffffff82111561423a5761423961461b565b5b602082029050602081019050919050565b600067ffffffffffffffff8211156142665761426561461b565b5b601f19601f8301169050602081019050919050565b600067ffffffffffffffff8211156142965761429561461b565b5b601f19601f8301169050602081019050919050565b6000819050602082019050919050565b6000819050602082019050919050565b600081519050919050565b600081519050919050565b600081519050919050565b600081519050919050565b6000602082019050919050565b6000602082019050919050565b600082825260208201905092915050565b600082825260208201905092915050565b600082825260208201905092915050565b600082825260208201905092915050565b600082825260208201905092915050565b600081905092915050565b600061437c82614496565b915061438783614496565b9250827fffffffffffffffffffffffffffffffffffffffffffffffffffffffffffffffff038211156143bc576143bb61458e565b5b828201905092915050565b60006143d282614496565b91506143dd83614496565b9250826143ed576143ec6145bd565b5b828204905092915050565b600061440382614496565b915061440e83614496565b9250828210156144215761442061458e565b5b828203905092915050565b600061443782614476565b9050919050565b60008115159050919050565b60007fffffffff0000000000000000000000000000000000000000000000000000000082169050919050565b600073ffffffffffffffffffffffffffffffffffffffff82169050919050565b6000819050919050565b82818337600083830152505050565b60005b838110156144cd5780820151818401526020810190506144b2565b838111156144dc576000848401525b50505050565b600060028204905060018216806144fa57607f821691505b6020821081141561450e5761450d6145ec565b5b50919050565b600061451f82614496565b91507fffffffffffffffffffffffffffffffffffffffffffffffffffffffffffffffff8214156145525761455161458e565b5b600182019050919050565b600061456882614496565b915061457383614496565b925082614583576145826145bd565b5b828206905092915050565b7f4e487b7100000000000000000000000000000000000000000000000000000000600052601160045260246000fd5b7f4e487b7100000000000000000000000000000000000000000000000000000000600052601260045260246000fd5b7f4e487b7100000000000000000000000000000000000000000000000000000000600052602260045260246000fd5b7f4e487b7100000000000000000000000000000000000000000000000000000000600052604160045260246000fd5b6000601f19601f8301169050919050565b6146648161442c565b811461466f57600080fd5b50565b61467b8161443e565b811461468657600080fd5b50565b6146928161444a565b811461469d57600080fd5b50565b6146a981614496565b81146146b457600080fd5b5056fea2646970667358221220ccc3de41f93497f3d38c85ee6cb57e6c92a53db17f031af897c2281584a3cb8064736f6c63430008000033",
  "immutableReferences": {},
  "source": "// SPDX-License-Identifier: MIT\r\npragma solidity ^0.8.0;\r\n\r\nimport \"@openzeppelin/contracts/token/ERC721/ERC721.sol\";\r\nimport \"@openzeppelin/contracts/utils/Counters.sol\";\r\n\r\n\r\ncontract BlockdemyCourse is ERC721 {\r\n    using Counters for Counters.Counter;\r\n    Counters.Counter private _tokenIds;\r\n\r\n    mapping(uint256 => string[]) private _tokenUris;\r\n    mapping(uint256 => uint256) private _tokenPrices;\r\n    mapping(uint256 => bool) private _tokenOnSale;\r\n    mapping(uint256 => string) private _tokenTitles;\r\n    mapping(uint256 => string) private _tokenDescriptions;\r\n\r\n    struct TokenProps {\r\n        uint256 id;\r\n        address owner;\r\n        uint256 price;\r\n        string title;\r\n        string description;\r\n        string[] uris;\r\n        bool onSale;\r\n    }\r\n\r\n\r\n    constructor() ERC721(\"BDEMY Course\", \"BDEMYC\") {}\r\n\r\n    function setTokenTitle(uint256 tokenId, string memory _title)\r\n        public\r\n        TokenExists(tokenId)\r\n        IsOwner(tokenId)\r\n    {\r\n        _tokenTitles[tokenId] = _title;\r\n    }\r\n\r\n    function setTokenDescription(uint256 tokenId, string memory _description)\r\n        public\r\n        TokenExists(tokenId)\r\n        IsOwner(tokenId)\r\n    {\r\n        _tokenDescriptions[tokenId] = _description;\r\n    }\r\n\r\n    function setTokenOnSale(uint256 tokenId, bool _sale)\r\n        public\r\n        TokenExists(tokenId)\r\n        IsOwner(tokenId)\r\n    {\r\n        _tokenOnSale[tokenId] = _sale;\r\n    }\r\n\r\n    function setTokenPrice(uint256 tokenId, uint256 _price)\r\n        public\r\n        TokenExists(tokenId)\r\n        IsOwner(tokenId)\r\n    {\r\n        _tokenPrices[tokenId] = _price;\r\n    }\r\n\r\n    function setTokenUris(uint256 tokenId, string[] memory _uris)\r\n        public\r\n        TokenExists(tokenId)\r\n        IsOwner(tokenId)\r\n    {\r\n        _tokenUris[tokenId] = _uris;\r\n    }\r\n\r\n\r\n\r\n    function addTokenUris(uint256 tokenId, string[] memory _uris)\r\n        public\r\n        TokenExists(tokenId)\r\n        IsOwner(tokenId)\r\n    {\r\n        for(uint i=0;i<_uris.length;i++){\r\n            _tokenUris[tokenId].push(_uris[i]);\r\n        }\r\n    }\r\n\r\n    modifier TokenExists(uint256 tokenId) {\r\n        require(_exists(tokenId), \"token does not exist\");\r\n        _;\r\n    }\r\n\r\n    modifier IsOwner(uint256 tokenId) {\r\n        require(ownerOf(tokenId) == msg.sender, \"caller is not the owner\");\r\n        _;\r\n    }\r\n\r\n    function notMoreOnSale(uint256 tokenId) external IsOwner(tokenId) TokenExists(tokenId){\r\n            _tokenOnSale[tokenId] = false;\r\n    }\r\n\r\n    function setOnSale(uint256 tokenId,uint amount) external IsOwner(tokenId) TokenExists(tokenId){\r\n            _tokenOnSale[tokenId] = true;\r\n            _tokenPrices[tokenId] = amount;\r\n    }\r\n\r\n    /*\r\n        MINT COURSE DOES A MINT OF THE COURSE WITH ALL THE VIDEOS, IT MUST BE CALLED WHEN THE   \r\n        INSTRUCTOR HAS ALREADY DEFINED THE COURSE IN ITS ENTIRETY (OR AT LEAST THINKS SO), SINCE WE WILL ADD\r\n        OPTIONS TO REMOVE AND POST VIDEOS LATER, BUT REMEMBER THAT EACH INTERACTION COSTS MONEY\r\n    */\r\n    function mintCourse(\r\n        address _owner,\r\n        string memory _title,\r\n        string memory _description,\r\n        string[] memory _uris,\r\n        uint256 _price, //IN USDT\r\n        bool _sale\r\n    ) public returns (uint256) {\r\n        require(_price > 0);\r\n\r\n        _tokenIds.increment();\r\n\r\n        uint256 newItemId = _tokenIds.current();\r\n        _mint(_owner, newItemId);\r\n        setTokenPrice(newItemId, _price);\r\n        setTokenUris(newItemId, _uris);\r\n        setTokenOnSale(newItemId, _sale);\r\n        setTokenTitle(newItemId, _title);\r\n        setTokenDescription(newItemId, _description);\r\n\r\n        return newItemId;\r\n    }\r\n\r\n    function deleteUri(uint256 tokenId, string memory _hash)\r\n        external\r\n        TokenExists(tokenId)\r\n        IsOwner(tokenId)\r\n    {\r\n        uint256 index = getTokenIndexByHash(tokenId, _hash);\r\n        string[] memory uris = _tokenUris[tokenId];\r\n        for (uint256 i = index; i < uris.length - 1; i++) {\r\n            uris[i] = uris[i + 1];\r\n        }\r\n        _tokenUris[tokenId] = uris;\r\n        _tokenUris[tokenId].pop();\r\n    }\r\n\r\n    function getTokenIndexByHash(uint256 tokenId, string memory _hash)\r\n        internal\r\n        view\r\n        returns (uint256)\r\n    {\r\n        string[] memory uris = _tokenUris[tokenId];\r\n        for (uint256 i = 0; i < uris.length - 1; i++) {\r\n            if (compareStrings(uris[i], _hash)) {\r\n                return i;\r\n            }\r\n        }\r\n\r\n        revert(\"non existent hash\");\r\n    }\r\n\r\n    function compareStrings(string memory a, string memory b)\r\n        public\r\n        pure\r\n        returns (bool)\r\n    {\r\n        return (keccak256(abi.encodePacked((a))) ==\r\n            keccak256(abi.encodePacked((b))));\r\n    }\r\n\r\n    function getCourseById(uint256 tokenId)\r\n        public\r\n        view\r\n        returns (TokenProps memory)\r\n    {\r\n        require(\r\n            tokenId > 0 && tokenId <= _tokenIds.current(),\r\n            \"wrong token id\"\r\n        );\r\n        TokenProps memory token = TokenProps(\r\n            tokenId,\r\n            ownerOf(tokenId),\r\n            _tokenPrices[tokenId],\r\n            _tokenTitles[tokenId],\r\n            _tokenDescriptions[tokenId],\r\n            _tokenUris[tokenId],\r\n            _tokenOnSale[tokenId]\r\n        );\r\n        return token;\r\n    }\r\n\r\n    function getAllCourses() public view returns (TokenProps[] memory) {\r\n        TokenProps[] memory tokens = new TokenProps[](_tokenIds.current());\r\n        uint256 counter = 0;\r\n\r\n        for (uint256 i = 1; i < _tokenIds.current() + 1; i++) {\r\n            TokenProps memory token = TokenProps(\r\n                i,\r\n                ownerOf(i),\r\n                _tokenPrices[i],\r\n                _tokenTitles[i],\r\n                _tokenDescriptions[i],\r\n                _tokenUris[i],\r\n                _tokenOnSale[i]\r\n            );\r\n            tokens[counter] = token;\r\n            counter++;\r\n        }\r\n\r\n        return tokens;\r\n    }\r\n}\r\n",
  "sourcePath": "E:/blockdemy/contracts/BlockdemyCourse.sol",
  "compiler": {
    "name": "solc",
    "version": "0.8.0+commit.c7dfd78e.Emscripten.clang"
  },
  "schemaVersion": "3.4.1",
  "updatedAt": "2021-08-14T17:05:28.883Z",
  "networkType": "ethereum",
  "devdoc": {
    "kind": "dev",
    "methods": {
      "approve(address,uint256)": {
        "details": "See {IERC721-approve}."
      },
      "balanceOf(address)": {
        "details": "See {IERC721-balanceOf}."
      },
      "getApproved(uint256)": {
        "details": "See {IERC721-getApproved}."
      },
      "isApprovedForAll(address,address)": {
        "details": "See {IERC721-isApprovedForAll}."
      },
      "name()": {
        "details": "See {IERC721Metadata-name}."
      },
      "ownerOf(uint256)": {
        "details": "See {IERC721-ownerOf}."
      },
      "safeTransferFrom(address,address,uint256)": {
        "details": "See {IERC721-safeTransferFrom}."
      },
      "safeTransferFrom(address,address,uint256,bytes)": {
        "details": "See {IERC721-safeTransferFrom}."
      },
      "setApprovalForAll(address,bool)": {
        "details": "See {IERC721-setApprovalForAll}."
      },
      "supportsInterface(bytes4)": {
        "details": "See {IERC165-supportsInterface}."
      },
      "symbol()": {
        "details": "See {IERC721Metadata-symbol}."
      },
      "tokenURI(uint256)": {
        "details": "See {IERC721Metadata-tokenURI}."
      },
      "transferFrom(address,address,uint256)": {
        "details": "See {IERC721-transferFrom}."
      }
    },
    "version": 1
  },
  "userdoc": {
    "kind": "user",
    "methods": {},
    "version": 1
  }
}