{
  "contractName": "BlockdemyCourse",
  "abi": [
    {
      "inputs": [],
      "stateMutability": "nonpayable",
      "type": "constructor"
    },
    {
      "anonymous": false,
      "inputs": [
        {
          "indexed": true,
          "internalType": "address",
          "name": "owner",
          "type": "address"
        },
        {
          "indexed": true,
          "internalType": "address",
          "name": "approved",
          "type": "address"
        },
        {
          "indexed": true,
          "internalType": "uint256",
          "name": "tokenId",
          "type": "uint256"
        }
      ],
      "name": "Approval",
      "type": "event"
    },
    {
      "anonymous": false,
      "inputs": [
        {
          "indexed": true,
          "internalType": "address",
          "name": "owner",
          "type": "address"
        },
        {
          "indexed": true,
          "internalType": "address",
          "name": "operator",
          "type": "address"
        },
        {
          "indexed": false,
          "internalType": "bool",
          "name": "approved",
          "type": "bool"
        }
      ],
      "name": "ApprovalForAll",
      "type": "event"
    },
    {
      "anonymous": false,
      "inputs": [
        {
          "indexed": true,
          "internalType": "address",
          "name": "from",
          "type": "address"
        },
        {
          "indexed": true,
          "internalType": "address",
          "name": "to",
          "type": "address"
        },
        {
          "indexed": true,
          "internalType": "uint256",
          "name": "tokenId",
          "type": "uint256"
        }
      ],
      "name": "Transfer",
      "type": "event"
    },
    {
      "inputs": [
        {
          "internalType": "address",
          "name": "to",
          "type": "address"
        },
        {
          "internalType": "uint256",
          "name": "tokenId",
          "type": "uint256"
        }
      ],
      "name": "approve",
      "outputs": [],
      "stateMutability": "nonpayable",
      "type": "function"
    },
    {
      "inputs": [
        {
          "internalType": "address",
          "name": "owner",
          "type": "address"
        }
      ],
      "name": "balanceOf",
      "outputs": [
        {
          "internalType": "uint256",
          "name": "",
          "type": "uint256"
        }
      ],
      "stateMutability": "view",
      "type": "function",
      "constant": true
    },
    {
      "inputs": [
        {
          "internalType": "uint256",
          "name": "tokenId",
          "type": "uint256"
        }
      ],
      "name": "getApproved",
      "outputs": [
        {
          "internalType": "address",
          "name": "",
          "type": "address"
        }
      ],
      "stateMutability": "view",
      "type": "function",
      "constant": true
    },
    {
      "inputs": [
        {
          "internalType": "address",
          "name": "owner",
          "type": "address"
        },
        {
          "internalType": "address",
          "name": "operator",
          "type": "address"
        }
      ],
      "name": "isApprovedForAll",
      "outputs": [
        {
          "internalType": "bool",
          "name": "",
          "type": "bool"
        }
      ],
      "stateMutability": "view",
      "type": "function",
      "constant": true
    },
    {
      "inputs": [],
      "name": "name",
      "outputs": [
        {
          "internalType": "string",
          "name": "",
          "type": "string"
        }
      ],
      "stateMutability": "view",
      "type": "function",
      "constant": true
    },
    {
      "inputs": [
        {
          "internalType": "uint256",
          "name": "tokenId",
          "type": "uint256"
        }
      ],
      "name": "ownerOf",
      "outputs": [
        {
          "internalType": "address",
          "name": "",
          "type": "address"
        }
      ],
      "stateMutability": "view",
      "type": "function",
      "constant": true
    },
    {
      "inputs": [
        {
          "internalType": "address",
          "name": "from",
          "type": "address"
        },
        {
          "internalType": "address",
          "name": "to",
          "type": "address"
        },
        {
          "internalType": "uint256",
          "name": "tokenId",
          "type": "uint256"
        }
      ],
      "name": "safeTransferFrom",
      "outputs": [],
      "stateMutability": "nonpayable",
      "type": "function"
    },
    {
      "inputs": [
        {
          "internalType": "address",
          "name": "from",
          "type": "address"
        },
        {
          "internalType": "address",
          "name": "to",
          "type": "address"
        },
        {
          "internalType": "uint256",
          "name": "tokenId",
          "type": "uint256"
        },
        {
          "internalType": "bytes",
          "name": "_data",
          "type": "bytes"
        }
      ],
      "name": "safeTransferFrom",
      "outputs": [],
      "stateMutability": "nonpayable",
      "type": "function"
    },
    {
      "inputs": [
        {
          "internalType": "address",
          "name": "operator",
          "type": "address"
        },
        {
          "internalType": "bool",
          "name": "approved",
          "type": "bool"
        }
      ],
      "name": "setApprovalForAll",
      "outputs": [],
      "stateMutability": "nonpayable",
      "type": "function"
    },
    {
      "inputs": [
        {
          "internalType": "bytes4",
          "name": "interfaceId",
          "type": "bytes4"
        }
      ],
      "name": "supportsInterface",
      "outputs": [
        {
          "internalType": "bool",
          "name": "",
          "type": "bool"
        }
      ],
      "stateMutability": "view",
      "type": "function",
      "constant": true
    },
    {
      "inputs": [],
      "name": "symbol",
      "outputs": [
        {
          "internalType": "string",
          "name": "",
          "type": "string"
        }
      ],
      "stateMutability": "view",
      "type": "function",
      "constant": true
    },
    {
      "inputs": [
        {
          "internalType": "uint256",
          "name": "tokenId",
          "type": "uint256"
        }
      ],
      "name": "tokenURI",
      "outputs": [
        {
          "internalType": "string",
          "name": "",
          "type": "string"
        }
      ],
      "stateMutability": "view",
      "type": "function",
      "constant": true
    },
    {
      "inputs": [
        {
          "internalType": "address",
          "name": "from",
          "type": "address"
        },
        {
          "internalType": "address",
          "name": "to",
          "type": "address"
        },
        {
          "internalType": "uint256",
          "name": "tokenId",
          "type": "uint256"
        }
      ],
      "name": "transferFrom",
      "outputs": [],
      "stateMutability": "nonpayable",
      "type": "function"
    },
    {
      "inputs": [
        {
          "internalType": "uint256",
          "name": "tokenId",
          "type": "uint256"
        },
        {
          "internalType": "string",
          "name": "_title",
          "type": "string"
        }
      ],
      "name": "setTokenTitle",
      "outputs": [],
      "stateMutability": "nonpayable",
      "type": "function"
    },
    {
      "inputs": [
        {
          "internalType": "uint256",
          "name": "tokenId",
          "type": "uint256"
        },
        {
          "internalType": "string",
          "name": "_description",
          "type": "string"
        }
      ],
      "name": "setTokenDescription",
      "outputs": [],
      "stateMutability": "nonpayable",
      "type": "function"
    },
    {
      "inputs": [
        {
          "internalType": "uint256",
          "name": "tokenId",
          "type": "uint256"
        },
        {
          "internalType": "bool",
          "name": "_sale",
          "type": "bool"
        }
      ],
      "name": "setTokenOnSale",
      "outputs": [],
      "stateMutability": "nonpayable",
      "type": "function"
    },
    {
      "inputs": [
        {
          "internalType": "uint256",
          "name": "tokenId",
          "type": "uint256"
        },
        {
          "internalType": "uint256",
          "name": "_price",
          "type": "uint256"
        }
      ],
      "name": "setTokenPrice",
      "outputs": [],
      "stateMutability": "nonpayable",
      "type": "function"
    },
    {
      "inputs": [
        {
          "internalType": "uint256",
          "name": "tokenId",
          "type": "uint256"
        },
        {
          "internalType": "string[]",
          "name": "_uris",
          "type": "string[]"
        }
      ],
      "name": "setTokenUris",
      "outputs": [],
      "stateMutability": "nonpayable",
      "type": "function"
    },
    {
      "inputs": [
        {
          "internalType": "uint256",
          "name": "tokenId",
          "type": "uint256"
        },
        {
          "internalType": "string[]",
          "name": "_uris",
          "type": "string[]"
        }
      ],
      "name": "addTokenUris",
      "outputs": [],
      "stateMutability": "nonpayable",
      "type": "function"
    },
    {
      "inputs": [
        {
          "internalType": "address",
          "name": "_owner",
          "type": "address"
        },
        {
          "internalType": "string",
          "name": "_title",
          "type": "string"
        },
        {
          "internalType": "string",
          "name": "_description",
          "type": "string"
        },
        {
          "internalType": "string[]",
          "name": "_uris",
          "type": "string[]"
        },
        {
          "internalType": "uint256",
          "name": "_price",
          "type": "uint256"
        },
        {
          "internalType": "bool",
          "name": "_sale",
          "type": "bool"
        }
      ],
      "name": "mintCourse",
      "outputs": [
        {
          "internalType": "uint256",
          "name": "",
          "type": "uint256"
        }
      ],
      "stateMutability": "nonpayable",
      "type": "function"
    },
    {
      "inputs": [
        {
          "internalType": "uint256",
          "name": "tokenId",
          "type": "uint256"
        },
        {
          "internalType": "string",
          "name": "_hash",
          "type": "string"
        }
      ],
      "name": "deleteUri",
      "outputs": [],
      "stateMutability": "nonpayable",
      "type": "function"
    },
    {
      "inputs": [
        {
          "internalType": "string",
          "name": "a",
          "type": "string"
        },
        {
          "internalType": "string",
          "name": "b",
          "type": "string"
        }
      ],
      "name": "compareStrings",
      "outputs": [
        {
          "internalType": "bool",
          "name": "",
          "type": "bool"
        }
      ],
      "stateMutability": "pure",
      "type": "function",
      "constant": true
    },
    {
      "inputs": [
        {
          "internalType": "uint256",
          "name": "tokenId",
          "type": "uint256"
        }
      ],
      "name": "getCourseById",
      "outputs": [
        {
          "components": [
            {
              "internalType": "uint256",
              "name": "id",
              "type": "uint256"
            },
            {
              "internalType": "address",
              "name": "owner",
              "type": "address"
            },
            {
              "internalType": "uint256",
              "name": "price",
              "type": "uint256"
            },
            {
              "internalType": "string",
              "name": "title",
              "type": "string"
            },
            {
              "internalType": "string",
              "name": "description",
              "type": "string"
            },
            {
              "internalType": "string[]",
              "name": "uris",
              "type": "string[]"
            },
            {
              "internalType": "bool",
              "name": "onSale",
              "type": "bool"
            }
          ],
          "internalType": "struct BlockdemyCourse.TokenProps",
          "name": "",
          "type": "tuple"
        }
      ],
      "stateMutability": "view",
      "type": "function",
      "constant": true
    },
    {
      "inputs": [],
      "name": "getAllCourses",
      "outputs": [
        {
          "components": [
            {
              "internalType": "uint256",
              "name": "id",
              "type": "uint256"
            },
            {
              "internalType": "address",
              "name": "owner",
              "type": "address"
            },
            {
              "internalType": "uint256",
              "name": "price",
              "type": "uint256"
            },
            {
              "internalType": "string",
              "name": "title",
              "type": "string"
            },
            {
              "internalType": "string",
              "name": "description",
              "type": "string"
            },
            {
              "internalType": "string[]",
              "name": "uris",
              "type": "string[]"
            },
            {
              "internalType": "bool",
              "name": "onSale",
              "type": "bool"
            }
          ],
          "internalType": "struct BlockdemyCourse.TokenProps[]",
          "name": "",
          "type": "tuple[]"
        }
      ],
      "stateMutability": "view",
      "type": "function",
      "constant": true
    }
  ],
  "bytecode": "0x60806040523480156200001157600080fd5b506040518060400160405280600c81526020017f4244454d5920436f7572736500000000000000000000000000000000000000008152506040518060400160405280600681526020017f4244454d59430000000000000000000000000000000000000000000000000000815250816000908051906020019062000096929190620000b8565b508060019080519060200190620000af929190620000b8565b505050620001cd565b828054620000c69062000168565b90600052602060002090601f016020900481019282620000ea576000855562000136565b82601f106200010557805160ff191683800117855562000136565b8280016001018555821562000136579182015b828111156200013557825182559160200191906001019062000118565b5b50905062000145919062000149565b5090565b5b80821115620001645760008160009055506001016200014a565b5090565b600060028204905060018216806200018157607f821691505b602082108114156200019857620001976200019e565b5b50919050565b7f4e487b7100000000000000000000000000000000000000000000000000000000600052602260045260246000fd5b61448480620001dd6000396000f3fe608060405234801561001057600080fd5b50600436106101585760003560e01c80636f2c408b116100c3578063bed34bba1161007c578063bed34bba146103bf578063c0da00c6146103ef578063c87b56dd1461040b578063e985e9c51461043b578063ea5b210f1461046b578063eb685c471461049b57610158565b80636f2c408b1461030157806370a082311461031d5780637b286c9b1461034d57806395d89b4114610369578063a22cb46514610387578063b88d4fde146103a357610158565b806323b872dd1161011557806323b872dd146102455780632449a88a14610261578063246a908b1461027d57806342842e0e1461029957806347b99a21146102b55780636352211e146102d157610158565b806301ffc9a71461015d57806304e48bd11461018d57806306fdde03146101ab578063081812fc146101c9578063095ea7b3146101f957806310e6c34314610215575b600080fd5b61017760048036038101906101729190613042565b6104b7565b6040516101849190613ccb565b60405180910390f35b610195610599565b6040516101a29190613ca9565b60405180910390f35b6101b3610959565b6040516101c09190613ce6565b60405180910390f35b6101e360048036038101906101de9190613100565b6109eb565b6040516101f09190613c42565b60405180910390f35b610213600480360381019061020e9190613006565b610a70565b005b61022f600480360381019061022a9190612f35565b610b88565b60405161023c9190613f6a565b60405180910390f35b61025f600480360381019061025a9190612e2f565b610bf8565b005b61027b6004803603810190610276919061317d565b610c58565b005b610297600480360381019061029291906131b9565b610d49565b005b6102b360048036038101906102ae9190612e2f565b610e37565b005b6102cf60048036038101906102ca91906131b9565b610e57565b005b6102eb60048036038101906102e69190613100565b611163565b6040516102f89190613c42565b60405180910390f35b61031b60048036038101906103169190613129565b611215565b005b61033760048036038101906103329190612dca565b611303565b6040516103449190613f6a565b60405180910390f35b61036760048036038101906103629190613129565b6113bb565b005b61037161152e565b60405161037e9190613ce6565b60405180910390f35b6103a1600480360381019061039c9190612ef9565b6115c0565b005b6103bd60048036038101906103b89190612e7e565b611741565b005b6103d960048036038101906103d49190613094565b6117a3565b6040516103e69190613ccb565b60405180910390f35b610409600480360381019061040491906131b9565b6117fc565b005b61042560048036038101906104209190613100565b6118ea565b6040516104329190613ce6565b60405180910390f35b61045560048036038101906104509190612df3565b611991565b6040516104629190613ccb565b60405180910390f35b61048560048036038101906104809190613100565b611a25565b6040516104929190613f48565b60405180910390f35b6104b560048036038101906104b0919061320d565b611d30565b005b60007f80ac58cd000000000000000000000000000000000000000000000000000000007bffffffffffffffffffffffffffffffffffffffffffffffffffffffff1916827bffffffffffffffffffffffffffffffffffffffffffffffffffffffff1916148061058257507f5b5e139f000000000000000000000000000000000000000000000000000000007bffffffffffffffffffffffffffffffffffffffffffffffffffffffff1916827bffffffffffffffffffffffffffffffffffffffffffffffffffffffff1916145b80610592575061059182611e0e565b5b9050919050565b606060006105a76006611e78565b67ffffffffffffffff8111156105e6577f4e487b7100000000000000000000000000000000000000000000000000000000600052604160045260246000fd5b60405190808252806020026020018201604052801561061f57816020015b61060c612a4e565b8152602001906001900390816106045790505b509050600080600190505b60016106366006611e78565b6106409190614108565b8110156109505760006040518060e0016040528083815260200161066384611163565b73ffffffffffffffffffffffffffffffffffffffff16815260200160086000858152602001908152602001600020548152602001600a600085815260200190815260200160002080546106b590614279565b80601f01602080910402602001604051908101604052809291908181526020018280546106e190614279565b801561072e5780601f106107035761010080835404028352916020019161072e565b820191906000526020600020905b81548152906001019060200180831161071157829003601f168201915b50505050508152602001600b6000858152602001908152602001600020805461075690614279565b80601f016020809104026020016040519081016040528092919081815260200182805461078290614279565b80156107cf5780601f106107a4576101008083540402835291602001916107cf565b820191906000526020600020905b8154815290600101906020018083116107b257829003601f168201915b5050505050815260200160076000858152602001908152602001600020805480602002602001604051908101604052809291908181526020016000905b828210156108b857838290600052602060002001805461082b90614279565b80601f016020809104026020016040519081016040528092919081815260200182805461085790614279565b80156108a45780601f10610879576101008083540402835291602001916108a4565b820191906000526020600020905b81548152906001019060200180831161088757829003601f168201915b50505050508152602001906001019061080c565b5050505081526020016009600085815260200190815260200160002060009054906101000a900460ff161515815250905080848481518110610923577f4e487b7100000000000000000000000000000000000000000000000000000000600052603260045260246000fd5b60200260200101819052508280610939906142ab565b935050508080610948906142ab565b91505061062a565b50819250505090565b60606000805461096890614279565b80601f016020809104026020016040519081016040528092919081815260200182805461099490614279565b80156109e15780601f106109b6576101008083540402835291602001916109e1565b820191906000526020600020905b8154815290600101906020018083116109c457829003601f168201915b5050505050905090565b60006109f682611e86565b610a35576040517f08c379a0000000000000000000000000000000000000000000000000000000008152600401610a2c90613e48565b60405180910390fd5b6004600083815260200190815260200160002060009054906101000a900473ffffffffffffffffffffffffffffffffffffffff169050919050565b6000610a7b82611163565b90508073ffffffffffffffffffffffffffffffffffffffff168373ffffffffffffffffffffffffffffffffffffffff161415610aec576040517f08c379a0000000000000000000000000000000000000000000000000000000008152600401610ae390613ec8565b60405180910390fd5b8073ffffffffffffffffffffffffffffffffffffffff16610b0b611ef2565b73ffffffffffffffffffffffffffffffffffffffff161480610b3a5750610b3981610b34611ef2565b611991565b5b610b79576040517f08c379a0000000000000000000000000000000000000000000000000000000008152600401610b7090613dc8565b60405180910390fd5b610b838383611efa565b505050565b6000808311610b9657600080fd5b610ba06006611fb3565b6000610bac6006611e78565b9050610bb88882611fc9565b610bc28185611d30565b610bcc8186611215565b610bd68184610c58565b610be081886117fc565b610bea8187610d49565b809150509695505050505050565b610c09610c03611ef2565b82612197565b610c48576040517f08c379a0000000000000000000000000000000000000000000000000000000008152600401610c3f90613ee8565b60405180910390fd5b610c53838383612275565b505050565b81610c6281611e86565b610ca1576040517f08c379a0000000000000000000000000000000000000000000000000000000008152600401610c9890613f28565b60405180910390fd5b823373ffffffffffffffffffffffffffffffffffffffff16610cc282611163565b73ffffffffffffffffffffffffffffffffffffffff1614610d18576040517f08c379a0000000000000000000000000000000000000000000000000000000008152600401610d0f90613e68565b60405180910390fd5b826009600086815260200190815260200160002060006101000a81548160ff02191690831515021790555050505050565b81610d5381611e86565b610d92576040517f08c379a0000000000000000000000000000000000000000000000000000000008152600401610d8990613f28565b60405180910390fd5b823373ffffffffffffffffffffffffffffffffffffffff16610db382611163565b73ffffffffffffffffffffffffffffffffffffffff1614610e09576040517f08c379a0000000000000000000000000000000000000000000000000000000008152600401610e0090613e68565b60405180910390fd5b82600b60008681526020019081526020016000209080519060200190610e30929190612aa3565b5050505050565b610e5283838360405180602001604052806000815250611741565b505050565b81610e6181611e86565b610ea0576040517f08c379a0000000000000000000000000000000000000000000000000000000008152600401610e9790613f28565b60405180910390fd5b823373ffffffffffffffffffffffffffffffffffffffff16610ec182611163565b73ffffffffffffffffffffffffffffffffffffffff1614610f17576040517f08c379a0000000000000000000000000000000000000000000000000000000008152600401610f0e90613e68565b60405180910390fd5b6000610f2385856124d1565b9050600060076000878152602001908152602001600020805480602002602001604051908101604052809291908181526020016000905b82821015611006578382906000526020600020018054610f7990614279565b80601f0160208091040260200160405190810160405280929190818152602001828054610fa590614279565b8015610ff25780601f10610fc757610100808354040283529160200191610ff2565b820191906000526020600020905b815481529060010190602001808311610fd557829003601f168201915b505050505081526020019060010190610f5a565b50505050905060008290505b60018251611020919061418f565b8110156110cb57816001826110359190614108565b8151811061106c577f4e487b7100000000000000000000000000000000000000000000000000000000600052603260045260246000fd5b60200260200101518282815181106110ad577f4e487b7100000000000000000000000000000000000000000000000000000000600052603260045260246000fd5b602002602001018190525080806110c3906142ab565b915050611012565b50806007600088815260200190815260200160002090805190602001906110f3929190612b29565b506007600087815260200190815260200160002080548061113d577f4e487b7100000000000000000000000000000000000000000000000000000000600052603160045260246000fd5b6001900381819060005260206000200160006111599190612b89565b9055505050505050565b6000806002600084815260200190815260200160002060009054906101000a900473ffffffffffffffffffffffffffffffffffffffff169050600073ffffffffffffffffffffffffffffffffffffffff168173ffffffffffffffffffffffffffffffffffffffff16141561120c576040517f08c379a000000000000000000000000000000000000000000000000000000000815260040161120390613e08565b60405180910390fd5b80915050919050565b8161121f81611e86565b61125e576040517f08c379a000000000000000000000000000000000000000000000000000000000815260040161125590613f28565b60405180910390fd5b823373ffffffffffffffffffffffffffffffffffffffff1661127f82611163565b73ffffffffffffffffffffffffffffffffffffffff16146112d5576040517f08c379a00000000000000000000000000000000000000000000000000000000081526004016112cc90613e68565b60405180910390fd5b826007600086815260200190815260200160002090805190602001906112fc929190612b29565b5050505050565b60008073ffffffffffffffffffffffffffffffffffffffff168273ffffffffffffffffffffffffffffffffffffffff161415611374576040517f08c379a000000000000000000000000000000000000000000000000000000000815260040161136b90613de8565b60405180910390fd5b600360008373ffffffffffffffffffffffffffffffffffffffff1673ffffffffffffffffffffffffffffffffffffffff168152602001908152602001600020549050919050565b816113c581611e86565b611404576040517f08c379a00000000000000000000000000000000000000000000000000000000081526004016113fb90613f28565b60405180910390fd5b823373ffffffffffffffffffffffffffffffffffffffff1661142582611163565b73ffffffffffffffffffffffffffffffffffffffff161461147b576040517f08c379a000000000000000000000000000000000000000000000000000000000815260040161147290613e68565b60405180910390fd5b60005b835181101561152757600760008681526020019081526020016000208482815181106114d3577f4e487b7100000000000000000000000000000000000000000000000000000000600052603260045260246000fd5b6020026020010151908060018154018082558091505060019003906000526020600020016000909190919091509080519060200190611513929190612aa3565b50808061151f906142ab565b91505061147e565b5050505050565b60606001805461153d90614279565b80601f016020809104026020016040519081016040528092919081815260200182805461156990614279565b80156115b65780601f1061158b576101008083540402835291602001916115b6565b820191906000526020600020905b81548152906001019060200180831161159957829003601f168201915b5050505050905090565b6115c8611ef2565b73ffffffffffffffffffffffffffffffffffffffff168273ffffffffffffffffffffffffffffffffffffffff161415611636576040517f08c379a000000000000000000000000000000000000000000000000000000000815260040161162d90613d68565b60405180910390fd5b8060056000611643611ef2565b73ffffffffffffffffffffffffffffffffffffffff1673ffffffffffffffffffffffffffffffffffffffff16815260200190815260200160002060008473ffffffffffffffffffffffffffffffffffffffff1673ffffffffffffffffffffffffffffffffffffffff16815260200190815260200160002060006101000a81548160ff0219169083151502179055508173ffffffffffffffffffffffffffffffffffffffff166116f0611ef2565b73ffffffffffffffffffffffffffffffffffffffff167f17307eab39ab6107e8899845ad3d59bd9653f200f220920489ca2b5937696c31836040516117359190613ccb565b60405180910390a35050565b61175261174c611ef2565b83612197565b611791576040517f08c379a000000000000000000000000000000000000000000000000000000000815260040161178890613ee8565b60405180910390fd5b61179d8484848461267f565b50505050565b6000816040516020016117b69190613c07565b60405160208183030381529060405280519060200120836040516020016117dd9190613c07565b6040516020818303038152906040528051906020012014905092915050565b8161180681611e86565b611845576040517f08c379a000000000000000000000000000000000000000000000000000000000815260040161183c90613f28565b60405180910390fd5b823373ffffffffffffffffffffffffffffffffffffffff1661186682611163565b73ffffffffffffffffffffffffffffffffffffffff16146118bc576040517f08c379a00000000000000000000000000000000000000000000000000000000081526004016118b390613e68565b60405180910390fd5b82600a600086815260200190815260200160002090805190602001906118e3929190612aa3565b5050505050565b60606118f582611e86565b611934576040517f08c379a000000000000000000000000000000000000000000000000000000000815260040161192b90613ea8565b60405180910390fd5b600061193e6126db565b9050600081511161195e5760405180602001604052806000815250611989565b80611968846126f2565b604051602001611979929190613c1e565b6040516020818303038152906040525b915050919050565b6000600560008473ffffffffffffffffffffffffffffffffffffffff1673ffffffffffffffffffffffffffffffffffffffff16815260200190815260200160002060008373ffffffffffffffffffffffffffffffffffffffff1673ffffffffffffffffffffffffffffffffffffffff16815260200190815260200160002060009054906101000a900460ff16905092915050565b611a2d612a4e565b600082118015611a465750611a426006611e78565b8211155b611a85576040517f08c379a0000000000000000000000000000000000000000000000000000000008152600401611a7c90613f08565b60405180910390fd5b60006040518060e00160405280848152602001611aa185611163565b73ffffffffffffffffffffffffffffffffffffffff16815260200160086000868152602001908152602001600020548152602001600a60008681526020019081526020016000208054611af390614279565b80601f0160208091040260200160405190810160405280929190818152602001828054611b1f90614279565b8015611b6c5780601f10611b4157610100808354040283529160200191611b6c565b820191906000526020600020905b815481529060010190602001808311611b4f57829003601f168201915b50505050508152602001600b60008681526020019081526020016000208054611b9490614279565b80601f0160208091040260200160405190810160405280929190818152602001828054611bc090614279565b8015611c0d5780601f10611be257610100808354040283529160200191611c0d565b820191906000526020600020905b815481529060010190602001808311611bf057829003601f168201915b5050505050815260200160076000868152602001908152602001600020805480602002602001604051908101604052809291908181526020016000905b82821015611cf6578382906000526020600020018054611c6990614279565b80601f0160208091040260200160405190810160405280929190818152602001828054611c9590614279565b8015611ce25780601f10611cb757610100808354040283529160200191611ce2565b820191906000526020600020905b815481529060010190602001808311611cc557829003601f168201915b505050505081526020019060010190611c4a565b5050505081526020016009600086815260200190815260200160002060009054906101000a900460ff161515815250905080915050919050565b81611d3a81611e86565b611d79576040517f08c379a0000000000000000000000000000000000000000000000000000000008152600401611d7090613f28565b60405180910390fd5b823373ffffffffffffffffffffffffffffffffffffffff16611d9a82611163565b73ffffffffffffffffffffffffffffffffffffffff1614611df0576040517f08c379a0000000000000000000000000000000000000000000000000000000008152600401611de790613e68565b60405180910390fd5b82600860008681526020019081526020016000208190555050505050565b60007f01ffc9a7000000000000000000000000000000000000000000000000000000007bffffffffffffffffffffffffffffffffffffffffffffffffffffffff1916827bffffffffffffffffffffffffffffffffffffffffffffffffffffffff1916149050919050565b600081600001549050919050565b60008073ffffffffffffffffffffffffffffffffffffffff166002600084815260200190815260200160002060009054906101000a900473ffffffffffffffffffffffffffffffffffffffff1673ffffffffffffffffffffffffffffffffffffffff1614159050919050565b600033905090565b816004600083815260200190815260200160002060006101000a81548173ffffffffffffffffffffffffffffffffffffffff021916908373ffffffffffffffffffffffffffffffffffffffff160217905550808273ffffffffffffffffffffffffffffffffffffffff16611f6d83611163565b73ffffffffffffffffffffffffffffffffffffffff167f8c5be1e5ebec7d5bd14f71427d1e84f3dd0314c0f7b2291e5b200ac8c7c3b92560405160405180910390a45050565b6001816000016000828254019250508190555050565b600073ffffffffffffffffffffffffffffffffffffffff168273ffffffffffffffffffffffffffffffffffffffff161415612039576040517f08c379a000000000000000000000000000000000000000000000000000000000815260040161203090613e28565b60405180910390fd5b61204281611e86565b15612082576040517f08c379a000000000000000000000000000000000000000000000000000000000815260040161207990613d28565b60405180910390fd5b61208e6000838361289f565b6001600360008473ffffffffffffffffffffffffffffffffffffffff1673ffffffffffffffffffffffffffffffffffffffff16815260200190815260200160002060008282546120de9190614108565b92505081905550816002600083815260200190815260200160002060006101000a81548173ffffffffffffffffffffffffffffffffffffffff021916908373ffffffffffffffffffffffffffffffffffffffff160217905550808273ffffffffffffffffffffffffffffffffffffffff16600073ffffffffffffffffffffffffffffffffffffffff167fddf252ad1be2c89b69c2b068fc378daa952ba7f163c4a11628f55a4df523b3ef60405160405180910390a45050565b60006121a282611e86565b6121e1576040517f08c379a00000000000000000000000000000000000000000000000000000000081526004016121d890613da8565b60405180910390fd5b60006121ec83611163565b90508073ffffffffffffffffffffffffffffffffffffffff168473ffffffffffffffffffffffffffffffffffffffff16148061225b57508373ffffffffffffffffffffffffffffffffffffffff16612243846109eb565b73ffffffffffffffffffffffffffffffffffffffff16145b8061226c575061226b8185611991565b5b91505092915050565b8273ffffffffffffffffffffffffffffffffffffffff1661229582611163565b73ffffffffffffffffffffffffffffffffffffffff16146122eb576040517f08c379a00000000000000000000000000000000000000000000000000000000081526004016122e290613e88565b60405180910390fd5b600073ffffffffffffffffffffffffffffffffffffffff168273ffffffffffffffffffffffffffffffffffffffff16141561235b576040517f08c379a000000000000000000000000000000000000000000000000000000000815260040161235290613d48565b60405180910390fd5b61236683838361289f565b612371600082611efa565b6001600360008573ffffffffffffffffffffffffffffffffffffffff1673ffffffffffffffffffffffffffffffffffffffff16815260200190815260200160002060008282546123c1919061418f565b925050819055506001600360008473ffffffffffffffffffffffffffffffffffffffff1673ffffffffffffffffffffffffffffffffffffffff16815260200190815260200160002060008282546124189190614108565b92505081905550816002600083815260200190815260200160002060006101000a81548173ffffffffffffffffffffffffffffffffffffffff021916908373ffffffffffffffffffffffffffffffffffffffff160217905550808273ffffffffffffffffffffffffffffffffffffffff168473ffffffffffffffffffffffffffffffffffffffff167fddf252ad1be2c89b69c2b068fc378daa952ba7f163c4a11628f55a4df523b3ef60405160405180910390a4505050565b60008060076000858152602001908152602001600020805480602002602001604051908101604052809291908181526020016000905b828210156125b357838290600052602060002001805461252690614279565b80601f016020809104026020016040519081016040528092919081815260200182805461255290614279565b801561259f5780601f106125745761010080835404028352916020019161259f565b820191906000526020600020905b81548152906001019060200180831161258257829003601f168201915b505050505081526020019060010190612507565b50505050905060005b600182516125ca919061418f565b81101561263d5761261b82828151811061260d577f4e487b7100000000000000000000000000000000000000000000000000000000600052603260045260246000fd5b6020026020010151856117a3565b1561262a578092505050612679565b8080612635906142ab565b9150506125bc565b506040517f08c379a000000000000000000000000000000000000000000000000000000000815260040161267090613d88565b60405180910390fd5b92915050565b61268a848484612275565b612696848484846128a4565b6126d5576040517f08c379a00000000000000000000000000000000000000000000000000000000081526004016126cc90613d08565b60405180910390fd5b50505050565b606060405180602001604052806000815250905090565b6060600082141561273a576040518060400160405280600181526020017f3000000000000000000000000000000000000000000000000000000000000000815250905061289a565b600082905060005b6000821461276c578080612755906142ab565b915050600a82612765919061415e565b9150612742565b60008167ffffffffffffffff8111156127ae577f4e487b7100000000000000000000000000000000000000000000000000000000600052604160045260246000fd5b6040519080825280601f01601f1916602001820160405280156127e05781602001600182028036833780820191505090505b5090505b60008514612893576001826127f9919061418f565b9150600a8561280891906142f4565b60306128149190614108565b60f81b818381518110612850577f4e487b7100000000000000000000000000000000000000000000000000000000600052603260045260246000fd5b60200101907effffffffffffffffffffffffffffffffffffffffffffffffffffffffffffff1916908160001a905350600a8561288c919061415e565b94506127e4565b8093505050505b919050565b505050565b60006128c58473ffffffffffffffffffffffffffffffffffffffff16612a3b565b15612a2e578373ffffffffffffffffffffffffffffffffffffffff1663150b7a026128ee611ef2565b8786866040518563ffffffff1660e01b81526004016129109493929190613c5d565b602060405180830381600087803b15801561292a57600080fd5b505af192505050801561295b57506040513d601f19601f82011682018060405250810190612958919061306b565b60015b6129de573d806000811461298b576040519150601f19603f3d011682016040523d82523d6000602084013e612990565b606091505b506000815114156129d6576040517f08c379a00000000000000000000000000000000000000000000000000000000081526004016129cd90613d08565b60405180910390fd5b805181602001fd5b63150b7a0260e01b7bffffffffffffffffffffffffffffffffffffffffffffffffffffffff1916817bffffffffffffffffffffffffffffffffffffffffffffffffffffffff191614915050612a33565b600190505b949350505050565b600080823b905060008111915050919050565b6040518060e0016040528060008152602001600073ffffffffffffffffffffffffffffffffffffffff168152602001600081526020016060815260200160608152602001606081526020016000151581525090565b828054612aaf90614279565b90600052602060002090601f016020900481019282612ad15760008555612b18565b82601f10612aea57805160ff1916838001178555612b18565b82800160010185558215612b18579182015b82811115612b17578251825591602001919060010190612afc565b5b509050612b259190612bc9565b5090565b828054828255906000526020600020908101928215612b78579160200282015b82811115612b77578251829080519060200190612b67929190612aa3565b5091602001919060010190612b49565b5b509050612b859190612be6565b5090565b508054612b9590614279565b6000825580601f10612ba75750612bc6565b601f016020900490600052602060002090810190612bc59190612bc9565b5b50565b5b80821115612be2576000816000905550600101612bca565b5090565b5b80821115612c065760008181612bfd9190612b89565b50600101612be7565b5090565b6000612c1d612c1884613fb6565b613f85565b9050808382526020820190508260005b85811015612c5d5781358501612c438882612d8b565b845260208401935060208301925050600181019050612c2d565b5050509392505050565b6000612c7a612c7584613fe2565b613f85565b905082815260208101848484011115612c9257600080fd5b612c9d848285614237565b509392505050565b6000612cb8612cb384614012565b613f85565b905082815260208101848484011115612cd057600080fd5b612cdb848285614237565b509392505050565b600081359050612cf2816143f2565b92915050565b600082601f830112612d0957600080fd5b8135612d19848260208601612c0a565b91505092915050565b600081359050612d3181614409565b92915050565b600081359050612d4681614420565b92915050565b600081519050612d5b81614420565b92915050565b600082601f830112612d7257600080fd5b8135612d82848260208601612c67565b91505092915050565b600082601f830112612d9c57600080fd5b8135612dac848260208601612ca5565b91505092915050565b600081359050612dc481614437565b92915050565b600060208284031215612ddc57600080fd5b6000612dea84828501612ce3565b91505092915050565b60008060408385031215612e0657600080fd5b6000612e1485828601612ce3565b9250506020612e2585828601612ce3565b9150509250929050565b600080600060608486031215612e4457600080fd5b6000612e5286828701612ce3565b9350506020612e6386828701612ce3565b9250506040612e7486828701612db5565b9150509250925092565b60008060008060808587031215612e9457600080fd5b6000612ea287828801612ce3565b9450506020612eb387828801612ce3565b9350506040612ec487828801612db5565b925050606085013567ffffffffffffffff811115612ee157600080fd5b612eed87828801612d61565b91505092959194509250565b60008060408385031215612f0c57600080fd5b6000612f1a85828601612ce3565b9250506020612f2b85828601612d22565b9150509250929050565b60008060008060008060c08789031215612f4e57600080fd5b6000612f5c89828a01612ce3565b965050602087013567ffffffffffffffff811115612f7957600080fd5b612f8589828a01612d8b565b955050604087013567ffffffffffffffff811115612fa257600080fd5b612fae89828a01612d8b565b945050606087013567ffffffffffffffff811115612fcb57600080fd5b612fd789828a01612cf8565b9350506080612fe889828a01612db5565b92505060a0612ff989828a01612d22565b9150509295509295509295565b6000806040838503121561301957600080fd5b600061302785828601612ce3565b925050602061303885828601612db5565b9150509250929050565b60006020828403121561305457600080fd5b600061306284828501612d37565b91505092915050565b60006020828403121561307d57600080fd5b600061308b84828501612d4c565b91505092915050565b600080604083850312156130a757600080fd5b600083013567ffffffffffffffff8111156130c157600080fd5b6130cd85828601612d8b565b925050602083013567ffffffffffffffff8111156130ea57600080fd5b6130f685828601612d8b565b9150509250929050565b60006020828403121561311257600080fd5b600061312084828501612db5565b91505092915050565b6000806040838503121561313c57600080fd5b600061314a85828601612db5565b925050602083013567ffffffffffffffff81111561316757600080fd5b61317385828601612cf8565b9150509250929050565b6000806040838503121561319057600080fd5b600061319e85828601612db5565b92505060206131af85828601612d22565b9150509250929050565b600080604083850312156131cc57600080fd5b60006131da85828601612db5565b925050602083013567ffffffffffffffff8111156131f757600080fd5b61320385828601612d8b565b9150509250929050565b6000806040838503121561322057600080fd5b600061322e85828601612db5565b925050602061323f85828601612db5565b9150509250929050565b600061325583836133d0565b905092915050565b60006132698383613a95565b905092915050565b61327a816141c3565b82525050565b613289816141c3565b82525050565b600061329a82614062565b6132a481856140a8565b9350836020820285016132b685614042565b8060005b858110156132f257848403895281516132d38582613249565b94506132de8361408e565b925060208a019950506001810190506132ba565b50829750879550505050505092915050565b600061330f8261406d565b61331981856140b9565b93508360208202850161332b85614052565b8060005b858110156133675784840389528151613348858261325d565b94506133538361409b565b925060208a0199505060018101905061332f565b50829750879550505050505092915050565b613382816141d5565b82525050565b613391816141d5565b82525050565b60006133a282614078565b6133ac81856140ca565b93506133bc818560208601614246565b6133c5816143e1565b840191505092915050565b60006133db82614083565b6133e581856140db565b93506133f5818560208601614246565b6133fe816143e1565b840191505092915050565b600061341482614083565b61341e81856140ec565b935061342e818560208601614246565b613437816143e1565b840191505092915050565b600061344d82614083565b61345781856140fd565b9350613467818560208601614246565b80840191505092915050565b60006134806032836140ec565b91507f4552433732313a207472616e7366657220746f206e6f6e20455243373231526560008301527f63656976657220696d706c656d656e74657200000000000000000000000000006020830152604082019050919050565b60006134e6601c836140ec565b91507f4552433732313a20746f6b656e20616c7265616479206d696e746564000000006000830152602082019050919050565b60006135266024836140ec565b91507f4552433732313a207472616e7366657220746f20746865207a65726f2061646460008301527f72657373000000000000000000000000000000000000000000000000000000006020830152604082019050919050565b600061358c6019836140ec565b91507f4552433732313a20617070726f766520746f2063616c6c6572000000000000006000830152602082019050919050565b60006135cc6011836140ec565b91507f6e6f6e206578697374656e7420686173680000000000000000000000000000006000830152602082019050919050565b600061360c602c836140ec565b91507f4552433732313a206f70657261746f7220717565727920666f72206e6f6e657860008301527f697374656e7420746f6b656e00000000000000000000000000000000000000006020830152604082019050919050565b60006136726038836140ec565b91507f4552433732313a20617070726f76652063616c6c6572206973206e6f74206f7760008301527f6e6572206e6f7220617070726f76656420666f7220616c6c00000000000000006020830152604082019050919050565b60006136d8602a836140ec565b91507f4552433732313a2062616c616e636520717565727920666f7220746865207a6560008301527f726f2061646472657373000000000000000000000000000000000000000000006020830152604082019050919050565b600061373e6029836140ec565b91507f4552433732313a206f776e657220717565727920666f72206e6f6e657869737460008301527f656e7420746f6b656e00000000000000000000000000000000000000000000006020830152604082019050919050565b60006137a46020836140ec565b91507f4552433732313a206d696e7420746f20746865207a65726f20616464726573736000830152602082019050919050565b60006137e4602c836140ec565b91507f4552433732313a20617070726f76656420717565727920666f72206e6f6e657860008301527f697374656e7420746f6b656e00000000000000000000000000000000000000006020830152604082019050919050565b600061384a6017836140ec565b91507f63616c6c6572206973206e6f7420746865206f776e65720000000000000000006000830152602082019050919050565b600061388a6029836140ec565b91507f4552433732313a207472616e73666572206f6620746f6b656e2074686174206960008301527f73206e6f74206f776e00000000000000000000000000000000000000000000006020830152604082019050919050565b60006138f0602f836140ec565b91507f4552433732314d657461646174613a2055524920717565727920666f72206e6f60008301527f6e6578697374656e7420746f6b656e00000000000000000000000000000000006020830152604082019050919050565b60006139566021836140ec565b91507f4552433732313a20617070726f76616c20746f2063757272656e74206f776e6560008301527f72000000000000000000000000000000000000000000000000000000000000006020830152604082019050919050565b60006139bc6031836140ec565b91507f4552433732313a207472616e736665722063616c6c6572206973206e6f74206f60008301527f776e6572206e6f7220617070726f7665640000000000000000000000000000006020830152604082019050919050565b6000613a22600e836140ec565b91507f77726f6e6720746f6b656e2069640000000000000000000000000000000000006000830152602082019050919050565b6000613a626014836140ec565b91507f746f6b656e20646f6573206e6f742065786973740000000000000000000000006000830152602082019050919050565b600060e083016000830151613aad6000860182613be9565b506020830151613ac06020860182613271565b506040830151613ad36040860182613be9565b5060608301518482036060860152613aeb82826133d0565b91505060808301518482036080860152613b0582826133d0565b91505060a083015184820360a0860152613b1f828261328f565b91505060c0830151613b3460c0860182613379565b508091505092915050565b600060e083016000830151613b576000860182613be9565b506020830151613b6a6020860182613271565b506040830151613b7d6040860182613be9565b5060608301518482036060860152613b9582826133d0565b91505060808301518482036080860152613baf82826133d0565b91505060a083015184820360a0860152613bc9828261328f565b91505060c0830151613bde60c0860182613379565b508091505092915050565b613bf28161422d565b82525050565b613c018161422d565b82525050565b6000613c138284613442565b915081905092915050565b6000613c2a8285613442565b9150613c368284613442565b91508190509392505050565b6000602082019050613c576000830184613280565b92915050565b6000608082019050613c726000830187613280565b613c7f6020830186613280565b613c8c6040830185613bf8565b8181036060830152613c9e8184613397565b905095945050505050565b60006020820190508181036000830152613cc38184613304565b905092915050565b6000602082019050613ce06000830184613388565b92915050565b60006020820190508181036000830152613d008184613409565b905092915050565b60006020820190508181036000830152613d2181613473565b9050919050565b60006020820190508181036000830152613d41816134d9565b9050919050565b60006020820190508181036000830152613d6181613519565b9050919050565b60006020820190508181036000830152613d818161357f565b9050919050565b60006020820190508181036000830152613da1816135bf565b9050919050565b60006020820190508181036000830152613dc1816135ff565b9050919050565b60006020820190508181036000830152613de181613665565b9050919050565b60006020820190508181036000830152613e01816136cb565b9050919050565b60006020820190508181036000830152613e2181613731565b9050919050565b60006020820190508181036000830152613e4181613797565b9050919050565b60006020820190508181036000830152613e61816137d7565b9050919050565b60006020820190508181036000830152613e818161383d565b9050919050565b60006020820190508181036000830152613ea18161387d565b9050919050565b60006020820190508181036000830152613ec1816138e3565b9050919050565b60006020820190508181036000830152613ee181613949565b9050919050565b60006020820190508181036000830152613f01816139af565b9050919050565b60006020820190508181036000830152613f2181613a15565b9050919050565b60006020820190508181036000830152613f4181613a55565b9050919050565b60006020820190508181036000830152613f628184613b3f565b905092915050565b6000602082019050613f7f6000830184613bf8565b92915050565b6000604051905081810181811067ffffffffffffffff82111715613fac57613fab6143b2565b5b8060405250919050565b600067ffffffffffffffff821115613fd157613fd06143b2565b5b602082029050602081019050919050565b600067ffffffffffffffff821115613ffd57613ffc6143b2565b5b601f19601f8301169050602081019050919050565b600067ffffffffffffffff82111561402d5761402c6143b2565b5b601f19601f8301169050602081019050919050565b6000819050602082019050919050565b6000819050602082019050919050565b600081519050919050565b600081519050919050565b600081519050919050565b600081519050919050565b6000602082019050919050565b6000602082019050919050565b600082825260208201905092915050565b600082825260208201905092915050565b600082825260208201905092915050565b600082825260208201905092915050565b600082825260208201905092915050565b600081905092915050565b60006141138261422d565b915061411e8361422d565b9250827fffffffffffffffffffffffffffffffffffffffffffffffffffffffffffffffff0382111561415357614152614325565b5b828201905092915050565b60006141698261422d565b91506141748361422d565b92508261418457614183614354565b5b828204905092915050565b600061419a8261422d565b91506141a58361422d565b9250828210156141b8576141b7614325565b5b828203905092915050565b60006141ce8261420d565b9050919050565b60008115159050919050565b60007fffffffff0000000000000000000000000000000000000000000000000000000082169050919050565b600073ffffffffffffffffffffffffffffffffffffffff82169050919050565b6000819050919050565b82818337600083830152505050565b60005b83811015614264578082015181840152602081019050614249565b83811115614273576000848401525b50505050565b6000600282049050600182168061429157607f821691505b602082108114156142a5576142a4614383565b5b50919050565b60006142b68261422d565b91507fffffffffffffffffffffffffffffffffffffffffffffffffffffffffffffffff8214156142e9576142e8614325565b5b600182019050919050565b60006142ff8261422d565b915061430a8361422d565b92508261431a57614319614354565b5b828206905092915050565b7f4e487b7100000000000000000000000000000000000000000000000000000000600052601160045260246000fd5b7f4e487b7100000000000000000000000000000000000000000000000000000000600052601260045260246000fd5b7f4e487b7100000000000000000000000000000000000000000000000000000000600052602260045260246000fd5b7f4e487b7100000000000000000000000000000000000000000000000000000000600052604160045260246000fd5b6000601f19601f8301169050919050565b6143fb816141c3565b811461440657600080fd5b50565b614412816141d5565b811461441d57600080fd5b50565b614429816141e1565b811461443457600080fd5b50565b6144408161422d565b811461444b57600080fd5b5056fea26469706673582212202c51d3317d2a35519c0d3575742ccf293a4820b6f5074b4e0abb22e0bf70882364736f6c63430008000033",
  "immutableReferences": {},
  "source": "// SPDX-License-Identifier: MIT\r\npragma solidity ^0.8.0;\r\n\r\nimport \"@openzeppelin/contracts/token/ERC721/ERC721.sol\";\r\nimport \"@openzeppelin/contracts/utils/Counters.sol\";\r\n\r\n\r\ncontract BlockdemyCourse is ERC721 {\r\n    using Counters for Counters.Counter;\r\n    Counters.Counter private _tokenIds;\r\n\r\n    mapping(uint256 => string[]) private _tokenUris;\r\n    mapping(uint256 => uint256) private _tokenPrices;\r\n    mapping(uint256 => bool) private _tokenOnSale;\r\n    mapping(uint256 => string) private _tokenTitles;\r\n    mapping(uint256 => string) private _tokenDescriptions;\r\n\r\n    struct TokenProps {\r\n        uint256 id;\r\n        address owner;\r\n        uint256 price;\r\n        string title;\r\n        string description;\r\n        string[] uris;\r\n        bool onSale;\r\n    }\r\n\r\n    //we will need to transform the string[] into video[]\r\n    //solidity se queja mucho si se usa una estructura dentro de otra\r\n    //hay que encontrar la manera de tener esta informacion\r\n    struct video{\r\n        string title;\r\n        string description;\r\n        string uri;\r\n    }\r\n\r\n    constructor() ERC721(\"BDEMY Course\", \"BDEMYC\") {}\r\n\r\n    function setTokenTitle(uint256 tokenId, string memory _title)\r\n        public\r\n        TokenExists(tokenId)\r\n        IsOwner(tokenId)\r\n    {\r\n        _tokenTitles[tokenId] = _title;\r\n    }\r\n\r\n    function setTokenDescription(uint256 tokenId, string memory _description)\r\n        public\r\n        TokenExists(tokenId)\r\n        IsOwner(tokenId)\r\n    {\r\n        _tokenDescriptions[tokenId] = _description;\r\n    }\r\n\r\n    function setTokenOnSale(uint256 tokenId, bool _sale)\r\n        public\r\n        TokenExists(tokenId)\r\n        IsOwner(tokenId)\r\n    {\r\n        _tokenOnSale[tokenId] = _sale;\r\n    }\r\n\r\n    function setTokenPrice(uint256 tokenId, uint256 _price)\r\n        public\r\n        TokenExists(tokenId)\r\n        IsOwner(tokenId)\r\n    {\r\n        _tokenPrices[tokenId] = _price;\r\n    }\r\n\r\n    function setTokenUris(uint256 tokenId, string[] memory _uris)\r\n        public\r\n        TokenExists(tokenId)\r\n        IsOwner(tokenId)\r\n    {\r\n        _tokenUris[tokenId] = _uris;\r\n    }\r\n\r\n\r\n\r\n    function addTokenUris(uint256 tokenId, string[] memory _uris)\r\n        public\r\n        TokenExists(tokenId)\r\n        IsOwner(tokenId)\r\n    {\r\n        for(uint i=0;i<_uris.length;i++){\r\n            _tokenUris[tokenId].push(_uris[i]);\r\n        }\r\n    }\r\n\r\n    modifier TokenExists(uint256 tokenId) {\r\n        require(_exists(tokenId), \"token does not exist\");\r\n        _;\r\n    }\r\n\r\n    modifier IsOwner(uint256 tokenId) {\r\n        require(ownerOf(tokenId) == msg.sender, \"caller is not the owner\");\r\n        _;\r\n    }\r\n\r\n    /*\r\n        MINT COURSE DOES A MINT OF THE COURSE WITH ALL THE VIDEOS, IT MUST BE CALLED WHEN THE   \r\n        INSTRUCTOR HAS ALREADY DEFINED THE COURSE IN ITS ENTIRETY (OR AT LEAST THINKS SO), SINCE WE WILL ADD\r\n        OPTIONS TO REMOVE AND POST VIDEOS LATER, BUT REMEMBER THAT EACH INTERACTION COSTS MONEY\r\n    */\r\n    function mintCourse(\r\n        address _owner,\r\n        string memory _title,\r\n        string memory _description,\r\n        string[] memory _uris,\r\n        uint256 _price, //IN USDT\r\n        bool _sale\r\n    ) public returns (uint256) {\r\n        require(_price > 0);\r\n\r\n        _tokenIds.increment();\r\n\r\n        uint256 newItemId = _tokenIds.current();\r\n        _mint(_owner, newItemId);\r\n        setTokenPrice(newItemId, _price);\r\n        setTokenUris(newItemId, _uris);\r\n        setTokenOnSale(newItemId, _sale);\r\n        setTokenTitle(newItemId, _title);\r\n        setTokenDescription(newItemId, _description);\r\n\r\n        return newItemId;\r\n    }\r\n\r\n    function deleteUri(uint256 tokenId, string memory _hash)\r\n        external\r\n        TokenExists(tokenId)\r\n        IsOwner(tokenId)\r\n    {\r\n        uint256 index = getTokenIndexByHash(tokenId, _hash);\r\n        string[] memory uris = _tokenUris[tokenId];\r\n        for (uint256 i = index; i < uris.length - 1; i++) {\r\n            uris[i] = uris[i + 1];\r\n        }\r\n        _tokenUris[tokenId] = uris;\r\n        _tokenUris[tokenId].pop();\r\n    }\r\n\r\n    function getTokenIndexByHash(uint256 tokenId, string memory _hash)\r\n        internal\r\n        view\r\n        returns (uint256)\r\n    {\r\n        string[] memory uris = _tokenUris[tokenId];\r\n        for (uint256 i = 0; i < uris.length - 1; i++) {\r\n            if (compareStrings(uris[i], _hash)) {\r\n                return i;\r\n            }\r\n        }\r\n\r\n        revert(\"non existent hash\");\r\n    }\r\n\r\n    function compareStrings(string memory a, string memory b)\r\n        public\r\n        pure\r\n        returns (bool)\r\n    {\r\n        return (keccak256(abi.encodePacked((a))) ==\r\n            keccak256(abi.encodePacked((b))));\r\n    }\r\n\r\n    function getCourseById(uint256 tokenId)\r\n        public\r\n        view\r\n        returns (TokenProps memory)\r\n    {\r\n        require(\r\n            tokenId > 0 && tokenId <= _tokenIds.current(),\r\n            \"wrong token id\"\r\n        );\r\n        TokenProps memory token = TokenProps(\r\n            tokenId,\r\n            ownerOf(tokenId),\r\n            _tokenPrices[tokenId],\r\n            _tokenTitles[tokenId],\r\n            _tokenDescriptions[tokenId],\r\n            _tokenUris[tokenId],\r\n            _tokenOnSale[tokenId]\r\n        );\r\n        return token;\r\n    }\r\n\r\n    function getAllCourses() public view returns (TokenProps[] memory) {\r\n        TokenProps[] memory tokens = new TokenProps[](_tokenIds.current());\r\n        uint256 counter = 0;\r\n\r\n        for (uint256 i = 1; i < _tokenIds.current() + 1; i++) {\r\n            TokenProps memory token = TokenProps(\r\n                i,\r\n                ownerOf(i),\r\n                _tokenPrices[i],\r\n                _tokenTitles[i],\r\n                _tokenDescriptions[i],\r\n                _tokenUris[i],\r\n                _tokenOnSale[i]\r\n            );\r\n            tokens[counter] = token;\r\n            counter++;\r\n        }\r\n\r\n        return tokens;\r\n    }\r\n}\r\n",
  "sourcePath": "E:\\blockdemy\\contracts\\BlockdemyCourse.sol",
  "compiler": {
    "name": "solc",
    "version": "0.8.0+commit.c7dfd78e.Emscripten.clang"
  },
  "schemaVersion": "3.4.1",
  "updatedAt": "2021-08-11T11:00:51.950Z",
  "networkType": "ethereum",
  "devdoc": {
    "kind": "dev",
    "methods": {
      "approve(address,uint256)": {
        "details": "See {IERC721-approve}."
      },
      "balanceOf(address)": {
        "details": "See {IERC721-balanceOf}."
      },
      "getApproved(uint256)": {
        "details": "See {IERC721-getApproved}."
      },
      "isApprovedForAll(address,address)": {
        "details": "See {IERC721-isApprovedForAll}."
      },
      "name()": {
        "details": "See {IERC721Metadata-name}."
      },
      "ownerOf(uint256)": {
        "details": "See {IERC721-ownerOf}."
      },
      "safeTransferFrom(address,address,uint256)": {
        "details": "See {IERC721-safeTransferFrom}."
      },
      "safeTransferFrom(address,address,uint256,bytes)": {
        "details": "See {IERC721-safeTransferFrom}."
      },
      "setApprovalForAll(address,bool)": {
        "details": "See {IERC721-setApprovalForAll}."
      },
      "supportsInterface(bytes4)": {
        "details": "See {IERC165-supportsInterface}."
      },
      "symbol()": {
        "details": "See {IERC721Metadata-symbol}."
      },
      "tokenURI(uint256)": {
        "details": "See {IERC721Metadata-tokenURI}."
      },
      "transferFrom(address,address,uint256)": {
        "details": "See {IERC721-transferFrom}."
      }
    },
    "version": 1
  },
  "userdoc": {
    "kind": "user",
    "methods": {},
    "version": 1
  }
}