{
  "contractName": "Blockdemy",
  "abi": [
    {
      "inputs": [
        {
          "internalType": "address payable[]",
          "name": "_owners",
          "type": "address[]"
        },
        {
          "internalType": "address",
          "name": "_blockdemycourse_address",
          "type": "address"
        },
        {
          "internalType": "address",
          "name": "_blockdemyToken_address",
          "type": "address"
        }
      ],
      "stateMutability": "nonpayable",
      "type": "constructor"
    },
    {
      "anonymous": false,
      "inputs": [
        {
          "indexed": true,
          "internalType": "address",
          "name": "previousOwner",
          "type": "address"
        },
        {
          "indexed": true,
          "internalType": "address",
          "name": "newOwner",
          "type": "address"
        }
      ],
      "name": "OwnershipTransferred",
      "type": "event"
    },
    {
      "inputs": [],
      "name": "owner",
      "outputs": [
        {
          "internalType": "address",
          "name": "",
          "type": "address"
        }
      ],
      "stateMutability": "view",
      "type": "function",
      "constant": true
    },
    {
      "inputs": [],
      "name": "renounceOwnership",
      "outputs": [],
      "stateMutability": "nonpayable",
      "type": "function"
    },
    {
      "inputs": [
        {
          "internalType": "address",
          "name": "newOwner",
          "type": "address"
        }
      ],
      "name": "transferOwnership",
      "outputs": [],
      "stateMutability": "nonpayable",
      "type": "function"
    },
    {
      "inputs": [
        {
          "internalType": "uint256",
          "name": "tokenId",
          "type": "uint256"
        }
      ],
      "name": "buyCourse",
      "outputs": [],
      "stateMutability": "payable",
      "type": "function",
      "payable": true
    }
  ],
  "bytecode": "0x60806040523480156200001157600080fd5b506040516200118538038062001185833981810160405281019062000037919062000345565b620000576200004b620000fb60201b60201c565b6200010360201b60201c565b82600190805190602001906200006f929190620001c7565b5081600260006101000a81548173ffffffffffffffffffffffffffffffffffffffff021916908373ffffffffffffffffffffffffffffffffffffffff16021790555080600360006101000a81548173ffffffffffffffffffffffffffffffffffffffff021916908373ffffffffffffffffffffffffffffffffffffffff160217905550505050620004c2565b600033905090565b60008060009054906101000a900473ffffffffffffffffffffffffffffffffffffffff169050816000806101000a81548173ffffffffffffffffffffffffffffffffffffffff021916908373ffffffffffffffffffffffffffffffffffffffff1602179055508173ffffffffffffffffffffffffffffffffffffffff168173ffffffffffffffffffffffffffffffffffffffff167f8be0079c531659141344cd1fd0a4f28419497f9722a3daafe3b4186f6b6457e060405160405180910390a35050565b82805482825590600052602060002090810192821562000243579160200282015b82811115620002425782518260006101000a81548173ffffffffffffffffffffffffffffffffffffffff021916908373ffffffffffffffffffffffffffffffffffffffff16021790555091602001919060010190620001e8565b5b50905062000252919062000256565b5090565b5b808211156200027157600081600090555060010162000257565b5090565b60006200028c6200028684620003e8565b620003b4565b90508083825260208201905082856020860282011115620002ac57600080fd5b60005b85811015620002e05781620002c5888262000301565b845260208401935060208301925050600181019050620002af565b5050509392505050565b600081519050620002fb816200048e565b92915050565b6000815190506200031281620004a8565b92915050565b600082601f8301126200032a57600080fd5b81516200033c84826020860162000275565b91505092915050565b6000806000606084860312156200035b57600080fd5b600084015167ffffffffffffffff8111156200037657600080fd5b620003848682870162000318565b93505060206200039786828701620002ea565b9250506040620003aa86828701620002ea565b9150509250925092565b6000604051905081810181811067ffffffffffffffff82111715620003de57620003dd6200045f565b5b8060405250919050565b600067ffffffffffffffff8211156200040657620004056200045f565b5b602082029050602081019050919050565b600062000424826200043f565b9050919050565b600062000438826200043f565b9050919050565b600073ffffffffffffffffffffffffffffffffffffffff82169050919050565b7f4e487b7100000000000000000000000000000000000000000000000000000000600052604160045260246000fd5b620004998162000417565b8114620004a557600080fd5b50565b620004b3816200042b565b8114620004bf57600080fd5b50565b610cb380620004d26000396000f3fe60806040526004361061003f5760003560e01c8063194d73a214610044578063715018a6146100605780638da5cb5b14610077578063f2fde38b146100a2575b600080fd5b61005e6004803603810190610059919061098a565b6100cb565b005b34801561006c57600080fd5b5061007561066f565b005b34801561008357600080fd5b5061008c6106f7565b6040516100999190610ae0565b60405180910390f35b3480156100ae57600080fd5b506100c960048036038101906100c49190610938565b610720565b005b34600260009054906101000a900473ffffffffffffffffffffffffffffffffffffffff1673ffffffffffffffffffffffffffffffffffffffff16637e2dcf6e836040518263ffffffff1660e01b81526004016101279190610b5b565b60206040518083038186803b15801561013f57600080fd5b505afa158015610153573d6000803e3d6000fd5b505050506040513d601f19601f8201168201806040525081019061017791906109b3565b11156101b8576040517f08c379a00000000000000000000000000000000000000000000000000000000081526004016101af90610b3b565b60405180910390fd5b6000600260009054906101000a900473ffffffffffffffffffffffffffffffffffffffff1673ffffffffffffffffffffffffffffffffffffffff16636352211e836040518263ffffffff1660e01b81526004016102159190610b5b565b60206040518083038186803b15801561022d57600080fd5b505afa158015610241573d6000803e3d6000fd5b505050506040513d601f19601f820116820180604052508101906102659190610961565b73ffffffffffffffffffffffffffffffffffffffff16600260009054906101000a900473ffffffffffffffffffffffffffffffffffffffff1673ffffffffffffffffffffffffffffffffffffffff1663d48e638a846040518263ffffffff1660e01b81526004016102d69190610b5b565b60206040518083038186803b1580156102ee57600080fd5b505afa158015610302573d6000803e3d6000fd5b505050506040513d601f19601f820116820180604052508101906103269190610961565b73ffffffffffffffffffffffffffffffffffffffff16146104e057600260009054906101000a900473ffffffffffffffffffffffffffffffffffffffff1673ffffffffffffffffffffffffffffffffffffffff166364bb499c836040518263ffffffff1660e01b815260040161039c9190610b5b565b60206040518083038186803b1580156103b457600080fd5b505afa1580156103c8573d6000803e3d6000fd5b505050506040513d601f19601f820116820180604052508101906103ec91906109b3565b9050600260009054906101000a900473ffffffffffffffffffffffffffffffffffffffff1673ffffffffffffffffffffffffffffffffffffffff1663d48e638a836040518263ffffffff1660e01b81526004016104499190610b5b565b60206040518083038186803b15801561046157600080fd5b505afa158015610475573d6000803e3d6000fd5b505050506040513d601f19601f820116820180604052508101906104999190610961565b73ffffffffffffffffffffffffffffffffffffffff166108fc829081150290604051600060405180830381858888f193505050501580156104de573d6000803e3d6000fd5b505b600260009054906101000a900473ffffffffffffffffffffffffffffffffffffffff1673ffffffffffffffffffffffffffffffffffffffff16636352211e836040518263ffffffff1660e01b815260040161053b9190610b5b565b60206040518083038186803b15801561055357600080fd5b505afa158015610567573d6000803e3d6000fd5b505050506040513d601f19601f8201168201806040525081019061058b9190610961565b73ffffffffffffffffffffffffffffffffffffffff166108fc82346105b09190610bb0565b9081150290604051600060405180830381858888f193505050501580156105db573d6000803e3d6000fd5b50600260009054906101000a900473ffffffffffffffffffffffffffffffffffffffff1673ffffffffffffffffffffffffffffffffffffffff1663ef24d69583336040518363ffffffff1660e01b8152600401610639929190610b76565b600060405180830381600087803b15801561065357600080fd5b505af1158015610667573d6000803e3d6000fd5b505050505050565b610677610818565b73ffffffffffffffffffffffffffffffffffffffff166106956106f7565b73ffffffffffffffffffffffffffffffffffffffff16146106eb576040517f08c379a00000000000000000000000000000000000000000000000000000000081526004016106e290610b1b565b60405180910390fd5b6106f56000610820565b565b60008060009054906101000a900473ffffffffffffffffffffffffffffffffffffffff16905090565b610728610818565b73ffffffffffffffffffffffffffffffffffffffff166107466106f7565b73ffffffffffffffffffffffffffffffffffffffff161461079c576040517f08c379a000000000000000000000000000000000000000000000000000000000815260040161079390610b1b565b60405180910390fd5b600073ffffffffffffffffffffffffffffffffffffffff168173ffffffffffffffffffffffffffffffffffffffff16141561080c576040517f08c379a000000000000000000000000000000000000000000000000000000000815260040161080390610afb565b60405180910390fd5b61081581610820565b50565b600033905090565b60008060009054906101000a900473ffffffffffffffffffffffffffffffffffffffff169050816000806101000a81548173ffffffffffffffffffffffffffffffffffffffff021916908373ffffffffffffffffffffffffffffffffffffffff1602179055508173ffffffffffffffffffffffffffffffffffffffff168173ffffffffffffffffffffffffffffffffffffffff167f8be0079c531659141344cd1fd0a4f28419497f9722a3daafe3b4186f6b6457e060405160405180910390a35050565b6000813590506108f381610c4f565b92915050565b60008151905061090881610c4f565b92915050565b60008135905061091d81610c66565b92915050565b60008151905061093281610c66565b92915050565b60006020828403121561094a57600080fd5b6000610958848285016108e4565b91505092915050565b60006020828403121561097357600080fd5b6000610981848285016108f9565b91505092915050565b60006020828403121561099c57600080fd5b60006109aa8482850161090e565b91505092915050565b6000602082840312156109c557600080fd5b60006109d384828501610923565b91505092915050565b6109e581610be4565b82525050565b60006109f8602683610b9f565b91507f4f776e61626c653a206e6577206f776e657220697320746865207a65726f206160008301527f64647265737300000000000000000000000000000000000000000000000000006020830152604082019050919050565b6000610a5e602083610b9f565b91507f4f776e61626c653a2063616c6c6572206973206e6f7420746865206f776e65726000830152602082019050919050565b6000610a9e600f83610b9f565b91507f6e6f7420656e6f67682066756e647300000000000000000000000000000000006000830152602082019050919050565b610ada81610c16565b82525050565b6000602082019050610af560008301846109dc565b92915050565b60006020820190508181036000830152610b14816109eb565b9050919050565b60006020820190508181036000830152610b3481610a51565b9050919050565b60006020820190508181036000830152610b5481610a91565b9050919050565b6000602082019050610b706000830184610ad1565b92915050565b6000604082019050610b8b6000830185610ad1565b610b9860208301846109dc565b9392505050565b600082825260208201905092915050565b6000610bbb82610c16565b9150610bc683610c16565b925082821015610bd957610bd8610c20565b5b828203905092915050565b6000610bef82610bf6565b9050919050565b600073ffffffffffffffffffffffffffffffffffffffff82169050919050565b6000819050919050565b7f4e487b7100000000000000000000000000000000000000000000000000000000600052601160045260246000fd5b610c5881610be4565b8114610c6357600080fd5b50565b610c6f81610c16565b8114610c7a57600080fd5b5056fea2646970667358221220df7030a16ec9d4ca091d0d3c36079353bcd5d1f4936578549f7536e49723755964736f6c63430008000033",
  "immutableReferences": {},
  "source": "// SPDX-License-Identifier: MIT\r\npragma solidity ^0.8.0;\r\n\r\nimport \"@openzeppelin/contracts/access/Ownable.sol\";\r\nimport \"./BlockdemyCourse.sol\";\r\nimport \"./BlockdemyToken.sol\";\r\n\r\ncontract Blockdemy is Ownable {\r\n    //there will be 2 owners of blockdemy\r\n    address payable[] owners;\r\n    //pointers to nft and erc20\r\n    BlockdemyCourse blockdemycourse;\r\n    BlockdemyToken blockdemyToken;\r\n\r\n    constructor(\r\n        address payable[] memory _owners,\r\n        address _blockdemycourse_address,\r\n        address _blockdemyToken_address\r\n    ) {\r\n        owners = _owners;\r\n        blockdemycourse = BlockdemyCourse(_blockdemycourse_address);\r\n        blockdemyToken = BlockdemyToken(_blockdemyToken_address);\r\n    }\r\n\r\n    //i put this here because maybe we can take 0.1% of royalties or \r\n    //something like that, should think about it,\r\n    //also bdemycourse is an erc721 so it does not handle payments\r\n    function buyCourse(uint256 tokenId) external payable {\r\n        require(blockdemycourse.getCoursePrice(tokenId) <= msg.value,'not enogh funds');\r\n        uint256 fees = 0;\r\n        if (\r\n            blockdemycourse.getCreator(tokenId) !=\r\n            blockdemycourse.ownerOf(tokenId)\r\n        ) {\r\n            fees = blockdemycourse.getCourseFees(tokenId);\r\n            payable(blockdemycourse.getCreator(tokenId)).transfer(fees);\r\n        }\r\n\r\n        payable(blockdemycourse.ownerOf(tokenId)).transfer(msg.value - fees);\r\n\r\n        blockdemycourse.transferCourse(tokenId,msg.sender);\r\n    }\r\n}\r\n",
  "sourcePath": "E:/blockdemy/contracts/Blockdemy.sol",
  "compiler": {
    "name": "solc",
    "version": "0.8.0+commit.c7dfd78e.Emscripten.clang"
  },
  "schemaVersion": "3.4.1",
  "updatedAt": "2021-08-15T14:19:04.586Z",
  "networkType": "ethereum",
  "devdoc": {
    "kind": "dev",
    "methods": {
      "owner()": {
        "details": "Returns the address of the current owner."
      },
      "renounceOwnership()": {
        "details": "Leaves the contract without owner. It will not be possible to call `onlyOwner` functions anymore. Can only be called by the current owner. NOTE: Renouncing ownership will leave the contract without an owner, thereby removing any functionality that is only available to the owner."
      },
      "transferOwnership(address)": {
        "details": "Transfers ownership of the contract to a new account (`newOwner`). Can only be called by the current owner."
      }
    },
    "version": 1
  },
  "userdoc": {
    "kind": "user",
    "methods": {},
    "version": 1
  }
}