{
  "contractName": "BlockdemyCourse",
  "abi": [
    {
      "inputs": [],
      "stateMutability": "nonpayable",
      "type": "constructor"
    },
    {
      "anonymous": false,
      "inputs": [
        {
          "indexed": true,
          "internalType": "address",
          "name": "owner",
          "type": "address"
        },
        {
          "indexed": true,
          "internalType": "address",
          "name": "approved",
          "type": "address"
        },
        {
          "indexed": true,
          "internalType": "uint256",
          "name": "tokenId",
          "type": "uint256"
        }
      ],
      "name": "Approval",
      "type": "event"
    },
    {
      "anonymous": false,
      "inputs": [
        {
          "indexed": true,
          "internalType": "address",
          "name": "owner",
          "type": "address"
        },
        {
          "indexed": true,
          "internalType": "address",
          "name": "operator",
          "type": "address"
        },
        {
          "indexed": false,
          "internalType": "bool",
          "name": "approved",
          "type": "bool"
        }
      ],
      "name": "ApprovalForAll",
      "type": "event"
    },
    {
      "anonymous": false,
      "inputs": [
        {
          "indexed": true,
          "internalType": "address",
          "name": "from",
          "type": "address"
        },
        {
          "indexed": true,
          "internalType": "address",
          "name": "to",
          "type": "address"
        },
        {
          "indexed": true,
          "internalType": "uint256",
          "name": "tokenId",
          "type": "uint256"
        }
      ],
      "name": "Transfer",
      "type": "event"
    },
    {
      "inputs": [
        {
          "internalType": "address",
          "name": "to",
          "type": "address"
        },
        {
          "internalType": "uint256",
          "name": "tokenId",
          "type": "uint256"
        }
      ],
      "name": "approve",
      "outputs": [],
      "stateMutability": "nonpayable",
      "type": "function"
    },
    {
      "inputs": [
        {
          "internalType": "address",
          "name": "owner",
          "type": "address"
        }
      ],
      "name": "balanceOf",
      "outputs": [
        {
          "internalType": "uint256",
          "name": "",
          "type": "uint256"
        }
      ],
      "stateMutability": "view",
      "type": "function",
      "constant": true
    },
    {
      "inputs": [
        {
          "internalType": "uint256",
          "name": "tokenId",
          "type": "uint256"
        }
      ],
      "name": "getApproved",
      "outputs": [
        {
          "internalType": "address",
          "name": "",
          "type": "address"
        }
      ],
      "stateMutability": "view",
      "type": "function",
      "constant": true
    },
    {
      "inputs": [
        {
          "internalType": "address",
          "name": "owner",
          "type": "address"
        },
        {
          "internalType": "address",
          "name": "operator",
          "type": "address"
        }
      ],
      "name": "isApprovedForAll",
      "outputs": [
        {
          "internalType": "bool",
          "name": "",
          "type": "bool"
        }
      ],
      "stateMutability": "view",
      "type": "function",
      "constant": true
    },
    {
      "inputs": [],
      "name": "name",
      "outputs": [
        {
          "internalType": "string",
          "name": "",
          "type": "string"
        }
      ],
      "stateMutability": "view",
      "type": "function",
      "constant": true
    },
    {
      "inputs": [
        {
          "internalType": "uint256",
          "name": "tokenId",
          "type": "uint256"
        }
      ],
      "name": "ownerOf",
      "outputs": [
        {
          "internalType": "address",
          "name": "",
          "type": "address"
        }
      ],
      "stateMutability": "view",
      "type": "function",
      "constant": true
    },
    {
      "inputs": [
        {
          "internalType": "address",
          "name": "from",
          "type": "address"
        },
        {
          "internalType": "address",
          "name": "to",
          "type": "address"
        },
        {
          "internalType": "uint256",
          "name": "tokenId",
          "type": "uint256"
        }
      ],
      "name": "safeTransferFrom",
      "outputs": [],
      "stateMutability": "nonpayable",
      "type": "function"
    },
    {
      "inputs": [
        {
          "internalType": "address",
          "name": "from",
          "type": "address"
        },
        {
          "internalType": "address",
          "name": "to",
          "type": "address"
        },
        {
          "internalType": "uint256",
          "name": "tokenId",
          "type": "uint256"
        },
        {
          "internalType": "bytes",
          "name": "_data",
          "type": "bytes"
        }
      ],
      "name": "safeTransferFrom",
      "outputs": [],
      "stateMutability": "nonpayable",
      "type": "function"
    },
    {
      "inputs": [
        {
          "internalType": "address",
          "name": "operator",
          "type": "address"
        },
        {
          "internalType": "bool",
          "name": "approved",
          "type": "bool"
        }
      ],
      "name": "setApprovalForAll",
      "outputs": [],
      "stateMutability": "nonpayable",
      "type": "function"
    },
    {
      "inputs": [
        {
          "internalType": "bytes4",
          "name": "interfaceId",
          "type": "bytes4"
        }
      ],
      "name": "supportsInterface",
      "outputs": [
        {
          "internalType": "bool",
          "name": "",
          "type": "bool"
        }
      ],
      "stateMutability": "view",
      "type": "function",
      "constant": true
    },
    {
      "inputs": [],
      "name": "symbol",
      "outputs": [
        {
          "internalType": "string",
          "name": "",
          "type": "string"
        }
      ],
      "stateMutability": "view",
      "type": "function",
      "constant": true
    },
    {
      "inputs": [
        {
          "internalType": "uint256",
          "name": "tokenId",
          "type": "uint256"
        }
      ],
      "name": "tokenURI",
      "outputs": [
        {
          "internalType": "string",
          "name": "",
          "type": "string"
        }
      ],
      "stateMutability": "view",
      "type": "function",
      "constant": true
    },
    {
      "inputs": [
        {
          "internalType": "address",
          "name": "from",
          "type": "address"
        },
        {
          "internalType": "address",
          "name": "to",
          "type": "address"
        },
        {
          "internalType": "uint256",
          "name": "tokenId",
          "type": "uint256"
        }
      ],
      "name": "transferFrom",
      "outputs": [],
      "stateMutability": "nonpayable",
      "type": "function"
    },
    {
      "inputs": [
        {
          "internalType": "uint256",
          "name": "tokenId",
          "type": "uint256"
        },
        {
          "internalType": "string",
          "name": "_title",
          "type": "string"
        }
      ],
      "name": "setTokenTitle",
      "outputs": [],
      "stateMutability": "nonpayable",
      "type": "function"
    },
    {
      "inputs": [
        {
          "internalType": "uint256",
          "name": "tokenId",
          "type": "uint256"
        },
        {
          "internalType": "string",
          "name": "_description",
          "type": "string"
        }
      ],
      "name": "setTokenDescription",
      "outputs": [],
      "stateMutability": "nonpayable",
      "type": "function"
    },
    {
      "inputs": [
        {
          "internalType": "uint256",
          "name": "tokenId",
          "type": "uint256"
        },
        {
          "internalType": "bool",
          "name": "_sale",
          "type": "bool"
        }
      ],
      "name": "setTokenOnSale",
      "outputs": [],
      "stateMutability": "nonpayable",
      "type": "function"
    },
    {
      "inputs": [
        {
          "internalType": "uint256",
          "name": "tokenId",
          "type": "uint256"
        },
        {
          "internalType": "address",
          "name": "_address",
          "type": "address"
        }
      ],
      "name": "setTokenCreator",
      "outputs": [],
      "stateMutability": "nonpayable",
      "type": "function"
    },
    {
      "inputs": [
        {
          "internalType": "uint256",
          "name": "tokenId",
          "type": "uint256"
        },
        {
          "internalType": "uint256",
          "name": "_price",
          "type": "uint256"
        }
      ],
      "name": "setTokenPrice",
      "outputs": [],
      "stateMutability": "nonpayable",
      "type": "function"
    },
    {
      "inputs": [
        {
          "internalType": "uint256",
          "name": "tokenId",
          "type": "uint256"
        },
        {
          "internalType": "string[]",
          "name": "_uris",
          "type": "string[]"
        }
      ],
      "name": "setTokenUris",
      "outputs": [],
      "stateMutability": "nonpayable",
      "type": "function"
    },
    {
      "inputs": [
        {
          "internalType": "uint256",
          "name": "tokenId",
          "type": "uint256"
        },
        {
          "internalType": "string[]",
          "name": "_uris",
          "type": "string[]"
        }
      ],
      "name": "addTokenUris",
      "outputs": [],
      "stateMutability": "nonpayable",
      "type": "function"
    },
    {
      "inputs": [
        {
          "internalType": "uint256",
          "name": "tokenId",
          "type": "uint256"
        }
      ],
      "name": "notMoreOnSale",
      "outputs": [],
      "stateMutability": "nonpayable",
      "type": "function"
    },
    {
      "inputs": [
        {
          "internalType": "uint256",
          "name": "tokenId",
          "type": "uint256"
        },
        {
          "internalType": "uint256",
          "name": "amount",
          "type": "uint256"
        }
      ],
      "name": "setOnSale",
      "outputs": [],
      "stateMutability": "nonpayable",
      "type": "function"
    },
    {
      "inputs": [
        {
          "internalType": "address",
          "name": "_owner",
          "type": "address"
        },
        {
          "internalType": "string",
          "name": "_title",
          "type": "string"
        },
        {
          "internalType": "string",
          "name": "_description",
          "type": "string"
        },
        {
          "internalType": "string[]",
          "name": "_uris",
          "type": "string[]"
        },
        {
          "internalType": "uint256",
          "name": "_price",
          "type": "uint256"
        }
      ],
      "name": "mintCourse",
      "outputs": [
        {
          "internalType": "uint256",
          "name": "",
          "type": "uint256"
        }
      ],
      "stateMutability": "nonpayable",
      "type": "function"
    },
    {
      "inputs": [
        {
          "internalType": "uint256",
          "name": "tokenId",
          "type": "uint256"
        },
        {
          "internalType": "string",
          "name": "_hash",
          "type": "string"
        }
      ],
      "name": "deleteUri",
      "outputs": [],
      "stateMutability": "nonpayable",
      "type": "function"
    },
    {
      "inputs": [
        {
          "internalType": "string",
          "name": "a",
          "type": "string"
        },
        {
          "internalType": "string",
          "name": "b",
          "type": "string"
        }
      ],
      "name": "compareStrings",
      "outputs": [
        {
          "internalType": "bool",
          "name": "",
          "type": "bool"
        }
      ],
      "stateMutability": "pure",
      "type": "function",
      "constant": true
    },
    {
      "inputs": [
        {
          "internalType": "uint256",
          "name": "tokenId",
          "type": "uint256"
        }
      ],
      "name": "getCourseById",
      "outputs": [
        {
          "components": [
            {
              "internalType": "uint256",
              "name": "id",
              "type": "uint256"
            },
            {
              "internalType": "address",
              "name": "owner",
              "type": "address"
            },
            {
              "internalType": "uint256",
              "name": "price",
              "type": "uint256"
            },
            {
              "internalType": "string",
              "name": "title",
              "type": "string"
            },
            {
              "internalType": "string",
              "name": "description",
              "type": "string"
            },
            {
              "internalType": "string[]",
              "name": "uris",
              "type": "string[]"
            },
            {
              "internalType": "bool",
              "name": "onSale",
              "type": "bool"
            }
          ],
          "internalType": "struct BlockdemyCourse.TokenProps",
          "name": "",
          "type": "tuple"
        }
      ],
      "stateMutability": "view",
      "type": "function",
      "constant": true
    },
    {
      "inputs": [
        {
          "internalType": "uint256",
          "name": "tokenId",
          "type": "uint256"
        },
        {
          "internalType": "address",
          "name": "_to",
          "type": "address"
        }
      ],
      "name": "transferCourse",
      "outputs": [],
      "stateMutability": "nonpayable",
      "type": "function"
    },
    {
      "inputs": [
        {
          "internalType": "uint256",
          "name": "tokenId",
          "type": "uint256"
        }
      ],
      "name": "getCreator",
      "outputs": [
        {
          "internalType": "address",
          "name": "",
          "type": "address"
        }
      ],
      "stateMutability": "view",
      "type": "function",
      "constant": true
    },
    {
      "inputs": [
        {
          "internalType": "uint256",
          "name": "tokenId",
          "type": "uint256"
        }
      ],
      "name": "getCourseFees",
      "outputs": [
        {
          "internalType": "uint256",
          "name": "",
          "type": "uint256"
        }
      ],
      "stateMutability": "view",
      "type": "function",
      "constant": true
    },
    {
      "inputs": [
        {
          "internalType": "uint256",
          "name": "tokenId",
          "type": "uint256"
        }
      ],
      "name": "getCoursePrice",
      "outputs": [
        {
          "internalType": "uint256",
          "name": "",
          "type": "uint256"
        }
      ],
      "stateMutability": "view",
      "type": "function",
      "constant": true
    },
    {
      "inputs": [],
      "name": "getAllCourses",
      "outputs": [
        {
          "components": [
            {
              "internalType": "uint256",
              "name": "id",
              "type": "uint256"
            },
            {
              "internalType": "address",
              "name": "owner",
              "type": "address"
            },
            {
              "internalType": "uint256",
              "name": "price",
              "type": "uint256"
            },
            {
              "internalType": "string",
              "name": "title",
              "type": "string"
            },
            {
              "internalType": "string",
              "name": "description",
              "type": "string"
            },
            {
              "internalType": "string[]",
              "name": "uris",
              "type": "string[]"
            },
            {
              "internalType": "bool",
              "name": "onSale",
              "type": "bool"
            }
          ],
          "internalType": "struct BlockdemyCourse.TokenProps[]",
          "name": "",
          "type": "tuple[]"
        }
      ],
      "stateMutability": "view",
      "type": "function",
      "constant": true
    }
  ],
  "bytecode": "0x60806040523480156200001157600080fd5b506040518060400160405280600c81526020017f4244454d5920436f7572736500000000000000000000000000000000000000008152506040518060400160405280600681526020017f4244454d59430000000000000000000000000000000000000000000000000000815250816000908051906020019062000096929190620000b8565b508060019080519060200190620000af929190620000b8565b505050620001cd565b828054620000c69062000168565b90600052602060002090601f016020900481019282620000ea576000855562000136565b82601f106200010557805160ff191683800117855562000136565b8280016001018555821562000136579182015b828111156200013557825182559160200191906001019062000118565b5b50905062000145919062000149565b5090565b5b80821115620001645760008160009055506001016200014a565b5090565b600060028204905060018216806200018157607f821691505b602082108114156200019857620001976200019e565b5b50919050565b7f4e487b7100000000000000000000000000000000000000000000000000000000600052602260045260246000fd5b614c1380620001dd6000396000f3fe608060405234801561001057600080fd5b50600436106101e55760003560e01c80637b286c9b1161010f578063c0da00c6116100a2578063ea5b210f11610071578063ea5b210f146105c0578063eb685c47146105f0578063ef24d6951461060c578063f0b614ae14610628576101e5565b8063c0da00c614610514578063c87b56dd14610530578063d48e638a14610560578063e985e9c514610590576101e5565b8063a22cb465116100de578063a22cb4651461047c578063b88d4fde14610498578063be9a046c146104b4578063bed34bba146104e4576101e5565b80637b286c9b146103f65780637d976eaa146104125780637e2dcf6e1461042e57806395d89b411461045e576101e5565b80632449a88a116101875780636352211e116101565780636352211e1461034a57806364bb499c1461037a5780636f2c408b146103aa57806370a08231146103c6576101e5565b80632449a88a146102da578063246a908b146102f657806342842e0e1461031257806347b99a211461032e576101e5565b8063081812fc116101c3578063081812fc14610256578063095ea7b3146102865780630b8d27c3146102a257806323b872dd146102be576101e5565b806301ffc9a7146101ea57806304e48bd11461021a57806306fdde0314610238575b600080fd5b61020460048036038101906101ff919061375e565b610644565b604051610211919061445a565b60405180910390f35b610222610726565b60405161022f9190614438565b60405180910390f35b610240610ae6565b60405161024d9190614475565b60405180910390f35b610270600480360381019061026b919061381c565b610b78565b60405161027d919061439a565b60405180910390f35b6102a0600480360381019061029b9190613722565b610bfd565b005b6102bc60048036038101906102b79190613965565b610d15565b005b6102d860048036038101906102d3919061355d565b610e29565b005b6102f460048036038101906102ef91906138d5565b610e89565b005b610310600480360381019061030b9190613911565b610f7a565b005b61032c6004803603810190610327919061355d565b611068565b005b61034860048036038101906103439190613911565b611088565b005b610364600480360381019061035f919061381c565b611394565b604051610371919061439a565b60405180910390f35b610394600480360381019061038f919061381c565b611446565b6040516103a191906146f9565b60405180910390f35b6103c460048036038101906103bf9190613881565b6114c0565b005b6103e060048036038101906103db91906134f8565b6115ae565b6040516103ed91906146f9565b60405180910390f35b610410600480360381019061040b9190613881565b611666565b005b61042c6004803603810190610427919061381c565b6117d9565b005b6104486004803603810190610443919061381c565b6118d5565b60405161045591906146f9565b60405180910390f35b61046661193c565b6040516104739190614475565b60405180910390f35b61049660048036038101906104919190613627565b6119ce565b005b6104b260048036038101906104ad91906135ac565b611b4f565b005b6104ce60048036038101906104c99190613663565b611bb1565b6040516104db91906146f9565b60405180910390f35b6104fe60048036038101906104f991906137b0565b611c2b565b60405161050b919061445a565b60405180910390f35b61052e60048036038101906105299190613911565b611c84565b005b61054a6004803603810190610545919061381c565b611d72565b6040516105579190614475565b60405180910390f35b61057a6004803603810190610575919061381c565b611e19565b604051610587919061439a565b60405180910390f35b6105aa60048036038101906105a59190613521565b611ea0565b6040516105b7919061445a565b60405180910390f35b6105da60048036038101906105d5919061381c565b611f34565b6040516105e791906146d7565b60405180910390f35b61060a60048036038101906106059190613965565b61223f565b005b61062660048036038101906106219190613845565b61231d565b005b610642600480360381019061063d9190613845565b61240e565b005b60007f80ac58cd000000000000000000000000000000000000000000000000000000007bffffffffffffffffffffffffffffffffffffffffffffffffffffffff1916827bffffffffffffffffffffffffffffffffffffffffffffffffffffffff1916148061070f57507f5b5e139f000000000000000000000000000000000000000000000000000000007bffffffffffffffffffffffffffffffffffffffffffffffffffffffff1916827bffffffffffffffffffffffffffffffffffffffffffffffffffffffff1916145b8061071f575061071e82612526565b5b9050919050565b606060006107346006612590565b67ffffffffffffffff811115610773577f4e487b7100000000000000000000000000000000000000000000000000000000600052604160045260246000fd5b6040519080825280602002602001820160405280156107ac57816020015b61079961317c565b8152602001906001900390816107915790505b509050600080600190505b60016107c36006612590565b6107cd9190614897565b811015610add5760006040518060e001604052808381526020016107f084611394565b73ffffffffffffffffffffffffffffffffffffffff16815260200160086000858152602001908152602001600020548152602001600a6000858152602001908152602001600020805461084290614a08565b80601f016020809104026020016040519081016040528092919081815260200182805461086e90614a08565b80156108bb5780601f10610890576101008083540402835291602001916108bb565b820191906000526020600020905b81548152906001019060200180831161089e57829003601f168201915b50505050508152602001600b600085815260200190815260200160002080546108e390614a08565b80601f016020809104026020016040519081016040528092919081815260200182805461090f90614a08565b801561095c5780601f106109315761010080835404028352916020019161095c565b820191906000526020600020905b81548152906001019060200180831161093f57829003601f168201915b5050505050815260200160076000858152602001908152602001600020805480602002602001604051908101604052809291908181526020016000905b82821015610a455783829060005260206000200180546109b890614a08565b80601f01602080910402602001604051908101604052809291908181526020018280546109e490614a08565b8015610a315780601f10610a0657610100808354040283529160200191610a31565b820191906000526020600020905b815481529060010190602001808311610a1457829003601f168201915b505050505081526020019060010190610999565b5050505081526020016009600085815260200190815260200160002060009054906101000a900460ff161515815250905080848481518110610ab0577f4e487b7100000000000000000000000000000000000000000000000000000000600052603260045260246000fd5b60200260200101819052508280610ac690614a3a565b935050508080610ad590614a3a565b9150506107b7565b50819250505090565b606060008054610af590614a08565b80601f0160208091040260200160405190810160405280929190818152602001828054610b2190614a08565b8015610b6e5780601f10610b4357610100808354040283529160200191610b6e565b820191906000526020600020905b815481529060010190602001808311610b5157829003601f168201915b5050505050905090565b6000610b838261259e565b610bc2576040517f08c379a0000000000000000000000000000000000000000000000000000000008152600401610bb9906145d7565b60405180910390fd5b6004600083815260200190815260200160002060009054906101000a900473ffffffffffffffffffffffffffffffffffffffff169050919050565b6000610c0882611394565b90508073ffffffffffffffffffffffffffffffffffffffff168373ffffffffffffffffffffffffffffffffffffffff161415610c79576040517f08c379a0000000000000000000000000000000000000000000000000000000008152600401610c7090614657565b60405180910390fd5b8073ffffffffffffffffffffffffffffffffffffffff16610c9861260a565b73ffffffffffffffffffffffffffffffffffffffff161480610cc75750610cc681610cc161260a565b611ea0565b5b610d06576040517f08c379a0000000000000000000000000000000000000000000000000000000008152600401610cfd90614557565b60405180910390fd5b610d108383612612565b505050565b813373ffffffffffffffffffffffffffffffffffffffff16610d3682611394565b73ffffffffffffffffffffffffffffffffffffffff1614610d8c576040517f08c379a0000000000000000000000000000000000000000000000000000000008152600401610d83906145f7565b60405180910390fd5b82610d968161259e565b610dd5576040517f08c379a0000000000000000000000000000000000000000000000000000000008152600401610dcc906146b7565b60405180910390fd5b60016009600086815260200190815260200160002060006101000a81548160ff021916908315150217905550826008600086815260200190815260200160002081905550610e233085610bfd565b50505050565b610e3a610e3461260a565b826126cb565b610e79576040517f08c379a0000000000000000000000000000000000000000000000000000000008152600401610e7090614677565b60405180910390fd5b610e848383836127a9565b505050565b81610e938161259e565b610ed2576040517f08c379a0000000000000000000000000000000000000000000000000000000008152600401610ec9906146b7565b60405180910390fd5b823373ffffffffffffffffffffffffffffffffffffffff16610ef382611394565b73ffffffffffffffffffffffffffffffffffffffff1614610f49576040517f08c379a0000000000000000000000000000000000000000000000000000000008152600401610f40906145f7565b60405180910390fd5b826009600086815260200190815260200160002060006101000a81548160ff02191690831515021790555050505050565b81610f848161259e565b610fc3576040517f08c379a0000000000000000000000000000000000000000000000000000000008152600401610fba906146b7565b60405180910390fd5b823373ffffffffffffffffffffffffffffffffffffffff16610fe482611394565b73ffffffffffffffffffffffffffffffffffffffff161461103a576040517f08c379a0000000000000000000000000000000000000000000000000000000008152600401611031906145f7565b60405180910390fd5b82600b600086815260200190815260200160002090805190602001906110619291906131d1565b5050505050565b61108383838360405180602001604052806000815250611b4f565b505050565b816110928161259e565b6110d1576040517f08c379a00000000000000000000000000000000000000000000000000000000081526004016110c8906146b7565b60405180910390fd5b823373ffffffffffffffffffffffffffffffffffffffff166110f282611394565b73ffffffffffffffffffffffffffffffffffffffff1614611148576040517f08c379a000000000000000000000000000000000000000000000000000000000815260040161113f906145f7565b60405180910390fd5b60006111548585612a05565b9050600060076000878152602001908152602001600020805480602002602001604051908101604052809291908181526020016000905b828210156112375783829060005260206000200180546111aa90614a08565b80601f01602080910402602001604051908101604052809291908181526020018280546111d690614a08565b80156112235780601f106111f857610100808354040283529160200191611223565b820191906000526020600020905b81548152906001019060200180831161120657829003601f168201915b50505050508152602001906001019061118b565b50505050905060008290505b60018251611251919061491e565b8110156112fc57816001826112669190614897565b8151811061129d577f4e487b7100000000000000000000000000000000000000000000000000000000600052603260045260246000fd5b60200260200101518282815181106112de577f4e487b7100000000000000000000000000000000000000000000000000000000600052603260045260246000fd5b602002602001018190525080806112f490614a3a565b915050611243565b5080600760008881526020019081526020016000209080519060200190611324929190613257565b506007600087815260200190815260200160002080548061136e577f4e487b7100000000000000000000000000000000000000000000000000000000600052603160045260246000fd5b60019003818190600052602060002001600061138a91906132b7565b9055505050505050565b6000806002600084815260200190815260200160002060009054906101000a900473ffffffffffffffffffffffffffffffffffffffff169050600073ffffffffffffffffffffffffffffffffffffffff168173ffffffffffffffffffffffffffffffffffffffff16141561143d576040517f08c379a000000000000000000000000000000000000000000000000000000000815260040161143490614597565b60405180910390fd5b80915050919050565b6000816114528161259e565b611491576040517f08c379a0000000000000000000000000000000000000000000000000000000008152600401611488906146b7565b60405180910390fd5b6114b860056008600086815260200190815260200160002054612bb390919063ffffffff16565b915050919050565b816114ca8161259e565b611509576040517f08c379a0000000000000000000000000000000000000000000000000000000008152600401611500906146b7565b60405180910390fd5b823373ffffffffffffffffffffffffffffffffffffffff1661152a82611394565b73ffffffffffffffffffffffffffffffffffffffff1614611580576040517f08c379a0000000000000000000000000000000000000000000000000000000008152600401611577906145f7565b60405180910390fd5b826007600086815260200190815260200160002090805190602001906115a7929190613257565b5050505050565b60008073ffffffffffffffffffffffffffffffffffffffff168273ffffffffffffffffffffffffffffffffffffffff16141561161f576040517f08c379a000000000000000000000000000000000000000000000000000000000815260040161161690614577565b60405180910390fd5b600360008373ffffffffffffffffffffffffffffffffffffffff1673ffffffffffffffffffffffffffffffffffffffff168152602001908152602001600020549050919050565b816116708161259e565b6116af576040517f08c379a00000000000000000000000000000000000000000000000000000000081526004016116a6906146b7565b60405180910390fd5b823373ffffffffffffffffffffffffffffffffffffffff166116d082611394565b73ffffffffffffffffffffffffffffffffffffffff1614611726576040517f08c379a000000000000000000000000000000000000000000000000000000000815260040161171d906145f7565b60405180910390fd5b60005b83518110156117d2576007600086815260200190815260200160002084828151811061177e577f4e487b7100000000000000000000000000000000000000000000000000000000600052603260045260246000fd5b60200260200101519080600181540180825580915050600190039060005260206000200160009091909190915090805190602001906117be9291906131d1565b5080806117ca90614a3a565b915050611729565b5050505050565b803373ffffffffffffffffffffffffffffffffffffffff166117fa82611394565b73ffffffffffffffffffffffffffffffffffffffff1614611850576040517f08c379a0000000000000000000000000000000000000000000000000000000008152600401611847906145f7565b60405180910390fd5b8161185a8161259e565b611899576040517f08c379a0000000000000000000000000000000000000000000000000000000008152600401611890906146b7565b60405180910390fd5b60006009600085815260200190815260200160002060006101000a81548160ff0219169083151502179055506118d0600084610bfd565b505050565b6000816118e18161259e565b611920576040517f08c379a0000000000000000000000000000000000000000000000000000000008152600401611917906146b7565b60405180910390fd5b6008600084815260200190815260200160002054915050919050565b60606001805461194b90614a08565b80601f016020809104026020016040519081016040528092919081815260200182805461197790614a08565b80156119c45780601f10611999576101008083540402835291602001916119c4565b820191906000526020600020905b8154815290600101906020018083116119a757829003601f168201915b5050505050905090565b6119d661260a565b73ffffffffffffffffffffffffffffffffffffffff168273ffffffffffffffffffffffffffffffffffffffff161415611a44576040517f08c379a0000000000000000000000000000000000000000000000000000000008152600401611a3b906144f7565b60405180910390fd5b8060056000611a5161260a565b73ffffffffffffffffffffffffffffffffffffffff1673ffffffffffffffffffffffffffffffffffffffff16815260200190815260200160002060008473ffffffffffffffffffffffffffffffffffffffff1673ffffffffffffffffffffffffffffffffffffffff16815260200190815260200160002060006101000a81548160ff0219169083151502179055508173ffffffffffffffffffffffffffffffffffffffff16611afe61260a565b73ffffffffffffffffffffffffffffffffffffffff167f17307eab39ab6107e8899845ad3d59bd9653f200f220920489ca2b5937696c3183604051611b43919061445a565b60405180910390a35050565b611b60611b5a61260a565b836126cb565b611b9f576040517f08c379a0000000000000000000000000000000000000000000000000000000008152600401611b9690614677565b60405180910390fd5b611bab84848484612bc9565b50505050565b6000808211611bbf57600080fd5b611bc96006612c25565b6000611bd56006612590565b9050611be18782612c3b565b611beb818461223f565b611bf581856114c0565b611c00816000610e89565b611c0a8187611c84565b611c148186610f7a565b611c1e813361240e565b8091505095945050505050565b600081604051602001611c3e919061435f565b6040516020818303038152906040528051906020012083604051602001611c65919061435f565b6040516020818303038152906040528051906020012014905092915050565b81611c8e8161259e565b611ccd576040517f08c379a0000000000000000000000000000000000000000000000000000000008152600401611cc4906146b7565b60405180910390fd5b823373ffffffffffffffffffffffffffffffffffffffff16611cee82611394565b73ffffffffffffffffffffffffffffffffffffffff1614611d44576040517f08c379a0000000000000000000000000000000000000000000000000000000008152600401611d3b906145f7565b60405180910390fd5b82600a60008681526020019081526020016000209080519060200190611d6b9291906131d1565b5050505050565b6060611d7d8261259e565b611dbc576040517f08c379a0000000000000000000000000000000000000000000000000000000008152600401611db390614637565b60405180910390fd5b6000611dc6612e09565b90506000815111611de65760405180602001604052806000815250611e11565b80611df084612e20565b604051602001611e01929190614376565b6040516020818303038152906040525b915050919050565b600081611e258161259e565b611e64576040517f08c379a0000000000000000000000000000000000000000000000000000000008152600401611e5b906146b7565b60405180910390fd5b600c600084815260200190815260200160002060009054906101000a900473ffffffffffffffffffffffffffffffffffffffff16915050919050565b6000600560008473ffffffffffffffffffffffffffffffffffffffff1673ffffffffffffffffffffffffffffffffffffffff16815260200190815260200160002060008373ffffffffffffffffffffffffffffffffffffffff1673ffffffffffffffffffffffffffffffffffffffff16815260200190815260200160002060009054906101000a900460ff16905092915050565b611f3c61317c565b600082118015611f555750611f516006612590565b8211155b611f94576040517f08c379a0000000000000000000000000000000000000000000000000000000008152600401611f8b90614697565b60405180910390fd5b60006040518060e00160405280848152602001611fb085611394565b73ffffffffffffffffffffffffffffffffffffffff16815260200160086000868152602001908152602001600020548152602001600a6000868152602001908152602001600020805461200290614a08565b80601f016020809104026020016040519081016040528092919081815260200182805461202e90614a08565b801561207b5780601f106120505761010080835404028352916020019161207b565b820191906000526020600020905b81548152906001019060200180831161205e57829003601f168201915b50505050508152602001600b600086815260200190815260200160002080546120a390614a08565b80601f01602080910402602001604051908101604052809291908181526020018280546120cf90614a08565b801561211c5780601f106120f15761010080835404028352916020019161211c565b820191906000526020600020905b8154815290600101906020018083116120ff57829003601f168201915b5050505050815260200160076000868152602001908152602001600020805480602002602001604051908101604052809291908181526020016000905b8282101561220557838290600052602060002001805461217890614a08565b80601f01602080910402602001604051908101604052809291908181526020018280546121a490614a08565b80156121f15780601f106121c6576101008083540402835291602001916121f1565b820191906000526020600020905b8154815290600101906020018083116121d457829003601f168201915b505050505081526020019060010190612159565b5050505081526020016009600086815260200190815260200160002060009054906101000a900460ff161515815250905080915050919050565b816122498161259e565b612288576040517f08c379a000000000000000000000000000000000000000000000000000000000815260040161227f906146b7565b60405180910390fd5b823373ffffffffffffffffffffffffffffffffffffffff166122a982611394565b73ffffffffffffffffffffffffffffffffffffffff16146122ff576040517f08c379a00000000000000000000000000000000000000000000000000000000081526004016122f6906145f7565b60405180910390fd5b82600860008681526020019081526020016000208190555050505050565b816123278161259e565b612366576040517f08c379a000000000000000000000000000000000000000000000000000000000815260040161235d906146b7565b60405180910390fd5b3073ffffffffffffffffffffffffffffffffffffffff166323b872dd61238b85611394565b84866040518463ffffffff1660e01b81526004016123ab939291906143b5565b600060405180830381600087803b1580156123c557600080fd5b505af11580156123d9573d6000803e3d6000fd5b5050505060006009600085815260200190815260200160002060006101000a81548160ff021916908315150217905550505050565b816124188161259e565b612457576040517f08c379a000000000000000000000000000000000000000000000000000000000815260040161244e906146b7565b60405180910390fd5b823373ffffffffffffffffffffffffffffffffffffffff1661247882611394565b73ffffffffffffffffffffffffffffffffffffffff16146124ce576040517f08c379a00000000000000000000000000000000000000000000000000000000081526004016124c5906145f7565b60405180910390fd5b82600c600086815260200190815260200160002060006101000a81548173ffffffffffffffffffffffffffffffffffffffff021916908373ffffffffffffffffffffffffffffffffffffffff16021790555050505050565b60007f01ffc9a7000000000000000000000000000000000000000000000000000000007bffffffffffffffffffffffffffffffffffffffffffffffffffffffff1916827bffffffffffffffffffffffffffffffffffffffffffffffffffffffff1916149050919050565b600081600001549050919050565b60008073ffffffffffffffffffffffffffffffffffffffff166002600084815260200190815260200160002060009054906101000a900473ffffffffffffffffffffffffffffffffffffffff1673ffffffffffffffffffffffffffffffffffffffff1614159050919050565b600033905090565b816004600083815260200190815260200160002060006101000a81548173ffffffffffffffffffffffffffffffffffffffff021916908373ffffffffffffffffffffffffffffffffffffffff160217905550808273ffffffffffffffffffffffffffffffffffffffff1661268583611394565b73ffffffffffffffffffffffffffffffffffffffff167f8c5be1e5ebec7d5bd14f71427d1e84f3dd0314c0f7b2291e5b200ac8c7c3b92560405160405180910390a45050565b60006126d68261259e565b612715576040517f08c379a000000000000000000000000000000000000000000000000000000000815260040161270c90614537565b60405180910390fd5b600061272083611394565b90508073ffffffffffffffffffffffffffffffffffffffff168473ffffffffffffffffffffffffffffffffffffffff16148061278f57508373ffffffffffffffffffffffffffffffffffffffff1661277784610b78565b73ffffffffffffffffffffffffffffffffffffffff16145b806127a0575061279f8185611ea0565b5b91505092915050565b8273ffffffffffffffffffffffffffffffffffffffff166127c982611394565b73ffffffffffffffffffffffffffffffffffffffff161461281f576040517f08c379a000000000000000000000000000000000000000000000000000000000815260040161281690614617565b60405180910390fd5b600073ffffffffffffffffffffffffffffffffffffffff168273ffffffffffffffffffffffffffffffffffffffff16141561288f576040517f08c379a0000000000000000000000000000000000000000000000000000000008152600401612886906144d7565b60405180910390fd5b61289a838383612fcd565b6128a5600082612612565b6001600360008573ffffffffffffffffffffffffffffffffffffffff1673ffffffffffffffffffffffffffffffffffffffff16815260200190815260200160002060008282546128f5919061491e565b925050819055506001600360008473ffffffffffffffffffffffffffffffffffffffff1673ffffffffffffffffffffffffffffffffffffffff168152602001908152602001600020600082825461294c9190614897565b92505081905550816002600083815260200190815260200160002060006101000a81548173ffffffffffffffffffffffffffffffffffffffff021916908373ffffffffffffffffffffffffffffffffffffffff160217905550808273ffffffffffffffffffffffffffffffffffffffff168473ffffffffffffffffffffffffffffffffffffffff167fddf252ad1be2c89b69c2b068fc378daa952ba7f163c4a11628f55a4df523b3ef60405160405180910390a4505050565b60008060076000858152602001908152602001600020805480602002602001604051908101604052809291908181526020016000905b82821015612ae7578382906000526020600020018054612a5a90614a08565b80601f0160208091040260200160405190810160405280929190818152602001828054612a8690614a08565b8015612ad35780601f10612aa857610100808354040283529160200191612ad3565b820191906000526020600020905b815481529060010190602001808311612ab657829003601f168201915b505050505081526020019060010190612a3b565b50505050905060005b60018251612afe919061491e565b811015612b7157612b4f828281518110612b41577f4e487b7100000000000000000000000000000000000000000000000000000000600052603260045260246000fd5b602002602001015185611c2b565b15612b5e578092505050612bad565b8080612b6990614a3a565b915050612af0565b506040517f08c379a0000000000000000000000000000000000000000000000000000000008152600401612ba490614517565b60405180910390fd5b92915050565b60008183612bc191906148ed565b905092915050565b612bd48484846127a9565b612be084848484612fd2565b612c1f576040517f08c379a0000000000000000000000000000000000000000000000000000000008152600401612c1690614497565b60405180910390fd5b50505050565b6001816000016000828254019250508190555050565b600073ffffffffffffffffffffffffffffffffffffffff168273ffffffffffffffffffffffffffffffffffffffff161415612cab576040517f08c379a0000000000000000000000000000000000000000000000000000000008152600401612ca2906145b7565b60405180910390fd5b612cb48161259e565b15612cf4576040517f08c379a0000000000000000000000000000000000000000000000000000000008152600401612ceb906144b7565b60405180910390fd5b612d0060008383612fcd565b6001600360008473ffffffffffffffffffffffffffffffffffffffff1673ffffffffffffffffffffffffffffffffffffffff1681526020019081526020016000206000828254612d509190614897565b92505081905550816002600083815260200190815260200160002060006101000a81548173ffffffffffffffffffffffffffffffffffffffff021916908373ffffffffffffffffffffffffffffffffffffffff160217905550808273ffffffffffffffffffffffffffffffffffffffff16600073ffffffffffffffffffffffffffffffffffffffff167fddf252ad1be2c89b69c2b068fc378daa952ba7f163c4a11628f55a4df523b3ef60405160405180910390a45050565b606060405180602001604052806000815250905090565b60606000821415612e68576040518060400160405280600181526020017f30000000000000000000000000000000000000000000000000000000000000008152509050612fc8565b600082905060005b60008214612e9a578080612e8390614a3a565b915050600a82612e9391906148ed565b9150612e70565b60008167ffffffffffffffff811115612edc577f4e487b7100000000000000000000000000000000000000000000000000000000600052604160045260246000fd5b6040519080825280601f01601f191660200182016040528015612f0e5781602001600182028036833780820191505090505b5090505b60008514612fc157600182612f27919061491e565b9150600a85612f369190614a83565b6030612f429190614897565b60f81b818381518110612f7e577f4e487b7100000000000000000000000000000000000000000000000000000000600052603260045260246000fd5b60200101907effffffffffffffffffffffffffffffffffffffffffffffffffffffffffffff1916908160001a905350600a85612fba91906148ed565b9450612f12565b8093505050505b919050565b505050565b6000612ff38473ffffffffffffffffffffffffffffffffffffffff16613169565b1561315c578373ffffffffffffffffffffffffffffffffffffffff1663150b7a0261301c61260a565b8786866040518563ffffffff1660e01b815260040161303e94939291906143ec565b602060405180830381600087803b15801561305857600080fd5b505af192505050801561308957506040513d601f19601f820116820180604052508101906130869190613787565b60015b61310c573d80600081146130b9576040519150601f19603f3d011682016040523d82523d6000602084013e6130be565b606091505b50600081511415613104576040517f08c379a00000000000000000000000000000000000000000000000000000000081526004016130fb90614497565b60405180910390fd5b805181602001fd5b63150b7a0260e01b7bffffffffffffffffffffffffffffffffffffffffffffffffffffffff1916817bffffffffffffffffffffffffffffffffffffffffffffffffffffffff191614915050613161565b600190505b949350505050565b600080823b905060008111915050919050565b6040518060e0016040528060008152602001600073ffffffffffffffffffffffffffffffffffffffff168152602001600081526020016060815260200160608152602001606081526020016000151581525090565b8280546131dd90614a08565b90600052602060002090601f0160209004810192826131ff5760008555613246565b82601f1061321857805160ff1916838001178555613246565b82800160010185558215613246579182015b8281111561324557825182559160200191906001019061322a565b5b50905061325391906132f7565b5090565b8280548282559060005260206000209081019282156132a6579160200282015b828111156132a55782518290805190602001906132959291906131d1565b5091602001919060010190613277565b5b5090506132b39190613314565b5090565b5080546132c390614a08565b6000825580601f106132d557506132f4565b601f0160209004906000526020600020908101906132f391906132f7565b5b50565b5b808211156133105760008160009055506001016132f8565b5090565b5b80821115613334576000818161332b91906132b7565b50600101613315565b5090565b600061334b61334684614745565b614714565b9050808382526020820190508260005b8581101561338b578135850161337188826134b9565b84526020840193506020830192505060018101905061335b565b5050509392505050565b60006133a86133a384614771565b614714565b9050828152602081018484840111156133c057600080fd5b6133cb8482856149c6565b509392505050565b60006133e66133e1846147a1565b614714565b9050828152602081018484840111156133fe57600080fd5b6134098482856149c6565b509392505050565b60008135905061342081614b81565b92915050565b600082601f83011261343757600080fd5b8135613447848260208601613338565b91505092915050565b60008135905061345f81614b98565b92915050565b60008135905061347481614baf565b92915050565b60008151905061348981614baf565b92915050565b600082601f8301126134a057600080fd5b81356134b0848260208601613395565b91505092915050565b600082601f8301126134ca57600080fd5b81356134da8482602086016133d3565b91505092915050565b6000813590506134f281614bc6565b92915050565b60006020828403121561350a57600080fd5b600061351884828501613411565b91505092915050565b6000806040838503121561353457600080fd5b600061354285828601613411565b925050602061355385828601613411565b9150509250929050565b60008060006060848603121561357257600080fd5b600061358086828701613411565b935050602061359186828701613411565b92505060406135a2868287016134e3565b9150509250925092565b600080600080608085870312156135c257600080fd5b60006135d087828801613411565b94505060206135e187828801613411565b93505060406135f2878288016134e3565b925050606085013567ffffffffffffffff81111561360f57600080fd5b61361b8782880161348f565b91505092959194509250565b6000806040838503121561363a57600080fd5b600061364885828601613411565b925050602061365985828601613450565b9150509250929050565b600080600080600060a0868803121561367b57600080fd5b600061368988828901613411565b955050602086013567ffffffffffffffff8111156136a657600080fd5b6136b2888289016134b9565b945050604086013567ffffffffffffffff8111156136cf57600080fd5b6136db888289016134b9565b935050606086013567ffffffffffffffff8111156136f857600080fd5b61370488828901613426565b9250506080613715888289016134e3565b9150509295509295909350565b6000806040838503121561373557600080fd5b600061374385828601613411565b9250506020613754858286016134e3565b9150509250929050565b60006020828403121561377057600080fd5b600061377e84828501613465565b91505092915050565b60006020828403121561379957600080fd5b60006137a78482850161347a565b91505092915050565b600080604083850312156137c357600080fd5b600083013567ffffffffffffffff8111156137dd57600080fd5b6137e9858286016134b9565b925050602083013567ffffffffffffffff81111561380657600080fd5b613812858286016134b9565b9150509250929050565b60006020828403121561382e57600080fd5b600061383c848285016134e3565b91505092915050565b6000806040838503121561385857600080fd5b6000613866858286016134e3565b925050602061387785828601613411565b9150509250929050565b6000806040838503121561389457600080fd5b60006138a2858286016134e3565b925050602083013567ffffffffffffffff8111156138bf57600080fd5b6138cb85828601613426565b9150509250929050565b600080604083850312156138e857600080fd5b60006138f6858286016134e3565b925050602061390785828601613450565b9150509250929050565b6000806040838503121561392457600080fd5b6000613932858286016134e3565b925050602083013567ffffffffffffffff81111561394f57600080fd5b61395b858286016134b9565b9150509250929050565b6000806040838503121561397857600080fd5b6000613986858286016134e3565b9250506020613997858286016134e3565b9150509250929050565b60006139ad8383613b28565b905092915050565b60006139c183836141ed565b905092915050565b6139d281614952565b82525050565b6139e181614952565b82525050565b60006139f2826147f1565b6139fc8185614837565b935083602082028501613a0e856147d1565b8060005b85811015613a4a5784840389528151613a2b85826139a1565b9450613a368361481d565b925060208a01995050600181019050613a12565b50829750879550505050505092915050565b6000613a67826147fc565b613a718185614848565b935083602082028501613a83856147e1565b8060005b85811015613abf5784840389528151613aa085826139b5565b9450613aab8361482a565b925060208a01995050600181019050613a87565b50829750879550505050505092915050565b613ada81614964565b82525050565b613ae981614964565b82525050565b6000613afa82614807565b613b048185614859565b9350613b148185602086016149d5565b613b1d81614b70565b840191505092915050565b6000613b3382614812565b613b3d818561486a565b9350613b4d8185602086016149d5565b613b5681614b70565b840191505092915050565b6000613b6c82614812565b613b76818561487b565b9350613b868185602086016149d5565b613b8f81614b70565b840191505092915050565b6000613ba582614812565b613baf818561488c565b9350613bbf8185602086016149d5565b80840191505092915050565b6000613bd860328361487b565b91507f4552433732313a207472616e7366657220746f206e6f6e20455243373231526560008301527f63656976657220696d706c656d656e74657200000000000000000000000000006020830152604082019050919050565b6000613c3e601c8361487b565b91507f4552433732313a20746f6b656e20616c7265616479206d696e746564000000006000830152602082019050919050565b6000613c7e60248361487b565b91507f4552433732313a207472616e7366657220746f20746865207a65726f2061646460008301527f72657373000000000000000000000000000000000000000000000000000000006020830152604082019050919050565b6000613ce460198361487b565b91507f4552433732313a20617070726f766520746f2063616c6c6572000000000000006000830152602082019050919050565b6000613d2460118361487b565b91507f6e6f6e206578697374656e7420686173680000000000000000000000000000006000830152602082019050919050565b6000613d64602c8361487b565b91507f4552433732313a206f70657261746f7220717565727920666f72206e6f6e657860008301527f697374656e7420746f6b656e00000000000000000000000000000000000000006020830152604082019050919050565b6000613dca60388361487b565b91507f4552433732313a20617070726f76652063616c6c6572206973206e6f74206f7760008301527f6e6572206e6f7220617070726f76656420666f7220616c6c00000000000000006020830152604082019050919050565b6000613e30602a8361487b565b91507f4552433732313a2062616c616e636520717565727920666f7220746865207a6560008301527f726f2061646472657373000000000000000000000000000000000000000000006020830152604082019050919050565b6000613e9660298361487b565b91507f4552433732313a206f776e657220717565727920666f72206e6f6e657869737460008301527f656e7420746f6b656e00000000000000000000000000000000000000000000006020830152604082019050919050565b6000613efc60208361487b565b91507f4552433732313a206d696e7420746f20746865207a65726f20616464726573736000830152602082019050919050565b6000613f3c602c8361487b565b91507f4552433732313a20617070726f76656420717565727920666f72206e6f6e657860008301527f697374656e7420746f6b656e00000000000000000000000000000000000000006020830152604082019050919050565b6000613fa260178361487b565b91507f63616c6c6572206973206e6f7420746865206f776e65720000000000000000006000830152602082019050919050565b6000613fe260298361487b565b91507f4552433732313a207472616e73666572206f6620746f6b656e2074686174206960008301527f73206e6f74206f776e00000000000000000000000000000000000000000000006020830152604082019050919050565b6000614048602f8361487b565b91507f4552433732314d657461646174613a2055524920717565727920666f72206e6f60008301527f6e6578697374656e7420746f6b656e00000000000000000000000000000000006020830152604082019050919050565b60006140ae60218361487b565b91507f4552433732313a20617070726f76616c20746f2063757272656e74206f776e6560008301527f72000000000000000000000000000000000000000000000000000000000000006020830152604082019050919050565b600061411460318361487b565b91507f4552433732313a207472616e736665722063616c6c6572206973206e6f74206f60008301527f776e6572206e6f7220617070726f7665640000000000000000000000000000006020830152604082019050919050565b600061417a600e8361487b565b91507f77726f6e6720746f6b656e2069640000000000000000000000000000000000006000830152602082019050919050565b60006141ba60148361487b565b91507f746f6b656e20646f6573206e6f742065786973740000000000000000000000006000830152602082019050919050565b600060e0830160008301516142056000860182614341565b50602083015161421860208601826139c9565b50604083015161422b6040860182614341565b50606083015184820360608601526142438282613b28565b9150506080830151848203608086015261425d8282613b28565b91505060a083015184820360a086015261427782826139e7565b91505060c083015161428c60c0860182613ad1565b508091505092915050565b600060e0830160008301516142af6000860182614341565b5060208301516142c260208601826139c9565b5060408301516142d56040860182614341565b50606083015184820360608601526142ed8282613b28565b915050608083015184820360808601526143078282613b28565b91505060a083015184820360a086015261432182826139e7565b91505060c083015161433660c0860182613ad1565b508091505092915050565b61434a816149bc565b82525050565b614359816149bc565b82525050565b600061436b8284613b9a565b915081905092915050565b60006143828285613b9a565b915061438e8284613b9a565b91508190509392505050565b60006020820190506143af60008301846139d8565b92915050565b60006060820190506143ca60008301866139d8565b6143d760208301856139d8565b6143e46040830184614350565b949350505050565b600060808201905061440160008301876139d8565b61440e60208301866139d8565b61441b6040830185614350565b818103606083015261442d8184613aef565b905095945050505050565b600060208201905081810360008301526144528184613a5c565b905092915050565b600060208201905061446f6000830184613ae0565b92915050565b6000602082019050818103600083015261448f8184613b61565b905092915050565b600060208201905081810360008301526144b081613bcb565b9050919050565b600060208201905081810360008301526144d081613c31565b9050919050565b600060208201905081810360008301526144f081613c71565b9050919050565b6000602082019050818103600083015261451081613cd7565b9050919050565b6000602082019050818103600083015261453081613d17565b9050919050565b6000602082019050818103600083015261455081613d57565b9050919050565b6000602082019050818103600083015261457081613dbd565b9050919050565b6000602082019050818103600083015261459081613e23565b9050919050565b600060208201905081810360008301526145b081613e89565b9050919050565b600060208201905081810360008301526145d081613eef565b9050919050565b600060208201905081810360008301526145f081613f2f565b9050919050565b6000602082019050818103600083015261461081613f95565b9050919050565b6000602082019050818103600083015261463081613fd5565b9050919050565b600060208201905081810360008301526146508161403b565b9050919050565b60006020820190508181036000830152614670816140a1565b9050919050565b6000602082019050818103600083015261469081614107565b9050919050565b600060208201905081810360008301526146b08161416d565b9050919050565b600060208201905081810360008301526146d0816141ad565b9050919050565b600060208201905081810360008301526146f18184614297565b905092915050565b600060208201905061470e6000830184614350565b92915050565b6000604051905081810181811067ffffffffffffffff8211171561473b5761473a614b41565b5b8060405250919050565b600067ffffffffffffffff8211156147605761475f614b41565b5b602082029050602081019050919050565b600067ffffffffffffffff82111561478c5761478b614b41565b5b601f19601f8301169050602081019050919050565b600067ffffffffffffffff8211156147bc576147bb614b41565b5b601f19601f8301169050602081019050919050565b6000819050602082019050919050565b6000819050602082019050919050565b600081519050919050565b600081519050919050565b600081519050919050565b600081519050919050565b6000602082019050919050565b6000602082019050919050565b600082825260208201905092915050565b600082825260208201905092915050565b600082825260208201905092915050565b600082825260208201905092915050565b600082825260208201905092915050565b600081905092915050565b60006148a2826149bc565b91506148ad836149bc565b9250827fffffffffffffffffffffffffffffffffffffffffffffffffffffffffffffffff038211156148e2576148e1614ab4565b5b828201905092915050565b60006148f8826149bc565b9150614903836149bc565b92508261491357614912614ae3565b5b828204905092915050565b6000614929826149bc565b9150614934836149bc565b92508282101561494757614946614ab4565b5b828203905092915050565b600061495d8261499c565b9050919050565b60008115159050919050565b60007fffffffff0000000000000000000000000000000000000000000000000000000082169050919050565b600073ffffffffffffffffffffffffffffffffffffffff82169050919050565b6000819050919050565b82818337600083830152505050565b60005b838110156149f35780820151818401526020810190506149d8565b83811115614a02576000848401525b50505050565b60006002820490506001821680614a2057607f821691505b60208210811415614a3457614a33614b12565b5b50919050565b6000614a45826149bc565b91507fffffffffffffffffffffffffffffffffffffffffffffffffffffffffffffffff821415614a7857614a77614ab4565b5b600182019050919050565b6000614a8e826149bc565b9150614a99836149bc565b925082614aa957614aa8614ae3565b5b828206905092915050565b7f4e487b7100000000000000000000000000000000000000000000000000000000600052601160045260246000fd5b7f4e487b7100000000000000000000000000000000000000000000000000000000600052601260045260246000fd5b7f4e487b7100000000000000000000000000000000000000000000000000000000600052602260045260246000fd5b7f4e487b7100000000000000000000000000000000000000000000000000000000600052604160045260246000fd5b6000601f19601f8301169050919050565b614b8a81614952565b8114614b9557600080fd5b50565b614ba181614964565b8114614bac57600080fd5b50565b614bb881614970565b8114614bc357600080fd5b50565b614bcf816149bc565b8114614bda57600080fd5b5056fea264697066735822122099955e1eca0ac7581d5397379c9477944e382acba477ae03ec5c39975f9c29dd64736f6c63430008000033",
  "immutableReferences": {},
  "source": "// SPDX-License-Identifier: MIT\r\npragma solidity ^0.8.0;\r\n\r\nimport \"@openzeppelin/contracts/token/ERC721/ERC721.sol\";\r\nimport \"@openzeppelin/contracts/utils/Counters.sol\";\r\nimport \"@openzeppelin/contracts/utils/math/SafeMath.sol\";\r\n\r\ncontract BlockdemyCourse is ERC721 {\r\n    using Counters for Counters.Counter;\r\n    using SafeMath for uint256;\r\n    Counters.Counter private _tokenIds;\r\n\r\n    mapping(uint256 => string[]) private _tokenUris;\r\n    mapping(uint256 => uint256) private _tokenPrices;\r\n    mapping(uint256 => bool) private _tokenOnSale;\r\n    mapping(uint256 => string) private _tokenTitles;\r\n    mapping(uint256 => string) private _tokenDescriptions;\r\n    mapping(uint256 => address) private _tokenCreators;\r\n\r\n    struct TokenProps {\r\n        uint256 id;\r\n        address owner;\r\n        uint256 price;\r\n        string title;\r\n        string description;\r\n        string[] uris;\r\n        bool onSale;\r\n    }\r\n\r\n    constructor() ERC721(\"BDEMY Course\", \"BDEMYC\") {}\r\n\r\n    function setTokenTitle(uint256 tokenId, string memory _title)\r\n        public\r\n        TokenExists(tokenId)\r\n        IsOwner(tokenId)\r\n    {\r\n        _tokenTitles[tokenId] = _title;\r\n    }\r\n\r\n    function setTokenDescription(uint256 tokenId, string memory _description)\r\n        public\r\n        TokenExists(tokenId)\r\n        IsOwner(tokenId)\r\n    {\r\n        _tokenDescriptions[tokenId] = _description;\r\n    }\r\n\r\n    function setTokenOnSale(uint256 tokenId, bool _sale)\r\n        public\r\n        TokenExists(tokenId)\r\n        IsOwner(tokenId)\r\n    {\r\n        _tokenOnSale[tokenId] = _sale;\r\n    }\r\n\r\n    function setTokenCreator(uint256 tokenId, address _address)\r\n        public\r\n        TokenExists(tokenId)\r\n        IsOwner(tokenId)\r\n    {\r\n        _tokenCreators[tokenId] = _address;\r\n    }\r\n\r\n    function setTokenPrice(uint256 tokenId, uint256 _price)\r\n        public\r\n        TokenExists(tokenId)\r\n        IsOwner(tokenId)\r\n    {\r\n        _tokenPrices[tokenId] = _price;\r\n    }\r\n\r\n    function setTokenUris(uint256 tokenId, string[] memory _uris)\r\n        public\r\n        TokenExists(tokenId)\r\n        IsOwner(tokenId)\r\n    {\r\n        _tokenUris[tokenId] = _uris;\r\n    }\r\n\r\n    function addTokenUris(uint256 tokenId, string[] memory _uris)\r\n        public\r\n        TokenExists(tokenId)\r\n        IsOwner(tokenId)\r\n    {\r\n        for (uint256 i = 0; i < _uris.length; i++) {\r\n            _tokenUris[tokenId].push(_uris[i]);\r\n        }\r\n    }\r\n\r\n    modifier TokenExists(uint256 tokenId) {\r\n        require(_exists(tokenId), \"token does not exist\");\r\n        _;\r\n    }\r\n\r\n    modifier IsOwner(uint256 tokenId) {\r\n        require(ownerOf(tokenId) == msg.sender, \"caller is not the owner\");\r\n        _;\r\n    }\r\n\r\n    function notMoreOnSale(uint256 tokenId)\r\n        external\r\n        IsOwner(tokenId)\r\n        TokenExists(tokenId)\r\n    {\r\n        _tokenOnSale[tokenId] = false;\r\n        approve(address(0), tokenId);\r\n    }\r\n\r\n    function setOnSale(uint256 tokenId, uint256 amount)\r\n        external\r\n        IsOwner(tokenId)\r\n        TokenExists(tokenId)\r\n    {\r\n        _tokenOnSale[tokenId] = true;\r\n        _tokenPrices[tokenId] = amount;\r\n        approve(address(this), tokenId);\r\n    }\r\n\r\n    /*\r\n        MINT COURSE DOES A MINT OF THE COURSE WITH ALL THE VIDEOS, IT MUST BE CALLED WHEN THE   \r\n        INSTRUCTOR HAS ALREADY DEFINED THE COURSE IN ITS ENTIRETY (OR AT LEAST THINKS SO), SINCE WE WILL ADD\r\n        OPTIONS TO REMOVE AND POST VIDEOS LATER, BUT REMEMBER THAT EACH INTERACTION COSTS MONEY\r\n    */\r\n    function mintCourse(\r\n        address _owner,\r\n        string memory _title,\r\n        string memory _description,\r\n        string[] memory _uris,\r\n        uint256 _price\r\n    ) public returns (uint256) {\r\n        require(_price > 0);\r\n\r\n        _tokenIds.increment();\r\n\r\n        uint256 newItemId = _tokenIds.current();\r\n        _mint(_owner, newItemId);\r\n        setTokenPrice(newItemId, _price);\r\n        setTokenUris(newItemId, _uris);\r\n        setTokenOnSale(newItemId, false);\r\n        setTokenTitle(newItemId, _title);\r\n        setTokenDescription(newItemId, _description);\r\n        setTokenCreator(newItemId,msg.sender);\r\n\r\n        return newItemId;\r\n    }\r\n\r\n    function deleteUri(uint256 tokenId, string memory _hash)\r\n        external\r\n        TokenExists(tokenId)\r\n        IsOwner(tokenId)\r\n    {\r\n        uint256 index = getTokenIndexByHash(tokenId, _hash);\r\n        string[] memory uris = _tokenUris[tokenId];\r\n        for (uint256 i = index; i < uris.length - 1; i++) {\r\n            uris[i] = uris[i + 1];\r\n        }\r\n        _tokenUris[tokenId] = uris;\r\n        _tokenUris[tokenId].pop();\r\n    }\r\n\r\n    function getTokenIndexByHash(uint256 tokenId, string memory _hash)\r\n        internal\r\n        view\r\n        returns (uint256)\r\n    {\r\n        string[] memory uris = _tokenUris[tokenId];\r\n        for (uint256 i = 0; i < uris.length - 1; i++) {\r\n            if (compareStrings(uris[i], _hash)) {\r\n                return i;\r\n            }\r\n        }\r\n\r\n        revert(\"non existent hash\");\r\n    }\r\n\r\n    function compareStrings(string memory a, string memory b)\r\n        public\r\n        pure\r\n        returns (bool)\r\n    {\r\n        return (keccak256(abi.encodePacked((a))) ==\r\n            keccak256(abi.encodePacked((b))));\r\n    }\r\n\r\n    function getCourseById(uint256 tokenId)\r\n        public\r\n        view\r\n        returns (TokenProps memory)\r\n    {\r\n        require(\r\n            tokenId > 0 && tokenId <= _tokenIds.current(),\r\n            \"wrong token id\"\r\n        );\r\n        TokenProps memory token = TokenProps(\r\n            tokenId,\r\n            ownerOf(tokenId),\r\n            _tokenPrices[tokenId],\r\n            _tokenTitles[tokenId],\r\n            _tokenDescriptions[tokenId],\r\n            _tokenUris[tokenId],\r\n            _tokenOnSale[tokenId]\r\n        );\r\n        return token;\r\n    }\r\n\r\n    function transferCourse(uint256 tokenId,address _to) external TokenExists(tokenId){\r\n        this.transferFrom(ownerOf(tokenId), _to, tokenId);\r\n        _tokenOnSale[tokenId] = false;\r\n    }\r\n\r\n    function getCreator(uint tokenId) external view TokenExists(tokenId) returns(address){\r\n        return _tokenCreators[tokenId];\r\n    }\r\n\r\n    function getCourseFees(uint256 tokenId) external view TokenExists(tokenId) returns (uint256){\r\n        return _tokenPrices[tokenId].div(5); //royalty 20%\r\n    }\r\n\r\n    function getCoursePrice(uint tokenId) external view TokenExists(tokenId) returns (uint256){\r\n        return _tokenPrices[tokenId];\r\n    }\r\n\r\n    function getAllCourses() public view returns (TokenProps[] memory) {\r\n        TokenProps[] memory tokens = new TokenProps[](_tokenIds.current());\r\n        uint256 counter = 0;\r\n\r\n        for (uint256 i = 1; i < _tokenIds.current() + 1; i++) {\r\n            TokenProps memory token = TokenProps(\r\n                i,\r\n                ownerOf(i),\r\n                _tokenPrices[i],\r\n                _tokenTitles[i],\r\n                _tokenDescriptions[i],\r\n                _tokenUris[i],\r\n                _tokenOnSale[i]\r\n            );\r\n            tokens[counter] = token;\r\n            counter++;\r\n        }\r\n\r\n        return tokens;\r\n    }\r\n}\r\n",
  "sourcePath": "E:\\blockdemy\\contracts\\BlockdemyCourse.sol",
  "compiler": {
    "name": "solc",
    "version": "0.8.0+commit.c7dfd78e.Emscripten.clang"
  },
  "schemaVersion": "3.4.1",
  "updatedAt": "2021-08-15T02:10:35.494Z",
  "networkType": "ethereum",
  "devdoc": {
    "kind": "dev",
    "methods": {
      "approve(address,uint256)": {
        "details": "See {IERC721-approve}."
      },
      "balanceOf(address)": {
        "details": "See {IERC721-balanceOf}."
      },
      "getApproved(uint256)": {
        "details": "See {IERC721-getApproved}."
      },
      "isApprovedForAll(address,address)": {
        "details": "See {IERC721-isApprovedForAll}."
      },
      "name()": {
        "details": "See {IERC721Metadata-name}."
      },
      "ownerOf(uint256)": {
        "details": "See {IERC721-ownerOf}."
      },
      "safeTransferFrom(address,address,uint256)": {
        "details": "See {IERC721-safeTransferFrom}."
      },
      "safeTransferFrom(address,address,uint256,bytes)": {
        "details": "See {IERC721-safeTransferFrom}."
      },
      "setApprovalForAll(address,bool)": {
        "details": "See {IERC721-setApprovalForAll}."
      },
      "supportsInterface(bytes4)": {
        "details": "See {IERC165-supportsInterface}."
      },
      "symbol()": {
        "details": "See {IERC721Metadata-symbol}."
      },
      "tokenURI(uint256)": {
        "details": "See {IERC721Metadata-tokenURI}."
      },
      "transferFrom(address,address,uint256)": {
        "details": "See {IERC721-transferFrom}."
      }
    },
    "version": 1
  },
  "userdoc": {
    "kind": "user",
    "methods": {},
    "version": 1
  }
}