{
  "contractName": "BlockdemyCourse",
  "abi": [
    {
      "inputs": [],
      "stateMutability": "nonpayable",
      "type": "constructor"
    },
    {
      "anonymous": false,
      "inputs": [
        {
          "indexed": true,
          "internalType": "address",
          "name": "owner",
          "type": "address"
        },
        {
          "indexed": true,
          "internalType": "address",
          "name": "approved",
          "type": "address"
        },
        {
          "indexed": true,
          "internalType": "uint256",
          "name": "tokenId",
          "type": "uint256"
        }
      ],
      "name": "Approval",
      "type": "event"
    },
    {
      "anonymous": false,
      "inputs": [
        {
          "indexed": true,
          "internalType": "address",
          "name": "owner",
          "type": "address"
        },
        {
          "indexed": true,
          "internalType": "address",
          "name": "operator",
          "type": "address"
        },
        {
          "indexed": false,
          "internalType": "bool",
          "name": "approved",
          "type": "bool"
        }
      ],
      "name": "ApprovalForAll",
      "type": "event"
    },
    {
      "anonymous": false,
      "inputs": [
        {
          "indexed": true,
          "internalType": "address",
          "name": "from",
          "type": "address"
        },
        {
          "indexed": true,
          "internalType": "address",
          "name": "to",
          "type": "address"
        },
        {
          "indexed": true,
          "internalType": "uint256",
          "name": "tokenId",
          "type": "uint256"
        }
      ],
      "name": "Transfer",
      "type": "event"
    },
    {
      "inputs": [
        {
          "internalType": "address",
          "name": "to",
          "type": "address"
        },
        {
          "internalType": "uint256",
          "name": "tokenId",
          "type": "uint256"
        }
      ],
      "name": "approve",
      "outputs": [],
      "stateMutability": "nonpayable",
      "type": "function"
    },
    {
      "inputs": [
        {
          "internalType": "address",
          "name": "owner",
          "type": "address"
        }
      ],
      "name": "balanceOf",
      "outputs": [
        {
          "internalType": "uint256",
          "name": "",
          "type": "uint256"
        }
      ],
      "stateMutability": "view",
      "type": "function",
      "constant": true
    },
    {
      "inputs": [
        {
          "internalType": "uint256",
          "name": "tokenId",
          "type": "uint256"
        }
      ],
      "name": "getApproved",
      "outputs": [
        {
          "internalType": "address",
          "name": "",
          "type": "address"
        }
      ],
      "stateMutability": "view",
      "type": "function",
      "constant": true
    },
    {
      "inputs": [
        {
          "internalType": "address",
          "name": "owner",
          "type": "address"
        },
        {
          "internalType": "address",
          "name": "operator",
          "type": "address"
        }
      ],
      "name": "isApprovedForAll",
      "outputs": [
        {
          "internalType": "bool",
          "name": "",
          "type": "bool"
        }
      ],
      "stateMutability": "view",
      "type": "function",
      "constant": true
    },
    {
      "inputs": [],
      "name": "name",
      "outputs": [
        {
          "internalType": "string",
          "name": "",
          "type": "string"
        }
      ],
      "stateMutability": "view",
      "type": "function",
      "constant": true
    },
    {
      "inputs": [
        {
          "internalType": "uint256",
          "name": "tokenId",
          "type": "uint256"
        }
      ],
      "name": "ownerOf",
      "outputs": [
        {
          "internalType": "address",
          "name": "",
          "type": "address"
        }
      ],
      "stateMutability": "view",
      "type": "function",
      "constant": true
    },
    {
      "inputs": [
        {
          "internalType": "address",
          "name": "from",
          "type": "address"
        },
        {
          "internalType": "address",
          "name": "to",
          "type": "address"
        },
        {
          "internalType": "uint256",
          "name": "tokenId",
          "type": "uint256"
        }
      ],
      "name": "safeTransferFrom",
      "outputs": [],
      "stateMutability": "nonpayable",
      "type": "function"
    },
    {
      "inputs": [
        {
          "internalType": "address",
          "name": "from",
          "type": "address"
        },
        {
          "internalType": "address",
          "name": "to",
          "type": "address"
        },
        {
          "internalType": "uint256",
          "name": "tokenId",
          "type": "uint256"
        },
        {
          "internalType": "bytes",
          "name": "_data",
          "type": "bytes"
        }
      ],
      "name": "safeTransferFrom",
      "outputs": [],
      "stateMutability": "nonpayable",
      "type": "function"
    },
    {
      "inputs": [
        {
          "internalType": "address",
          "name": "operator",
          "type": "address"
        },
        {
          "internalType": "bool",
          "name": "approved",
          "type": "bool"
        }
      ],
      "name": "setApprovalForAll",
      "outputs": [],
      "stateMutability": "nonpayable",
      "type": "function"
    },
    {
      "inputs": [
        {
          "internalType": "bytes4",
          "name": "interfaceId",
          "type": "bytes4"
        }
      ],
      "name": "supportsInterface",
      "outputs": [
        {
          "internalType": "bool",
          "name": "",
          "type": "bool"
        }
      ],
      "stateMutability": "view",
      "type": "function",
      "constant": true
    },
    {
      "inputs": [],
      "name": "symbol",
      "outputs": [
        {
          "internalType": "string",
          "name": "",
          "type": "string"
        }
      ],
      "stateMutability": "view",
      "type": "function",
      "constant": true
    },
    {
      "inputs": [
        {
          "internalType": "uint256",
          "name": "tokenId",
          "type": "uint256"
        }
      ],
      "name": "tokenURI",
      "outputs": [
        {
          "internalType": "string",
          "name": "",
          "type": "string"
        }
      ],
      "stateMutability": "view",
      "type": "function",
      "constant": true
    },
    {
      "inputs": [
        {
          "internalType": "address",
          "name": "from",
          "type": "address"
        },
        {
          "internalType": "address",
          "name": "to",
          "type": "address"
        },
        {
          "internalType": "uint256",
          "name": "tokenId",
          "type": "uint256"
        }
      ],
      "name": "transferFrom",
      "outputs": [],
      "stateMutability": "nonpayable",
      "type": "function"
    },
    {
      "inputs": [
        {
          "internalType": "uint256",
          "name": "tokenId",
          "type": "uint256"
        },
        {
          "internalType": "string",
          "name": "_title",
          "type": "string"
        }
      ],
      "name": "setTokenTitle",
      "outputs": [],
      "stateMutability": "nonpayable",
      "type": "function"
    },
    {
      "inputs": [
        {
          "internalType": "uint256",
          "name": "tokenId",
          "type": "uint256"
        },
        {
          "internalType": "string",
          "name": "_description",
          "type": "string"
        }
      ],
      "name": "setTokenDescription",
      "outputs": [],
      "stateMutability": "nonpayable",
      "type": "function"
    },
    {
      "inputs": [
        {
          "internalType": "uint256",
          "name": "tokenId",
          "type": "uint256"
        },
        {
          "internalType": "bool",
          "name": "_sale",
          "type": "bool"
        }
      ],
      "name": "setTokenOnSale",
      "outputs": [],
      "stateMutability": "nonpayable",
      "type": "function"
    },
    {
      "inputs": [
        {
          "internalType": "uint256",
          "name": "tokenId",
          "type": "uint256"
        },
        {
          "internalType": "uint256",
          "name": "_price",
          "type": "uint256"
        }
      ],
      "name": "setTokenPrice",
      "outputs": [],
      "stateMutability": "nonpayable",
      "type": "function"
    },
    {
      "inputs": [
        {
          "internalType": "uint256",
          "name": "tokenId",
          "type": "uint256"
        },
        {
          "internalType": "string[]",
          "name": "_uris",
          "type": "string[]"
        }
      ],
      "name": "setTokenUris",
      "outputs": [],
      "stateMutability": "nonpayable",
      "type": "function"
    },
    {
      "inputs": [
        {
          "internalType": "address",
          "name": "_owner",
          "type": "address"
        },
        {
          "internalType": "string",
          "name": "_title",
          "type": "string"
        },
        {
          "internalType": "string",
          "name": "_description",
          "type": "string"
        },
        {
          "internalType": "string[]",
          "name": "_uris",
          "type": "string[]"
        },
        {
          "internalType": "uint256",
          "name": "_price",
          "type": "uint256"
        },
        {
          "internalType": "bool",
          "name": "_sale",
          "type": "bool"
        }
      ],
      "name": "mintCourse",
      "outputs": [
        {
          "internalType": "uint256",
          "name": "",
          "type": "uint256"
        }
      ],
      "stateMutability": "nonpayable",
      "type": "function"
    },
    {
      "inputs": [
        {
          "internalType": "uint256",
          "name": "tokenId",
          "type": "uint256"
        },
        {
          "internalType": "string",
          "name": "_hash",
          "type": "string"
        }
      ],
      "name": "deleteVideo",
      "outputs": [],
      "stateMutability": "nonpayable",
      "type": "function"
    },
    {
      "inputs": [
        {
          "internalType": "string",
          "name": "a",
          "type": "string"
        },
        {
          "internalType": "string",
          "name": "b",
          "type": "string"
        }
      ],
      "name": "compareStrings",
      "outputs": [
        {
          "internalType": "bool",
          "name": "",
          "type": "bool"
        }
      ],
      "stateMutability": "pure",
      "type": "function",
      "constant": true
    },
    {
      "inputs": [
        {
          "internalType": "uint256",
          "name": "tokenId",
          "type": "uint256"
        }
      ],
      "name": "getCourseById",
      "outputs": [
        {
          "components": [
            {
              "internalType": "uint256",
              "name": "id",
              "type": "uint256"
            },
            {
              "internalType": "uint256",
              "name": "price",
              "type": "uint256"
            },
            {
              "internalType": "string",
              "name": "title",
              "type": "string"
            },
            {
              "internalType": "string",
              "name": "description",
              "type": "string"
            },
            {
              "internalType": "string[]",
              "name": "uris",
              "type": "string[]"
            },
            {
              "internalType": "bool",
              "name": "onSale",
              "type": "bool"
            }
          ],
          "internalType": "struct BlockdemyCourse.TokenProps",
          "name": "",
          "type": "tuple"
        }
      ],
      "stateMutability": "view",
      "type": "function",
      "constant": true
    },
    {
      "inputs": [],
      "name": "getAllCourses",
      "outputs": [
        {
          "components": [
            {
              "internalType": "uint256",
              "name": "id",
              "type": "uint256"
            },
            {
              "internalType": "uint256",
              "name": "price",
              "type": "uint256"
            },
            {
              "internalType": "string",
              "name": "title",
              "type": "string"
            },
            {
              "internalType": "string",
              "name": "description",
              "type": "string"
            },
            {
              "internalType": "string[]",
              "name": "uris",
              "type": "string[]"
            },
            {
              "internalType": "bool",
              "name": "onSale",
              "type": "bool"
            }
          ],
          "internalType": "struct BlockdemyCourse.TokenProps[]",
          "name": "",
          "type": "tuple[]"
        }
      ],
      "stateMutability": "view",
      "type": "function",
      "constant": true
    }
  ],
  "bytecode": "0x60806040523480156200001157600080fd5b506040518060400160405280600c81526020017f4244454d5920436f7572736500000000000000000000000000000000000000008152506040518060400160405280600681526020017f4244454d59430000000000000000000000000000000000000000000000000000815250816000908051906020019062000096929190620000b8565b508060019080519060200190620000af929190620000b8565b505050620001cd565b828054620000c69062000168565b90600052602060002090601f016020900481019282620000ea576000855562000136565b82601f106200010557805160ff191683800117855562000136565b8280016001018555821562000136579182015b828111156200013557825182559160200191906001019062000118565b5b50905062000145919062000149565b5090565b5b80821115620001645760008160009055506001016200014a565b5090565b600060028204905060018216806200018157607f821691505b602082108114156200019857620001976200019e565b5b50919050565b7f4e487b7100000000000000000000000000000000000000000000000000000000600052602260045260246000fd5b61425080620001dd6000396000f3fe608060405234801561001057600080fd5b506004361061014d5760003560e01c80636352211e116100c3578063bed34bba1161007c578063bed34bba14610398578063c0da00c6146103c8578063c87b56dd146103e4578063e985e9c514610414578063ea5b210f14610444578063eb685c47146104745761014d565b80636352211e146102c65780636f2c408b146102f657806370a082311461031257806395d89b4114610342578063a22cb46514610360578063b88d4fde1461037c5761014d565b806310e6c3431161011557806310e6c3431461020a57806323b872dd1461023a5780632449a88a14610256578063246a908b1461027257806326d4a0c51461028e57806342842e0e146102aa5761014d565b806301ffc9a71461015257806304e48bd11461018257806306fdde03146101a0578063081812fc146101be578063095ea7b3146101ee575b600080fd5b61016c60048036038101906101679190612e43565b610490565b6040516101799190613a97565b60405180910390f35b61018a610572565b6040516101979190613a75565b60405180910390f35b6101a861090e565b6040516101b59190613ab2565b60405180910390f35b6101d860048036038101906101d39190612f01565b6109a0565b6040516101e59190613a0e565b60405180910390f35b61020860048036038101906102039190612e07565b610a25565b005b610224600480360381019061021f9190612d36565b610b3d565b6040516102319190613d36565b60405180910390f35b610254600480360381019061024f9190612c30565b610bad565b005b610270600480360381019061026b9190612f7e565b610c0d565b005b61028c60048036038101906102879190612fba565b610cfe565b005b6102a860048036038101906102a39190612fba565b610dec565b005b6102c460048036038101906102bf9190612c30565b6110f8565b005b6102e060048036038101906102db9190612f01565b611118565b6040516102ed9190613a0e565b60405180910390f35b610310600480360381019061030b9190612f2a565b6111ca565b005b61032c60048036038101906103279190612bcb565b6112b8565b6040516103399190613d36565b60405180910390f35b61034a611370565b6040516103579190613ab2565b60405180910390f35b61037a60048036038101906103759190612cfa565b611402565b005b61039660048036038101906103919190612c7f565b611583565b005b6103b260048036038101906103ad9190612e95565b6115e5565b6040516103bf9190613a97565b60405180910390f35b6103e260048036038101906103dd9190612fba565b61163e565b005b6103fe60048036038101906103f99190612f01565b61172c565b60405161040b9190613ab2565b60405180910390f35b61042e60048036038101906104299190612bf4565b6117d3565b60405161043b9190613a97565b60405180910390f35b61045e60048036038101906104599190612f01565b611867565b60405161046b9190613d14565b60405180910390f35b61048e6004803603810190610489919061300e565b611b4e565b005b60007f80ac58cd000000000000000000000000000000000000000000000000000000007bffffffffffffffffffffffffffffffffffffffffffffffffffffffff1916827bffffffffffffffffffffffffffffffffffffffffffffffffffffffff1916148061055b57507f5b5e139f000000000000000000000000000000000000000000000000000000007bffffffffffffffffffffffffffffffffffffffffffffffffffffffff1916827bffffffffffffffffffffffffffffffffffffffffffffffffffffffff1916145b8061056b575061056a82611c2c565b5b9050919050565b606060006105806006611c96565b67ffffffffffffffff8111156105bf577f4e487b7100000000000000000000000000000000000000000000000000000000600052604160045260246000fd5b6040519080825280602002602001820160405280156105f857816020015b6105e561286c565b8152602001906001900390816105dd5790505b509050600080600190505b600161060f6006611c96565b6106199190613ed4565b8110156109055760006040518060c0016040528083815260200160086000858152602001908152602001600020548152602001600a6000858152602001908152602001600020805461066a90614045565b80601f016020809104026020016040519081016040528092919081815260200182805461069690614045565b80156106e35780601f106106b8576101008083540402835291602001916106e3565b820191906000526020600020905b8154815290600101906020018083116106c657829003601f168201915b50505050508152602001600b6000858152602001908152602001600020805461070b90614045565b80601f016020809104026020016040519081016040528092919081815260200182805461073790614045565b80156107845780601f1061075957610100808354040283529160200191610784565b820191906000526020600020905b81548152906001019060200180831161076757829003601f168201915b5050505050815260200160076000858152602001908152602001600020805480602002602001604051908101604052809291908181526020016000905b8282101561086d5783829060005260206000200180546107e090614045565b80601f016020809104026020016040519081016040528092919081815260200182805461080c90614045565b80156108595780601f1061082e57610100808354040283529160200191610859565b820191906000526020600020905b81548152906001019060200180831161083c57829003601f168201915b5050505050815260200190600101906107c1565b5050505081526020016009600085815260200190815260200160002060009054906101000a900460ff1615158152509050808484815181106108d8577f4e487b7100000000000000000000000000000000000000000000000000000000600052603260045260246000fd5b602002602001018190525082806108ee90614077565b9350505080806108fd90614077565b915050610603565b50819250505090565b60606000805461091d90614045565b80601f016020809104026020016040519081016040528092919081815260200182805461094990614045565b80156109965780601f1061096b57610100808354040283529160200191610996565b820191906000526020600020905b81548152906001019060200180831161097957829003601f168201915b5050505050905090565b60006109ab82611ca4565b6109ea576040517f08c379a00000000000000000000000000000000000000000000000000000000081526004016109e190613c14565b60405180910390fd5b6004600083815260200190815260200160002060009054906101000a900473ffffffffffffffffffffffffffffffffffffffff169050919050565b6000610a3082611118565b90508073ffffffffffffffffffffffffffffffffffffffff168373ffffffffffffffffffffffffffffffffffffffff161415610aa1576040517f08c379a0000000000000000000000000000000000000000000000000000000008152600401610a9890613c94565b60405180910390fd5b8073ffffffffffffffffffffffffffffffffffffffff16610ac0611d10565b73ffffffffffffffffffffffffffffffffffffffff161480610aef5750610aee81610ae9611d10565b6117d3565b5b610b2e576040517f08c379a0000000000000000000000000000000000000000000000000000000008152600401610b2590613b94565b60405180910390fd5b610b388383611d18565b505050565b6000808311610b4b57600080fd5b610b556006611dd1565b6000610b616006611c96565b9050610b6d8882611de7565b610b778185611b4e565b610b8181866111ca565b610b8b8184610c0d565b610b95818861163e565b610b9f8187610cfe565b809150509695505050505050565b610bbe610bb8611d10565b82611fb5565b610bfd576040517f08c379a0000000000000000000000000000000000000000000000000000000008152600401610bf490613cb4565b60405180910390fd5b610c08838383612093565b505050565b81610c1781611ca4565b610c56576040517f08c379a0000000000000000000000000000000000000000000000000000000008152600401610c4d90613cf4565b60405180910390fd5b823373ffffffffffffffffffffffffffffffffffffffff16610c7782611118565b73ffffffffffffffffffffffffffffffffffffffff1614610ccd576040517f08c379a0000000000000000000000000000000000000000000000000000000008152600401610cc490613c34565b60405180910390fd5b826009600086815260200190815260200160002060006101000a81548160ff02191690831515021790555050505050565b81610d0881611ca4565b610d47576040517f08c379a0000000000000000000000000000000000000000000000000000000008152600401610d3e90613cf4565b60405180910390fd5b823373ffffffffffffffffffffffffffffffffffffffff16610d6882611118565b73ffffffffffffffffffffffffffffffffffffffff1614610dbe576040517f08c379a0000000000000000000000000000000000000000000000000000000008152600401610db590613c34565b60405180910390fd5b82600b60008681526020019081526020016000209080519060200190610de59291906128a4565b5050505050565b81610df681611ca4565b610e35576040517f08c379a0000000000000000000000000000000000000000000000000000000008152600401610e2c90613cf4565b60405180910390fd5b823373ffffffffffffffffffffffffffffffffffffffff16610e5682611118565b73ffffffffffffffffffffffffffffffffffffffff1614610eac576040517f08c379a0000000000000000000000000000000000000000000000000000000008152600401610ea390613c34565b60405180910390fd5b6000610eb885856122ef565b9050600060076000878152602001908152602001600020805480602002602001604051908101604052809291908181526020016000905b82821015610f9b578382906000526020600020018054610f0e90614045565b80601f0160208091040260200160405190810160405280929190818152602001828054610f3a90614045565b8015610f875780601f10610f5c57610100808354040283529160200191610f87565b820191906000526020600020905b815481529060010190602001808311610f6a57829003601f168201915b505050505081526020019060010190610eef565b50505050905060008290505b60018251610fb59190613f5b565b8110156110605781600182610fca9190613ed4565b81518110611001577f4e487b7100000000000000000000000000000000000000000000000000000000600052603260045260246000fd5b6020026020010151828281518110611042577f4e487b7100000000000000000000000000000000000000000000000000000000600052603260045260246000fd5b6020026020010181905250808061105890614077565b915050610fa7565b508060076000888152602001908152602001600020908051906020019061108892919061292a565b50600760008781526020019081526020016000208054806110d2577f4e487b7100000000000000000000000000000000000000000000000000000000600052603160045260246000fd5b6001900381819060005260206000200160006110ee919061298a565b9055505050505050565b61111383838360405180602001604052806000815250611583565b505050565b6000806002600084815260200190815260200160002060009054906101000a900473ffffffffffffffffffffffffffffffffffffffff169050600073ffffffffffffffffffffffffffffffffffffffff168173ffffffffffffffffffffffffffffffffffffffff1614156111c1576040517f08c379a00000000000000000000000000000000000000000000000000000000081526004016111b890613bd4565b60405180910390fd5b80915050919050565b816111d481611ca4565b611213576040517f08c379a000000000000000000000000000000000000000000000000000000000815260040161120a90613cf4565b60405180910390fd5b823373ffffffffffffffffffffffffffffffffffffffff1661123482611118565b73ffffffffffffffffffffffffffffffffffffffff161461128a576040517f08c379a000000000000000000000000000000000000000000000000000000000815260040161128190613c34565b60405180910390fd5b826007600086815260200190815260200160002090805190602001906112b192919061292a565b5050505050565b60008073ffffffffffffffffffffffffffffffffffffffff168273ffffffffffffffffffffffffffffffffffffffff161415611329576040517f08c379a000000000000000000000000000000000000000000000000000000000815260040161132090613bb4565b60405180910390fd5b600360008373ffffffffffffffffffffffffffffffffffffffff1673ffffffffffffffffffffffffffffffffffffffff168152602001908152602001600020549050919050565b60606001805461137f90614045565b80601f01602080910402602001604051908101604052809291908181526020018280546113ab90614045565b80156113f85780601f106113cd576101008083540402835291602001916113f8565b820191906000526020600020905b8154815290600101906020018083116113db57829003601f168201915b5050505050905090565b61140a611d10565b73ffffffffffffffffffffffffffffffffffffffff168273ffffffffffffffffffffffffffffffffffffffff161415611478576040517f08c379a000000000000000000000000000000000000000000000000000000000815260040161146f90613b34565b60405180910390fd5b8060056000611485611d10565b73ffffffffffffffffffffffffffffffffffffffff1673ffffffffffffffffffffffffffffffffffffffff16815260200190815260200160002060008473ffffffffffffffffffffffffffffffffffffffff1673ffffffffffffffffffffffffffffffffffffffff16815260200190815260200160002060006101000a81548160ff0219169083151502179055508173ffffffffffffffffffffffffffffffffffffffff16611532611d10565b73ffffffffffffffffffffffffffffffffffffffff167f17307eab39ab6107e8899845ad3d59bd9653f200f220920489ca2b5937696c31836040516115779190613a97565b60405180910390a35050565b61159461158e611d10565b83611fb5565b6115d3576040517f08c379a00000000000000000000000000000000000000000000000000000000081526004016115ca90613cb4565b60405180910390fd5b6115df8484848461249d565b50505050565b6000816040516020016115f891906139d3565b604051602081830303815290604052805190602001208360405160200161161f91906139d3565b6040516020818303038152906040528051906020012014905092915050565b8161164881611ca4565b611687576040517f08c379a000000000000000000000000000000000000000000000000000000000815260040161167e90613cf4565b60405180910390fd5b823373ffffffffffffffffffffffffffffffffffffffff166116a882611118565b73ffffffffffffffffffffffffffffffffffffffff16146116fe576040517f08c379a00000000000000000000000000000000000000000000000000000000081526004016116f590613c34565b60405180910390fd5b82600a600086815260200190815260200160002090805190602001906117259291906128a4565b5050505050565b606061173782611ca4565b611776576040517f08c379a000000000000000000000000000000000000000000000000000000000815260040161176d90613c74565b60405180910390fd5b60006117806124f9565b905060008151116117a057604051806020016040528060008152506117cb565b806117aa84612510565b6040516020016117bb9291906139ea565b6040516020818303038152906040525b915050919050565b6000600560008473ffffffffffffffffffffffffffffffffffffffff1673ffffffffffffffffffffffffffffffffffffffff16815260200190815260200160002060008373ffffffffffffffffffffffffffffffffffffffff1673ffffffffffffffffffffffffffffffffffffffff16815260200190815260200160002060009054906101000a900460ff16905092915050565b61186f61286c565b60008211801561188857506118846006611c96565b8211155b6118c7576040517f08c379a00000000000000000000000000000000000000000000000000000000081526004016118be90613cd4565b60405180910390fd5b60006040518060c0016040528084815260200160086000868152602001908152602001600020548152602001600a6000868152602001908152602001600020805461191190614045565b80601f016020809104026020016040519081016040528092919081815260200182805461193d90614045565b801561198a5780601f1061195f5761010080835404028352916020019161198a565b820191906000526020600020905b81548152906001019060200180831161196d57829003601f168201915b50505050508152602001600b600086815260200190815260200160002080546119b290614045565b80601f01602080910402602001604051908101604052809291908181526020018280546119de90614045565b8015611a2b5780601f10611a0057610100808354040283529160200191611a2b565b820191906000526020600020905b815481529060010190602001808311611a0e57829003601f168201915b5050505050815260200160076000868152602001908152602001600020805480602002602001604051908101604052809291908181526020016000905b82821015611b14578382906000526020600020018054611a8790614045565b80601f0160208091040260200160405190810160405280929190818152602001828054611ab390614045565b8015611b005780601f10611ad557610100808354040283529160200191611b00565b820191906000526020600020905b815481529060010190602001808311611ae357829003601f168201915b505050505081526020019060010190611a68565b5050505081526020016009600086815260200190815260200160002060009054906101000a900460ff161515815250905080915050919050565b81611b5881611ca4565b611b97576040517f08c379a0000000000000000000000000000000000000000000000000000000008152600401611b8e90613cf4565b60405180910390fd5b823373ffffffffffffffffffffffffffffffffffffffff16611bb882611118565b73ffffffffffffffffffffffffffffffffffffffff1614611c0e576040517f08c379a0000000000000000000000000000000000000000000000000000000008152600401611c0590613c34565b60405180910390fd5b82600860008681526020019081526020016000208190555050505050565b60007f01ffc9a7000000000000000000000000000000000000000000000000000000007bffffffffffffffffffffffffffffffffffffffffffffffffffffffff1916827bffffffffffffffffffffffffffffffffffffffffffffffffffffffff1916149050919050565b600081600001549050919050565b60008073ffffffffffffffffffffffffffffffffffffffff166002600084815260200190815260200160002060009054906101000a900473ffffffffffffffffffffffffffffffffffffffff1673ffffffffffffffffffffffffffffffffffffffff1614159050919050565b600033905090565b816004600083815260200190815260200160002060006101000a81548173ffffffffffffffffffffffffffffffffffffffff021916908373ffffffffffffffffffffffffffffffffffffffff160217905550808273ffffffffffffffffffffffffffffffffffffffff16611d8b83611118565b73ffffffffffffffffffffffffffffffffffffffff167f8c5be1e5ebec7d5bd14f71427d1e84f3dd0314c0f7b2291e5b200ac8c7c3b92560405160405180910390a45050565b6001816000016000828254019250508190555050565b600073ffffffffffffffffffffffffffffffffffffffff168273ffffffffffffffffffffffffffffffffffffffff161415611e57576040517f08c379a0000000000000000000000000000000000000000000000000000000008152600401611e4e90613bf4565b60405180910390fd5b611e6081611ca4565b15611ea0576040517f08c379a0000000000000000000000000000000000000000000000000000000008152600401611e9790613af4565b60405180910390fd5b611eac600083836126bd565b6001600360008473ffffffffffffffffffffffffffffffffffffffff1673ffffffffffffffffffffffffffffffffffffffff1681526020019081526020016000206000828254611efc9190613ed4565b92505081905550816002600083815260200190815260200160002060006101000a81548173ffffffffffffffffffffffffffffffffffffffff021916908373ffffffffffffffffffffffffffffffffffffffff160217905550808273ffffffffffffffffffffffffffffffffffffffff16600073ffffffffffffffffffffffffffffffffffffffff167fddf252ad1be2c89b69c2b068fc378daa952ba7f163c4a11628f55a4df523b3ef60405160405180910390a45050565b6000611fc082611ca4565b611fff576040517f08c379a0000000000000000000000000000000000000000000000000000000008152600401611ff690613b74565b60405180910390fd5b600061200a83611118565b90508073ffffffffffffffffffffffffffffffffffffffff168473ffffffffffffffffffffffffffffffffffffffff16148061207957508373ffffffffffffffffffffffffffffffffffffffff16612061846109a0565b73ffffffffffffffffffffffffffffffffffffffff16145b8061208a575061208981856117d3565b5b91505092915050565b8273ffffffffffffffffffffffffffffffffffffffff166120b382611118565b73ffffffffffffffffffffffffffffffffffffffff1614612109576040517f08c379a000000000000000000000000000000000000000000000000000000000815260040161210090613c54565b60405180910390fd5b600073ffffffffffffffffffffffffffffffffffffffff168273ffffffffffffffffffffffffffffffffffffffff161415612179576040517f08c379a000000000000000000000000000000000000000000000000000000000815260040161217090613b14565b60405180910390fd5b6121848383836126bd565b61218f600082611d18565b6001600360008573ffffffffffffffffffffffffffffffffffffffff1673ffffffffffffffffffffffffffffffffffffffff16815260200190815260200160002060008282546121df9190613f5b565b925050819055506001600360008473ffffffffffffffffffffffffffffffffffffffff1673ffffffffffffffffffffffffffffffffffffffff16815260200190815260200160002060008282546122369190613ed4565b92505081905550816002600083815260200190815260200160002060006101000a81548173ffffffffffffffffffffffffffffffffffffffff021916908373ffffffffffffffffffffffffffffffffffffffff160217905550808273ffffffffffffffffffffffffffffffffffffffff168473ffffffffffffffffffffffffffffffffffffffff167fddf252ad1be2c89b69c2b068fc378daa952ba7f163c4a11628f55a4df523b3ef60405160405180910390a4505050565b60008060076000858152602001908152602001600020805480602002602001604051908101604052809291908181526020016000905b828210156123d157838290600052602060002001805461234490614045565b80601f016020809104026020016040519081016040528092919081815260200182805461237090614045565b80156123bd5780601f10612392576101008083540402835291602001916123bd565b820191906000526020600020905b8154815290600101906020018083116123a057829003601f168201915b505050505081526020019060010190612325565b50505050905060005b600182516123e89190613f5b565b81101561245b5761243982828151811061242b577f4e487b7100000000000000000000000000000000000000000000000000000000600052603260045260246000fd5b6020026020010151856115e5565b15612448578092505050612497565b808061245390614077565b9150506123da565b506040517f08c379a000000000000000000000000000000000000000000000000000000000815260040161248e90613b54565b60405180910390fd5b92915050565b6124a8848484612093565b6124b4848484846126c2565b6124f3576040517f08c379a00000000000000000000000000000000000000000000000000000000081526004016124ea90613ad4565b60405180910390fd5b50505050565b606060405180602001604052806000815250905090565b60606000821415612558576040518060400160405280600181526020017f300000000000000000000000000000000000000000000000000000000000000081525090506126b8565b600082905060005b6000821461258a57808061257390614077565b915050600a826125839190613f2a565b9150612560565b60008167ffffffffffffffff8111156125cc577f4e487b7100000000000000000000000000000000000000000000000000000000600052604160045260246000fd5b6040519080825280601f01601f1916602001820160405280156125fe5781602001600182028036833780820191505090505b5090505b600085146126b1576001826126179190613f5b565b9150600a8561262691906140c0565b60306126329190613ed4565b60f81b81838151811061266e577f4e487b7100000000000000000000000000000000000000000000000000000000600052603260045260246000fd5b60200101907effffffffffffffffffffffffffffffffffffffffffffffffffffffffffffff1916908160001a905350600a856126aa9190613f2a565b9450612602565b8093505050505b919050565b505050565b60006126e38473ffffffffffffffffffffffffffffffffffffffff16612859565b1561284c578373ffffffffffffffffffffffffffffffffffffffff1663150b7a0261270c611d10565b8786866040518563ffffffff1660e01b815260040161272e9493929190613a29565b602060405180830381600087803b15801561274857600080fd5b505af192505050801561277957506040513d601f19601f820116820180604052508101906127769190612e6c565b60015b6127fc573d80600081146127a9576040519150601f19603f3d011682016040523d82523d6000602084013e6127ae565b606091505b506000815114156127f4576040517f08c379a00000000000000000000000000000000000000000000000000000000081526004016127eb90613ad4565b60405180910390fd5b805181602001fd5b63150b7a0260e01b7bffffffffffffffffffffffffffffffffffffffffffffffffffffffff1916817bffffffffffffffffffffffffffffffffffffffffffffffffffffffff191614915050612851565b600190505b949350505050565b600080823b905060008111915050919050565b6040518060c0016040528060008152602001600081526020016060815260200160608152602001606081526020016000151581525090565b8280546128b090614045565b90600052602060002090601f0160209004810192826128d25760008555612919565b82601f106128eb57805160ff1916838001178555612919565b82800160010185558215612919579182015b828111156129185782518255916020019190600101906128fd565b5b50905061292691906129ca565b5090565b828054828255906000526020600020908101928215612979579160200282015b828111156129785782518290805190602001906129689291906128a4565b509160200191906001019061294a565b5b50905061298691906129e7565b5090565b50805461299690614045565b6000825580601f106129a857506129c7565b601f0160209004906000526020600020908101906129c691906129ca565b5b50565b5b808211156129e35760008160009055506001016129cb565b5090565b5b80821115612a0757600081816129fe919061298a565b506001016129e8565b5090565b6000612a1e612a1984613d82565b613d51565b9050808382526020820190508260005b85811015612a5e5781358501612a448882612b8c565b845260208401935060208301925050600181019050612a2e565b5050509392505050565b6000612a7b612a7684613dae565b613d51565b905082815260208101848484011115612a9357600080fd5b612a9e848285614003565b509392505050565b6000612ab9612ab484613dde565b613d51565b905082815260208101848484011115612ad157600080fd5b612adc848285614003565b509392505050565b600081359050612af3816141be565b92915050565b600082601f830112612b0a57600080fd5b8135612b1a848260208601612a0b565b91505092915050565b600081359050612b32816141d5565b92915050565b600081359050612b47816141ec565b92915050565b600081519050612b5c816141ec565b92915050565b600082601f830112612b7357600080fd5b8135612b83848260208601612a68565b91505092915050565b600082601f830112612b9d57600080fd5b8135612bad848260208601612aa6565b91505092915050565b600081359050612bc581614203565b92915050565b600060208284031215612bdd57600080fd5b6000612beb84828501612ae4565b91505092915050565b60008060408385031215612c0757600080fd5b6000612c1585828601612ae4565b9250506020612c2685828601612ae4565b9150509250929050565b600080600060608486031215612c4557600080fd5b6000612c5386828701612ae4565b9350506020612c6486828701612ae4565b9250506040612c7586828701612bb6565b9150509250925092565b60008060008060808587031215612c9557600080fd5b6000612ca387828801612ae4565b9450506020612cb487828801612ae4565b9350506040612cc587828801612bb6565b925050606085013567ffffffffffffffff811115612ce257600080fd5b612cee87828801612b62565b91505092959194509250565b60008060408385031215612d0d57600080fd5b6000612d1b85828601612ae4565b9250506020612d2c85828601612b23565b9150509250929050565b60008060008060008060c08789031215612d4f57600080fd5b6000612d5d89828a01612ae4565b965050602087013567ffffffffffffffff811115612d7a57600080fd5b612d8689828a01612b8c565b955050604087013567ffffffffffffffff811115612da357600080fd5b612daf89828a01612b8c565b945050606087013567ffffffffffffffff811115612dcc57600080fd5b612dd889828a01612af9565b9350506080612de989828a01612bb6565b92505060a0612dfa89828a01612b23565b9150509295509295509295565b60008060408385031215612e1a57600080fd5b6000612e2885828601612ae4565b9250506020612e3985828601612bb6565b9150509250929050565b600060208284031215612e5557600080fd5b6000612e6384828501612b38565b91505092915050565b600060208284031215612e7e57600080fd5b6000612e8c84828501612b4d565b91505092915050565b60008060408385031215612ea857600080fd5b600083013567ffffffffffffffff811115612ec257600080fd5b612ece85828601612b8c565b925050602083013567ffffffffffffffff811115612eeb57600080fd5b612ef785828601612b8c565b9150509250929050565b600060208284031215612f1357600080fd5b6000612f2184828501612bb6565b91505092915050565b60008060408385031215612f3d57600080fd5b6000612f4b85828601612bb6565b925050602083013567ffffffffffffffff811115612f6857600080fd5b612f7485828601612af9565b9150509250929050565b60008060408385031215612f9157600080fd5b6000612f9f85828601612bb6565b9250506020612fb085828601612b23565b9150509250929050565b60008060408385031215612fcd57600080fd5b6000612fdb85828601612bb6565b925050602083013567ffffffffffffffff811115612ff857600080fd5b61300485828601612b8c565b9150509250929050565b6000806040838503121561302157600080fd5b600061302f85828601612bb6565b925050602061304085828601612bb6565b9150509250929050565b600061305683836131c2565b905092915050565b600061306a8383613887565b905092915050565b61307b81613f8f565b82525050565b600061308c82613e2e565b6130968185613e74565b9350836020820285016130a885613e0e565b8060005b858110156130e457848403895281516130c5858261304a565b94506130d083613e5a565b925060208a019950506001810190506130ac565b50829750879550505050505092915050565b600061310182613e39565b61310b8185613e85565b93508360208202850161311d85613e1e565b8060005b85811015613159578484038952815161313a858261305e565b945061314583613e67565b925060208a01995050600181019050613121565b50829750879550505050505092915050565b61317481613fa1565b82525050565b61318381613fa1565b82525050565b600061319482613e44565b61319e8185613e96565b93506131ae818560208601614012565b6131b7816141ad565b840191505092915050565b60006131cd82613e4f565b6131d78185613ea7565b93506131e7818560208601614012565b6131f0816141ad565b840191505092915050565b600061320682613e4f565b6132108185613eb8565b9350613220818560208601614012565b613229816141ad565b840191505092915050565b600061323f82613e4f565b6132498185613ec9565b9350613259818560208601614012565b80840191505092915050565b6000613272603283613eb8565b91507f4552433732313a207472616e7366657220746f206e6f6e20455243373231526560008301527f63656976657220696d706c656d656e74657200000000000000000000000000006020830152604082019050919050565b60006132d8601c83613eb8565b91507f4552433732313a20746f6b656e20616c7265616479206d696e746564000000006000830152602082019050919050565b6000613318602483613eb8565b91507f4552433732313a207472616e7366657220746f20746865207a65726f2061646460008301527f72657373000000000000000000000000000000000000000000000000000000006020830152604082019050919050565b600061337e601983613eb8565b91507f4552433732313a20617070726f766520746f2063616c6c6572000000000000006000830152602082019050919050565b60006133be601183613eb8565b91507f6e6f6e206578697374656e7420686173680000000000000000000000000000006000830152602082019050919050565b60006133fe602c83613eb8565b91507f4552433732313a206f70657261746f7220717565727920666f72206e6f6e657860008301527f697374656e7420746f6b656e00000000000000000000000000000000000000006020830152604082019050919050565b6000613464603883613eb8565b91507f4552433732313a20617070726f76652063616c6c6572206973206e6f74206f7760008301527f6e6572206e6f7220617070726f76656420666f7220616c6c00000000000000006020830152604082019050919050565b60006134ca602a83613eb8565b91507f4552433732313a2062616c616e636520717565727920666f7220746865207a6560008301527f726f2061646472657373000000000000000000000000000000000000000000006020830152604082019050919050565b6000613530602983613eb8565b91507f4552433732313a206f776e657220717565727920666f72206e6f6e657869737460008301527f656e7420746f6b656e00000000000000000000000000000000000000000000006020830152604082019050919050565b6000613596602083613eb8565b91507f4552433732313a206d696e7420746f20746865207a65726f20616464726573736000830152602082019050919050565b60006135d6602c83613eb8565b91507f4552433732313a20617070726f76656420717565727920666f72206e6f6e657860008301527f697374656e7420746f6b656e00000000000000000000000000000000000000006020830152604082019050919050565b600061363c601783613eb8565b91507f63616c6c6572206973206e6f7420746865206f776e65720000000000000000006000830152602082019050919050565b600061367c602983613eb8565b91507f4552433732313a207472616e73666572206f6620746f6b656e2074686174206960008301527f73206e6f74206f776e00000000000000000000000000000000000000000000006020830152604082019050919050565b60006136e2602f83613eb8565b91507f4552433732314d657461646174613a2055524920717565727920666f72206e6f60008301527f6e6578697374656e7420746f6b656e00000000000000000000000000000000006020830152604082019050919050565b6000613748602183613eb8565b91507f4552433732313a20617070726f76616c20746f2063757272656e74206f776e6560008301527f72000000000000000000000000000000000000000000000000000000000000006020830152604082019050919050565b60006137ae603183613eb8565b91507f4552433732313a207472616e736665722063616c6c6572206973206e6f74206f60008301527f776e6572206e6f7220617070726f7665640000000000000000000000000000006020830152604082019050919050565b6000613814600e83613eb8565b91507f77726f6e6720746f6b656e2069640000000000000000000000000000000000006000830152602082019050919050565b6000613854601483613eb8565b91507f746f6b656e20646f6573206e6f742065786973740000000000000000000000006000830152602082019050919050565b600060c08301600083015161389f60008601826139b5565b5060208301516138b260208601826139b5565b50604083015184820360408601526138ca82826131c2565b915050606083015184820360608601526138e482826131c2565b915050608083015184820360808601526138fe8282613081565b91505060a083015161391360a086018261316b565b508091505092915050565b600060c08301600083015161393660008601826139b5565b50602083015161394960208601826139b5565b506040830151848203604086015261396182826131c2565b9150506060830151848203606086015261397b82826131c2565b915050608083015184820360808601526139958282613081565b91505060a08301516139aa60a086018261316b565b508091505092915050565b6139be81613ff9565b82525050565b6139cd81613ff9565b82525050565b60006139df8284613234565b915081905092915050565b60006139f68285613234565b9150613a028284613234565b91508190509392505050565b6000602082019050613a236000830184613072565b92915050565b6000608082019050613a3e6000830187613072565b613a4b6020830186613072565b613a5860408301856139c4565b8181036060830152613a6a8184613189565b905095945050505050565b60006020820190508181036000830152613a8f81846130f6565b905092915050565b6000602082019050613aac600083018461317a565b92915050565b60006020820190508181036000830152613acc81846131fb565b905092915050565b60006020820190508181036000830152613aed81613265565b9050919050565b60006020820190508181036000830152613b0d816132cb565b9050919050565b60006020820190508181036000830152613b2d8161330b565b9050919050565b60006020820190508181036000830152613b4d81613371565b9050919050565b60006020820190508181036000830152613b6d816133b1565b9050919050565b60006020820190508181036000830152613b8d816133f1565b9050919050565b60006020820190508181036000830152613bad81613457565b9050919050565b60006020820190508181036000830152613bcd816134bd565b9050919050565b60006020820190508181036000830152613bed81613523565b9050919050565b60006020820190508181036000830152613c0d81613589565b9050919050565b60006020820190508181036000830152613c2d816135c9565b9050919050565b60006020820190508181036000830152613c4d8161362f565b9050919050565b60006020820190508181036000830152613c6d8161366f565b9050919050565b60006020820190508181036000830152613c8d816136d5565b9050919050565b60006020820190508181036000830152613cad8161373b565b9050919050565b60006020820190508181036000830152613ccd816137a1565b9050919050565b60006020820190508181036000830152613ced81613807565b9050919050565b60006020820190508181036000830152613d0d81613847565b9050919050565b60006020820190508181036000830152613d2e818461391e565b905092915050565b6000602082019050613d4b60008301846139c4565b92915050565b6000604051905081810181811067ffffffffffffffff82111715613d7857613d7761417e565b5b8060405250919050565b600067ffffffffffffffff821115613d9d57613d9c61417e565b5b602082029050602081019050919050565b600067ffffffffffffffff821115613dc957613dc861417e565b5b601f19601f8301169050602081019050919050565b600067ffffffffffffffff821115613df957613df861417e565b5b601f19601f8301169050602081019050919050565b6000819050602082019050919050565b6000819050602082019050919050565b600081519050919050565b600081519050919050565b600081519050919050565b600081519050919050565b6000602082019050919050565b6000602082019050919050565b600082825260208201905092915050565b600082825260208201905092915050565b600082825260208201905092915050565b600082825260208201905092915050565b600082825260208201905092915050565b600081905092915050565b6000613edf82613ff9565b9150613eea83613ff9565b9250827fffffffffffffffffffffffffffffffffffffffffffffffffffffffffffffffff03821115613f1f57613f1e6140f1565b5b828201905092915050565b6000613f3582613ff9565b9150613f4083613ff9565b925082613f5057613f4f614120565b5b828204905092915050565b6000613f6682613ff9565b9150613f7183613ff9565b925082821015613f8457613f836140f1565b5b828203905092915050565b6000613f9a82613fd9565b9050919050565b60008115159050919050565b60007fffffffff0000000000000000000000000000000000000000000000000000000082169050919050565b600073ffffffffffffffffffffffffffffffffffffffff82169050919050565b6000819050919050565b82818337600083830152505050565b60005b83811015614030578082015181840152602081019050614015565b8381111561403f576000848401525b50505050565b6000600282049050600182168061405d57607f821691505b602082108114156140715761407061414f565b5b50919050565b600061408282613ff9565b91507fffffffffffffffffffffffffffffffffffffffffffffffffffffffffffffffff8214156140b5576140b46140f1565b5b600182019050919050565b60006140cb82613ff9565b91506140d683613ff9565b9250826140e6576140e5614120565b5b828206905092915050565b7f4e487b7100000000000000000000000000000000000000000000000000000000600052601160045260246000fd5b7f4e487b7100000000000000000000000000000000000000000000000000000000600052601260045260246000fd5b7f4e487b7100000000000000000000000000000000000000000000000000000000600052602260045260246000fd5b7f4e487b7100000000000000000000000000000000000000000000000000000000600052604160045260246000fd5b6000601f19601f8301169050919050565b6141c781613f8f565b81146141d257600080fd5b50565b6141de81613fa1565b81146141e957600080fd5b50565b6141f581613fad565b811461420057600080fd5b50565b61420c81613ff9565b811461421757600080fd5b5056fea2646970667358221220adf5ecb41648eb6f353b6d5c693d0ef27081f94c6314fcde6006479f2e1d77ce64736f6c63430008000033",
  "immutableReferences": {},
  "source": "// SPDX-License-Identifier: MIT\r\npragma solidity ^0.8.0;\r\n\r\nimport \"@openzeppelin/contracts/token/ERC721/ERC721.sol\";\r\nimport \"@openzeppelin/contracts/utils/Counters.sol\";\r\n\r\n\r\ncontract BlockdemyCourse is ERC721 {\r\n    using Counters for Counters.Counter;\r\n    Counters.Counter private _tokenIds;\r\n\r\n    mapping(uint256 => string[]) private _tokenUris;\r\n    mapping(uint256 => uint256) private _tokenPrices;\r\n    mapping(uint256 => bool) private _tokenOnSale;\r\n    mapping(uint256 => string) private _tokenTitles;\r\n    mapping(uint256 => string) private _tokenDescriptions;\r\n\r\n    struct TokenProps {\r\n        uint256 id;\r\n        uint256 price;\r\n        string title;\r\n        string description;\r\n        string[] uris;\r\n        bool onSale;\r\n    }\r\n\r\n    //we will need to transform the string[] into video[]\r\n    struct video{\r\n        string title;\r\n        string description;\r\n        string uri;\r\n    }\r\n\r\n    constructor() ERC721(\"BDEMY Course\", \"BDEMYC\") {}\r\n\r\n    function setTokenTitle(uint256 tokenId, string memory _title)\r\n        public\r\n        TokenExists(tokenId)\r\n        IsOwner(tokenId)\r\n    {\r\n        _tokenTitles[tokenId] = _title;\r\n    }\r\n\r\n    function setTokenDescription(uint256 tokenId, string memory _description)\r\n        public\r\n        TokenExists(tokenId)\r\n        IsOwner(tokenId)\r\n    {\r\n        _tokenDescriptions[tokenId] = _description;\r\n    }\r\n\r\n    function setTokenOnSale(uint256 tokenId, bool _sale)\r\n        public\r\n        TokenExists(tokenId)\r\n        IsOwner(tokenId)\r\n    {\r\n        _tokenOnSale[tokenId] = _sale;\r\n    }\r\n\r\n    function setTokenPrice(uint256 tokenId, uint256 _price)\r\n        public\r\n        TokenExists(tokenId)\r\n        IsOwner(tokenId)\r\n    {\r\n        _tokenPrices[tokenId] = _price;\r\n    }\r\n\r\n    function setTokenUris(uint256 tokenId, string[] memory _uris)\r\n        public\r\n        TokenExists(tokenId)\r\n        IsOwner(tokenId)\r\n    {\r\n        _tokenUris[tokenId] = _uris;\r\n    }\r\n\r\n    modifier TokenExists(uint256 tokenId) {\r\n        require(_exists(tokenId), \"token does not exist\");\r\n        _;\r\n    }\r\n\r\n    modifier IsOwner(uint256 tokenId) {\r\n        require(ownerOf(tokenId) == msg.sender, \"caller is not the owner\");\r\n        _;\r\n    }\r\n\r\n    /*\r\n        MINT COURSE DOES A MINT OF THE COURSE WITH ALL THE VIDEOS, IT MUST BE CALLED WHEN THE   \r\n        INSTRUCTOR HAS ALREADY DEFINED THE COURSE IN ITS ENTIRETY (OR AT LEAST THINKS SO), SINCE WE WILL ADD\r\n        OPTIONS TO REMOVE AND POST VIDEOS LATER, BUT REMEMBER THAT EACH INTERACTION COSTS MONEY\r\n    */\r\n    function mintCourse(\r\n        address _owner,\r\n        string memory _title,\r\n        string memory _description,\r\n        string[] memory _uris,\r\n        uint256 _price, //IN USDT\r\n        bool _sale\r\n    ) public returns (uint256) {\r\n        require(_price > 0);\r\n\r\n        _tokenIds.increment();\r\n\r\n        uint256 newItemId = _tokenIds.current();\r\n        _mint(_owner, newItemId);\r\n        setTokenPrice(newItemId, _price);\r\n        setTokenUris(newItemId, _uris);\r\n        setTokenOnSale(newItemId, _sale);\r\n        setTokenTitle(newItemId, _title);\r\n        setTokenDescription(newItemId, _description);\r\n\r\n        return newItemId;\r\n    }\r\n\r\n    function deleteVideo(uint256 tokenId, string memory _hash)\r\n        external\r\n        TokenExists(tokenId)\r\n        IsOwner(tokenId)\r\n    {\r\n        uint256 index = getTokenIndexByHash(tokenId, _hash);\r\n        string[] memory uris = _tokenUris[tokenId];\r\n        for (uint256 i = index; i < uris.length - 1; i++) {\r\n            uris[i] = uris[i + 1];\r\n        }\r\n        _tokenUris[tokenId] = uris;\r\n        _tokenUris[tokenId].pop();\r\n    }\r\n\r\n    function getTokenIndexByHash(uint256 tokenId, string memory _hash)\r\n        internal\r\n        view\r\n        returns (uint256)\r\n    {\r\n        string[] memory uris = _tokenUris[tokenId];\r\n        for (uint256 i = 0; i < uris.length - 1; i++) {\r\n            if (compareStrings(uris[i], _hash)) {\r\n                return i;\r\n            }\r\n        }\r\n\r\n        revert(\"non existent hash\");\r\n    }\r\n\r\n    function compareStrings(string memory a, string memory b)\r\n        public\r\n        pure\r\n        returns (bool)\r\n    {\r\n        return (keccak256(abi.encodePacked((a))) ==\r\n            keccak256(abi.encodePacked((b))));\r\n    }\r\n\r\n    function getCourseById(uint256 tokenId)\r\n        public\r\n        view\r\n        returns (TokenProps memory)\r\n    {\r\n        require(\r\n            tokenId > 0 && tokenId <= _tokenIds.current(),\r\n            \"wrong token id\"\r\n        );\r\n        TokenProps memory token = TokenProps(\r\n            tokenId,\r\n            _tokenPrices[tokenId],\r\n            _tokenTitles[tokenId],\r\n            _tokenDescriptions[tokenId],\r\n            _tokenUris[tokenId],\r\n            _tokenOnSale[tokenId]\r\n        );\r\n        return token;\r\n    }\r\n\r\n    function getAllCourses() public view returns (TokenProps[] memory) {\r\n        TokenProps[] memory tokens = new TokenProps[](_tokenIds.current());\r\n        uint256 counter = 0;\r\n\r\n        for (uint256 i = 1; i < _tokenIds.current() + 1; i++) {\r\n            TokenProps memory token = TokenProps(\r\n                i,\r\n                _tokenPrices[i],\r\n                _tokenTitles[i],\r\n                _tokenDescriptions[i],\r\n                _tokenUris[i],\r\n                _tokenOnSale[i]\r\n            );\r\n            tokens[counter] = token;\r\n            counter++;\r\n        }\r\n\r\n        return tokens;\r\n    }\r\n}\r\n",
  "sourcePath": "E:\\blockdemy\\contracts\\BlockdemyCourse.sol",
  "compiler": {
    "name": "solc",
    "version": "0.8.0+commit.c7dfd78e.Emscripten.clang"
  },
  "schemaVersion": "3.4.1",
  "updatedAt": "2021-08-09T12:42:34.114Z",
  "networkType": "ethereum",
  "devdoc": {
    "kind": "dev",
    "methods": {
      "approve(address,uint256)": {
        "details": "See {IERC721-approve}."
      },
      "balanceOf(address)": {
        "details": "See {IERC721-balanceOf}."
      },
      "getApproved(uint256)": {
        "details": "See {IERC721-getApproved}."
      },
      "isApprovedForAll(address,address)": {
        "details": "See {IERC721-isApprovedForAll}."
      },
      "name()": {
        "details": "See {IERC721Metadata-name}."
      },
      "ownerOf(uint256)": {
        "details": "See {IERC721-ownerOf}."
      },
      "safeTransferFrom(address,address,uint256)": {
        "details": "See {IERC721-safeTransferFrom}."
      },
      "safeTransferFrom(address,address,uint256,bytes)": {
        "details": "See {IERC721-safeTransferFrom}."
      },
      "setApprovalForAll(address,bool)": {
        "details": "See {IERC721-setApprovalForAll}."
      },
      "supportsInterface(bytes4)": {
        "details": "See {IERC165-supportsInterface}."
      },
      "symbol()": {
        "details": "See {IERC721Metadata-symbol}."
      },
      "tokenURI(uint256)": {
        "details": "See {IERC721Metadata-tokenURI}."
      },
      "transferFrom(address,address,uint256)": {
        "details": "See {IERC721-transferFrom}."
      }
    },
    "version": 1
  },
  "userdoc": {
    "kind": "user",
    "methods": {},
    "version": 1
  }
}