{
  "contractName": "BlockdemyCourse",
  "abi": [
    {
      "inputs": [],
      "stateMutability": "nonpayable",
      "type": "constructor"
    },
    {
      "anonymous": false,
      "inputs": [
        {
          "indexed": true,
          "internalType": "address",
          "name": "owner",
          "type": "address"
        },
        {
          "indexed": true,
          "internalType": "address",
          "name": "approved",
          "type": "address"
        },
        {
          "indexed": true,
          "internalType": "uint256",
          "name": "tokenId",
          "type": "uint256"
        }
      ],
      "name": "Approval",
      "type": "event"
    },
    {
      "anonymous": false,
      "inputs": [
        {
          "indexed": true,
          "internalType": "address",
          "name": "owner",
          "type": "address"
        },
        {
          "indexed": true,
          "internalType": "address",
          "name": "operator",
          "type": "address"
        },
        {
          "indexed": false,
          "internalType": "bool",
          "name": "approved",
          "type": "bool"
        }
      ],
      "name": "ApprovalForAll",
      "type": "event"
    },
    {
      "anonymous": false,
      "inputs": [
        {
          "indexed": true,
          "internalType": "address",
          "name": "from",
          "type": "address"
        },
        {
          "indexed": true,
          "internalType": "address",
          "name": "to",
          "type": "address"
        },
        {
          "indexed": true,
          "internalType": "uint256",
          "name": "tokenId",
          "type": "uint256"
        }
      ],
      "name": "Transfer",
      "type": "event"
    },
    {
      "inputs": [
        {
          "internalType": "address",
          "name": "to",
          "type": "address"
        },
        {
          "internalType": "uint256",
          "name": "tokenId",
          "type": "uint256"
        }
      ],
      "name": "approve",
      "outputs": [],
      "stateMutability": "nonpayable",
      "type": "function"
    },
    {
      "inputs": [
        {
          "internalType": "address",
          "name": "owner",
          "type": "address"
        }
      ],
      "name": "balanceOf",
      "outputs": [
        {
          "internalType": "uint256",
          "name": "",
          "type": "uint256"
        }
      ],
      "stateMutability": "view",
      "type": "function",
      "constant": true
    },
    {
      "inputs": [
        {
          "internalType": "uint256",
          "name": "tokenId",
          "type": "uint256"
        }
      ],
      "name": "getApproved",
      "outputs": [
        {
          "internalType": "address",
          "name": "",
          "type": "address"
        }
      ],
      "stateMutability": "view",
      "type": "function",
      "constant": true
    },
    {
      "inputs": [
        {
          "internalType": "address",
          "name": "owner",
          "type": "address"
        },
        {
          "internalType": "address",
          "name": "operator",
          "type": "address"
        }
      ],
      "name": "isApprovedForAll",
      "outputs": [
        {
          "internalType": "bool",
          "name": "",
          "type": "bool"
        }
      ],
      "stateMutability": "view",
      "type": "function",
      "constant": true
    },
    {
      "inputs": [],
      "name": "name",
      "outputs": [
        {
          "internalType": "string",
          "name": "",
          "type": "string"
        }
      ],
      "stateMutability": "view",
      "type": "function",
      "constant": true
    },
    {
      "inputs": [
        {
          "internalType": "uint256",
          "name": "tokenId",
          "type": "uint256"
        }
      ],
      "name": "ownerOf",
      "outputs": [
        {
          "internalType": "address",
          "name": "",
          "type": "address"
        }
      ],
      "stateMutability": "view",
      "type": "function",
      "constant": true
    },
    {
      "inputs": [
        {
          "internalType": "address",
          "name": "from",
          "type": "address"
        },
        {
          "internalType": "address",
          "name": "to",
          "type": "address"
        },
        {
          "internalType": "uint256",
          "name": "tokenId",
          "type": "uint256"
        }
      ],
      "name": "safeTransferFrom",
      "outputs": [],
      "stateMutability": "nonpayable",
      "type": "function"
    },
    {
      "inputs": [
        {
          "internalType": "address",
          "name": "from",
          "type": "address"
        },
        {
          "internalType": "address",
          "name": "to",
          "type": "address"
        },
        {
          "internalType": "uint256",
          "name": "tokenId",
          "type": "uint256"
        },
        {
          "internalType": "bytes",
          "name": "_data",
          "type": "bytes"
        }
      ],
      "name": "safeTransferFrom",
      "outputs": [],
      "stateMutability": "nonpayable",
      "type": "function"
    },
    {
      "inputs": [
        {
          "internalType": "address",
          "name": "operator",
          "type": "address"
        },
        {
          "internalType": "bool",
          "name": "approved",
          "type": "bool"
        }
      ],
      "name": "setApprovalForAll",
      "outputs": [],
      "stateMutability": "nonpayable",
      "type": "function"
    },
    {
      "inputs": [
        {
          "internalType": "bytes4",
          "name": "interfaceId",
          "type": "bytes4"
        }
      ],
      "name": "supportsInterface",
      "outputs": [
        {
          "internalType": "bool",
          "name": "",
          "type": "bool"
        }
      ],
      "stateMutability": "view",
      "type": "function",
      "constant": true
    },
    {
      "inputs": [],
      "name": "symbol",
      "outputs": [
        {
          "internalType": "string",
          "name": "",
          "type": "string"
        }
      ],
      "stateMutability": "view",
      "type": "function",
      "constant": true
    },
    {
      "inputs": [
        {
          "internalType": "uint256",
          "name": "tokenId",
          "type": "uint256"
        }
      ],
      "name": "tokenURI",
      "outputs": [
        {
          "internalType": "string",
          "name": "",
          "type": "string"
        }
      ],
      "stateMutability": "view",
      "type": "function",
      "constant": true
    },
    {
      "inputs": [
        {
          "internalType": "address",
          "name": "from",
          "type": "address"
        },
        {
          "internalType": "address",
          "name": "to",
          "type": "address"
        },
        {
          "internalType": "uint256",
          "name": "tokenId",
          "type": "uint256"
        }
      ],
      "name": "transferFrom",
      "outputs": [],
      "stateMutability": "nonpayable",
      "type": "function"
    },
    {
      "inputs": [
        {
          "internalType": "uint256",
          "name": "tokenId",
          "type": "uint256"
        },
        {
          "internalType": "string",
          "name": "_title",
          "type": "string"
        }
      ],
      "name": "setTokenTitle",
      "outputs": [],
      "stateMutability": "nonpayable",
      "type": "function"
    },
    {
      "inputs": [
        {
          "internalType": "uint256",
          "name": "tokenId",
          "type": "uint256"
        },
        {
          "internalType": "string",
          "name": "_description",
          "type": "string"
        }
      ],
      "name": "setTokenDescription",
      "outputs": [],
      "stateMutability": "nonpayable",
      "type": "function"
    },
    {
      "inputs": [
        {
          "internalType": "uint256",
          "name": "tokenId",
          "type": "uint256"
        },
        {
          "internalType": "bool",
          "name": "_sale",
          "type": "bool"
        }
      ],
      "name": "setTokenOnSale",
      "outputs": [],
      "stateMutability": "nonpayable",
      "type": "function"
    },
    {
      "inputs": [
        {
          "internalType": "uint256",
          "name": "tokenId",
          "type": "uint256"
        },
        {
          "internalType": "uint256",
          "name": "_price",
          "type": "uint256"
        }
      ],
      "name": "setTokenPrice",
      "outputs": [],
      "stateMutability": "nonpayable",
      "type": "function"
    },
    {
      "inputs": [
        {
          "internalType": "uint256",
          "name": "tokenId",
          "type": "uint256"
        },
        {
          "internalType": "string[]",
          "name": "_uris",
          "type": "string[]"
        }
      ],
      "name": "setTokenUris",
      "outputs": [],
      "stateMutability": "nonpayable",
      "type": "function"
    },
    {
      "inputs": [
        {
          "internalType": "uint256",
          "name": "tokenId",
          "type": "uint256"
        },
        {
          "internalType": "string[]",
          "name": "_uris",
          "type": "string[]"
        }
      ],
      "name": "addTokenUris",
      "outputs": [],
      "stateMutability": "nonpayable",
      "type": "function"
    },
    {
      "inputs": [
        {
          "internalType": "uint256",
          "name": "tokenId",
          "type": "uint256"
        }
      ],
      "name": "notMoreOnSale",
      "outputs": [],
      "stateMutability": "nonpayable",
      "type": "function"
    },
    {
      "inputs": [
        {
          "internalType": "uint256",
          "name": "tokenId",
          "type": "uint256"
        },
        {
          "internalType": "uint256",
          "name": "amount",
          "type": "uint256"
        }
      ],
      "name": "setOnSale",
      "outputs": [],
      "stateMutability": "nonpayable",
      "type": "function"
    },
    {
      "inputs": [
        {
          "internalType": "address",
          "name": "_owner",
          "type": "address"
        },
        {
          "internalType": "string",
          "name": "_title",
          "type": "string"
        },
        {
          "internalType": "string",
          "name": "_description",
          "type": "string"
        },
        {
          "internalType": "string[]",
          "name": "_uris",
          "type": "string[]"
        },
        {
          "internalType": "uint256",
          "name": "_price",
          "type": "uint256"
        }
      ],
      "name": "mintCourse",
      "outputs": [
        {
          "internalType": "uint256",
          "name": "",
          "type": "uint256"
        }
      ],
      "stateMutability": "nonpayable",
      "type": "function"
    },
    {
      "inputs": [
        {
          "internalType": "uint256",
          "name": "tokenId",
          "type": "uint256"
        },
        {
          "internalType": "string",
          "name": "_hash",
          "type": "string"
        }
      ],
      "name": "deleteUri",
      "outputs": [],
      "stateMutability": "nonpayable",
      "type": "function"
    },
    {
      "inputs": [
        {
          "internalType": "string",
          "name": "a",
          "type": "string"
        },
        {
          "internalType": "string",
          "name": "b",
          "type": "string"
        }
      ],
      "name": "compareStrings",
      "outputs": [
        {
          "internalType": "bool",
          "name": "",
          "type": "bool"
        }
      ],
      "stateMutability": "pure",
      "type": "function",
      "constant": true
    },
    {
      "inputs": [
        {
          "internalType": "uint256",
          "name": "tokenId",
          "type": "uint256"
        }
      ],
      "name": "getCourseById",
      "outputs": [
        {
          "components": [
            {
              "internalType": "uint256",
              "name": "id",
              "type": "uint256"
            },
            {
              "internalType": "address",
              "name": "owner",
              "type": "address"
            },
            {
              "internalType": "uint256",
              "name": "price",
              "type": "uint256"
            },
            {
              "internalType": "string",
              "name": "title",
              "type": "string"
            },
            {
              "internalType": "string",
              "name": "description",
              "type": "string"
            },
            {
              "internalType": "string[]",
              "name": "uris",
              "type": "string[]"
            },
            {
              "internalType": "bool",
              "name": "onSale",
              "type": "bool"
            }
          ],
          "internalType": "struct BlockdemyCourse.TokenProps",
          "name": "",
          "type": "tuple"
        }
      ],
      "stateMutability": "view",
      "type": "function",
      "constant": true
    },
    {
      "inputs": [
        {
          "internalType": "uint256",
          "name": "tokenId",
          "type": "uint256"
        }
      ],
      "name": "buyCourse",
      "outputs": [],
      "stateMutability": "payable",
      "type": "function",
      "payable": true
    },
    {
      "inputs": [],
      "name": "getAllCourses",
      "outputs": [
        {
          "components": [
            {
              "internalType": "uint256",
              "name": "id",
              "type": "uint256"
            },
            {
              "internalType": "address",
              "name": "owner",
              "type": "address"
            },
            {
              "internalType": "uint256",
              "name": "price",
              "type": "uint256"
            },
            {
              "internalType": "string",
              "name": "title",
              "type": "string"
            },
            {
              "internalType": "string",
              "name": "description",
              "type": "string"
            },
            {
              "internalType": "string[]",
              "name": "uris",
              "type": "string[]"
            },
            {
              "internalType": "bool",
              "name": "onSale",
              "type": "bool"
            }
          ],
          "internalType": "struct BlockdemyCourse.TokenProps[]",
          "name": "",
          "type": "tuple[]"
        }
      ],
      "stateMutability": "view",
      "type": "function",
      "constant": true
    }
  ],
  "bytecode": "0x60806040523480156200001157600080fd5b506040518060400160405280600c81526020017f4244454d5920436f7572736500000000000000000000000000000000000000008152506040518060400160405280600681526020017f4244454d59430000000000000000000000000000000000000000000000000000815250816000908051906020019062000096929190620000b8565b508060019080519060200190620000af929190620000b8565b505050620001cd565b828054620000c69062000168565b90600052602060002090601f016020900481019282620000ea576000855562000136565b82601f106200010557805160ff191683800117855562000136565b8280016001018555821562000136579182015b828111156200013557825182559160200191906001019062000118565b5b50905062000145919062000149565b5090565b5b80821115620001645760008160009055506001016200014a565b5090565b600060028204905060018216806200018157607f821691505b602082108114156200019857620001976200019e565b5b50919050565b7f4e487b7100000000000000000000000000000000000000000000000000000000600052602260045260246000fd5b6149ff80620001dd6000396000f3fe60806040526004361061019c5760003560e01c80636f2c408b116100ec578063be9a046c1161008a578063c87b56dd11610064578063c87b56dd146105c1578063e985e9c5146105fe578063ea5b210f1461063b578063eb685c47146106785761019c565b8063be9a046c1461051e578063bed34bba1461055b578063c0da00c6146105985761019c565b80637d976eaa116100c65780637d976eaa1461047857806395d89b41146104a1578063a22cb465146104cc578063b88d4fde146104f55761019c565b80636f2c408b146103e957806370a08231146104125780637b286c9b1461044f5761019c565b8063194d73a211610159578063246a908b11610133578063246a908b1461033157806342842e0e1461035a57806347b99a21146103835780636352211e146103ac5761019c565b8063194d73a2146102c357806323b872dd146102df5780632449a88a146103085761019c565b806301ffc9a7146101a157806304e48bd1146101de57806306fdde0314610209578063081812fc14610234578063095ea7b3146102715780630b8d27c31461029a575b600080fd5b3480156101ad57600080fd5b506101c860048036038101906101c39190613526565b6106a1565b6040516101d59190614226565b60405180910390f35b3480156101ea57600080fd5b506101f3610783565b6040516102009190614204565b60405180910390f35b34801561021557600080fd5b5061021e610b43565b60405161022b9190614241565b60405180910390f35b34801561024057600080fd5b5061025b600480360381019061025691906135e4565b610bd5565b6040516102689190614166565b60405180910390f35b34801561027d57600080fd5b50610298600480360381019061029391906134ea565b610c5a565b005b3480156102a657600080fd5b506102c160048036038101906102bc91906136f1565b610d72565b005b6102dd60048036038101906102d891906135e4565b610e86565b005b3480156102eb57600080fd5b5061030660048036038101906103019190613325565b610f82565b005b34801561031457600080fd5b5061032f600480360381019061032a9190613661565b610fe2565b005b34801561033d57600080fd5b506103586004803603810190610353919061369d565b6110d3565b005b34801561036657600080fd5b50610381600480360381019061037c9190613325565b6111c1565b005b34801561038f57600080fd5b506103aa60048036038101906103a5919061369d565b6111e1565b005b3480156103b857600080fd5b506103d360048036038101906103ce91906135e4565b6114ed565b6040516103e09190614166565b60405180910390f35b3480156103f557600080fd5b50610410600480360381019061040b919061360d565b61159f565b005b34801561041e57600080fd5b50610439600480360381019061043491906132c0565b61168d565b60405161044691906144e5565b60405180910390f35b34801561045b57600080fd5b506104766004803603810190610471919061360d565b611745565b005b34801561048457600080fd5b5061049f600480360381019061049a91906135e4565b6118b8565b005b3480156104ad57600080fd5b506104b66119b4565b6040516104c39190614241565b60405180910390f35b3480156104d857600080fd5b506104f360048036038101906104ee91906133ef565b611a46565b005b34801561050157600080fd5b5061051c60048036038101906105179190613374565b611bc7565b005b34801561052a57600080fd5b506105456004803603810190610540919061342b565b611c29565b60405161055291906144e5565b60405180910390f35b34801561056757600080fd5b50610582600480360381019061057d9190613578565b611c99565b60405161058f9190614226565b60405180910390f35b3480156105a457600080fd5b506105bf60048036038101906105ba919061369d565b611cf2565b005b3480156105cd57600080fd5b506105e860048036038101906105e391906135e4565b611de0565b6040516105f59190614241565b60405180910390f35b34801561060a57600080fd5b50610625600480360381019061062091906132e9565b611e87565b6040516106329190614226565b60405180910390f35b34801561064757600080fd5b50610662600480360381019061065d91906135e4565b611f1b565b60405161066f91906144c3565b60405180910390f35b34801561068457600080fd5b5061069f600480360381019061069a91906136f1565b612226565b005b60007f80ac58cd000000000000000000000000000000000000000000000000000000007bffffffffffffffffffffffffffffffffffffffffffffffffffffffff1916827bffffffffffffffffffffffffffffffffffffffffffffffffffffffff1916148061076c57507f5b5e139f000000000000000000000000000000000000000000000000000000007bffffffffffffffffffffffffffffffffffffffffffffffffffffffff1916827bffffffffffffffffffffffffffffffffffffffffffffffffffffffff1916145b8061077c575061077b82612304565b5b9050919050565b60606000610791600661236e565b67ffffffffffffffff8111156107d0577f4e487b7100000000000000000000000000000000000000000000000000000000600052604160045260246000fd5b60405190808252806020026020018201604052801561080957816020015b6107f6612f44565b8152602001906001900390816107ee5790505b509050600080600190505b6001610820600661236e565b61082a9190614683565b811015610b3a5760006040518060e0016040528083815260200161084d846114ed565b73ffffffffffffffffffffffffffffffffffffffff16815260200160086000858152602001908152602001600020548152602001600a6000858152602001908152602001600020805461089f906147f4565b80601f01602080910402602001604051908101604052809291908181526020018280546108cb906147f4565b80156109185780601f106108ed57610100808354040283529160200191610918565b820191906000526020600020905b8154815290600101906020018083116108fb57829003601f168201915b50505050508152602001600b60008581526020019081526020016000208054610940906147f4565b80601f016020809104026020016040519081016040528092919081815260200182805461096c906147f4565b80156109b95780601f1061098e576101008083540402835291602001916109b9565b820191906000526020600020905b81548152906001019060200180831161099c57829003601f168201915b5050505050815260200160076000858152602001908152602001600020805480602002602001604051908101604052809291908181526020016000905b82821015610aa2578382906000526020600020018054610a15906147f4565b80601f0160208091040260200160405190810160405280929190818152602001828054610a41906147f4565b8015610a8e5780601f10610a6357610100808354040283529160200191610a8e565b820191906000526020600020905b815481529060010190602001808311610a7157829003601f168201915b5050505050815260200190600101906109f6565b5050505081526020016009600085815260200190815260200160002060009054906101000a900460ff161515815250905080848481518110610b0d577f4e487b7100000000000000000000000000000000000000000000000000000000600052603260045260246000fd5b60200260200101819052508280610b2390614826565b935050508080610b3290614826565b915050610814565b50819250505090565b606060008054610b52906147f4565b80601f0160208091040260200160405190810160405280929190818152602001828054610b7e906147f4565b8015610bcb5780601f10610ba057610100808354040283529160200191610bcb565b820191906000526020600020905b815481529060010190602001808311610bae57829003601f168201915b5050505050905090565b6000610be08261237c565b610c1f576040517f08c379a0000000000000000000000000000000000000000000000000000000008152600401610c16906143a3565b60405180910390fd5b6004600083815260200190815260200160002060009054906101000a900473ffffffffffffffffffffffffffffffffffffffff169050919050565b6000610c65826114ed565b90508073ffffffffffffffffffffffffffffffffffffffff168373ffffffffffffffffffffffffffffffffffffffff161415610cd6576040517f08c379a0000000000000000000000000000000000000000000000000000000008152600401610ccd90614423565b60405180910390fd5b8073ffffffffffffffffffffffffffffffffffffffff16610cf56123e8565b73ffffffffffffffffffffffffffffffffffffffff161480610d245750610d2381610d1e6123e8565b611e87565b5b610d63576040517f08c379a0000000000000000000000000000000000000000000000000000000008152600401610d5a90614323565b60405180910390fd5b610d6d83836123f0565b505050565b813373ffffffffffffffffffffffffffffffffffffffff16610d93826114ed565b73ffffffffffffffffffffffffffffffffffffffff1614610de9576040517f08c379a0000000000000000000000000000000000000000000000000000000008152600401610de0906143c3565b60405180910390fd5b82610df38161237c565b610e32576040517f08c379a0000000000000000000000000000000000000000000000000000000008152600401610e29906144a3565b60405180910390fd5b60016009600086815260200190815260200160002060006101000a81548160ff021916908315150217905550826008600086815260200190815260200160002081905550610e803085610c5a565b50505050565b3460086000838152602001908152602001600020541115610edc576040517f08c379a0000000000000000000000000000000000000000000000000000000008152600401610ed390614463565b60405180910390fd5b3073ffffffffffffffffffffffffffffffffffffffff166323b872dd610f01836114ed565b33846040518463ffffffff1660e01b8152600401610f2193929190614181565b600060405180830381600087803b158015610f3b57600080fd5b505af1158015610f4f573d6000803e3d6000fd5b5050505060006009600083815260200190815260200160002060006101000a81548160ff02191690831515021790555050565b610f93610f8d6123e8565b826124a9565b610fd2576040517f08c379a0000000000000000000000000000000000000000000000000000000008152600401610fc990614443565b60405180910390fd5b610fdd838383612587565b505050565b81610fec8161237c565b61102b576040517f08c379a0000000000000000000000000000000000000000000000000000000008152600401611022906144a3565b60405180910390fd5b823373ffffffffffffffffffffffffffffffffffffffff1661104c826114ed565b73ffffffffffffffffffffffffffffffffffffffff16146110a2576040517f08c379a0000000000000000000000000000000000000000000000000000000008152600401611099906143c3565b60405180910390fd5b826009600086815260200190815260200160002060006101000a81548160ff02191690831515021790555050505050565b816110dd8161237c565b61111c576040517f08c379a0000000000000000000000000000000000000000000000000000000008152600401611113906144a3565b60405180910390fd5b823373ffffffffffffffffffffffffffffffffffffffff1661113d826114ed565b73ffffffffffffffffffffffffffffffffffffffff1614611193576040517f08c379a000000000000000000000000000000000000000000000000000000000815260040161118a906143c3565b60405180910390fd5b82600b600086815260200190815260200160002090805190602001906111ba929190612f99565b5050505050565b6111dc83838360405180602001604052806000815250611bc7565b505050565b816111eb8161237c565b61122a576040517f08c379a0000000000000000000000000000000000000000000000000000000008152600401611221906144a3565b60405180910390fd5b823373ffffffffffffffffffffffffffffffffffffffff1661124b826114ed565b73ffffffffffffffffffffffffffffffffffffffff16146112a1576040517f08c379a0000000000000000000000000000000000000000000000000000000008152600401611298906143c3565b60405180910390fd5b60006112ad85856127e3565b9050600060076000878152602001908152602001600020805480602002602001604051908101604052809291908181526020016000905b82821015611390578382906000526020600020018054611303906147f4565b80601f016020809104026020016040519081016040528092919081815260200182805461132f906147f4565b801561137c5780601f106113515761010080835404028352916020019161137c565b820191906000526020600020905b81548152906001019060200180831161135f57829003601f168201915b5050505050815260200190600101906112e4565b50505050905060008290505b600182516113aa919061470a565b81101561145557816001826113bf9190614683565b815181106113f6577f4e487b7100000000000000000000000000000000000000000000000000000000600052603260045260246000fd5b6020026020010151828281518110611437577f4e487b7100000000000000000000000000000000000000000000000000000000600052603260045260246000fd5b6020026020010181905250808061144d90614826565b91505061139c565b508060076000888152602001908152602001600020908051906020019061147d92919061301f565b50600760008781526020019081526020016000208054806114c7577f4e487b7100000000000000000000000000000000000000000000000000000000600052603160045260246000fd5b6001900381819060005260206000200160006114e3919061307f565b9055505050505050565b6000806002600084815260200190815260200160002060009054906101000a900473ffffffffffffffffffffffffffffffffffffffff169050600073ffffffffffffffffffffffffffffffffffffffff168173ffffffffffffffffffffffffffffffffffffffff161415611596576040517f08c379a000000000000000000000000000000000000000000000000000000000815260040161158d90614363565b60405180910390fd5b80915050919050565b816115a98161237c565b6115e8576040517f08c379a00000000000000000000000000000000000000000000000000000000081526004016115df906144a3565b60405180910390fd5b823373ffffffffffffffffffffffffffffffffffffffff16611609826114ed565b73ffffffffffffffffffffffffffffffffffffffff161461165f576040517f08c379a0000000000000000000000000000000000000000000000000000000008152600401611656906143c3565b60405180910390fd5b8260076000868152602001908152602001600020908051906020019061168692919061301f565b5050505050565b60008073ffffffffffffffffffffffffffffffffffffffff168273ffffffffffffffffffffffffffffffffffffffff1614156116fe576040517f08c379a00000000000000000000000000000000000000000000000000000000081526004016116f590614343565b60405180910390fd5b600360008373ffffffffffffffffffffffffffffffffffffffff1673ffffffffffffffffffffffffffffffffffffffff168152602001908152602001600020549050919050565b8161174f8161237c565b61178e576040517f08c379a0000000000000000000000000000000000000000000000000000000008152600401611785906144a3565b60405180910390fd5b823373ffffffffffffffffffffffffffffffffffffffff166117af826114ed565b73ffffffffffffffffffffffffffffffffffffffff1614611805576040517f08c379a00000000000000000000000000000000000000000000000000000000081526004016117fc906143c3565b60405180910390fd5b60005b83518110156118b1576007600086815260200190815260200160002084828151811061185d577f4e487b7100000000000000000000000000000000000000000000000000000000600052603260045260246000fd5b602002602001015190806001815401808255809150506001900390600052602060002001600090919091909150908051906020019061189d929190612f99565b5080806118a990614826565b915050611808565b5050505050565b803373ffffffffffffffffffffffffffffffffffffffff166118d9826114ed565b73ffffffffffffffffffffffffffffffffffffffff161461192f576040517f08c379a0000000000000000000000000000000000000000000000000000000008152600401611926906143c3565b60405180910390fd5b816119398161237c565b611978576040517f08c379a000000000000000000000000000000000000000000000000000000000815260040161196f906144a3565b60405180910390fd5b60006009600085815260200190815260200160002060006101000a81548160ff0219169083151502179055506119af600084610c5a565b505050565b6060600180546119c3906147f4565b80601f01602080910402602001604051908101604052809291908181526020018280546119ef906147f4565b8015611a3c5780601f10611a1157610100808354040283529160200191611a3c565b820191906000526020600020905b815481529060010190602001808311611a1f57829003601f168201915b5050505050905090565b611a4e6123e8565b73ffffffffffffffffffffffffffffffffffffffff168273ffffffffffffffffffffffffffffffffffffffff161415611abc576040517f08c379a0000000000000000000000000000000000000000000000000000000008152600401611ab3906142c3565b60405180910390fd5b8060056000611ac96123e8565b73ffffffffffffffffffffffffffffffffffffffff1673ffffffffffffffffffffffffffffffffffffffff16815260200190815260200160002060008473ffffffffffffffffffffffffffffffffffffffff1673ffffffffffffffffffffffffffffffffffffffff16815260200190815260200160002060006101000a81548160ff0219169083151502179055508173ffffffffffffffffffffffffffffffffffffffff16611b766123e8565b73ffffffffffffffffffffffffffffffffffffffff167f17307eab39ab6107e8899845ad3d59bd9653f200f220920489ca2b5937696c3183604051611bbb9190614226565b60405180910390a35050565b611bd8611bd26123e8565b836124a9565b611c17576040517f08c379a0000000000000000000000000000000000000000000000000000000008152600401611c0e90614443565b60405180910390fd5b611c2384848484612991565b50505050565b6000808211611c3757600080fd5b611c4160066129ed565b6000611c4d600661236e565b9050611c598782612a03565b611c638184612226565b611c6d818561159f565b611c78816000610fe2565b611c828187611cf2565b611c8c81866110d3565b8091505095945050505050565b600081604051602001611cac919061412b565b6040516020818303038152906040528051906020012083604051602001611cd3919061412b565b6040516020818303038152906040528051906020012014905092915050565b81611cfc8161237c565b611d3b576040517f08c379a0000000000000000000000000000000000000000000000000000000008152600401611d32906144a3565b60405180910390fd5b823373ffffffffffffffffffffffffffffffffffffffff16611d5c826114ed565b73ffffffffffffffffffffffffffffffffffffffff1614611db2576040517f08c379a0000000000000000000000000000000000000000000000000000000008152600401611da9906143c3565b60405180910390fd5b82600a60008681526020019081526020016000209080519060200190611dd9929190612f99565b5050505050565b6060611deb8261237c565b611e2a576040517f08c379a0000000000000000000000000000000000000000000000000000000008152600401611e2190614403565b60405180910390fd5b6000611e34612bd1565b90506000815111611e545760405180602001604052806000815250611e7f565b80611e5e84612be8565b604051602001611e6f929190614142565b6040516020818303038152906040525b915050919050565b6000600560008473ffffffffffffffffffffffffffffffffffffffff1673ffffffffffffffffffffffffffffffffffffffff16815260200190815260200160002060008373ffffffffffffffffffffffffffffffffffffffff1673ffffffffffffffffffffffffffffffffffffffff16815260200190815260200160002060009054906101000a900460ff16905092915050565b611f23612f44565b600082118015611f3c5750611f38600661236e565b8211155b611f7b576040517f08c379a0000000000000000000000000000000000000000000000000000000008152600401611f7290614483565b60405180910390fd5b60006040518060e00160405280848152602001611f97856114ed565b73ffffffffffffffffffffffffffffffffffffffff16815260200160086000868152602001908152602001600020548152602001600a60008681526020019081526020016000208054611fe9906147f4565b80601f0160208091040260200160405190810160405280929190818152602001828054612015906147f4565b80156120625780601f1061203757610100808354040283529160200191612062565b820191906000526020600020905b81548152906001019060200180831161204557829003601f168201915b50505050508152602001600b6000868152602001908152602001600020805461208a906147f4565b80601f01602080910402602001604051908101604052809291908181526020018280546120b6906147f4565b80156121035780601f106120d857610100808354040283529160200191612103565b820191906000526020600020905b8154815290600101906020018083116120e657829003601f168201915b5050505050815260200160076000868152602001908152602001600020805480602002602001604051908101604052809291908181526020016000905b828210156121ec57838290600052602060002001805461215f906147f4565b80601f016020809104026020016040519081016040528092919081815260200182805461218b906147f4565b80156121d85780601f106121ad576101008083540402835291602001916121d8565b820191906000526020600020905b8154815290600101906020018083116121bb57829003601f168201915b505050505081526020019060010190612140565b5050505081526020016009600086815260200190815260200160002060009054906101000a900460ff161515815250905080915050919050565b816122308161237c565b61226f576040517f08c379a0000000000000000000000000000000000000000000000000000000008152600401612266906144a3565b60405180910390fd5b823373ffffffffffffffffffffffffffffffffffffffff16612290826114ed565b73ffffffffffffffffffffffffffffffffffffffff16146122e6576040517f08c379a00000000000000000000000000000000000000000000000000000000081526004016122dd906143c3565b60405180910390fd5b82600860008681526020019081526020016000208190555050505050565b60007f01ffc9a7000000000000000000000000000000000000000000000000000000007bffffffffffffffffffffffffffffffffffffffffffffffffffffffff1916827bffffffffffffffffffffffffffffffffffffffffffffffffffffffff1916149050919050565b600081600001549050919050565b60008073ffffffffffffffffffffffffffffffffffffffff166002600084815260200190815260200160002060009054906101000a900473ffffffffffffffffffffffffffffffffffffffff1673ffffffffffffffffffffffffffffffffffffffff1614159050919050565b600033905090565b816004600083815260200190815260200160002060006101000a81548173ffffffffffffffffffffffffffffffffffffffff021916908373ffffffffffffffffffffffffffffffffffffffff160217905550808273ffffffffffffffffffffffffffffffffffffffff16612463836114ed565b73ffffffffffffffffffffffffffffffffffffffff167f8c5be1e5ebec7d5bd14f71427d1e84f3dd0314c0f7b2291e5b200ac8c7c3b92560405160405180910390a45050565b60006124b48261237c565b6124f3576040517f08c379a00000000000000000000000000000000000000000000000000000000081526004016124ea90614303565b60405180910390fd5b60006124fe836114ed565b90508073ffffffffffffffffffffffffffffffffffffffff168473ffffffffffffffffffffffffffffffffffffffff16148061256d57508373ffffffffffffffffffffffffffffffffffffffff1661255584610bd5565b73ffffffffffffffffffffffffffffffffffffffff16145b8061257e575061257d8185611e87565b5b91505092915050565b8273ffffffffffffffffffffffffffffffffffffffff166125a7826114ed565b73ffffffffffffffffffffffffffffffffffffffff16146125fd576040517f08c379a00000000000000000000000000000000000000000000000000000000081526004016125f4906143e3565b60405180910390fd5b600073ffffffffffffffffffffffffffffffffffffffff168273ffffffffffffffffffffffffffffffffffffffff16141561266d576040517f08c379a0000000000000000000000000000000000000000000000000000000008152600401612664906142a3565b60405180910390fd5b612678838383612d95565b6126836000826123f0565b6001600360008573ffffffffffffffffffffffffffffffffffffffff1673ffffffffffffffffffffffffffffffffffffffff16815260200190815260200160002060008282546126d3919061470a565b925050819055506001600360008473ffffffffffffffffffffffffffffffffffffffff1673ffffffffffffffffffffffffffffffffffffffff168152602001908152602001600020600082825461272a9190614683565b92505081905550816002600083815260200190815260200160002060006101000a81548173ffffffffffffffffffffffffffffffffffffffff021916908373ffffffffffffffffffffffffffffffffffffffff160217905550808273ffffffffffffffffffffffffffffffffffffffff168473ffffffffffffffffffffffffffffffffffffffff167fddf252ad1be2c89b69c2b068fc378daa952ba7f163c4a11628f55a4df523b3ef60405160405180910390a4505050565b60008060076000858152602001908152602001600020805480602002602001604051908101604052809291908181526020016000905b828210156128c5578382906000526020600020018054612838906147f4565b80601f0160208091040260200160405190810160405280929190818152602001828054612864906147f4565b80156128b15780601f10612886576101008083540402835291602001916128b1565b820191906000526020600020905b81548152906001019060200180831161289457829003601f168201915b505050505081526020019060010190612819565b50505050905060005b600182516128dc919061470a565b81101561294f5761292d82828151811061291f577f4e487b7100000000000000000000000000000000000000000000000000000000600052603260045260246000fd5b602002602001015185611c99565b1561293c57809250505061298b565b808061294790614826565b9150506128ce565b506040517f08c379a0000000000000000000000000000000000000000000000000000000008152600401612982906142e3565b60405180910390fd5b92915050565b61299c848484612587565b6129a884848484612d9a565b6129e7576040517f08c379a00000000000000000000000000000000000000000000000000000000081526004016129de90614263565b60405180910390fd5b50505050565b6001816000016000828254019250508190555050565b600073ffffffffffffffffffffffffffffffffffffffff168273ffffffffffffffffffffffffffffffffffffffff161415612a73576040517f08c379a0000000000000000000000000000000000000000000000000000000008152600401612a6a90614383565b60405180910390fd5b612a7c8161237c565b15612abc576040517f08c379a0000000000000000000000000000000000000000000000000000000008152600401612ab390614283565b60405180910390fd5b612ac860008383612d95565b6001600360008473ffffffffffffffffffffffffffffffffffffffff1673ffffffffffffffffffffffffffffffffffffffff1681526020019081526020016000206000828254612b189190614683565b92505081905550816002600083815260200190815260200160002060006101000a81548173ffffffffffffffffffffffffffffffffffffffff021916908373ffffffffffffffffffffffffffffffffffffffff160217905550808273ffffffffffffffffffffffffffffffffffffffff16600073ffffffffffffffffffffffffffffffffffffffff167fddf252ad1be2c89b69c2b068fc378daa952ba7f163c4a11628f55a4df523b3ef60405160405180910390a45050565b606060405180602001604052806000815250905090565b60606000821415612c30576040518060400160405280600181526020017f30000000000000000000000000000000000000000000000000000000000000008152509050612d90565b600082905060005b60008214612c62578080612c4b90614826565b915050600a82612c5b91906146d9565b9150612c38565b60008167ffffffffffffffff811115612ca4577f4e487b7100000000000000000000000000000000000000000000000000000000600052604160045260246000fd5b6040519080825280601f01601f191660200182016040528015612cd65781602001600182028036833780820191505090505b5090505b60008514612d8957600182612cef919061470a565b9150600a85612cfe919061486f565b6030612d0a9190614683565b60f81b818381518110612d46577f4e487b7100000000000000000000000000000000000000000000000000000000600052603260045260246000fd5b60200101907effffffffffffffffffffffffffffffffffffffffffffffffffffffffffffff1916908160001a905350600a85612d8291906146d9565b9450612cda565b8093505050505b919050565b505050565b6000612dbb8473ffffffffffffffffffffffffffffffffffffffff16612f31565b15612f24578373ffffffffffffffffffffffffffffffffffffffff1663150b7a02612de46123e8565b8786866040518563ffffffff1660e01b8152600401612e0694939291906141b8565b602060405180830381600087803b158015612e2057600080fd5b505af1925050508015612e5157506040513d601f19601f82011682018060405250810190612e4e919061354f565b60015b612ed4573d8060008114612e81576040519150601f19603f3d011682016040523d82523d6000602084013e612e86565b606091505b50600081511415612ecc576040517f08c379a0000000000000000000000000000000000000000000000000000000008152600401612ec390614263565b60405180910390fd5b805181602001fd5b63150b7a0260e01b7bffffffffffffffffffffffffffffffffffffffffffffffffffffffff1916817bffffffffffffffffffffffffffffffffffffffffffffffffffffffff191614915050612f29565b600190505b949350505050565b600080823b905060008111915050919050565b6040518060e0016040528060008152602001600073ffffffffffffffffffffffffffffffffffffffff168152602001600081526020016060815260200160608152602001606081526020016000151581525090565b828054612fa5906147f4565b90600052602060002090601f016020900481019282612fc7576000855561300e565b82601f10612fe057805160ff191683800117855561300e565b8280016001018555821561300e579182015b8281111561300d578251825591602001919060010190612ff2565b5b50905061301b91906130bf565b5090565b82805482825590600052602060002090810192821561306e579160200282015b8281111561306d57825182908051906020019061305d929190612f99565b509160200191906001019061303f565b5b50905061307b91906130dc565b5090565b50805461308b906147f4565b6000825580601f1061309d57506130bc565b601f0160209004906000526020600020908101906130bb91906130bf565b5b50565b5b808211156130d85760008160009055506001016130c0565b5090565b5b808211156130fc57600081816130f3919061307f565b506001016130dd565b5090565b600061311361310e84614531565b614500565b9050808382526020820190508260005b8581101561315357813585016131398882613281565b845260208401935060208301925050600181019050613123565b5050509392505050565b600061317061316b8461455d565b614500565b90508281526020810184848401111561318857600080fd5b6131938482856147b2565b509392505050565b60006131ae6131a98461458d565b614500565b9050828152602081018484840111156131c657600080fd5b6131d18482856147b2565b509392505050565b6000813590506131e88161496d565b92915050565b600082601f8301126131ff57600080fd5b813561320f848260208601613100565b91505092915050565b60008135905061322781614984565b92915050565b60008135905061323c8161499b565b92915050565b6000815190506132518161499b565b92915050565b600082601f83011261326857600080fd5b813561327884826020860161315d565b91505092915050565b600082601f83011261329257600080fd5b81356132a284826020860161319b565b91505092915050565b6000813590506132ba816149b2565b92915050565b6000602082840312156132d257600080fd5b60006132e0848285016131d9565b91505092915050565b600080604083850312156132fc57600080fd5b600061330a858286016131d9565b925050602061331b858286016131d9565b9150509250929050565b60008060006060848603121561333a57600080fd5b6000613348868287016131d9565b9350506020613359868287016131d9565b925050604061336a868287016132ab565b9150509250925092565b6000806000806080858703121561338a57600080fd5b6000613398878288016131d9565b94505060206133a9878288016131d9565b93505060406133ba878288016132ab565b925050606085013567ffffffffffffffff8111156133d757600080fd5b6133e387828801613257565b91505092959194509250565b6000806040838503121561340257600080fd5b6000613410858286016131d9565b925050602061342185828601613218565b9150509250929050565b600080600080600060a0868803121561344357600080fd5b6000613451888289016131d9565b955050602086013567ffffffffffffffff81111561346e57600080fd5b61347a88828901613281565b945050604086013567ffffffffffffffff81111561349757600080fd5b6134a388828901613281565b935050606086013567ffffffffffffffff8111156134c057600080fd5b6134cc888289016131ee565b92505060806134dd888289016132ab565b9150509295509295909350565b600080604083850312156134fd57600080fd5b600061350b858286016131d9565b925050602061351c858286016132ab565b9150509250929050565b60006020828403121561353857600080fd5b60006135468482850161322d565b91505092915050565b60006020828403121561356157600080fd5b600061356f84828501613242565b91505092915050565b6000806040838503121561358b57600080fd5b600083013567ffffffffffffffff8111156135a557600080fd5b6135b185828601613281565b925050602083013567ffffffffffffffff8111156135ce57600080fd5b6135da85828601613281565b9150509250929050565b6000602082840312156135f657600080fd5b6000613604848285016132ab565b91505092915050565b6000806040838503121561362057600080fd5b600061362e858286016132ab565b925050602083013567ffffffffffffffff81111561364b57600080fd5b613657858286016131ee565b9150509250929050565b6000806040838503121561367457600080fd5b6000613682858286016132ab565b925050602061369385828601613218565b9150509250929050565b600080604083850312156136b057600080fd5b60006136be858286016132ab565b925050602083013567ffffffffffffffff8111156136db57600080fd5b6136e785828601613281565b9150509250929050565b6000806040838503121561370457600080fd5b6000613712858286016132ab565b9250506020613723858286016132ab565b9150509250929050565b600061373983836138b4565b905092915050565b600061374d8383613fb9565b905092915050565b61375e8161473e565b82525050565b61376d8161473e565b82525050565b600061377e826145dd565b6137888185614623565b93508360208202850161379a856145bd565b8060005b858110156137d657848403895281516137b7858261372d565b94506137c283614609565b925060208a0199505060018101905061379e565b50829750879550505050505092915050565b60006137f3826145e8565b6137fd8185614634565b93508360208202850161380f856145cd565b8060005b8581101561384b578484038952815161382c8582613741565b945061383783614616565b925060208a01995050600181019050613813565b50829750879550505050505092915050565b61386681614750565b82525050565b61387581614750565b82525050565b6000613886826145f3565b6138908185614645565b93506138a08185602086016147c1565b6138a98161495c565b840191505092915050565b60006138bf826145fe565b6138c98185614656565b93506138d98185602086016147c1565b6138e28161495c565b840191505092915050565b60006138f8826145fe565b6139028185614667565b93506139128185602086016147c1565b61391b8161495c565b840191505092915050565b6000613931826145fe565b61393b8185614678565b935061394b8185602086016147c1565b80840191505092915050565b6000613964603283614667565b91507f4552433732313a207472616e7366657220746f206e6f6e20455243373231526560008301527f63656976657220696d706c656d656e74657200000000000000000000000000006020830152604082019050919050565b60006139ca601c83614667565b91507f4552433732313a20746f6b656e20616c7265616479206d696e746564000000006000830152602082019050919050565b6000613a0a602483614667565b91507f4552433732313a207472616e7366657220746f20746865207a65726f2061646460008301527f72657373000000000000000000000000000000000000000000000000000000006020830152604082019050919050565b6000613a70601983614667565b91507f4552433732313a20617070726f766520746f2063616c6c6572000000000000006000830152602082019050919050565b6000613ab0601183614667565b91507f6e6f6e206578697374656e7420686173680000000000000000000000000000006000830152602082019050919050565b6000613af0602c83614667565b91507f4552433732313a206f70657261746f7220717565727920666f72206e6f6e657860008301527f697374656e7420746f6b656e00000000000000000000000000000000000000006020830152604082019050919050565b6000613b56603883614667565b91507f4552433732313a20617070726f76652063616c6c6572206973206e6f74206f7760008301527f6e6572206e6f7220617070726f76656420666f7220616c6c00000000000000006020830152604082019050919050565b6000613bbc602a83614667565b91507f4552433732313a2062616c616e636520717565727920666f7220746865207a6560008301527f726f2061646472657373000000000000000000000000000000000000000000006020830152604082019050919050565b6000613c22602983614667565b91507f4552433732313a206f776e657220717565727920666f72206e6f6e657869737460008301527f656e7420746f6b656e00000000000000000000000000000000000000000000006020830152604082019050919050565b6000613c88602083614667565b91507f4552433732313a206d696e7420746f20746865207a65726f20616464726573736000830152602082019050919050565b6000613cc8602c83614667565b91507f4552433732313a20617070726f76656420717565727920666f72206e6f6e657860008301527f697374656e7420746f6b656e00000000000000000000000000000000000000006020830152604082019050919050565b6000613d2e601783614667565b91507f63616c6c6572206973206e6f7420746865206f776e65720000000000000000006000830152602082019050919050565b6000613d6e602983614667565b91507f4552433732313a207472616e73666572206f6620746f6b656e2074686174206960008301527f73206e6f74206f776e00000000000000000000000000000000000000000000006020830152604082019050919050565b6000613dd4602f83614667565b91507f4552433732314d657461646174613a2055524920717565727920666f72206e6f60008301527f6e6578697374656e7420746f6b656e00000000000000000000000000000000006020830152604082019050919050565b6000613e3a602183614667565b91507f4552433732313a20617070726f76616c20746f2063757272656e74206f776e6560008301527f72000000000000000000000000000000000000000000000000000000000000006020830152604082019050919050565b6000613ea0603183614667565b91507f4552433732313a207472616e736665722063616c6c6572206973206e6f74206f60008301527f776e6572206e6f7220617070726f7665640000000000000000000000000000006020830152604082019050919050565b6000613f06601083614667565b91507f6e6f7420656e6f7567682066756e6473000000000000000000000000000000006000830152602082019050919050565b6000613f46600e83614667565b91507f77726f6e6720746f6b656e2069640000000000000000000000000000000000006000830152602082019050919050565b6000613f86601483614667565b91507f746f6b656e20646f6573206e6f742065786973740000000000000000000000006000830152602082019050919050565b600060e083016000830151613fd1600086018261410d565b506020830151613fe46020860182613755565b506040830151613ff7604086018261410d565b506060830151848203606086015261400f82826138b4565b9150506080830151848203608086015261402982826138b4565b91505060a083015184820360a08601526140438282613773565b91505060c083015161405860c086018261385d565b508091505092915050565b600060e08301600083015161407b600086018261410d565b50602083015161408e6020860182613755565b5060408301516140a1604086018261410d565b50606083015184820360608601526140b982826138b4565b915050608083015184820360808601526140d382826138b4565b91505060a083015184820360a08601526140ed8282613773565b91505060c083015161410260c086018261385d565b508091505092915050565b614116816147a8565b82525050565b614125816147a8565b82525050565b60006141378284613926565b915081905092915050565b600061414e8285613926565b915061415a8284613926565b91508190509392505050565b600060208201905061417b6000830184613764565b92915050565b60006060820190506141966000830186613764565b6141a36020830185613764565b6141b0604083018461411c565b949350505050565b60006080820190506141cd6000830187613764565b6141da6020830186613764565b6141e7604083018561411c565b81810360608301526141f9818461387b565b905095945050505050565b6000602082019050818103600083015261421e81846137e8565b905092915050565b600060208201905061423b600083018461386c565b92915050565b6000602082019050818103600083015261425b81846138ed565b905092915050565b6000602082019050818103600083015261427c81613957565b9050919050565b6000602082019050818103600083015261429c816139bd565b9050919050565b600060208201905081810360008301526142bc816139fd565b9050919050565b600060208201905081810360008301526142dc81613a63565b9050919050565b600060208201905081810360008301526142fc81613aa3565b9050919050565b6000602082019050818103600083015261431c81613ae3565b9050919050565b6000602082019050818103600083015261433c81613b49565b9050919050565b6000602082019050818103600083015261435c81613baf565b9050919050565b6000602082019050818103600083015261437c81613c15565b9050919050565b6000602082019050818103600083015261439c81613c7b565b9050919050565b600060208201905081810360008301526143bc81613cbb565b9050919050565b600060208201905081810360008301526143dc81613d21565b9050919050565b600060208201905081810360008301526143fc81613d61565b9050919050565b6000602082019050818103600083015261441c81613dc7565b9050919050565b6000602082019050818103600083015261443c81613e2d565b9050919050565b6000602082019050818103600083015261445c81613e93565b9050919050565b6000602082019050818103600083015261447c81613ef9565b9050919050565b6000602082019050818103600083015261449c81613f39565b9050919050565b600060208201905081810360008301526144bc81613f79565b9050919050565b600060208201905081810360008301526144dd8184614063565b905092915050565b60006020820190506144fa600083018461411c565b92915050565b6000604051905081810181811067ffffffffffffffff821117156145275761452661492d565b5b8060405250919050565b600067ffffffffffffffff82111561454c5761454b61492d565b5b602082029050602081019050919050565b600067ffffffffffffffff8211156145785761457761492d565b5b601f19601f8301169050602081019050919050565b600067ffffffffffffffff8211156145a8576145a761492d565b5b601f19601f8301169050602081019050919050565b6000819050602082019050919050565b6000819050602082019050919050565b600081519050919050565b600081519050919050565b600081519050919050565b600081519050919050565b6000602082019050919050565b6000602082019050919050565b600082825260208201905092915050565b600082825260208201905092915050565b600082825260208201905092915050565b600082825260208201905092915050565b600082825260208201905092915050565b600081905092915050565b600061468e826147a8565b9150614699836147a8565b9250827fffffffffffffffffffffffffffffffffffffffffffffffffffffffffffffffff038211156146ce576146cd6148a0565b5b828201905092915050565b60006146e4826147a8565b91506146ef836147a8565b9250826146ff576146fe6148cf565b5b828204905092915050565b6000614715826147a8565b9150614720836147a8565b925082821015614733576147326148a0565b5b828203905092915050565b600061474982614788565b9050919050565b60008115159050919050565b60007fffffffff0000000000000000000000000000000000000000000000000000000082169050919050565b600073ffffffffffffffffffffffffffffffffffffffff82169050919050565b6000819050919050565b82818337600083830152505050565b60005b838110156147df5780820151818401526020810190506147c4565b838111156147ee576000848401525b50505050565b6000600282049050600182168061480c57607f821691505b602082108114156148205761481f6148fe565b5b50919050565b6000614831826147a8565b91507fffffffffffffffffffffffffffffffffffffffffffffffffffffffffffffffff821415614864576148636148a0565b5b600182019050919050565b600061487a826147a8565b9150614885836147a8565b925082614895576148946148cf565b5b828206905092915050565b7f4e487b7100000000000000000000000000000000000000000000000000000000600052601160045260246000fd5b7f4e487b7100000000000000000000000000000000000000000000000000000000600052601260045260246000fd5b7f4e487b7100000000000000000000000000000000000000000000000000000000600052602260045260246000fd5b7f4e487b7100000000000000000000000000000000000000000000000000000000600052604160045260246000fd5b6000601f19601f8301169050919050565b6149768161473e565b811461498157600080fd5b50565b61498d81614750565b811461499857600080fd5b50565b6149a48161475c565b81146149af57600080fd5b50565b6149bb816147a8565b81146149c657600080fd5b5056fea264697066735822122053ba81c32327504391dc8e3007c698f995e90062c7a8e6a4aec054527051967164736f6c63430008000033",
  "immutableReferences": {},
  "source": "// SPDX-License-Identifier: MIT\r\npragma solidity ^0.8.0;\r\n\r\nimport \"@openzeppelin/contracts/token/ERC721/ERC721.sol\";\r\nimport \"@openzeppelin/contracts/utils/Counters.sol\";\r\n\r\ncontract BlockdemyCourse is ERC721 {\r\n    using Counters for Counters.Counter;\r\n    Counters.Counter private _tokenIds;\r\n\r\n    mapping(uint256 => string[]) private _tokenUris;\r\n    mapping(uint256 => uint256) private _tokenPrices;\r\n    mapping(uint256 => bool) private _tokenOnSale;\r\n    mapping(uint256 => string) private _tokenTitles;\r\n    mapping(uint256 => string) private _tokenDescriptions;\r\n\r\n    struct TokenProps {\r\n        uint256 id;\r\n        address owner;\r\n        uint256 price;\r\n        string title;\r\n        string description;\r\n        string[] uris;\r\n        bool onSale;\r\n    }\r\n\r\n    constructor() ERC721(\"BDEMY Course\", \"BDEMYC\") {}\r\n\r\n    function setTokenTitle(uint256 tokenId, string memory _title)\r\n        public\r\n        TokenExists(tokenId)\r\n        IsOwner(tokenId)\r\n    {\r\n        _tokenTitles[tokenId] = _title;\r\n    }\r\n\r\n    function setTokenDescription(uint256 tokenId, string memory _description)\r\n        public\r\n        TokenExists(tokenId)\r\n        IsOwner(tokenId)\r\n    {\r\n        _tokenDescriptions[tokenId] = _description;\r\n    }\r\n\r\n    function setTokenOnSale(uint256 tokenId, bool _sale)\r\n        public\r\n        TokenExists(tokenId)\r\n        IsOwner(tokenId)\r\n    {\r\n        _tokenOnSale[tokenId] = _sale;\r\n    }\r\n\r\n    function setTokenPrice(uint256 tokenId, uint256 _price)\r\n        public\r\n        TokenExists(tokenId)\r\n        IsOwner(tokenId)\r\n    {\r\n        _tokenPrices[tokenId] = _price;\r\n    }\r\n\r\n    function setTokenUris(uint256 tokenId, string[] memory _uris)\r\n        public\r\n        TokenExists(tokenId)\r\n        IsOwner(tokenId)\r\n    {\r\n        _tokenUris[tokenId] = _uris;\r\n    }\r\n\r\n\r\n\r\n    function addTokenUris(uint256 tokenId, string[] memory _uris)\r\n        public\r\n        TokenExists(tokenId)\r\n        IsOwner(tokenId)\r\n    {\r\n        for(uint i=0;i<_uris.length;i++){\r\n            _tokenUris[tokenId].push(_uris[i]);\r\n        }\r\n    }\r\n\r\n    modifier TokenExists(uint256 tokenId) {\r\n        require(_exists(tokenId), \"token does not exist\");\r\n        _;\r\n    }\r\n\r\n    modifier IsOwner(uint256 tokenId) {\r\n        require(ownerOf(tokenId) == msg.sender, \"caller is not the owner\");\r\n        _;\r\n    }\r\n\r\n    function notMoreOnSale(uint256 tokenId) external IsOwner(tokenId) TokenExists(tokenId){\r\n            _tokenOnSale[tokenId] = false;\r\n            approve(address(0), tokenId);\r\n    }\r\n\r\n    function setOnSale(uint256 tokenId,uint amount) external IsOwner(tokenId) TokenExists(tokenId){\r\n            _tokenOnSale[tokenId] = true;\r\n            _tokenPrices[tokenId] = amount;\r\n            approve(address(this),tokenId);\r\n    }\r\n\r\n    /*\r\n        MINT COURSE DOES A MINT OF THE COURSE WITH ALL THE VIDEOS, IT MUST BE CALLED WHEN THE   \r\n        INSTRUCTOR HAS ALREADY DEFINED THE COURSE IN ITS ENTIRETY (OR AT LEAST THINKS SO), SINCE WE WILL ADD\r\n        OPTIONS TO REMOVE AND POST VIDEOS LATER, BUT REMEMBER THAT EACH INTERACTION COSTS MONEY\r\n    */\r\n    function mintCourse(\r\n        address _owner,\r\n        string memory _title,\r\n        string memory _description,\r\n        string[] memory _uris,\r\n        uint256 _price\r\n    ) public returns (uint256) {\r\n        require(_price > 0);\r\n\r\n        _tokenIds.increment();\r\n\r\n        uint256 newItemId = _tokenIds.current();\r\n        _mint(_owner, newItemId);\r\n        setTokenPrice(newItemId, _price);\r\n        setTokenUris(newItemId, _uris);\r\n        setTokenOnSale(newItemId, false);\r\n        setTokenTitle(newItemId, _title);\r\n        setTokenDescription(newItemId, _description);\r\n\r\n        return newItemId;\r\n    }\r\n\r\n    function deleteUri(uint256 tokenId, string memory _hash)\r\n        external\r\n        TokenExists(tokenId)\r\n        IsOwner(tokenId)\r\n    {\r\n        uint256 index = getTokenIndexByHash(tokenId, _hash);\r\n        string[] memory uris = _tokenUris[tokenId];\r\n        for (uint256 i = index; i < uris.length - 1; i++) {\r\n            uris[i] = uris[i + 1];\r\n        }\r\n        _tokenUris[tokenId] = uris;\r\n        _tokenUris[tokenId].pop();\r\n    }\r\n\r\n    function getTokenIndexByHash(uint256 tokenId, string memory _hash)\r\n        internal\r\n        view\r\n        returns (uint256)\r\n    {\r\n        string[] memory uris = _tokenUris[tokenId];\r\n        for (uint256 i = 0; i < uris.length - 1; i++) {\r\n            if (compareStrings(uris[i], _hash)) {\r\n                return i;\r\n            }\r\n        }\r\n\r\n        revert(\"non existent hash\");\r\n    }\r\n\r\n    function compareStrings(string memory a, string memory b)\r\n        public\r\n        pure\r\n        returns (bool)\r\n    {\r\n        return (keccak256(abi.encodePacked((a))) ==\r\n            keccak256(abi.encodePacked((b))));\r\n    }\r\n\r\n    function getCourseById(uint256 tokenId)\r\n        public\r\n        view\r\n        returns (TokenProps memory)\r\n    {\r\n        require(\r\n            tokenId > 0 && tokenId <= _tokenIds.current(),\r\n            \"wrong token id\"\r\n        );\r\n        TokenProps memory token = TokenProps(\r\n            tokenId,\r\n            ownerOf(tokenId),\r\n            _tokenPrices[tokenId],\r\n            _tokenTitles[tokenId],\r\n            _tokenDescriptions[tokenId],\r\n            _tokenUris[tokenId],\r\n            _tokenOnSale[tokenId]\r\n        );\r\n        return token;\r\n    }\r\n\r\n    function buyCourse(uint tokenId) external payable {\r\n        \r\n        require(_tokenPrices[tokenId] <= msg.value,'not enough funds');\r\n        this.transferFrom(ownerOf(tokenId), msg.sender, tokenId);\r\n        _tokenOnSale[tokenId] = false;\r\n\r\n    }\r\n\r\n    function getAllCourses() public view returns (TokenProps[] memory) {\r\n        TokenProps[] memory tokens = new TokenProps[](_tokenIds.current());\r\n        uint256 counter = 0;\r\n\r\n        for (uint256 i = 1; i < _tokenIds.current() + 1; i++) {\r\n            TokenProps memory token = TokenProps(\r\n                i,\r\n                ownerOf(i),\r\n                _tokenPrices[i],\r\n                _tokenTitles[i],\r\n                _tokenDescriptions[i],\r\n                _tokenUris[i],\r\n                _tokenOnSale[i]\r\n            );\r\n            tokens[counter] = token;\r\n            counter++;\r\n        }\r\n\r\n        return tokens;\r\n    }\r\n}\r\n",
  "sourcePath": "E:\\blockdemy\\contracts\\BlockdemyCourse.sol",
  "compiler": {
    "name": "solc",
    "version": "0.8.0+commit.c7dfd78e.Emscripten.clang"
  },
  "schemaVersion": "3.4.1",
  "updatedAt": "2021-08-14T20:37:31.574Z",
  "networkType": "ethereum",
  "devdoc": {
    "kind": "dev",
    "methods": {
      "approve(address,uint256)": {
        "details": "See {IERC721-approve}."
      },
      "balanceOf(address)": {
        "details": "See {IERC721-balanceOf}."
      },
      "getApproved(uint256)": {
        "details": "See {IERC721-getApproved}."
      },
      "isApprovedForAll(address,address)": {
        "details": "See {IERC721-isApprovedForAll}."
      },
      "name()": {
        "details": "See {IERC721Metadata-name}."
      },
      "ownerOf(uint256)": {
        "details": "See {IERC721-ownerOf}."
      },
      "safeTransferFrom(address,address,uint256)": {
        "details": "See {IERC721-safeTransferFrom}."
      },
      "safeTransferFrom(address,address,uint256,bytes)": {
        "details": "See {IERC721-safeTransferFrom}."
      },
      "setApprovalForAll(address,bool)": {
        "details": "See {IERC721-setApprovalForAll}."
      },
      "supportsInterface(bytes4)": {
        "details": "See {IERC165-supportsInterface}."
      },
      "symbol()": {
        "details": "See {IERC721Metadata-symbol}."
      },
      "tokenURI(uint256)": {
        "details": "See {IERC721Metadata-tokenURI}."
      },
      "transferFrom(address,address,uint256)": {
        "details": "See {IERC721-transferFrom}."
      }
    },
    "version": 1
  },
  "userdoc": {
    "kind": "user",
    "methods": {},
    "version": 1
  }
}