{
  "contractName": "BlockdemyCourse",
  "abi": [
    {
      "inputs": [],
      "stateMutability": "nonpayable",
      "type": "constructor"
    },
    {
      "anonymous": false,
      "inputs": [
        {
          "indexed": true,
          "internalType": "address",
          "name": "owner",
          "type": "address"
        },
        {
          "indexed": true,
          "internalType": "address",
          "name": "approved",
          "type": "address"
        },
        {
          "indexed": true,
          "internalType": "uint256",
          "name": "tokenId",
          "type": "uint256"
        }
      ],
      "name": "Approval",
      "type": "event"
    },
    {
      "anonymous": false,
      "inputs": [
        {
          "indexed": true,
          "internalType": "address",
          "name": "owner",
          "type": "address"
        },
        {
          "indexed": true,
          "internalType": "address",
          "name": "operator",
          "type": "address"
        },
        {
          "indexed": false,
          "internalType": "bool",
          "name": "approved",
          "type": "bool"
        }
      ],
      "name": "ApprovalForAll",
      "type": "event"
    },
    {
      "anonymous": false,
      "inputs": [
        {
          "indexed": true,
          "internalType": "address",
          "name": "from",
          "type": "address"
        },
        {
          "indexed": true,
          "internalType": "address",
          "name": "to",
          "type": "address"
        },
        {
          "indexed": true,
          "internalType": "uint256",
          "name": "tokenId",
          "type": "uint256"
        }
      ],
      "name": "Transfer",
      "type": "event"
    },
    {
      "inputs": [
        {
          "internalType": "address",
          "name": "to",
          "type": "address"
        },
        {
          "internalType": "uint256",
          "name": "tokenId",
          "type": "uint256"
        }
      ],
      "name": "approve",
      "outputs": [],
      "stateMutability": "nonpayable",
      "type": "function"
    },
    {
      "inputs": [
        {
          "internalType": "address",
          "name": "owner",
          "type": "address"
        }
      ],
      "name": "balanceOf",
      "outputs": [
        {
          "internalType": "uint256",
          "name": "",
          "type": "uint256"
        }
      ],
      "stateMutability": "view",
      "type": "function",
      "constant": true
    },
    {
      "inputs": [
        {
          "internalType": "uint256",
          "name": "tokenId",
          "type": "uint256"
        }
      ],
      "name": "getApproved",
      "outputs": [
        {
          "internalType": "address",
          "name": "",
          "type": "address"
        }
      ],
      "stateMutability": "view",
      "type": "function",
      "constant": true
    },
    {
      "inputs": [
        {
          "internalType": "address",
          "name": "owner",
          "type": "address"
        },
        {
          "internalType": "address",
          "name": "operator",
          "type": "address"
        }
      ],
      "name": "isApprovedForAll",
      "outputs": [
        {
          "internalType": "bool",
          "name": "",
          "type": "bool"
        }
      ],
      "stateMutability": "view",
      "type": "function",
      "constant": true
    },
    {
      "inputs": [],
      "name": "name",
      "outputs": [
        {
          "internalType": "string",
          "name": "",
          "type": "string"
        }
      ],
      "stateMutability": "view",
      "type": "function",
      "constant": true
    },
    {
      "inputs": [
        {
          "internalType": "uint256",
          "name": "tokenId",
          "type": "uint256"
        }
      ],
      "name": "ownerOf",
      "outputs": [
        {
          "internalType": "address",
          "name": "",
          "type": "address"
        }
      ],
      "stateMutability": "view",
      "type": "function",
      "constant": true
    },
    {
      "inputs": [
        {
          "internalType": "address",
          "name": "from",
          "type": "address"
        },
        {
          "internalType": "address",
          "name": "to",
          "type": "address"
        },
        {
          "internalType": "uint256",
          "name": "tokenId",
          "type": "uint256"
        }
      ],
      "name": "safeTransferFrom",
      "outputs": [],
      "stateMutability": "nonpayable",
      "type": "function"
    },
    {
      "inputs": [
        {
          "internalType": "address",
          "name": "from",
          "type": "address"
        },
        {
          "internalType": "address",
          "name": "to",
          "type": "address"
        },
        {
          "internalType": "uint256",
          "name": "tokenId",
          "type": "uint256"
        },
        {
          "internalType": "bytes",
          "name": "_data",
          "type": "bytes"
        }
      ],
      "name": "safeTransferFrom",
      "outputs": [],
      "stateMutability": "nonpayable",
      "type": "function"
    },
    {
      "inputs": [
        {
          "internalType": "address",
          "name": "operator",
          "type": "address"
        },
        {
          "internalType": "bool",
          "name": "approved",
          "type": "bool"
        }
      ],
      "name": "setApprovalForAll",
      "outputs": [],
      "stateMutability": "nonpayable",
      "type": "function"
    },
    {
      "inputs": [
        {
          "internalType": "bytes4",
          "name": "interfaceId",
          "type": "bytes4"
        }
      ],
      "name": "supportsInterface",
      "outputs": [
        {
          "internalType": "bool",
          "name": "",
          "type": "bool"
        }
      ],
      "stateMutability": "view",
      "type": "function",
      "constant": true
    },
    {
      "inputs": [],
      "name": "symbol",
      "outputs": [
        {
          "internalType": "string",
          "name": "",
          "type": "string"
        }
      ],
      "stateMutability": "view",
      "type": "function",
      "constant": true
    },
    {
      "inputs": [
        {
          "internalType": "uint256",
          "name": "tokenId",
          "type": "uint256"
        }
      ],
      "name": "tokenURI",
      "outputs": [
        {
          "internalType": "string",
          "name": "",
          "type": "string"
        }
      ],
      "stateMutability": "view",
      "type": "function",
      "constant": true
    },
    {
      "inputs": [
        {
          "internalType": "address",
          "name": "from",
          "type": "address"
        },
        {
          "internalType": "address",
          "name": "to",
          "type": "address"
        },
        {
          "internalType": "uint256",
          "name": "tokenId",
          "type": "uint256"
        }
      ],
      "name": "transferFrom",
      "outputs": [],
      "stateMutability": "nonpayable",
      "type": "function"
    },
    {
      "inputs": [
        {
          "internalType": "uint256",
          "name": "tokenId",
          "type": "uint256"
        },
        {
          "internalType": "string",
          "name": "_title",
          "type": "string"
        }
      ],
      "name": "setTokenTitle",
      "outputs": [],
      "stateMutability": "nonpayable",
      "type": "function"
    },
    {
      "inputs": [
        {
          "internalType": "uint256",
          "name": "tokenId",
          "type": "uint256"
        },
        {
          "internalType": "string",
          "name": "_description",
          "type": "string"
        }
      ],
      "name": "setTokenDescription",
      "outputs": [],
      "stateMutability": "nonpayable",
      "type": "function"
    },
    {
      "inputs": [
        {
          "internalType": "uint256",
          "name": "tokenId",
          "type": "uint256"
        },
        {
          "internalType": "bool",
          "name": "_sale",
          "type": "bool"
        }
      ],
      "name": "setTokenOnSale",
      "outputs": [],
      "stateMutability": "nonpayable",
      "type": "function"
    },
    {
      "inputs": [
        {
          "internalType": "uint256",
          "name": "tokenId",
          "type": "uint256"
        },
        {
          "internalType": "address",
          "name": "_address",
          "type": "address"
        }
      ],
      "name": "setTokenCreator",
      "outputs": [],
      "stateMutability": "nonpayable",
      "type": "function"
    },
    {
      "inputs": [
        {
          "internalType": "uint256",
          "name": "tokenId",
          "type": "uint256"
        },
        {
          "internalType": "uint256",
          "name": "_price",
          "type": "uint256"
        }
      ],
      "name": "setTokenPrice",
      "outputs": [],
      "stateMutability": "nonpayable",
      "type": "function"
    },
    {
      "inputs": [
        {
          "internalType": "uint256",
          "name": "tokenId",
          "type": "uint256"
        },
        {
          "internalType": "string[]",
          "name": "_uris",
          "type": "string[]"
        }
      ],
      "name": "setTokenUris",
      "outputs": [],
      "stateMutability": "nonpayable",
      "type": "function"
    },
    {
      "inputs": [
        {
          "internalType": "uint256",
          "name": "tokenId",
          "type": "uint256"
        },
        {
          "internalType": "string[]",
          "name": "_uris",
          "type": "string[]"
        }
      ],
      "name": "addTokenUris",
      "outputs": [],
      "stateMutability": "nonpayable",
      "type": "function"
    },
    {
      "inputs": [
        {
          "internalType": "uint256",
          "name": "tokenId",
          "type": "uint256"
        }
      ],
      "name": "notMoreOnSale",
      "outputs": [],
      "stateMutability": "nonpayable",
      "type": "function"
    },
    {
      "inputs": [
        {
          "internalType": "uint256",
          "name": "tokenId",
          "type": "uint256"
        },
        {
          "internalType": "uint256",
          "name": "amount",
          "type": "uint256"
        }
      ],
      "name": "setOnSale",
      "outputs": [],
      "stateMutability": "nonpayable",
      "type": "function"
    },
    {
      "inputs": [
        {
          "internalType": "address",
          "name": "_owner",
          "type": "address"
        },
        {
          "internalType": "string",
          "name": "_title",
          "type": "string"
        },
        {
          "internalType": "string",
          "name": "_description",
          "type": "string"
        },
        {
          "internalType": "string[]",
          "name": "_uris",
          "type": "string[]"
        },
        {
          "internalType": "uint256",
          "name": "_price",
          "type": "uint256"
        }
      ],
      "name": "mintCourse",
      "outputs": [
        {
          "internalType": "uint256",
          "name": "",
          "type": "uint256"
        }
      ],
      "stateMutability": "nonpayable",
      "type": "function"
    },
    {
      "inputs": [
        {
          "internalType": "uint256",
          "name": "tokenId",
          "type": "uint256"
        },
        {
          "internalType": "string",
          "name": "_hash",
          "type": "string"
        }
      ],
      "name": "deleteUri",
      "outputs": [],
      "stateMutability": "nonpayable",
      "type": "function"
    },
    {
      "inputs": [
        {
          "internalType": "string",
          "name": "a",
          "type": "string"
        },
        {
          "internalType": "string",
          "name": "b",
          "type": "string"
        }
      ],
      "name": "compareStrings",
      "outputs": [
        {
          "internalType": "bool",
          "name": "",
          "type": "bool"
        }
      ],
      "stateMutability": "pure",
      "type": "function",
      "constant": true
    },
    {
      "inputs": [
        {
          "internalType": "uint256",
          "name": "tokenId",
          "type": "uint256"
        }
      ],
      "name": "getCourseById",
      "outputs": [
        {
          "components": [
            {
              "internalType": "uint256",
              "name": "id",
              "type": "uint256"
            },
            {
              "internalType": "address",
              "name": "owner",
              "type": "address"
            },
            {
              "internalType": "uint256",
              "name": "price",
              "type": "uint256"
            },
            {
              "internalType": "string",
              "name": "title",
              "type": "string"
            },
            {
              "internalType": "string",
              "name": "description",
              "type": "string"
            },
            {
              "internalType": "string",
              "name": "videos_preview",
              "type": "string"
            },
            {
              "internalType": "bool",
              "name": "onSale",
              "type": "bool"
            }
          ],
          "internalType": "struct BlockdemyCourse.TokenProps",
          "name": "",
          "type": "tuple"
        }
      ],
      "stateMutability": "view",
      "type": "function",
      "constant": true
    },
    {
      "inputs": [
        {
          "internalType": "uint256",
          "name": "tokenId",
          "type": "uint256"
        },
        {
          "internalType": "address",
          "name": "_to",
          "type": "address"
        }
      ],
      "name": "transferCourse",
      "outputs": [],
      "stateMutability": "nonpayable",
      "type": "function"
    },
    {
      "inputs": [
        {
          "internalType": "uint256",
          "name": "tokenId",
          "type": "uint256"
        }
      ],
      "name": "getCreator",
      "outputs": [
        {
          "internalType": "address",
          "name": "",
          "type": "address"
        }
      ],
      "stateMutability": "view",
      "type": "function",
      "constant": true
    },
    {
      "inputs": [
        {
          "internalType": "uint256",
          "name": "tokenId",
          "type": "uint256"
        }
      ],
      "name": "getCourseFees",
      "outputs": [
        {
          "internalType": "uint256",
          "name": "",
          "type": "uint256"
        }
      ],
      "stateMutability": "view",
      "type": "function",
      "constant": true
    },
    {
      "inputs": [
        {
          "internalType": "uint256",
          "name": "tokenId",
          "type": "uint256"
        }
      ],
      "name": "getCoursePrice",
      "outputs": [
        {
          "internalType": "uint256",
          "name": "",
          "type": "uint256"
        }
      ],
      "stateMutability": "view",
      "type": "function",
      "constant": true
    },
    {
      "inputs": [
        {
          "internalType": "uint256",
          "name": "tokenId",
          "type": "uint256"
        }
      ],
      "name": "getVideosOfCourse",
      "outputs": [
        {
          "components": [
            {
              "internalType": "uint256",
              "name": "id_course",
              "type": "uint256"
            },
            {
              "internalType": "string",
              "name": "uri",
              "type": "string"
            },
            {
              "internalType": "string",
              "name": "title",
              "type": "string"
            }
          ],
          "internalType": "struct BlockdemyCourse.VideoProps[]",
          "name": "",
          "type": "tuple[]"
        }
      ],
      "stateMutability": "view",
      "type": "function",
      "constant": true
    },
    {
      "inputs": [],
      "name": "getAllCourses",
      "outputs": [
        {
          "components": [
            {
              "internalType": "uint256",
              "name": "id",
              "type": "uint256"
            },
            {
              "internalType": "address",
              "name": "owner",
              "type": "address"
            },
            {
              "internalType": "uint256",
              "name": "price",
              "type": "uint256"
            },
            {
              "internalType": "string",
              "name": "title",
              "type": "string"
            },
            {
              "internalType": "string",
              "name": "description",
              "type": "string"
            },
            {
              "internalType": "string",
              "name": "videos_preview",
              "type": "string"
            },
            {
              "internalType": "bool",
              "name": "onSale",
              "type": "bool"
            }
          ],
          "internalType": "struct BlockdemyCourse.TokenProps[]",
          "name": "",
          "type": "tuple[]"
        }
      ],
      "stateMutability": "view",
      "type": "function",
      "constant": true
    }
  ],
  "bytecode": "0x60806040523480156200001157600080fd5b506040518060400160405280600c81526020017f4244454d5920436f7572736500000000000000000000000000000000000000008152506040518060400160405280600681526020017f4244454d59430000000000000000000000000000000000000000000000000000815250816000908051906020019062000096929190620000b8565b508060019080519060200190620000af929190620000b8565b505050620001cd565b828054620000c69062000168565b90600052602060002090601f016020900481019282620000ea576000855562000136565b82601f106200010557805160ff191683800117855562000136565b8280016001018555821562000136579182015b828111156200013557825182559160200191906001019062000118565b5b50905062000145919062000149565b5090565b5b80821115620001645760008160009055506001016200014a565b5090565b600060028204905060018216806200018157607f821691505b602082108114156200019857620001976200019e565b5b50919050565b7f4e487b7100000000000000000000000000000000000000000000000000000000600052602260045260246000fd5b61504380620001dd6000396000f3fe608060405234801561001057600080fd5b50600436106101f05760003560e01c80637b286c9b1161010f578063c0da00c6116100a2578063ea5b210f11610071578063ea5b210f146105fb578063eb685c471461062b578063ef24d69514610647578063f0b614ae14610663576101f0565b8063c0da00c61461054f578063c87b56dd1461056b578063d48e638a1461059b578063e985e9c5146105cb576101f0565b8063a22cb465116100de578063a22cb465146104b7578063b88d4fde146104d3578063be9a046c146104ef578063bed34bba1461051f576101f0565b80637b286c9b146104315780637d976eaa1461044d5780637e2dcf6e1461046957806395d89b4114610499576101f0565b8063246a908b116101875780636352211e116101565780636352211e1461038557806364bb499c146103b55780636f2c408b146103e557806370a0823114610401576101f0565b8063246a908b146103015780634258b6051461031d57806342842e0e1461034d57806347b99a2114610369576101f0565b8063095ea7b3116101c3578063095ea7b3146102915780630b8d27c3146102ad57806323b872dd146102c95780632449a88a146102e5576101f0565b806301ffc9a7146101f557806304e48bd11461022557806306fdde0314610243578063081812fc14610261575b600080fd5b61020f600480360381019061020a9190613b15565b61067f565b60405161021c919061488a565b60405180910390f35b61022d610761565b60405161023a9190614846565b60405180910390f35b61024b610b1d565b60405161025891906148a5565b60405180910390f35b61027b60048036038101906102769190613bd3565b610baf565b60405161028891906147a8565b60405180910390f35b6102ab60048036038101906102a69190613ad9565b610c34565b005b6102c760048036038101906102c29190613d1c565b610d4c565b005b6102e360048036038101906102de9190613914565b610e60565b005b6102ff60048036038101906102fa9190613c8c565b610ec0565b005b61031b60048036038101906103169190613cc8565b610fb1565b005b61033760048036038101906103329190613bd3565b61109f565b6040516103449190614868565b60405180910390f35b61036760048036038101906103629190613914565b611402565b005b610383600480360381019061037e9190613cc8565b611422565b005b61039f600480360381019061039a9190613bd3565b61172e565b6040516103ac91906147a8565b60405180910390f35b6103cf60048036038101906103ca9190613bd3565b6117e0565b6040516103dc9190614b29565b60405180910390f35b6103ff60048036038101906103fa9190613c38565b61185a565b005b61041b600480360381019061041691906138af565b611948565b6040516104289190614b29565b60405180910390f35b61044b60048036038101906104469190613c38565b611a00565b005b61046760048036038101906104629190613bd3565b611b73565b005b610483600480360381019061047e9190613bd3565b611c6f565b6040516104909190614b29565b60405180910390f35b6104a1611cd6565b6040516104ae91906148a5565b60405180910390f35b6104d160048036038101906104cc91906139de565b611d68565b005b6104ed60048036038101906104e89190613963565b611ee9565b005b61050960048036038101906105049190613a1a565b611f4b565b6040516105169190614b29565b60405180910390f35b61053960048036038101906105349190613b67565b611fc5565b604051610546919061488a565b60405180910390f35b61056960048036038101906105649190613cc8565b61201e565b005b61058560048036038101906105809190613bd3565b61210c565b60405161059291906148a5565b60405180910390f35b6105b560048036038101906105b09190613bd3565b6121b3565b6040516105c291906147a8565b60405180910390f35b6105e560048036038101906105e091906138d8565b61223a565b6040516105f2919061488a565b60405180910390f35b61061560048036038101906106109190613bd3565b6122ce565b6040516106229190614b07565b60405180910390f35b61064560048036038101906106409190613d1c565b6125d5565b005b610661600480360381019061065c9190613bfc565b6126b3565b005b61067d60048036038101906106789190613bfc565b6127a4565b005b60007f80ac58cd000000000000000000000000000000000000000000000000000000007bffffffffffffffffffffffffffffffffffffffffffffffffffffffff1916827bffffffffffffffffffffffffffffffffffffffffffffffffffffffff1916148061074a57507f5b5e139f000000000000000000000000000000000000000000000000000000007bffffffffffffffffffffffffffffffffffffffffffffffffffffffff1916827bffffffffffffffffffffffffffffffffffffffffffffffffffffffff1916145b8061075a5750610759826128bc565b5b9050919050565b6060600061076f6006612926565b67ffffffffffffffff8111156107ae577f4e487b7100000000000000000000000000000000000000000000000000000000600052604160045260246000fd5b6040519080825280602002602001820160405280156107e757816020015b6107d4613512565b8152602001906001900390816107cc5790505b509050600080600190505b60016107fe6006612926565b6108089190614cc7565b811015610b145760006040518060e0016040528083815260200161082b8461172e565b73ffffffffffffffffffffffffffffffffffffffff16815260200160086000858152602001908152602001600020548152602001600a6000858152602001908152602001600020805461087d90614e38565b80601f01602080910402602001604051908101604052809291908181526020018280546108a990614e38565b80156108f65780601f106108cb576101008083540402835291602001916108f6565b820191906000526020600020905b8154815290600101906020018083116108d957829003601f168201915b50505050508152602001600b6000858152602001908152602001600020805461091e90614e38565b80601f016020809104026020016040519081016040528092919081815260200182805461094a90614e38565b80156109975780601f1061096c57610100808354040283529160200191610997565b820191906000526020600020905b81548152906001019060200180831161097a57829003601f168201915b50505050508152602001600760008581526020019081526020016000206000815481106109ed577f4e487b7100000000000000000000000000000000000000000000000000000000600052603260045260246000fd5b906000526020600020018054610a0290614e38565b80601f0160208091040260200160405190810160405280929190818152602001828054610a2e90614e38565b8015610a7b5780601f10610a5057610100808354040283529160200191610a7b565b820191906000526020600020905b815481529060010190602001808311610a5e57829003601f168201915b505050505081526020016009600085815260200190815260200160002060009054906101000a900460ff161515815250905080848481518110610ae7577f4e487b7100000000000000000000000000000000000000000000000000000000600052603260045260246000fd5b60200260200101819052508280610afd90614e6a565b935050508080610b0c90614e6a565b9150506107f2565b50819250505090565b606060008054610b2c90614e38565b80601f0160208091040260200160405190810160405280929190818152602001828054610b5890614e38565b8015610ba55780601f10610b7a57610100808354040283529160200191610ba5565b820191906000526020600020905b815481529060010190602001808311610b8857829003601f168201915b5050505050905090565b6000610bba82612934565b610bf9576040517f08c379a0000000000000000000000000000000000000000000000000000000008152600401610bf090614a07565b60405180910390fd5b6004600083815260200190815260200160002060009054906101000a900473ffffffffffffffffffffffffffffffffffffffff169050919050565b6000610c3f8261172e565b90508073ffffffffffffffffffffffffffffffffffffffff168373ffffffffffffffffffffffffffffffffffffffff161415610cb0576040517f08c379a0000000000000000000000000000000000000000000000000000000008152600401610ca790614a87565b60405180910390fd5b8073ffffffffffffffffffffffffffffffffffffffff16610ccf6129a0565b73ffffffffffffffffffffffffffffffffffffffff161480610cfe5750610cfd81610cf86129a0565b61223a565b5b610d3d576040517f08c379a0000000000000000000000000000000000000000000000000000000008152600401610d3490614987565b60405180910390fd5b610d4783836129a8565b505050565b813373ffffffffffffffffffffffffffffffffffffffff16610d6d8261172e565b73ffffffffffffffffffffffffffffffffffffffff1614610dc3576040517f08c379a0000000000000000000000000000000000000000000000000000000008152600401610dba90614a27565b60405180910390fd5b82610dcd81612934565b610e0c576040517f08c379a0000000000000000000000000000000000000000000000000000000008152600401610e0390614ae7565b60405180910390fd5b60016009600086815260200190815260200160002060006101000a81548160ff021916908315150217905550826008600086815260200190815260200160002081905550610e5a3085610c34565b50505050565b610e71610e6b6129a0565b82612a61565b610eb0576040517f08c379a0000000000000000000000000000000000000000000000000000000008152600401610ea790614aa7565b60405180910390fd5b610ebb838383612b3f565b505050565b81610eca81612934565b610f09576040517f08c379a0000000000000000000000000000000000000000000000000000000008152600401610f0090614ae7565b60405180910390fd5b823373ffffffffffffffffffffffffffffffffffffffff16610f2a8261172e565b73ffffffffffffffffffffffffffffffffffffffff1614610f80576040517f08c379a0000000000000000000000000000000000000000000000000000000008152600401610f7790614a27565b60405180910390fd5b826009600086815260200190815260200160002060006101000a81548160ff02191690831515021790555050505050565b81610fbb81612934565b610ffa576040517f08c379a0000000000000000000000000000000000000000000000000000000008152600401610ff190614ae7565b60405180910390fd5b823373ffffffffffffffffffffffffffffffffffffffff1661101b8261172e565b73ffffffffffffffffffffffffffffffffffffffff1614611071576040517f08c379a000000000000000000000000000000000000000000000000000000000815260040161106890614a27565b60405180910390fd5b82600b60008681526020019081526020016000209080519060200190611098929190613567565b5050505050565b606060008060076000858152602001908152602001600020805480602002602001604051908101604052809291908181526020016000905b828210156111835783829060005260206000200180546110f690614e38565b80601f016020809104026020016040519081016040528092919081815260200182805461112290614e38565b801561116f5780601f106111445761010080835404028352916020019161116f565b820191906000526020600020905b81548152906001019060200180831161115257829003601f168201915b5050505050815260200190600101906110d7565b5050505090503373ffffffffffffffffffffffffffffffffffffffff166111a98561172e565b73ffffffffffffffffffffffffffffffffffffffff1614156111ce57805191506111d3565b600191505b60008267ffffffffffffffff811115611215577f4e487b7100000000000000000000000000000000000000000000000000000000600052604160045260246000fd5b60405190808252806020026020018201604052801561124e57816020015b61123b6135ed565b8152602001906001900390816112335790505b5090506000805b848110156113f55760006040518060600160405280898152602001600760008b815260200190815260200160002084815481106112bb577f4e487b7100000000000000000000000000000000000000000000000000000000600052603260045260246000fd5b9060005260206000200180546112d090614e38565b80601f01602080910402602001604051908101604052809291908181526020018280546112fc90614e38565b80156113495780601f1061131e57610100808354040283529160200191611349565b820191906000526020600020905b81548152906001019060200180831161132c57829003601f168201915b505050505081526020016040518060400160405280600581526020017f7469746c650000000000000000000000000000000000000000000000000000008152508152509050808484815181106113c8577f4e487b7100000000000000000000000000000000000000000000000000000000600052603260045260246000fd5b602002602001018190525082806113de90614e6a565b9350505080806113ed90614e6a565b915050611255565b5081945050505050919050565b61141d83838360405180602001604052806000815250611ee9565b505050565b8161142c81612934565b61146b576040517f08c379a000000000000000000000000000000000000000000000000000000000815260040161146290614ae7565b60405180910390fd5b823373ffffffffffffffffffffffffffffffffffffffff1661148c8261172e565b73ffffffffffffffffffffffffffffffffffffffff16146114e2576040517f08c379a00000000000000000000000000000000000000000000000000000000081526004016114d990614a27565b60405180910390fd5b60006114ee8585612d9b565b9050600060076000878152602001908152602001600020805480602002602001604051908101604052809291908181526020016000905b828210156115d157838290600052602060002001805461154490614e38565b80601f016020809104026020016040519081016040528092919081815260200182805461157090614e38565b80156115bd5780601f10611592576101008083540402835291602001916115bd565b820191906000526020600020905b8154815290600101906020018083116115a057829003601f168201915b505050505081526020019060010190611525565b50505050905060008290505b600182516115eb9190614d4e565b81101561169657816001826116009190614cc7565b81518110611637577f4e487b7100000000000000000000000000000000000000000000000000000000600052603260045260246000fd5b6020026020010151828281518110611678577f4e487b7100000000000000000000000000000000000000000000000000000000600052603260045260246000fd5b6020026020010181905250808061168e90614e6a565b9150506115dd565b50806007600088815260200190815260200160002090805190602001906116be92919061360e565b5060076000878152602001908152602001600020805480611708577f4e487b7100000000000000000000000000000000000000000000000000000000600052603160045260246000fd5b600190038181906000526020600020016000611724919061366e565b9055505050505050565b6000806002600084815260200190815260200160002060009054906101000a900473ffffffffffffffffffffffffffffffffffffffff169050600073ffffffffffffffffffffffffffffffffffffffff168173ffffffffffffffffffffffffffffffffffffffff1614156117d7576040517f08c379a00000000000000000000000000000000000000000000000000000000081526004016117ce906149c7565b60405180910390fd5b80915050919050565b6000816117ec81612934565b61182b576040517f08c379a000000000000000000000000000000000000000000000000000000000815260040161182290614ae7565b60405180910390fd5b61185260056008600086815260200190815260200160002054612f4990919063ffffffff16565b915050919050565b8161186481612934565b6118a3576040517f08c379a000000000000000000000000000000000000000000000000000000000815260040161189a90614ae7565b60405180910390fd5b823373ffffffffffffffffffffffffffffffffffffffff166118c48261172e565b73ffffffffffffffffffffffffffffffffffffffff161461191a576040517f08c379a000000000000000000000000000000000000000000000000000000000815260040161191190614a27565b60405180910390fd5b8260076000868152602001908152602001600020908051906020019061194192919061360e565b5050505050565b60008073ffffffffffffffffffffffffffffffffffffffff168273ffffffffffffffffffffffffffffffffffffffff1614156119b9576040517f08c379a00000000000000000000000000000000000000000000000000000000081526004016119b0906149a7565b60405180910390fd5b600360008373ffffffffffffffffffffffffffffffffffffffff1673ffffffffffffffffffffffffffffffffffffffff168152602001908152602001600020549050919050565b81611a0a81612934565b611a49576040517f08c379a0000000000000000000000000000000000000000000000000000000008152600401611a4090614ae7565b60405180910390fd5b823373ffffffffffffffffffffffffffffffffffffffff16611a6a8261172e565b73ffffffffffffffffffffffffffffffffffffffff1614611ac0576040517f08c379a0000000000000000000000000000000000000000000000000000000008152600401611ab790614a27565b60405180910390fd5b60005b8351811015611b6c5760076000868152602001908152602001600020848281518110611b18577f4e487b7100000000000000000000000000000000000000000000000000000000600052603260045260246000fd5b6020026020010151908060018154018082558091505060019003906000526020600020016000909190919091509080519060200190611b58929190613567565b508080611b6490614e6a565b915050611ac3565b5050505050565b803373ffffffffffffffffffffffffffffffffffffffff16611b948261172e565b73ffffffffffffffffffffffffffffffffffffffff1614611bea576040517f08c379a0000000000000000000000000000000000000000000000000000000008152600401611be190614a27565b60405180910390fd5b81611bf481612934565b611c33576040517f08c379a0000000000000000000000000000000000000000000000000000000008152600401611c2a90614ae7565b60405180910390fd5b60006009600085815260200190815260200160002060006101000a81548160ff021916908315150217905550611c6a600084610c34565b505050565b600081611c7b81612934565b611cba576040517f08c379a0000000000000000000000000000000000000000000000000000000008152600401611cb190614ae7565b60405180910390fd5b6008600084815260200190815260200160002054915050919050565b606060018054611ce590614e38565b80601f0160208091040260200160405190810160405280929190818152602001828054611d1190614e38565b8015611d5e5780601f10611d3357610100808354040283529160200191611d5e565b820191906000526020600020905b815481529060010190602001808311611d4157829003601f168201915b5050505050905090565b611d706129a0565b73ffffffffffffffffffffffffffffffffffffffff168273ffffffffffffffffffffffffffffffffffffffff161415611dde576040517f08c379a0000000000000000000000000000000000000000000000000000000008152600401611dd590614927565b60405180910390fd5b8060056000611deb6129a0565b73ffffffffffffffffffffffffffffffffffffffff1673ffffffffffffffffffffffffffffffffffffffff16815260200190815260200160002060008473ffffffffffffffffffffffffffffffffffffffff1673ffffffffffffffffffffffffffffffffffffffff16815260200190815260200160002060006101000a81548160ff0219169083151502179055508173ffffffffffffffffffffffffffffffffffffffff16611e986129a0565b73ffffffffffffffffffffffffffffffffffffffff167f17307eab39ab6107e8899845ad3d59bd9653f200f220920489ca2b5937696c3183604051611edd919061488a565b60405180910390a35050565b611efa611ef46129a0565b83612a61565b611f39576040517f08c379a0000000000000000000000000000000000000000000000000000000008152600401611f3090614aa7565b60405180910390fd5b611f4584848484612f5f565b50505050565b6000808211611f5957600080fd5b611f636006612fbb565b6000611f6f6006612926565b9050611f7b8782612fd1565b611f8581846125d5565b611f8f818561185a565b611f9a816000610ec0565b611fa4818761201e565b611fae8186610fb1565b611fb881336127a4565b8091505095945050505050565b600081604051602001611fd8919061476d565b6040516020818303038152906040528051906020012083604051602001611fff919061476d565b6040516020818303038152906040528051906020012014905092915050565b8161202881612934565b612067576040517f08c379a000000000000000000000000000000000000000000000000000000000815260040161205e90614ae7565b60405180910390fd5b823373ffffffffffffffffffffffffffffffffffffffff166120888261172e565b73ffffffffffffffffffffffffffffffffffffffff16146120de576040517f08c379a00000000000000000000000000000000000000000000000000000000081526004016120d590614a27565b60405180910390fd5b82600a60008681526020019081526020016000209080519060200190612105929190613567565b5050505050565b606061211782612934565b612156576040517f08c379a000000000000000000000000000000000000000000000000000000000815260040161214d90614a67565b60405180910390fd5b600061216061319f565b9050600081511161218057604051806020016040528060008152506121ab565b8061218a846131b6565b60405160200161219b929190614784565b6040516020818303038152906040525b915050919050565b6000816121bf81612934565b6121fe576040517f08c379a00000000000000000000000000000000000000000000000000000000081526004016121f590614ae7565b60405180910390fd5b600c600084815260200190815260200160002060009054906101000a900473ffffffffffffffffffffffffffffffffffffffff16915050919050565b6000600560008473ffffffffffffffffffffffffffffffffffffffff1673ffffffffffffffffffffffffffffffffffffffff16815260200190815260200160002060008373ffffffffffffffffffffffffffffffffffffffff1673ffffffffffffffffffffffffffffffffffffffff16815260200190815260200160002060009054906101000a900460ff16905092915050565b6122d6613512565b6000821180156122ef57506122eb6006612926565b8211155b61232e576040517f08c379a000000000000000000000000000000000000000000000000000000000815260040161232590614ac7565b60405180910390fd5b60006040518060e0016040528084815260200161234a8561172e565b73ffffffffffffffffffffffffffffffffffffffff16815260200160086000868152602001908152602001600020548152602001600a6000868152602001908152602001600020805461239c90614e38565b80601f01602080910402602001604051908101604052809291908181526020018280546123c890614e38565b80156124155780601f106123ea57610100808354040283529160200191612415565b820191906000526020600020905b8154815290600101906020018083116123f857829003601f168201915b50505050508152602001600b6000868152602001908152602001600020805461243d90614e38565b80601f016020809104026020016040519081016040528092919081815260200182805461246990614e38565b80156124b65780601f1061248b576101008083540402835291602001916124b6565b820191906000526020600020905b81548152906001019060200180831161249957829003601f168201915b505050505081526020016007600086815260200190815260200160002060008154811061250c577f4e487b7100000000000000000000000000000000000000000000000000000000600052603260045260246000fd5b90600052602060002001805461252190614e38565b80601f016020809104026020016040519081016040528092919081815260200182805461254d90614e38565b801561259a5780601f1061256f5761010080835404028352916020019161259a565b820191906000526020600020905b81548152906001019060200180831161257d57829003601f168201915b505050505081526020016009600086815260200190815260200160002060009054906101000a900460ff161515815250905080915050919050565b816125df81612934565b61261e576040517f08c379a000000000000000000000000000000000000000000000000000000000815260040161261590614ae7565b60405180910390fd5b823373ffffffffffffffffffffffffffffffffffffffff1661263f8261172e565b73ffffffffffffffffffffffffffffffffffffffff1614612695576040517f08c379a000000000000000000000000000000000000000000000000000000000815260040161268c90614a27565b60405180910390fd5b82600860008681526020019081526020016000208190555050505050565b816126bd81612934565b6126fc576040517f08c379a00000000000000000000000000000000000000000000000000000000081526004016126f390614ae7565b60405180910390fd5b3073ffffffffffffffffffffffffffffffffffffffff166323b872dd6127218561172e565b84866040518463ffffffff1660e01b8152600401612741939291906147c3565b600060405180830381600087803b15801561275b57600080fd5b505af115801561276f573d6000803e3d6000fd5b5050505060006009600085815260200190815260200160002060006101000a81548160ff021916908315150217905550505050565b816127ae81612934565b6127ed576040517f08c379a00000000000000000000000000000000000000000000000000000000081526004016127e490614ae7565b60405180910390fd5b823373ffffffffffffffffffffffffffffffffffffffff1661280e8261172e565b73ffffffffffffffffffffffffffffffffffffffff1614612864576040517f08c379a000000000000000000000000000000000000000000000000000000000815260040161285b90614a27565b60405180910390fd5b82600c600086815260200190815260200160002060006101000a81548173ffffffffffffffffffffffffffffffffffffffff021916908373ffffffffffffffffffffffffffffffffffffffff16021790555050505050565b60007f01ffc9a7000000000000000000000000000000000000000000000000000000007bffffffffffffffffffffffffffffffffffffffffffffffffffffffff1916827bffffffffffffffffffffffffffffffffffffffffffffffffffffffff1916149050919050565b600081600001549050919050565b60008073ffffffffffffffffffffffffffffffffffffffff166002600084815260200190815260200160002060009054906101000a900473ffffffffffffffffffffffffffffffffffffffff1673ffffffffffffffffffffffffffffffffffffffff1614159050919050565b600033905090565b816004600083815260200190815260200160002060006101000a81548173ffffffffffffffffffffffffffffffffffffffff021916908373ffffffffffffffffffffffffffffffffffffffff160217905550808273ffffffffffffffffffffffffffffffffffffffff16612a1b8361172e565b73ffffffffffffffffffffffffffffffffffffffff167f8c5be1e5ebec7d5bd14f71427d1e84f3dd0314c0f7b2291e5b200ac8c7c3b92560405160405180910390a45050565b6000612a6c82612934565b612aab576040517f08c379a0000000000000000000000000000000000000000000000000000000008152600401612aa290614967565b60405180910390fd5b6000612ab68361172e565b90508073ffffffffffffffffffffffffffffffffffffffff168473ffffffffffffffffffffffffffffffffffffffff161480612b2557508373ffffffffffffffffffffffffffffffffffffffff16612b0d84610baf565b73ffffffffffffffffffffffffffffffffffffffff16145b80612b365750612b35818561223a565b5b91505092915050565b8273ffffffffffffffffffffffffffffffffffffffff16612b5f8261172e565b73ffffffffffffffffffffffffffffffffffffffff1614612bb5576040517f08c379a0000000000000000000000000000000000000000000000000000000008152600401612bac90614a47565b60405180910390fd5b600073ffffffffffffffffffffffffffffffffffffffff168273ffffffffffffffffffffffffffffffffffffffff161415612c25576040517f08c379a0000000000000000000000000000000000000000000000000000000008152600401612c1c90614907565b60405180910390fd5b612c30838383613363565b612c3b6000826129a8565b6001600360008573ffffffffffffffffffffffffffffffffffffffff1673ffffffffffffffffffffffffffffffffffffffff1681526020019081526020016000206000828254612c8b9190614d4e565b925050819055506001600360008473ffffffffffffffffffffffffffffffffffffffff1673ffffffffffffffffffffffffffffffffffffffff1681526020019081526020016000206000828254612ce29190614cc7565b92505081905550816002600083815260200190815260200160002060006101000a81548173ffffffffffffffffffffffffffffffffffffffff021916908373ffffffffffffffffffffffffffffffffffffffff160217905550808273ffffffffffffffffffffffffffffffffffffffff168473ffffffffffffffffffffffffffffffffffffffff167fddf252ad1be2c89b69c2b068fc378daa952ba7f163c4a11628f55a4df523b3ef60405160405180910390a4505050565b60008060076000858152602001908152602001600020805480602002602001604051908101604052809291908181526020016000905b82821015612e7d578382906000526020600020018054612df090614e38565b80601f0160208091040260200160405190810160405280929190818152602001828054612e1c90614e38565b8015612e695780601f10612e3e57610100808354040283529160200191612e69565b820191906000526020600020905b815481529060010190602001808311612e4c57829003601f168201915b505050505081526020019060010190612dd1565b50505050905060005b60018251612e949190614d4e565b811015612f0757612ee5828281518110612ed7577f4e487b7100000000000000000000000000000000000000000000000000000000600052603260045260246000fd5b602002602001015185611fc5565b15612ef4578092505050612f43565b8080612eff90614e6a565b915050612e86565b506040517f08c379a0000000000000000000000000000000000000000000000000000000008152600401612f3a90614947565b60405180910390fd5b92915050565b60008183612f579190614d1d565b905092915050565b612f6a848484612b3f565b612f7684848484613368565b612fb5576040517f08c379a0000000000000000000000000000000000000000000000000000000008152600401612fac906148c7565b60405180910390fd5b50505050565b6001816000016000828254019250508190555050565b600073ffffffffffffffffffffffffffffffffffffffff168273ffffffffffffffffffffffffffffffffffffffff161415613041576040517f08c379a0000000000000000000000000000000000000000000000000000000008152600401613038906149e7565b60405180910390fd5b61304a81612934565b1561308a576040517f08c379a0000000000000000000000000000000000000000000000000000000008152600401613081906148e7565b60405180910390fd5b61309660008383613363565b6001600360008473ffffffffffffffffffffffffffffffffffffffff1673ffffffffffffffffffffffffffffffffffffffff16815260200190815260200160002060008282546130e69190614cc7565b92505081905550816002600083815260200190815260200160002060006101000a81548173ffffffffffffffffffffffffffffffffffffffff021916908373ffffffffffffffffffffffffffffffffffffffff160217905550808273ffffffffffffffffffffffffffffffffffffffff16600073ffffffffffffffffffffffffffffffffffffffff167fddf252ad1be2c89b69c2b068fc378daa952ba7f163c4a11628f55a4df523b3ef60405160405180910390a45050565b606060405180602001604052806000815250905090565b606060008214156131fe576040518060400160405280600181526020017f3000000000000000000000000000000000000000000000000000000000000000815250905061335e565b600082905060005b6000821461323057808061321990614e6a565b915050600a826132299190614d1d565b9150613206565b60008167ffffffffffffffff811115613272577f4e487b7100000000000000000000000000000000000000000000000000000000600052604160045260246000fd5b6040519080825280601f01601f1916602001820160405280156132a45781602001600182028036833780820191505090505b5090505b60008514613357576001826132bd9190614d4e565b9150600a856132cc9190614eb3565b60306132d89190614cc7565b60f81b818381518110613314577f4e487b7100000000000000000000000000000000000000000000000000000000600052603260045260246000fd5b60200101907effffffffffffffffffffffffffffffffffffffffffffffffffffffffffffff1916908160001a905350600a856133509190614d1d565b94506132a8565b8093505050505b919050565b505050565b60006133898473ffffffffffffffffffffffffffffffffffffffff166134ff565b156134f2578373ffffffffffffffffffffffffffffffffffffffff1663150b7a026133b26129a0565b8786866040518563ffffffff1660e01b81526004016133d494939291906147fa565b602060405180830381600087803b1580156133ee57600080fd5b505af192505050801561341f57506040513d601f19601f8201168201806040525081019061341c9190613b3e565b60015b6134a2573d806000811461344f576040519150601f19603f3d011682016040523d82523d6000602084013e613454565b606091505b5060008151141561349a576040517f08c379a0000000000000000000000000000000000000000000000000000000008152600401613491906148c7565b60405180910390fd5b805181602001fd5b63150b7a0260e01b7bffffffffffffffffffffffffffffffffffffffffffffffffffffffff1916817bffffffffffffffffffffffffffffffffffffffffffffffffffffffff1916149150506134f7565b600190505b949350505050565b600080823b905060008111915050919050565b6040518060e0016040528060008152602001600073ffffffffffffffffffffffffffffffffffffffff168152602001600081526020016060815260200160608152602001606081526020016000151581525090565b82805461357390614e38565b90600052602060002090601f01602090048101928261359557600085556135dc565b82601f106135ae57805160ff19168380011785556135dc565b828001600101855582156135dc579182015b828111156135db5782518255916020019190600101906135c0565b5b5090506135e991906136ae565b5090565b60405180606001604052806000815260200160608152602001606081525090565b82805482825590600052602060002090810192821561365d579160200282015b8281111561365c57825182908051906020019061364c929190613567565b509160200191906001019061362e565b5b50905061366a91906136cb565b5090565b50805461367a90614e38565b6000825580601f1061368c57506136ab565b601f0160209004906000526020600020908101906136aa91906136ae565b5b50565b5b808211156136c75760008160009055506001016136af565b5090565b5b808211156136eb57600081816136e2919061366e565b506001016136cc565b5090565b60006137026136fd84614b75565b614b44565b9050808382526020820190508260005b8581101561374257813585016137288882613870565b845260208401935060208301925050600181019050613712565b5050509392505050565b600061375f61375a84614ba1565b614b44565b90508281526020810184848401111561377757600080fd5b613782848285614df6565b509392505050565b600061379d61379884614bd1565b614b44565b9050828152602081018484840111156137b557600080fd5b6137c0848285614df6565b509392505050565b6000813590506137d781614fb1565b92915050565b600082601f8301126137ee57600080fd5b81356137fe8482602086016136ef565b91505092915050565b60008135905061381681614fc8565b92915050565b60008135905061382b81614fdf565b92915050565b60008151905061384081614fdf565b92915050565b600082601f83011261385757600080fd5b813561386784826020860161374c565b91505092915050565b600082601f83011261388157600080fd5b813561389184826020860161378a565b91505092915050565b6000813590506138a981614ff6565b92915050565b6000602082840312156138c157600080fd5b60006138cf848285016137c8565b91505092915050565b600080604083850312156138eb57600080fd5b60006138f9858286016137c8565b925050602061390a858286016137c8565b9150509250929050565b60008060006060848603121561392957600080fd5b6000613937868287016137c8565b9350506020613948868287016137c8565b92505060406139598682870161389a565b9150509250925092565b6000806000806080858703121561397957600080fd5b6000613987878288016137c8565b9450506020613998878288016137c8565b93505060406139a98782880161389a565b925050606085013567ffffffffffffffff8111156139c657600080fd5b6139d287828801613846565b91505092959194509250565b600080604083850312156139f157600080fd5b60006139ff858286016137c8565b9250506020613a1085828601613807565b9150509250929050565b600080600080600060a08688031215613a3257600080fd5b6000613a40888289016137c8565b955050602086013567ffffffffffffffff811115613a5d57600080fd5b613a6988828901613870565b945050604086013567ffffffffffffffff811115613a8657600080fd5b613a9288828901613870565b935050606086013567ffffffffffffffff811115613aaf57600080fd5b613abb888289016137dd565b9250506080613acc8882890161389a565b9150509295509295909350565b60008060408385031215613aec57600080fd5b6000613afa858286016137c8565b9250506020613b0b8582860161389a565b9150509250929050565b600060208284031215613b2757600080fd5b6000613b358482850161381c565b91505092915050565b600060208284031215613b5057600080fd5b6000613b5e84828501613831565b91505092915050565b60008060408385031215613b7a57600080fd5b600083013567ffffffffffffffff811115613b9457600080fd5b613ba085828601613870565b925050602083013567ffffffffffffffff811115613bbd57600080fd5b613bc985828601613870565b9150509250929050565b600060208284031215613be557600080fd5b6000613bf38482850161389a565b91505092915050565b60008060408385031215613c0f57600080fd5b6000613c1d8582860161389a565b9250506020613c2e858286016137c8565b9150509250929050565b60008060408385031215613c4b57600080fd5b6000613c598582860161389a565b925050602083013567ffffffffffffffff811115613c7657600080fd5b613c82858286016137dd565b9150509250929050565b60008060408385031215613c9f57600080fd5b6000613cad8582860161389a565b9250506020613cbe85828601613807565b9150509250929050565b60008060408385031215613cdb57600080fd5b6000613ce98582860161389a565b925050602083013567ffffffffffffffff811115613d0657600080fd5b613d1285828601613870565b9150509250929050565b60008060408385031215613d2f57600080fd5b6000613d3d8582860161389a565b9250506020613d4e8582860161389a565b9150509250929050565b6000613d6483836145a4565b905092915050565b6000613d7883836146f8565b905092915050565b613d8981614d82565b82525050565b613d9881614d82565b82525050565b6000613da982614c21565b613db38185614c67565b935083602082028501613dc585614c01565b8060005b85811015613e015784840389528151613de28582613d58565b9450613ded83614c4d565b925060208a01995050600181019050613dc9565b50829750879550505050505092915050565b6000613e1e82614c2c565b613e288185614c78565b935083602082028501613e3a85614c11565b8060005b85811015613e765784840389528151613e578582613d6c565b9450613e6283614c5a565b925060208a01995050600181019050613e3e565b50829750879550505050505092915050565b613e9181614d94565b82525050565b613ea081614d94565b82525050565b6000613eb182614c37565b613ebb8185614c89565b9350613ecb818560208601614e05565b613ed481614fa0565b840191505092915050565b6000613eea82614c42565b613ef48185614c9a565b9350613f04818560208601614e05565b613f0d81614fa0565b840191505092915050565b6000613f2382614c42565b613f2d8185614cab565b9350613f3d818560208601614e05565b613f4681614fa0565b840191505092915050565b6000613f5c82614c42565b613f668185614cbc565b9350613f76818560208601614e05565b80840191505092915050565b6000613f8f603283614cab565b91507f4552433732313a207472616e7366657220746f206e6f6e20455243373231526560008301527f63656976657220696d706c656d656e74657200000000000000000000000000006020830152604082019050919050565b6000613ff5601c83614cab565b91507f4552433732313a20746f6b656e20616c7265616479206d696e746564000000006000830152602082019050919050565b6000614035602483614cab565b91507f4552433732313a207472616e7366657220746f20746865207a65726f2061646460008301527f72657373000000000000000000000000000000000000000000000000000000006020830152604082019050919050565b600061409b601983614cab565b91507f4552433732313a20617070726f766520746f2063616c6c6572000000000000006000830152602082019050919050565b60006140db601183614cab565b91507f6e6f6e206578697374656e7420686173680000000000000000000000000000006000830152602082019050919050565b600061411b602c83614cab565b91507f4552433732313a206f70657261746f7220717565727920666f72206e6f6e657860008301527f697374656e7420746f6b656e00000000000000000000000000000000000000006020830152604082019050919050565b6000614181603883614cab565b91507f4552433732313a20617070726f76652063616c6c6572206973206e6f74206f7760008301527f6e6572206e6f7220617070726f76656420666f7220616c6c00000000000000006020830152604082019050919050565b60006141e7602a83614cab565b91507f4552433732313a2062616c616e636520717565727920666f7220746865207a6560008301527f726f2061646472657373000000000000000000000000000000000000000000006020830152604082019050919050565b600061424d602983614cab565b91507f4552433732313a206f776e657220717565727920666f72206e6f6e657869737460008301527f656e7420746f6b656e00000000000000000000000000000000000000000000006020830152604082019050919050565b60006142b3602083614cab565b91507f4552433732313a206d696e7420746f20746865207a65726f20616464726573736000830152602082019050919050565b60006142f3602c83614cab565b91507f4552433732313a20617070726f76656420717565727920666f72206e6f6e657860008301527f697374656e7420746f6b656e00000000000000000000000000000000000000006020830152604082019050919050565b6000614359601783614cab565b91507f63616c6c6572206973206e6f7420746865206f776e65720000000000000000006000830152602082019050919050565b6000614399602983614cab565b91507f4552433732313a207472616e73666572206f6620746f6b656e2074686174206960008301527f73206e6f74206f776e00000000000000000000000000000000000000000000006020830152604082019050919050565b60006143ff602f83614cab565b91507f4552433732314d657461646174613a2055524920717565727920666f72206e6f60008301527f6e6578697374656e7420746f6b656e00000000000000000000000000000000006020830152604082019050919050565b6000614465602183614cab565b91507f4552433732313a20617070726f76616c20746f2063757272656e74206f776e6560008301527f72000000000000000000000000000000000000000000000000000000000000006020830152604082019050919050565b60006144cb603183614cab565b91507f4552433732313a207472616e736665722063616c6c6572206973206e6f74206f60008301527f776e6572206e6f7220617070726f7665640000000000000000000000000000006020830152604082019050919050565b6000614531600e83614cab565b91507f77726f6e6720746f6b656e2069640000000000000000000000000000000000006000830152602082019050919050565b6000614571601483614cab565b91507f746f6b656e20646f6573206e6f742065786973740000000000000000000000006000830152602082019050919050565b600060e0830160008301516145bc600086018261474f565b5060208301516145cf6020860182613d80565b5060408301516145e2604086018261474f565b50606083015184820360608601526145fa8282613edf565b915050608083015184820360808601526146148282613edf565b91505060a083015184820360a086015261462e8282613edf565b91505060c083015161464360c0860182613e88565b508091505092915050565b600060e083016000830151614666600086018261474f565b5060208301516146796020860182613d80565b50604083015161468c604086018261474f565b50606083015184820360608601526146a48282613edf565b915050608083015184820360808601526146be8282613edf565b91505060a083015184820360a08601526146d88282613edf565b91505060c08301516146ed60c0860182613e88565b508091505092915050565b6000606083016000830151614710600086018261474f565b50602083015184820360208601526147288282613edf565b915050604083015184820360408601526147428282613edf565b9150508091505092915050565b61475881614dec565b82525050565b61476781614dec565b82525050565b60006147798284613f51565b915081905092915050565b60006147908285613f51565b915061479c8284613f51565b91508190509392505050565b60006020820190506147bd6000830184613d8f565b92915050565b60006060820190506147d86000830186613d8f565b6147e56020830185613d8f565b6147f2604083018461475e565b949350505050565b600060808201905061480f6000830187613d8f565b61481c6020830186613d8f565b614829604083018561475e565b818103606083015261483b8184613ea6565b905095945050505050565b600060208201905081810360008301526148608184613d9e565b905092915050565b600060208201905081810360008301526148828184613e13565b905092915050565b600060208201905061489f6000830184613e97565b92915050565b600060208201905081810360008301526148bf8184613f18565b905092915050565b600060208201905081810360008301526148e081613f82565b9050919050565b6000602082019050818103600083015261490081613fe8565b9050919050565b6000602082019050818103600083015261492081614028565b9050919050565b600060208201905081810360008301526149408161408e565b9050919050565b60006020820190508181036000830152614960816140ce565b9050919050565b600060208201905081810360008301526149808161410e565b9050919050565b600060208201905081810360008301526149a081614174565b9050919050565b600060208201905081810360008301526149c0816141da565b9050919050565b600060208201905081810360008301526149e081614240565b9050919050565b60006020820190508181036000830152614a00816142a6565b9050919050565b60006020820190508181036000830152614a20816142e6565b9050919050565b60006020820190508181036000830152614a408161434c565b9050919050565b60006020820190508181036000830152614a608161438c565b9050919050565b60006020820190508181036000830152614a80816143f2565b9050919050565b60006020820190508181036000830152614aa081614458565b9050919050565b60006020820190508181036000830152614ac0816144be565b9050919050565b60006020820190508181036000830152614ae081614524565b9050919050565b60006020820190508181036000830152614b0081614564565b9050919050565b60006020820190508181036000830152614b21818461464e565b905092915050565b6000602082019050614b3e600083018461475e565b92915050565b6000604051905081810181811067ffffffffffffffff82111715614b6b57614b6a614f71565b5b8060405250919050565b600067ffffffffffffffff821115614b9057614b8f614f71565b5b602082029050602081019050919050565b600067ffffffffffffffff821115614bbc57614bbb614f71565b5b601f19601f8301169050602081019050919050565b600067ffffffffffffffff821115614bec57614beb614f71565b5b601f19601f8301169050602081019050919050565b6000819050602082019050919050565b6000819050602082019050919050565b600081519050919050565b600081519050919050565b600081519050919050565b600081519050919050565b6000602082019050919050565b6000602082019050919050565b600082825260208201905092915050565b600082825260208201905092915050565b600082825260208201905092915050565b600082825260208201905092915050565b600082825260208201905092915050565b600081905092915050565b6000614cd282614dec565b9150614cdd83614dec565b9250827fffffffffffffffffffffffffffffffffffffffffffffffffffffffffffffffff03821115614d1257614d11614ee4565b5b828201905092915050565b6000614d2882614dec565b9150614d3383614dec565b925082614d4357614d42614f13565b5b828204905092915050565b6000614d5982614dec565b9150614d6483614dec565b925082821015614d7757614d76614ee4565b5b828203905092915050565b6000614d8d82614dcc565b9050919050565b60008115159050919050565b60007fffffffff0000000000000000000000000000000000000000000000000000000082169050919050565b600073ffffffffffffffffffffffffffffffffffffffff82169050919050565b6000819050919050565b82818337600083830152505050565b60005b83811015614e23578082015181840152602081019050614e08565b83811115614e32576000848401525b50505050565b60006002820490506001821680614e5057607f821691505b60208210811415614e6457614e63614f42565b5b50919050565b6000614e7582614dec565b91507fffffffffffffffffffffffffffffffffffffffffffffffffffffffffffffffff821415614ea857614ea7614ee4565b5b600182019050919050565b6000614ebe82614dec565b9150614ec983614dec565b925082614ed957614ed8614f13565b5b828206905092915050565b7f4e487b7100000000000000000000000000000000000000000000000000000000600052601160045260246000fd5b7f4e487b7100000000000000000000000000000000000000000000000000000000600052601260045260246000fd5b7f4e487b7100000000000000000000000000000000000000000000000000000000600052602260045260246000fd5b7f4e487b7100000000000000000000000000000000000000000000000000000000600052604160045260246000fd5b6000601f19601f8301169050919050565b614fba81614d82565b8114614fc557600080fd5b50565b614fd181614d94565b8114614fdc57600080fd5b50565b614fe881614da0565b8114614ff357600080fd5b50565b614fff81614dec565b811461500a57600080fd5b5056fea26469706673582212207f03f2dfc29def6a3b29e49e280601dc2a89d02f858eb9b8460cca0ec9d935ae64736f6c63430008000033",
  "immutableReferences": {},
  "source": "// SPDX-License-Identifier: MIT\r\npragma solidity ^0.8.0;\r\n\r\nimport \"@openzeppelin/contracts/token/ERC721/ERC721.sol\";\r\nimport \"@openzeppelin/contracts/utils/Counters.sol\";\r\nimport \"@openzeppelin/contracts/utils/math/SafeMath.sol\";\r\n\r\ncontract BlockdemyCourse is ERC721 {\r\n    using Counters for Counters.Counter;\r\n    using SafeMath for uint256;\r\n    Counters.Counter private _tokenIds;\r\n\r\n    mapping(uint256 => string[]) private _tokenUris;\r\n    mapping(uint256 => uint256) private _tokenPrices;\r\n    mapping(uint256 => bool) private _tokenOnSale;\r\n    mapping(uint256 => string) private _tokenTitles;\r\n    mapping(uint256 => string) private _tokenDescriptions;\r\n    mapping(uint256 => address) private _tokenCreators;\r\n\r\n    struct TokenProps {\r\n        uint256 id;\r\n        address owner;\r\n        uint256 price;\r\n        string title;\r\n        string description;\r\n        string videos_preview;\r\n        bool onSale;\r\n    }\r\n\r\n    struct VideoProps {\r\n        uint256 id_course;\r\n        string uri;\r\n        string title;\r\n    }\r\n\r\n    constructor() ERC721(\"BDEMY Course\", \"BDEMYC\") {}\r\n\r\n    function setTokenTitle(uint256 tokenId, string memory _title)\r\n        public\r\n        TokenExists(tokenId)\r\n        IsOwner(tokenId)\r\n    {\r\n        _tokenTitles[tokenId] = _title;\r\n    }\r\n\r\n    function setTokenDescription(uint256 tokenId, string memory _description)\r\n        public\r\n        TokenExists(tokenId)\r\n        IsOwner(tokenId)\r\n    {\r\n        _tokenDescriptions[tokenId] = _description;\r\n    }\r\n\r\n    function setTokenOnSale(uint256 tokenId, bool _sale)\r\n        public\r\n        TokenExists(tokenId)\r\n        IsOwner(tokenId)\r\n    {\r\n        _tokenOnSale[tokenId] = _sale;\r\n    }\r\n\r\n    function setTokenCreator(uint256 tokenId, address _address)\r\n        public\r\n        TokenExists(tokenId)\r\n        IsOwner(tokenId)\r\n    {\r\n        _tokenCreators[tokenId] = _address;\r\n    }\r\n\r\n    function setTokenPrice(uint256 tokenId, uint256 _price)\r\n        public\r\n        TokenExists(tokenId)\r\n        IsOwner(tokenId)\r\n    {\r\n        _tokenPrices[tokenId] = _price;\r\n    }\r\n\r\n    function setTokenUris(uint256 tokenId, string[] memory _uris)\r\n        public\r\n        TokenExists(tokenId)\r\n        IsOwner(tokenId)\r\n    {\r\n        _tokenUris[tokenId] = _uris;\r\n    }\r\n\r\n    function addTokenUris(uint256 tokenId, string[] memory _uris)\r\n        public\r\n        TokenExists(tokenId)\r\n        IsOwner(tokenId)\r\n    {\r\n        for (uint256 i = 0; i < _uris.length; i++) {\r\n            _tokenUris[tokenId].push(_uris[i]);\r\n        }\r\n    }\r\n\r\n    modifier TokenExists(uint256 tokenId) {\r\n        require(_exists(tokenId), \"token does not exist\");\r\n        _;\r\n    }\r\n\r\n    modifier IsOwner(uint256 tokenId) {\r\n        require(ownerOf(tokenId) == msg.sender, \"caller is not the owner\");\r\n        _;\r\n    }\r\n\r\n    function notMoreOnSale(uint256 tokenId)\r\n        external\r\n        IsOwner(tokenId)\r\n        TokenExists(tokenId)\r\n    {\r\n        _tokenOnSale[tokenId] = false;\r\n        approve(address(0), tokenId);\r\n    }\r\n\r\n    function setOnSale(uint256 tokenId, uint256 amount)\r\n        external\r\n        IsOwner(tokenId)\r\n        TokenExists(tokenId)\r\n    {\r\n        _tokenOnSale[tokenId] = true;\r\n        _tokenPrices[tokenId] = amount;\r\n        approve(address(this), tokenId);\r\n    }\r\n\r\n    /*\r\n        MINT COURSE DOES A MINT OF THE COURSE WITH ALL THE VIDEOS, IT MUST BE CALLED WHEN THE   \r\n        INSTRUCTOR HAS ALREADY DEFINED THE COURSE IN ITS ENTIRETY (OR AT LEAST THINKS SO), SINCE WE WILL ADD\r\n        OPTIONS TO REMOVE AND POST VIDEOS LATER, BUT REMEMBER THAT EACH INTERACTION COSTS MONEY\r\n    */\r\n    function mintCourse(\r\n        address _owner,\r\n        string memory _title,\r\n        string memory _description,\r\n        string[] memory _uris,\r\n        uint256 _price\r\n    ) public returns (uint256) {\r\n        require(_price > 0);\r\n\r\n        _tokenIds.increment();\r\n\r\n        uint256 newItemId = _tokenIds.current();\r\n        _mint(_owner, newItemId);\r\n        setTokenPrice(newItemId, _price);\r\n        setTokenUris(newItemId, _uris);\r\n        setTokenOnSale(newItemId, false);\r\n        setTokenTitle(newItemId, _title);\r\n        setTokenDescription(newItemId, _description);\r\n        setTokenCreator(newItemId, msg.sender);\r\n\r\n        return newItemId;\r\n    }\r\n\r\n    function deleteUri(uint256 tokenId, string memory _hash)\r\n        external\r\n        TokenExists(tokenId)\r\n        IsOwner(tokenId)\r\n    {\r\n        uint256 index = getTokenIndexByHash(tokenId, _hash);\r\n        string[] memory uris = _tokenUris[tokenId];\r\n        for (uint256 i = index; i < uris.length - 1; i++) {\r\n            uris[i] = uris[i + 1];\r\n        }\r\n        _tokenUris[tokenId] = uris;\r\n        _tokenUris[tokenId].pop();\r\n    }\r\n\r\n    function getTokenIndexByHash(uint256 tokenId, string memory _hash)\r\n        internal\r\n        view\r\n        returns (uint256)\r\n    {\r\n        string[] memory uris = _tokenUris[tokenId];\r\n        for (uint256 i = 0; i < uris.length - 1; i++) {\r\n            if (compareStrings(uris[i], _hash)) {\r\n                return i;\r\n            }\r\n        }\r\n\r\n        revert(\"non existent hash\");\r\n    }\r\n\r\n    function compareStrings(string memory a, string memory b)\r\n        public\r\n        pure\r\n        returns (bool)\r\n    {\r\n        return (keccak256(abi.encodePacked((a))) ==\r\n            keccak256(abi.encodePacked((b))));\r\n    }\r\n\r\n    function getCourseById(uint256 tokenId)\r\n        public\r\n        view\r\n        returns (TokenProps memory)\r\n    {\r\n        require(\r\n            tokenId > 0 && tokenId <= _tokenIds.current(),\r\n            \"wrong token id\"\r\n        );\r\n        TokenProps memory token = TokenProps(\r\n            tokenId,\r\n            ownerOf(tokenId),\r\n            _tokenPrices[tokenId],\r\n            _tokenTitles[tokenId],\r\n            _tokenDescriptions[tokenId],\r\n            _tokenUris[tokenId][0],\r\n            _tokenOnSale[tokenId]\r\n        );\r\n        return token;\r\n    }\r\n\r\n    function transferCourse(uint256 tokenId, address _to)\r\n        external\r\n        TokenExists(tokenId)\r\n    {\r\n        this.transferFrom(ownerOf(tokenId), _to, tokenId);\r\n        _tokenOnSale[tokenId] = false;\r\n    }\r\n\r\n    function getCreator(uint256 tokenId)\r\n        external\r\n        view\r\n        TokenExists(tokenId)\r\n        returns (address)\r\n    {\r\n        return _tokenCreators[tokenId];\r\n    }\r\n\r\n    function getCourseFees(uint256 tokenId)\r\n        external\r\n        view\r\n        TokenExists(tokenId)\r\n        returns (uint256)\r\n    {\r\n        return _tokenPrices[tokenId].div(5); //royalty 20%\r\n    }\r\n\r\n    function getCoursePrice(uint256 tokenId)\r\n        external\r\n        view\r\n        TokenExists(tokenId)\r\n        returns (uint256)\r\n    {\r\n        return _tokenPrices[tokenId];\r\n    }\r\n\r\n    function getVideosOfCourse(uint256 tokenId)\r\n        public\r\n        view\r\n        returns (VideoProps[] memory)\r\n    {\r\n        uint256 tokenVideoLenght;\r\n\r\n        string[] memory videos = _tokenUris[tokenId];\r\n        //if owner gets all videos else just the first\r\n        if (ownerOf(tokenId) == msg.sender) {\r\n            tokenVideoLenght = videos.length;\r\n        } else {\r\n            tokenVideoLenght = 1;\r\n        }\r\n\r\n        VideoProps[] memory tokens = new VideoProps[](tokenVideoLenght);\r\n        uint256 counter = 0;\r\n\r\n        for (uint256 i = 0; i < tokenVideoLenght; i++) {\r\n            VideoProps memory token = VideoProps(\r\n                tokenId,\r\n                _tokenUris[tokenId][i],\r\n                \"title\"\r\n            );\r\n            tokens[counter] = token;\r\n            counter++;\r\n        }\r\n        return tokens;\r\n    }\r\n\r\n    function getAllCourses() public view returns (TokenProps[] memory) {\r\n        TokenProps[] memory tokens = new TokenProps[](_tokenIds.current());\r\n        uint256 counter = 0;\r\n\r\n        for (uint256 i = 1; i < _tokenIds.current() + 1; i++) {\r\n            TokenProps memory token = TokenProps(\r\n                i,\r\n                ownerOf(i),\r\n                _tokenPrices[i],\r\n                _tokenTitles[i],\r\n                _tokenDescriptions[i],\r\n                _tokenUris[i][0],\r\n                _tokenOnSale[i]\r\n            );\r\n            tokens[counter] = token;\r\n            counter++;\r\n        }\r\n\r\n        return tokens;\r\n    }\r\n}\r\n",
  "sourcePath": "E:\\blockdemy\\contracts\\BlockdemyCourse.sol",
  "compiler": {
    "name": "solc",
    "version": "0.8.0+commit.c7dfd78e.Emscripten.clang"
  },
  "schemaVersion": "3.4.1",
  "updatedAt": "2021-08-15T14:19:04.548Z",
  "networkType": "ethereum",
  "devdoc": {
    "kind": "dev",
    "methods": {
      "approve(address,uint256)": {
        "details": "See {IERC721-approve}."
      },
      "balanceOf(address)": {
        "details": "See {IERC721-balanceOf}."
      },
      "getApproved(uint256)": {
        "details": "See {IERC721-getApproved}."
      },
      "isApprovedForAll(address,address)": {
        "details": "See {IERC721-isApprovedForAll}."
      },
      "name()": {
        "details": "See {IERC721Metadata-name}."
      },
      "ownerOf(uint256)": {
        "details": "See {IERC721-ownerOf}."
      },
      "safeTransferFrom(address,address,uint256)": {
        "details": "See {IERC721-safeTransferFrom}."
      },
      "safeTransferFrom(address,address,uint256,bytes)": {
        "details": "See {IERC721-safeTransferFrom}."
      },
      "setApprovalForAll(address,bool)": {
        "details": "See {IERC721-setApprovalForAll}."
      },
      "supportsInterface(bytes4)": {
        "details": "See {IERC165-supportsInterface}."
      },
      "symbol()": {
        "details": "See {IERC721Metadata-symbol}."
      },
      "tokenURI(uint256)": {
        "details": "See {IERC721Metadata-tokenURI}."
      },
      "transferFrom(address,address,uint256)": {
        "details": "See {IERC721-transferFrom}."
      }
    },
    "version": 1
  },
  "userdoc": {
    "kind": "user",
    "methods": {},
    "version": 1
  }
}