{
  "_format": "hh-sol-artifact-1",
  "contractName": "BlockdemyCourse",
  "sourceName": "contracts/BlockdemyCourse.sol",
  "abi": [
    {
      "inputs": [],
      "stateMutability": "nonpayable",
      "type": "constructor"
    },
    {
      "anonymous": false,
      "inputs": [
        {
          "indexed": true,
          "internalType": "address",
          "name": "owner",
          "type": "address"
        },
        {
          "indexed": true,
          "internalType": "address",
          "name": "approved",
          "type": "address"
        },
        {
          "indexed": true,
          "internalType": "uint256",
          "name": "tokenId",
          "type": "uint256"
        }
      ],
      "name": "Approval",
      "type": "event"
    },
    {
      "anonymous": false,
      "inputs": [
        {
          "indexed": true,
          "internalType": "address",
          "name": "owner",
          "type": "address"
        },
        {
          "indexed": true,
          "internalType": "address",
          "name": "operator",
          "type": "address"
        },
        {
          "indexed": false,
          "internalType": "bool",
          "name": "approved",
          "type": "bool"
        }
      ],
      "name": "ApprovalForAll",
      "type": "event"
    },
    {
      "anonymous": false,
      "inputs": [
        {
          "indexed": true,
          "internalType": "address",
          "name": "from",
          "type": "address"
        },
        {
          "indexed": true,
          "internalType": "address",
          "name": "to",
          "type": "address"
        },
        {
          "indexed": true,
          "internalType": "uint256",
          "name": "tokenId",
          "type": "uint256"
        }
      ],
      "name": "Transfer",
      "type": "event"
    },
    {
      "inputs": [
        {
          "internalType": "uint256",
          "name": "tokenId",
          "type": "uint256"
        },
        {
          "internalType": "string[]",
          "name": "_uris",
          "type": "string[]"
        },
        {
          "internalType": "string[]",
          "name": "_titles",
          "type": "string[]"
        }
      ],
      "name": "addTokenUris",
      "outputs": [],
      "stateMutability": "nonpayable",
      "type": "function"
    },
    {
      "inputs": [
        {
          "internalType": "address",
          "name": "to",
          "type": "address"
        },
        {
          "internalType": "uint256",
          "name": "tokenId",
          "type": "uint256"
        }
      ],
      "name": "approve",
      "outputs": [],
      "stateMutability": "nonpayable",
      "type": "function"
    },
    {
      "inputs": [
        {
          "internalType": "address",
          "name": "owner",
          "type": "address"
        }
      ],
      "name": "balanceOf",
      "outputs": [
        {
          "internalType": "uint256",
          "name": "",
          "type": "uint256"
        }
      ],
      "stateMutability": "view",
      "type": "function"
    },
    {
      "inputs": [
        {
          "internalType": "uint256",
          "name": "tokenId",
          "type": "uint256"
        },
        {
          "internalType": "string",
          "name": "_hash",
          "type": "string"
        }
      ],
      "name": "deleteUri",
      "outputs": [],
      "stateMutability": "nonpayable",
      "type": "function"
    },
    {
      "inputs": [
        {
          "internalType": "string",
          "name": "_title",
          "type": "string"
        },
        {
          "internalType": "string",
          "name": "_description",
          "type": "string"
        },
        {
          "internalType": "uint256",
          "name": "_price",
          "type": "uint256"
        },
        {
          "internalType": "string[]",
          "name": "_uris",
          "type": "string[]"
        },
        {
          "internalType": "uint256",
          "name": "_royalty",
          "type": "uint256"
        },
        {
          "internalType": "uint256",
          "name": "tokenId",
          "type": "uint256"
        }
      ],
      "name": "editCourse",
      "outputs": [
        {
          "internalType": "uint256",
          "name": "",
          "type": "uint256"
        }
      ],
      "stateMutability": "nonpayable",
      "type": "function"
    },
    {
      "inputs": [
        {
          "internalType": "string[]",
          "name": "_uris",
          "type": "string[]"
        },
        {
          "internalType": "string[]",
          "name": "_title",
          "type": "string[]"
        },
        {
          "internalType": "uint256",
          "name": "tokenId",
          "type": "uint256"
        }
      ],
      "name": "editCourseVideos",
      "outputs": [
        {
          "internalType": "uint256",
          "name": "",
          "type": "uint256"
        }
      ],
      "stateMutability": "nonpayable",
      "type": "function"
    },
    {
      "inputs": [],
      "name": "getAllCourses",
      "outputs": [
        {
          "components": [
            {
              "internalType": "uint256",
              "name": "id",
              "type": "uint256"
            },
            {
              "internalType": "address",
              "name": "owner",
              "type": "address"
            },
            {
              "internalType": "address",
              "name": "creator",
              "type": "address"
            },
            {
              "internalType": "uint256",
              "name": "price",
              "type": "uint256"
            },
            {
              "internalType": "string",
              "name": "title",
              "type": "string"
            },
            {
              "internalType": "string",
              "name": "description",
              "type": "string"
            },
            {
              "internalType": "string",
              "name": "videos_preview",
              "type": "string"
            },
            {
              "internalType": "bool",
              "name": "onSale",
              "type": "bool"
            },
            {
              "internalType": "uint256",
              "name": "visibility",
              "type": "uint256"
            },
            {
              "internalType": "uint256",
              "name": "royalty",
              "type": "uint256"
            }
          ],
          "internalType": "struct BlockdemyCourse.CourseProps[]",
          "name": "",
          "type": "tuple[]"
        }
      ],
      "stateMutability": "view",
      "type": "function"
    },
    {
      "inputs": [
        {
          "internalType": "uint256",
          "name": "tokenId",
          "type": "uint256"
        }
      ],
      "name": "getApproved",
      "outputs": [
        {
          "internalType": "address",
          "name": "",
          "type": "address"
        }
      ],
      "stateMutability": "view",
      "type": "function"
    },
    {
      "inputs": [
        {
          "internalType": "uint256",
          "name": "tokenId",
          "type": "uint256"
        }
      ],
      "name": "getCourseById",
      "outputs": [
        {
          "components": [
            {
              "internalType": "uint256",
              "name": "id",
              "type": "uint256"
            },
            {
              "internalType": "address",
              "name": "owner",
              "type": "address"
            },
            {
              "internalType": "address",
              "name": "creator",
              "type": "address"
            },
            {
              "internalType": "uint256",
              "name": "price",
              "type": "uint256"
            },
            {
              "internalType": "string",
              "name": "title",
              "type": "string"
            },
            {
              "internalType": "string",
              "name": "description",
              "type": "string"
            },
            {
              "internalType": "string",
              "name": "videos_preview",
              "type": "string"
            },
            {
              "internalType": "bool",
              "name": "onSale",
              "type": "bool"
            },
            {
              "internalType": "uint256",
              "name": "visibility",
              "type": "uint256"
            },
            {
              "internalType": "uint256",
              "name": "royalty",
              "type": "uint256"
            }
          ],
          "internalType": "struct BlockdemyCourse.CourseProps",
          "name": "",
          "type": "tuple"
        }
      ],
      "stateMutability": "view",
      "type": "function"
    },
    {
      "inputs": [
        {
          "internalType": "uint256",
          "name": "tokenId",
          "type": "uint256"
        }
      ],
      "name": "getCourseFees",
      "outputs": [
        {
          "internalType": "uint256",
          "name": "",
          "type": "uint256"
        }
      ],
      "stateMutability": "view",
      "type": "function"
    },
    {
      "inputs": [
        {
          "internalType": "uint256",
          "name": "tokenId",
          "type": "uint256"
        }
      ],
      "name": "getCoursePrice",
      "outputs": [
        {
          "internalType": "uint256",
          "name": "",
          "type": "uint256"
        }
      ],
      "stateMutability": "view",
      "type": "function"
    },
    {
      "inputs": [
        {
          "internalType": "uint256",
          "name": "tokenId",
          "type": "uint256"
        }
      ],
      "name": "getCreator",
      "outputs": [
        {
          "internalType": "address",
          "name": "",
          "type": "address"
        }
      ],
      "stateMutability": "view",
      "type": "function"
    },
    {
      "inputs": [],
      "name": "getMyCourses",
      "outputs": [
        {
          "components": [
            {
              "internalType": "uint256",
              "name": "id",
              "type": "uint256"
            },
            {
              "internalType": "address",
              "name": "owner",
              "type": "address"
            },
            {
              "internalType": "address",
              "name": "creator",
              "type": "address"
            },
            {
              "internalType": "uint256",
              "name": "price",
              "type": "uint256"
            },
            {
              "internalType": "string",
              "name": "title",
              "type": "string"
            },
            {
              "internalType": "string",
              "name": "description",
              "type": "string"
            },
            {
              "internalType": "string",
              "name": "videos_preview",
              "type": "string"
            },
            {
              "internalType": "bool",
              "name": "onSale",
              "type": "bool"
            },
            {
              "internalType": "uint256",
              "name": "visibility",
              "type": "uint256"
            },
            {
              "internalType": "uint256",
              "name": "royalty",
              "type": "uint256"
            }
          ],
          "internalType": "struct BlockdemyCourse.CourseProps[]",
          "name": "",
          "type": "tuple[]"
        }
      ],
      "stateMutability": "view",
      "type": "function"
    },
    {
      "inputs": [
        {
          "internalType": "uint256",
          "name": "tokenId",
          "type": "uint256"
        }
      ],
      "name": "getVideosOfCourse",
      "outputs": [
        {
          "components": [
            {
              "internalType": "uint256",
              "name": "id_course",
              "type": "uint256"
            },
            {
              "internalType": "string",
              "name": "uri",
              "type": "string"
            },
            {
              "internalType": "string",
              "name": "title",
              "type": "string"
            }
          ],
          "internalType": "struct BlockdemyCourse.VideoProps[]",
          "name": "",
          "type": "tuple[]"
        }
      ],
      "stateMutability": "view",
      "type": "function"
    },
    {
      "inputs": [
        {
          "internalType": "uint256",
          "name": "tokenId",
          "type": "uint256"
        },
        {
          "internalType": "uint256",
          "name": "amount",
          "type": "uint256"
        }
      ],
      "name": "increaseCourseVisibility",
      "outputs": [],
      "stateMutability": "nonpayable",
      "type": "function"
    },
    {
      "inputs": [
        {
          "internalType": "address",
          "name": "owner",
          "type": "address"
        },
        {
          "internalType": "address",
          "name": "operator",
          "type": "address"
        }
      ],
      "name": "isApprovedForAll",
      "outputs": [
        {
          "internalType": "bool",
          "name": "",
          "type": "bool"
        }
      ],
      "stateMutability": "view",
      "type": "function"
    },
    {
      "inputs": [
        {
          "internalType": "address",
          "name": "_owner",
          "type": "address"
        },
        {
          "internalType": "string",
          "name": "_title",
          "type": "string"
        },
        {
          "internalType": "string",
          "name": "_description",
          "type": "string"
        },
        {
          "internalType": "string[]",
          "name": "_uris",
          "type": "string[]"
        },
        {
          "internalType": "uint256",
          "name": "_price",
          "type": "uint256"
        },
        {
          "internalType": "uint256",
          "name": "_royalty",
          "type": "uint256"
        }
      ],
      "name": "mintCourse",
      "outputs": [
        {
          "internalType": "uint256",
          "name": "",
          "type": "uint256"
        }
      ],
      "stateMutability": "nonpayable",
      "type": "function"
    },
    {
      "inputs": [],
      "name": "name",
      "outputs": [
        {
          "internalType": "string",
          "name": "",
          "type": "string"
        }
      ],
      "stateMutability": "view",
      "type": "function"
    },
    {
      "inputs": [
        {
          "internalType": "uint256",
          "name": "tokenId",
          "type": "uint256"
        }
      ],
      "name": "ownerOf",
      "outputs": [
        {
          "internalType": "address",
          "name": "",
          "type": "address"
        }
      ],
      "stateMutability": "view",
      "type": "function"
    },
    {
      "inputs": [
        {
          "internalType": "address",
          "name": "from",
          "type": "address"
        },
        {
          "internalType": "address",
          "name": "to",
          "type": "address"
        },
        {
          "internalType": "uint256",
          "name": "tokenId",
          "type": "uint256"
        }
      ],
      "name": "safeTransferFrom",
      "outputs": [],
      "stateMutability": "nonpayable",
      "type": "function"
    },
    {
      "inputs": [
        {
          "internalType": "address",
          "name": "from",
          "type": "address"
        },
        {
          "internalType": "address",
          "name": "to",
          "type": "address"
        },
        {
          "internalType": "uint256",
          "name": "tokenId",
          "type": "uint256"
        },
        {
          "internalType": "bytes",
          "name": "_data",
          "type": "bytes"
        }
      ],
      "name": "safeTransferFrom",
      "outputs": [],
      "stateMutability": "nonpayable",
      "type": "function"
    },
    {
      "inputs": [
        {
          "internalType": "address",
          "name": "operator",
          "type": "address"
        },
        {
          "internalType": "bool",
          "name": "approved",
          "type": "bool"
        }
      ],
      "name": "setApprovalForAll",
      "outputs": [],
      "stateMutability": "nonpayable",
      "type": "function"
    },
    {
      "inputs": [
        {
          "internalType": "address",
          "name": "_blockdemy",
          "type": "address"
        }
      ],
      "name": "setBlockDemy",
      "outputs": [],
      "stateMutability": "nonpayable",
      "type": "function"
    },
    {
      "inputs": [
        {
          "internalType": "uint256",
          "name": "tokenId",
          "type": "uint256"
        },
        {
          "internalType": "uint256",
          "name": "amount",
          "type": "uint256"
        },
        {
          "internalType": "bool",
          "name": "sale",
          "type": "bool"
        }
      ],
      "name": "setOnSale",
      "outputs": [],
      "stateMutability": "nonpayable",
      "type": "function"
    },
    {
      "inputs": [
        {
          "internalType": "bytes4",
          "name": "interfaceId",
          "type": "bytes4"
        }
      ],
      "name": "supportsInterface",
      "outputs": [
        {
          "internalType": "bool",
          "name": "",
          "type": "bool"
        }
      ],
      "stateMutability": "view",
      "type": "function"
    },
    {
      "inputs": [],
      "name": "symbol",
      "outputs": [
        {
          "internalType": "string",
          "name": "",
          "type": "string"
        }
      ],
      "stateMutability": "view",
      "type": "function"
    },
    {
      "inputs": [
        {
          "internalType": "uint256",
          "name": "tokenId",
          "type": "uint256"
        }
      ],
      "name": "tokenURI",
      "outputs": [
        {
          "internalType": "string",
          "name": "",
          "type": "string"
        }
      ],
      "stateMutability": "view",
      "type": "function"
    },
    {
      "inputs": [
        {
          "internalType": "uint256",
          "name": "tokenId",
          "type": "uint256"
        },
        {
          "internalType": "address",
          "name": "_to",
          "type": "address"
        }
      ],
      "name": "transferCourse",
      "outputs": [],
      "stateMutability": "nonpayable",
      "type": "function"
    },
    {
      "inputs": [
        {
          "internalType": "address",
          "name": "from",
          "type": "address"
        },
        {
          "internalType": "address",
          "name": "to",
          "type": "address"
        },
        {
          "internalType": "uint256",
          "name": "tokenId",
          "type": "uint256"
        }
      ],
      "name": "transferFrom",
      "outputs": [],
      "stateMutability": "nonpayable",
      "type": "function"
    }
  ],
  "bytecode": "0x60806040523480156200001157600080fd5b506040518060400160405280600c81526020017f4244454d5920436f7572736500000000000000000000000000000000000000008152506040518060400160405280600681526020017f4244454d59430000000000000000000000000000000000000000000000000000815250816000908051906020019062000096929190620000f9565b508060019080519060200190620000af929190620000f9565b50505033601260006101000a81548173ffffffffffffffffffffffffffffffffffffffff021916908373ffffffffffffffffffffffffffffffffffffffff1602179055506200020e565b8280546200010790620001a9565b90600052602060002090601f0160209004810192826200012b576000855562000177565b82601f106200014657805160ff191683800117855562000177565b8280016001018555821562000177579182015b828111156200017657825182559160200191906001019062000159565b5b5090506200018691906200018a565b5090565b5b80821115620001a55760008160009055506001016200018b565b5090565b60006002820490506001821680620001c257607f821691505b60208210811415620001d957620001d8620001df565b5b50919050565b7f4e487b7100000000000000000000000000000000000000000000000000000000600052602260045260246000fd5b615d8f806200021e6000396000f3fe608060405234801561001057600080fd5b50600436106101cf5760003560e01c80637e2dcf6e11610104578063adf4cdc0116100a2578063d48e638a11610071578063d48e638a14610574578063e985e9c5146105a4578063ea5b210f146105d4578063ef24d69514610604576101cf565b8063adf4cdc0146104f0578063b88d4fde1461050c578063c87b56dd14610528578063caa60a5d14610558576101cf565b8063a39946a6116100de578063a39946a614610458578063a4ac440c14610488578063a93a19e3146104a4578063abe07be0146104d4576101cf565b80637e2dcf6e146103ee57806395d89b411461041e578063a22cb4651461043c576101cf565b80633a09bad31161017157806347b99a211161014b57806347b99a21146103425780636352211e1461035e57806364bb499c1461038e57806370a08231146103be576101cf565b80633a09bad3146102c65780634258b605146102f657806342842e0e14610326576101cf565b8063081812fc116101ad578063081812fc14610240578063095ea7b31461027057806323b872dd1461028c5780632cc59076146102a8576101cf565b806301ffc9a7146101d457806304e48bd11461020457806306fdde0314610222575b600080fd5b6101ee60048036038101906101e99190614436565b610620565b6040516101fb919061549b565b60405180910390f35b61020c610702565b604051610219919061542e565b60405180910390f35b61022a610b40565b60405161023791906154b6565b60405180910390f35b61025a60048036038101906102559190614559565b610bd2565b6040516102679190615390565b60405180910390f35b61028a60048036038101906102859190614352565b610c57565b005b6102a660048036038101906102a1919061417b565b610d6f565b005b6102b0610dcf565b6040516102bd919061542e565b60405180910390f35b6102e060048036038101906102db919061438e565b611349565b6040516102ed919061580a565b60405180910390f35b610310600480360381019061030b9190614559565b6114a1565b60405161031d9190615450565b60405180910390f35b610340600480360381019061033b919061417b565b6117ad565b005b61035c60048036038101906103579190614666565b6117cd565b005b61037860048036038101906103739190614559565b611d06565b6040516103859190615390565b60405180910390f35b6103a860048036038101906103a39190614559565b611db8565b6040516103b5919061580a565b60405180910390f35b6103d860048036038101906103d39190614116565b611e08565b6040516103e5919061580a565b60405180910390f35b61040860048036038101906104039190614559565b611ec0565b604051610415919061580a565b60405180910390f35b610426611ee6565b60405161043391906154b6565b60405180910390f35b61045660048036038101906104519190614245565b611f78565b005b610472600480360381019061046d9190614488565b6120f9565b60405161047f919061580a565b60405180910390f35b6104a2600480360381019061049d9190614116565b6122c6565b005b6104be60048036038101906104b99190614281565b612312565b6040516104cb919061580a565b60405180910390f35b6104ee60048036038101906104e991906145e7565b612621565b005b61050a600480360381019061050591906146f6565b612772565b005b610526600480360381019061052191906141ca565b6127ed565b005b610542600480360381019061053d9190614559565b61284f565b60405161054f91906154b6565b60405180910390f35b610572600480360381019061056d91906146ba565b6128f6565b005b61058e60048036038101906105899190614559565b61294f565b60405161059b9190615390565b60405180910390f35b6105be60048036038101906105b9919061413f565b612995565b6040516105cb919061549b565b60405180910390f35b6105ee60048036038101906105e99190614559565b612a29565b6040516105fb91906157e8565b60405180910390f35b61061e600480360381019061061991906145ab565b612db2565b005b60007f80ac58cd000000000000000000000000000000000000000000000000000000007bffffffffffffffffffffffffffffffffffffffffffffffffffffffff1916827bffffffffffffffffffffffffffffffffffffffffffffffffffffffff191614806106eb57507f5b5e139f000000000000000000000000000000000000000000000000000000007bffffffffffffffffffffffffffffffffffffffffffffffffffffffff1916827bffffffffffffffffffffffffffffffffffffffffffffffffffffffff1916145b806106fb57506106fa82612f11565b5b9050919050565b606060006107106006612f7b565b67ffffffffffffffff81111561074f577f4e487b7100000000000000000000000000000000000000000000000000000000600052604160045260246000fd5b60405190808252806020026020018201604052801561078857816020015b610775613d23565b81526020019060019003908161076d5790505b509050600080600190505b600161079f6006612f7b565b6107a991906159b9565b811015610b375760006040518061014001604052808381526020016107cd84611d06565b73ffffffffffffffffffffffffffffffffffffffff168152602001600d600085815260200190815260200160002060009054906101000a900473ffffffffffffffffffffffffffffffffffffffff1673ffffffffffffffffffffffffffffffffffffffff16815260200160086000858152602001908152602001600020548152602001600b6000858152602001908152602001600020805461086e90615b84565b80601f016020809104026020016040519081016040528092919081815260200182805461089a90615b84565b80156108e75780601f106108bc576101008083540402835291602001916108e7565b820191906000526020600020905b8154815290600101906020018083116108ca57829003601f168201915b50505050508152602001600c6000858152602001908152602001600020805461090f90615b84565b80601f016020809104026020016040519081016040528092919081815260200182805461093b90615b84565b80156109885780601f1061095d57610100808354040283529160200191610988565b820191906000526020600020905b81548152906001019060200180831161096b57829003601f168201915b50505050508152602001600760008581526020019081526020016000206000815481106109de577f4e487b7100000000000000000000000000000000000000000000000000000000600052603260045260246000fd5b9060005260206000200180546109f390615b84565b80601f0160208091040260200160405190810160405280929190818152602001828054610a1f90615b84565b8015610a6c5780601f10610a4157610100808354040283529160200191610a6c565b820191906000526020600020905b815481529060010190602001808311610a4f57829003601f168201915b50505050508152602001600a600085815260200190815260200160002060009054906101000a900460ff1615158152602001600f60008581526020019081526020016000205481526020016009600085815260200190815260200160002054815250905080848481518110610b0a577f4e487b7100000000000000000000000000000000000000000000000000000000600052603260045260246000fd5b60200260200101819052508280610b2090615bb6565b935050508080610b2f90615bb6565b915050610793565b50819250505090565b606060008054610b4f90615b84565b80601f0160208091040260200160405190810160405280929190818152602001828054610b7b90615b84565b8015610bc85780601f10610b9d57610100808354040283529160200191610bc8565b820191906000526020600020905b815481529060010190602001808311610bab57829003601f168201915b5050505050905090565b6000610bdd82612f89565b610c1c576040517f08c379a0000000000000000000000000000000000000000000000000000000008152600401610c1390615728565b60405180910390fd5b6004600083815260200190815260200160002060009054906101000a900473ffffffffffffffffffffffffffffffffffffffff169050919050565b6000610c6282611d06565b90508073ffffffffffffffffffffffffffffffffffffffff168373ffffffffffffffffffffffffffffffffffffffff161415610cd3576040517f08c379a0000000000000000000000000000000000000000000000000000000008152600401610cca90615788565b60405180910390fd5b8073ffffffffffffffffffffffffffffffffffffffff16610cf2612ff5565b73ffffffffffffffffffffffffffffffffffffffff161480610d215750610d2081610d1b612ff5565b612995565b5b610d60576040517f08c379a0000000000000000000000000000000000000000000000000000000008152600401610d5790615668565b60405180910390fd5b610d6a8383612ffd565b505050565b610d80610d7a612ff5565b826130b6565b610dbf576040517f08c379a0000000000000000000000000000000000000000000000000000000008152600401610db6906157c8565b60405180910390fd5b610dca838383613194565b505050565b60606000600e60003373ffffffffffffffffffffffffffffffffffffffff1673ffffffffffffffffffffffffffffffffffffffff16815260200190815260200160002080549050905060008167ffffffffffffffff811115610e5a577f4e487b7100000000000000000000000000000000000000000000000000000000600052604160045260246000fd5b604051908082528060200260200182016040528015610e9357816020015b610e80613d23565b815260200190600190039081610e785790505b5090506000805b838110156112b0576000600e60003373ffffffffffffffffffffffffffffffffffffffff1673ffffffffffffffffffffffffffffffffffffffff1681526020019081526020016000208281548110610f1b577f4e487b7100000000000000000000000000000000000000000000000000000000600052603260045260246000fd5b906000526020600020015490506000604051806101400160405280838152602001610f4584611d06565b73ffffffffffffffffffffffffffffffffffffffff168152602001600d600085815260200190815260200160002060009054906101000a900473ffffffffffffffffffffffffffffffffffffffff1673ffffffffffffffffffffffffffffffffffffffff16815260200160086000858152602001908152602001600020548152602001600b60008581526020019081526020016000208054610fe690615b84565b80601f016020809104026020016040519081016040528092919081815260200182805461101290615b84565b801561105f5780601f106110345761010080835404028352916020019161105f565b820191906000526020600020905b81548152906001019060200180831161104257829003601f168201915b50505050508152602001600c6000858152602001908152602001600020805461108790615b84565b80601f01602080910402602001604051908101604052809291908181526020018280546110b390615b84565b80156111005780601f106110d557610100808354040283529160200191611100565b820191906000526020600020905b8154815290600101906020018083116110e357829003601f168201915b5050505050815260200160076000858152602001908152602001600020600081548110611156577f4e487b7100000000000000000000000000000000000000000000000000000000600052603260045260246000fd5b90600052602060002001805461116b90615b84565b80601f016020809104026020016040519081016040528092919081815260200182805461119790615b84565b80156111e45780601f106111b9576101008083540402835291602001916111e4565b820191906000526020600020905b8154815290600101906020018083116111c757829003601f168201915b50505050508152602001600a600085815260200190815260200160002060009054906101000a900460ff1615158152602001600f60008581526020019081526020016000205481526020016009600085815260200190815260200160002054815250905080858481518110611282577f4e487b7100000000000000000000000000000000000000000000000000000000600052603260045260246000fd5b6020026020010181905250838061129890615bb6565b945050505080806112a890615bb6565b915050610e9a565b50600081141561133f57600067ffffffffffffffff8111156112fb577f4e487b7100000000000000000000000000000000000000000000000000000000600052604160045260246000fd5b60405190808252806020026020018201604052801561133457816020015b611321613d23565b8152602001906001900390816113195790505b509350505050611346565b8193505050505b90565b6000611354826133f0565b61135d8261343b565b60005b845181101561149657600760008481526020019081526020016000208582815181106113b5577f4e487b7100000000000000000000000000000000000000000000000000000000600052603260045260246000fd5b60200260200101519080600181540180825580915050600190039060005260206000200160009091909190915090805190602001906113f5929190613da4565b5060106000848152602001908152602001600020848281518110611442577f4e487b7100000000000000000000000000000000000000000000000000000000600052603260045260246000fd5b6020026020010151908060018154018082558091505060019003906000526020600020016000909190919091509080519060200190611482929190613da4565b50808061148e90615bb6565b915050611360565b508190509392505050565b60606114ac826134b4565b6000600760008481526020019081526020016000208054905067ffffffffffffffff811115611504577f4e487b7100000000000000000000000000000000000000000000000000000000600052604160045260246000fd5b60405190808252806020026020018201604052801561153d57816020015b61152a613e2a565b8152602001906001900390816115225790505b5090506000805b60076000868152602001908152602001600020805490508110156117a257600060405180606001604052808781526020016007600089815260200190815260200160002084815481106115c0577f4e487b7100000000000000000000000000000000000000000000000000000000600052603260045260246000fd5b9060005260206000200180546115d590615b84565b80601f016020809104026020016040519081016040528092919081815260200182805461160190615b84565b801561164e5780601f106116235761010080835404028352916020019161164e565b820191906000526020600020905b81548152906001019060200180831161163157829003601f168201915b505050505081526020016010600089815260200190815260200160002084815481106116a3577f4e487b7100000000000000000000000000000000000000000000000000000000600052603260045260246000fd5b9060005260206000200180546116b890615b84565b80601f01602080910402602001604051908101604052809291908181526020018280546116e490615b84565b80156117315780601f1061170657610100808354040283529160200191611731565b820191906000526020600020905b81548152906001019060200180831161171457829003601f168201915b5050505050815250905080848481518110611775577f4e487b7100000000000000000000000000000000000000000000000000000000600052603260045260246000fd5b6020026020010181905250828061178b90615bb6565b93505050808061179a90615bb6565b915050611544565b508192505050919050565b6117c8838383604051806020016040528060008152506127ed565b505050565b6117d6826133f0565b6117df8261343b565b600073__$e51754fec1acf7b61c62791c58f3750305$__63e4d2ada083600760008781526020019081526020016000206040518363ffffffff1660e01b815260040161182c9291906154d8565b60206040518083038186803b15801561184457600080fd5b505af4158015611858573d6000803e3d6000fd5b505050506040513d601f19601f8201168201806040525081019061187c9190614582565b9050600060076000858152602001908152602001600020805480602002602001604051908101604052809291908181526020016000905b8282101561195f5783829060005260206000200180546118d290615b84565b80601f01602080910402602001604051908101604052809291908181526020018280546118fe90615b84565b801561194b5780601f106119205761010080835404028352916020019161194b565b820191906000526020600020905b81548152906001019060200180831161192e57829003601f168201915b5050505050815260200190600101906118b3565b505050509050600060106000868152602001908152602001600020805480602002602001604051908101604052809291908181526020016000905b82821015611a465783829060005260206000200180546119b990615b84565b80601f01602080910402602001604051908101604052809291908181526020018280546119e590615b84565b8015611a325780601f10611a0757610100808354040283529160200191611a32565b820191906000526020600020905b815481529060010190602001808311611a1557829003601f168201915b50505050508152602001906001019061199a565b5050505090506001825111611a90576040517f08c379a0000000000000000000000000000000000000000000000000000000008152600401611a87906156e8565b60405180910390fd5b60008390505b60018351611aa49190615a9a565b811015611be05782600182611ab991906159b9565b81518110611af0577f4e487b7100000000000000000000000000000000000000000000000000000000600052603260045260246000fd5b6020026020010151838281518110611b31577f4e487b7100000000000000000000000000000000000000000000000000000000600052603260045260246000fd5b602002602001018190525081600182611b4a91906159b9565b81518110611b81577f4e487b7100000000000000000000000000000000000000000000000000000000600052603260045260246000fd5b6020026020010151828281518110611bc2577f4e487b7100000000000000000000000000000000000000000000000000000000600052603260045260246000fd5b60200260200101819052508080611bd890615bb6565b915050611a96565b5081600760008781526020019081526020016000209080519060200190611c08929190613e4b565b5080601060008781526020019081526020016000209080519060200190611c30929190613e4b565b5060076000868152602001908152602001600020805480611c7a577f4e487b7100000000000000000000000000000000000000000000000000000000600052603160045260246000fd5b600190038181906000526020600020016000611c969190613eab565b905560106000868152602001908152602001600020805480611ce1577f4e487b7100000000000000000000000000000000000000000000000000000000600052603160045260246000fd5b600190038181906000526020600020016000611cfd9190613eab565b90555050505050565b6000806002600084815260200190815260200160002060009054906101000a900473ffffffffffffffffffffffffffffffffffffffff169050600073ffffffffffffffffffffffffffffffffffffffff168173ffffffffffffffffffffffffffffffffffffffff161415611daf576040517f08c379a0000000000000000000000000000000000000000000000000000000008152600401611da6906156a8565b60405180910390fd5b80915050919050565b6000611dc3826133f0565b606460096000848152602001908152602001600020546008600085815260200190815260200160002054611df79190615a40565b611e019190615a0f565b9050919050565b60008073ffffffffffffffffffffffffffffffffffffffff168273ffffffffffffffffffffffffffffffffffffffff161415611e79576040517f08c379a0000000000000000000000000000000000000000000000000000000008152600401611e7090615688565b60405180910390fd5b600360008373ffffffffffffffffffffffffffffffffffffffff1673ffffffffffffffffffffffffffffffffffffffff168152602001908152602001600020549050919050565b6000611ecb826133f0565b60086000838152602001908152602001600020549050919050565b606060018054611ef590615b84565b80601f0160208091040260200160405190810160405280929190818152602001828054611f2190615b84565b8015611f6e5780601f10611f4357610100808354040283529160200191611f6e565b820191906000526020600020905b815481529060010190602001808311611f5157829003601f168201915b5050505050905090565b611f80612ff5565b73ffffffffffffffffffffffffffffffffffffffff168273ffffffffffffffffffffffffffffffffffffffff161415611fee576040517f08c379a0000000000000000000000000000000000000000000000000000000008152600401611fe5906155e8565b60405180910390fd5b8060056000611ffb612ff5565b73ffffffffffffffffffffffffffffffffffffffff1673ffffffffffffffffffffffffffffffffffffffff16815260200190815260200160002060008473ffffffffffffffffffffffffffffffffffffffff1673ffffffffffffffffffffffffffffffffffffffff16815260200190815260200160002060006101000a81548160ff0219169083151502179055508173ffffffffffffffffffffffffffffffffffffffff166120a8612ff5565b73ffffffffffffffffffffffffffffffffffffffff167f17307eab39ab6107e8899845ad3d59bd9653f200f220920489ca2b5937696c31836040516120ed919061549b565b60405180910390a35050565b6000612104826133f0565b61210d8261343b565b6000851161211a57600080fd5b6000845111156121d1578360008151811061215e577f4e487b7100000000000000000000000000000000000000000000000000000000600052603260045260246000fd5b6020026020010151600760008481526020019081526020016000206000815481106121b2577f4e487b7100000000000000000000000000000000000000000000000000000000600052603260045260246000fd5b9060005260206000200190805190602001906121cf929190613da4565b505b84600860008481526020019081526020016000208190555086600b60008481526020019081526020016000209080519060200190612210929190613da4565b5085600c60008481526020019081526020016000209080519060200190612238929190613da4565b50600d600083815260200190815260200160002060009054906101000a900473ffffffffffffffffffffffffffffffffffffffff1673ffffffffffffffffffffffffffffffffffffffff163373ffffffffffffffffffffffffffffffffffffffff1614156122b9578260096000848152602001908152602001600020819055505b8190509695505050505050565b6122ce6135bd565b80601160006101000a81548173ffffffffffffffffffffffffffffffffffffffff021916908373ffffffffffffffffffffffffffffffffffffffff16021790555050565b6000808311612356576040517f08c379a000000000000000000000000000000000000000000000000000000000815260040161234d90615508565b60405180910390fd5b6000821180156123665750605a82105b6123a5576040517f08c379a000000000000000000000000000000000000000000000000000000000815260040161239c90615628565b60405180910390fd5b6123af600661364f565b60006123bb6006612f7b565b90506123c78882613665565b83600860008381526020019081526020016000208190555084600760008381526020019081526020016000209080519060200190612406929190613e4b565b506000600a600083815260200190815260200160002060006101000a81548160ff02191690831515021790555086600b6000838152602001908152602001600020908051906020019061245a929190613da4565b5085600c60008381526020019081526020016000209080519060200190612482929190613da4565b5033600d600083815260200190815260200160002060006101000a81548173ffffffffffffffffffffffffffffffffffffffff021916908373ffffffffffffffffffffffffffffffffffffffff1602179055508260096000838152602001908152602001600020819055506010600082815260200190815260200160002080600181540180825580915050600190039060005260206000200160006040518060400160405280600781526020017f70726576696577000000000000000000000000000000000000000000000000008152509091909150908051906020019061256b929190613da4565b5073__$e51754fec1acf7b61c62791c58f3750305$__6395643661600e60003373ffffffffffffffffffffffffffffffffffffffff1673ffffffffffffffffffffffffffffffffffffffff168152602001908152602001600020836040518363ffffffff1660e01b81526004016125e3929190615472565b60006040518083038186803b1580156125fb57600080fd5b505af415801561260f573d6000803e3d6000fd5b50505050809150509695505050505050565b61262a836133f0565b6126338361343b565b60005b825181101561276c576007600085815260200190815260200160002083828151811061268b577f4e487b7100000000000000000000000000000000000000000000000000000000600052603260045260246000fd5b60200260200101519080600181540180825580915050600190039060005260206000200160009091909190915090805190602001906126cb929190613da4565b5060106000858152602001908152602001600020828281518110612718577f4e487b7100000000000000000000000000000000000000000000000000000000600052603260045260246000fd5b6020026020010151908060018154018082558091505060019003906000526020600020016000909190919091509080519060200190612758929190613da4565b50808061276490615bb6565b915050612636565b50505050565b61277b836133f0565b6127848361343b565b80600a600085815260200190815260200160002060006101000a81548160ff02191690831515021790555080156127dc578160086000858152602001908152602001600020819055506127d73084610c57565b6127e8565b6127e7600084610c57565b5b505050565b6127fe6127f8612ff5565b836130b6565b61283d576040517f08c379a0000000000000000000000000000000000000000000000000000000008152600401612834906157c8565b60405180910390fd5b61284984848484613683565b50505050565b606061285a82612f89565b612899576040517f08c379a000000000000000000000000000000000000000000000000000000000815260040161289090615768565b60405180910390fd5b60006128a36136df565b905060008151116128c357604051806020016040528060008152506128ee565b806128cd846136f6565b6040516020016128de92919061536c565b6040516020818303038152906040525b915050919050565b6128ff826133f0565b6129076138a3565b612922670de0b6b3a76400008261393590919063ffffffff16565b600f6000848152602001908152602001600020600082825461294491906159b9565b925050819055505050565b600061295a826133f0565b600d600083815260200190815260200160002060009054906101000a900473ffffffffffffffffffffffffffffffffffffffff169050919050565b6000600560008473ffffffffffffffffffffffffffffffffffffffff1673ffffffffffffffffffffffffffffffffffffffff16815260200190815260200160002060008373ffffffffffffffffffffffffffffffffffffffff1673ffffffffffffffffffffffffffffffffffffffff16815260200190815260200160002060009054906101000a900460ff16905092915050565b612a31613d23565b600082118015612a4a5750612a466006612f7b565b8211155b612a89576040517f08c379a0000000000000000000000000000000000000000000000000000000008152600401612a8090615568565b60405180910390fd5b6000604051806101400160405280848152602001612aa685611d06565b73ffffffffffffffffffffffffffffffffffffffff168152602001600d600086815260200190815260200160002060009054906101000a900473ffffffffffffffffffffffffffffffffffffffff1673ffffffffffffffffffffffffffffffffffffffff16815260200160086000868152602001908152602001600020548152602001600b60008681526020019081526020016000208054612b4790615b84565b80601f0160208091040260200160405190810160405280929190818152602001828054612b7390615b84565b8015612bc05780601f10612b9557610100808354040283529160200191612bc0565b820191906000526020600020905b815481529060010190602001808311612ba357829003601f168201915b50505050508152602001600c60008681526020019081526020016000208054612be890615b84565b80601f0160208091040260200160405190810160405280929190818152602001828054612c1490615b84565b8015612c615780601f10612c3657610100808354040283529160200191612c61565b820191906000526020600020905b815481529060010190602001808311612c4457829003601f168201915b5050505050815260200160076000868152602001908152602001600020600081548110612cb7577f4e487b7100000000000000000000000000000000000000000000000000000000600052603260045260246000fd5b906000526020600020018054612ccc90615b84565b80601f0160208091040260200160405190810160405280929190818152602001828054612cf890615b84565b8015612d455780601f10612d1a57610100808354040283529160200191612d45565b820191906000526020600020905b815481529060010190602001808311612d2857829003601f168201915b50505050508152602001600a600086815260200190815260200160002060009054906101000a900460ff1615158152602001600f60008681526020019081526020016000205481526020016009600086815260200190815260200160002054815250905080915050919050565b612dbb826133f0565b612dc36138a3565b3073ffffffffffffffffffffffffffffffffffffffff166323b872dd612de884611d06565b83856040518463ffffffff1660e01b8152600401612e08939291906153ab565b600060405180830381600087803b158015612e2257600080fd5b505af1158015612e36573d6000803e3d6000fd5b5050505073__$e51754fec1acf7b61c62791c58f3750305$__6395643661600e60008473ffffffffffffffffffffffffffffffffffffffff1673ffffffffffffffffffffffffffffffffffffffff168152602001908152602001600020846040518363ffffffff1660e01b8152600401612eb1929190615472565b60006040518083038186803b158015612ec957600080fd5b505af4158015612edd573d6000803e3d6000fd5b505050506000600a600084815260200190815260200160002060006101000a81548160ff0219169083151502179055505050565b60007f01ffc9a7000000000000000000000000000000000000000000000000000000007bffffffffffffffffffffffffffffffffffffffffffffffffffffffff1916827bffffffffffffffffffffffffffffffffffffffffffffffffffffffff1916149050919050565b600081600001549050919050565b60008073ffffffffffffffffffffffffffffffffffffffff166002600084815260200190815260200160002060009054906101000a900473ffffffffffffffffffffffffffffffffffffffff1673ffffffffffffffffffffffffffffffffffffffff1614159050919050565b600033905090565b816004600083815260200190815260200160002060006101000a81548173ffffffffffffffffffffffffffffffffffffffff021916908373ffffffffffffffffffffffffffffffffffffffff160217905550808273ffffffffffffffffffffffffffffffffffffffff1661307083611d06565b73ffffffffffffffffffffffffffffffffffffffff167f8c5be1e5ebec7d5bd14f71427d1e84f3dd0314c0f7b2291e5b200ac8c7c3b92560405160405180910390a45050565b60006130c182612f89565b613100576040517f08c379a00000000000000000000000000000000000000000000000000000000081526004016130f790615648565b60405180910390fd5b600061310b83611d06565b90508073ffffffffffffffffffffffffffffffffffffffff168473ffffffffffffffffffffffffffffffffffffffff16148061317a57508373ffffffffffffffffffffffffffffffffffffffff1661316284610bd2565b73ffffffffffffffffffffffffffffffffffffffff16145b8061318b575061318a8185612995565b5b91505092915050565b8273ffffffffffffffffffffffffffffffffffffffff166131b482611d06565b73ffffffffffffffffffffffffffffffffffffffff161461320a576040517f08c379a000000000000000000000000000000000000000000000000000000000815260040161320190615748565b60405180910390fd5b600073ffffffffffffffffffffffffffffffffffffffff168273ffffffffffffffffffffffffffffffffffffffff16141561327a576040517f08c379a0000000000000000000000000000000000000000000000000000000008152600401613271906155c8565b60405180910390fd5b61328583838361394b565b613290600082612ffd565b6001600360008573ffffffffffffffffffffffffffffffffffffffff1673ffffffffffffffffffffffffffffffffffffffff16815260200190815260200160002060008282546132e09190615a9a565b925050819055506001600360008473ffffffffffffffffffffffffffffffffffffffff1673ffffffffffffffffffffffffffffffffffffffff168152602001908152602001600020600082825461333791906159b9565b92505081905550816002600083815260200190815260200160002060006101000a81548173ffffffffffffffffffffffffffffffffffffffff021916908373ffffffffffffffffffffffffffffffffffffffff160217905550808273ffffffffffffffffffffffffffffffffffffffff168473ffffffffffffffffffffffffffffffffffffffff167fddf252ad1be2c89b69c2b068fc378daa952ba7f163c4a11628f55a4df523b3ef60405160405180910390a4505050565b6133f981612f89565b613438576040517f08c379a000000000000000000000000000000000000000000000000000000000815260040161342f90615608565b60405180910390fd5b50565b3373ffffffffffffffffffffffffffffffffffffffff1661345b82611d06565b73ffffffffffffffffffffffffffffffffffffffff16146134b1576040517f08c379a00000000000000000000000000000000000000000000000000000000081526004016134a890615528565b60405180910390fd5b50565b73__$e51754fec1acf7b61c62791c58f3750305$__6309b84dfb600e60003373ffffffffffffffffffffffffffffffffffffffff1673ffffffffffffffffffffffffffffffffffffffff168152602001908152602001600020836040518363ffffffff1660e01b815260040161352b929190615472565b60206040518083038186803b15801561354357600080fd5b505af4158015613557573d6000803e3d6000fd5b505050506040513d601f19601f8201168201806040525081019061357b919061440d565b6135ba576040517f08c379a00000000000000000000000000000000000000000000000000000000081526004016135b1906157a8565b60405180910390fd5b50565b3373ffffffffffffffffffffffffffffffffffffffff16601260009054906101000a900473ffffffffffffffffffffffffffffffffffffffff1673ffffffffffffffffffffffffffffffffffffffff161461364d576040517f08c379a0000000000000000000000000000000000000000000000000000000008152600401613644906155a8565b60405180910390fd5b565b6001816000016000828254019250508190555050565b61367f828260405180602001604052806000815250613950565b5050565b61368e848484613194565b61369a848484846139ab565b6136d9576040517f08c379a00000000000000000000000000000000000000000000000000000000081526004016136d090615548565b60405180910390fd5b50505050565b606060405180602001604052806000815250905090565b6060600082141561373e576040518060400160405280600181526020017f3000000000000000000000000000000000000000000000000000000000000000815250905061389e565b600082905060005b6000821461377057808061375990615bb6565b915050600a826137699190615a0f565b9150613746565b60008167ffffffffffffffff8111156137b2577f4e487b7100000000000000000000000000000000000000000000000000000000600052604160045260246000fd5b6040519080825280601f01601f1916602001820160405280156137e45781602001600182028036833780820191505090505b5090505b60008514613897576001826137fd9190615a9a565b9150600a8561380c9190615bff565b603061381891906159b9565b60f81b818381518110613854577f4e487b7100000000000000000000000000000000000000000000000000000000600052603260045260246000fd5b60200101907effffffffffffffffffffffffffffffffffffffffffffffffffffffffffffff1916908160001a905350600a856138909190615a0f565b94506137e8565b8093505050505b919050565b3373ffffffffffffffffffffffffffffffffffffffff16601160009054906101000a900473ffffffffffffffffffffffffffffffffffffffff1673ffffffffffffffffffffffffffffffffffffffff1614613933576040517f08c379a000000000000000000000000000000000000000000000000000000000815260040161392a906156c8565b60405180910390fd5b565b600081836139439190615a0f565b905092915050565b505050565b61395a8383613b42565b61396760008484846139ab565b6139a6576040517f08c379a000000000000000000000000000000000000000000000000000000000815260040161399d90615548565b60405180910390fd5b505050565b60006139cc8473ffffffffffffffffffffffffffffffffffffffff16613d10565b15613b35578373ffffffffffffffffffffffffffffffffffffffff1663150b7a026139f5612ff5565b8786866040518563ffffffff1660e01b8152600401613a1794939291906153e2565b602060405180830381600087803b158015613a3157600080fd5b505af1925050508015613a6257506040513d601f19601f82011682018060405250810190613a5f919061445f565b60015b613ae5573d8060008114613a92576040519150601f19603f3d011682016040523d82523d6000602084013e613a97565b606091505b50600081511415613add576040517f08c379a0000000000000000000000000000000000000000000000000000000008152600401613ad490615548565b60405180910390fd5b805181602001fd5b63150b7a0260e01b7bffffffffffffffffffffffffffffffffffffffffffffffffffffffff1916817bffffffffffffffffffffffffffffffffffffffffffffffffffffffff191614915050613b3a565b600190505b949350505050565b600073ffffffffffffffffffffffffffffffffffffffff168273ffffffffffffffffffffffffffffffffffffffff161415613bb2576040517f08c379a0000000000000000000000000000000000000000000000000000000008152600401613ba990615708565b60405180910390fd5b613bbb81612f89565b15613bfb576040517f08c379a0000000000000000000000000000000000000000000000000000000008152600401613bf290615588565b60405180910390fd5b613c076000838361394b565b6001600360008473ffffffffffffffffffffffffffffffffffffffff1673ffffffffffffffffffffffffffffffffffffffff1681526020019081526020016000206000828254613c5791906159b9565b92505081905550816002600083815260200190815260200160002060006101000a81548173ffffffffffffffffffffffffffffffffffffffff021916908373ffffffffffffffffffffffffffffffffffffffff160217905550808273ffffffffffffffffffffffffffffffffffffffff16600073ffffffffffffffffffffffffffffffffffffffff167fddf252ad1be2c89b69c2b068fc378daa952ba7f163c4a11628f55a4df523b3ef60405160405180910390a45050565b600080823b905060008111915050919050565b60405180610140016040528060008152602001600073ffffffffffffffffffffffffffffffffffffffff168152602001600073ffffffffffffffffffffffffffffffffffffffff1681526020016000815260200160608152602001606081526020016060815260200160001515815260200160008152602001600081525090565b828054613db090615b84565b90600052602060002090601f016020900481019282613dd25760008555613e19565b82601f10613deb57805160ff1916838001178555613e19565b82800160010185558215613e19579182015b82811115613e18578251825591602001919060010190613dfd565b5b509050613e269190613eeb565b5090565b60405180606001604052806000815260200160608152602001606081525090565b828054828255906000526020600020908101928215613e9a579160200282015b82811115613e99578251829080519060200190613e89929190613da4565b5091602001919060010190613e6b565b5b509050613ea79190613f08565b5090565b508054613eb790615b84565b6000825580601f10613ec95750613ee8565b601f016020900490600052602060002090810190613ee79190613eeb565b5b50565b5b80821115613f04576000816000905550600101613eec565b5090565b5b80821115613f285760008181613f1f9190613eab565b50600101613f09565b5090565b6000613f3f613f3a84615856565b615825565b9050808382526020820190508260005b85811015613f7f5781358501613f6588826140c2565b845260208401935060208301925050600181019050613f4f565b5050509392505050565b6000613f9c613f9784615882565b615825565b905082815260208101848484011115613fb457600080fd5b613fbf848285615b42565b509392505050565b6000613fda613fd5846158b2565b615825565b905082815260208101848484011115613ff257600080fd5b613ffd848285615b42565b509392505050565b60008135905061401481615cfd565b92915050565b600082601f83011261402b57600080fd5b813561403b848260208601613f2c565b91505092915050565b60008135905061405381615d14565b92915050565b60008151905061406881615d14565b92915050565b60008135905061407d81615d2b565b92915050565b60008151905061409281615d2b565b92915050565b600082601f8301126140a957600080fd5b81356140b9848260208601613f89565b91505092915050565b600082601f8301126140d357600080fd5b81356140e3848260208601613fc7565b91505092915050565b6000813590506140fb81615d42565b92915050565b60008151905061411081615d42565b92915050565b60006020828403121561412857600080fd5b600061413684828501614005565b91505092915050565b6000806040838503121561415257600080fd5b600061416085828601614005565b925050602061417185828601614005565b9150509250929050565b60008060006060848603121561419057600080fd5b600061419e86828701614005565b93505060206141af86828701614005565b92505060406141c0868287016140ec565b9150509250925092565b600080600080608085870312156141e057600080fd5b60006141ee87828801614005565b94505060206141ff87828801614005565b9350506040614210878288016140ec565b925050606085013567ffffffffffffffff81111561422d57600080fd5b61423987828801614098565b91505092959194509250565b6000806040838503121561425857600080fd5b600061426685828601614005565b925050602061427785828601614044565b9150509250929050565b60008060008060008060c0878903121561429a57600080fd5b60006142a889828a01614005565b965050602087013567ffffffffffffffff8111156142c557600080fd5b6142d189828a016140c2565b955050604087013567ffffffffffffffff8111156142ee57600080fd5b6142fa89828a016140c2565b945050606087013567ffffffffffffffff81111561431757600080fd5b61432389828a0161401a565b935050608061433489828a016140ec565b92505060a061434589828a016140ec565b9150509295509295509295565b6000806040838503121561436557600080fd5b600061437385828601614005565b9250506020614384858286016140ec565b9150509250929050565b6000806000606084860312156143a357600080fd5b600084013567ffffffffffffffff8111156143bd57600080fd5b6143c98682870161401a565b935050602084013567ffffffffffffffff8111156143e657600080fd5b6143f28682870161401a565b9250506040614403868287016140ec565b9150509250925092565b60006020828403121561441f57600080fd5b600061442d84828501614059565b91505092915050565b60006020828403121561444857600080fd5b60006144568482850161406e565b91505092915050565b60006020828403121561447157600080fd5b600061447f84828501614083565b91505092915050565b60008060008060008060c087890312156144a157600080fd5b600087013567ffffffffffffffff8111156144bb57600080fd5b6144c789828a016140c2565b965050602087013567ffffffffffffffff8111156144e457600080fd5b6144f089828a016140c2565b955050604061450189828a016140ec565b945050606087013567ffffffffffffffff81111561451e57600080fd5b61452a89828a0161401a565b935050608061453b89828a016140ec565b92505060a061454c89828a016140ec565b9150509295509295509295565b60006020828403121561456b57600080fd5b6000614579848285016140ec565b91505092915050565b60006020828403121561459457600080fd5b60006145a284828501614101565b91505092915050565b600080604083850312156145be57600080fd5b60006145cc858286016140ec565b92505060206145dd85828601614005565b9150509250929050565b6000806000606084860312156145fc57600080fd5b600061460a868287016140ec565b935050602084013567ffffffffffffffff81111561462757600080fd5b6146338682870161401a565b925050604084013567ffffffffffffffff81111561465057600080fd5b61465c8682870161401a565b9150509250925092565b6000806040838503121561467957600080fd5b6000614687858286016140ec565b925050602083013567ffffffffffffffff8111156146a457600080fd5b6146b0858286016140c2565b9150509250929050565b600080604083850312156146cd57600080fd5b60006146db858286016140ec565b92505060206146ec858286016140ec565b9150509250929050565b60008060006060848603121561470b57600080fd5b6000614719868287016140ec565b935050602061472a868287016140ec565b925050604061473b86828701614044565b9150509250925092565b60006147518383615118565b905092915050565b600061476583836152e8565b905092915050565b61477681615ace565b82525050565b61478581615ace565b82525050565b8082525050565b600061479d82615902565b6147a78185615948565b9350836020820285016147b9856158e2565b8060005b858110156147f557848403895281516147d68582614745565b94506147e18361592e565b925060208a019950506001810190506147bd565b50829750879550505050505092915050565b60006148128261590d565b61481c8185615959565b93508360208202850161482e856158f2565b8060005b8581101561486a578484038952815161484b8582614759565b94506148568361593b565b925060208a01995050600181019050614832565b50829750879550505050505092915050565b8082525050565b61488c81615ae0565b82525050565b61489b81615ae0565b82525050565b60006148ac82615918565b6148b6818561596a565b93506148c6818560208601615b51565b6148cf81615cec565b840191505092915050565b60006148e582615923565b6148ef818561597b565b93506148ff818560208601615b51565b61490881615cec565b840191505092915050565b600061491e82615923565b614928818561598c565b9350614938818560208601615b51565b61494181615cec565b840191505092915050565b600061495782615923565b614961818561599d565b9350614971818560208601615b51565b61497a81615cec565b840191505092915050565b600061499082615923565b61499a81856159ae565b93506149aa818560208601615b51565b80840191505092915050565b60006149c360038361598c565b91507f504e5600000000000000000000000000000000000000000000000000000000006000830152602082019050919050565b6000614a0360038361598c565b91507f434e4f00000000000000000000000000000000000000000000000000000000006000830152602082019050919050565b6000614a4360328361598c565b91507f4552433732313a207472616e7366657220746f206e6f6e20455243373231526560008301527f63656976657220696d706c656d656e74657200000000000000000000000000006020830152604082019050919050565b6000614aa960038361598c565b91507f57544900000000000000000000000000000000000000000000000000000000006000830152602082019050919050565b6000614ae9601c8361598c565b91507f4552433732313a20746f6b656e20616c7265616479206d696e746564000000006000830152602082019050919050565b6000614b2960048361598c565b91507f434e4f43000000000000000000000000000000000000000000000000000000006000830152602082019050919050565b6000614b6960248361598c565b91507f4552433732313a207472616e7366657220746f20746865207a65726f2061646460008301527f72657373000000000000000000000000000000000000000000000000000000006020830152604082019050919050565b6000614bcf60198361598c565b91507f4552433732313a20617070726f766520746f2063616c6c6572000000000000006000830152602082019050919050565b6000614c0f60038361598c565b91507f544e4500000000000000000000000000000000000000000000000000000000006000830152602082019050919050565b6000614c4f60038361598c565b91507f524e5600000000000000000000000000000000000000000000000000000000006000830152602082019050919050565b6000614c8f602c8361598c565b91507f4552433732313a206f70657261746f7220717565727920666f72206e6f6e657860008301527f697374656e7420746f6b656e00000000000000000000000000000000000000006020830152604082019050919050565b6000614cf560388361598c565b91507f4552433732313a20617070726f76652063616c6c6572206973206e6f74206f7760008301527f6e6572206e6f7220617070726f76656420666f7220616c6c00000000000000006020830152604082019050919050565b6000614d5b602a8361598c565b91507f4552433732313a2062616c616e636520717565727920666f7220746865207a6560008301527f726f2061646472657373000000000000000000000000000000000000000000006020830152604082019050919050565b6000614dc160298361598c565b91507f4552433732313a206f776e657220717565727920666f72206e6f6e657869737460008301527f656e7420746f6b656e00000000000000000000000000000000000000000000006020830152604082019050919050565b6000614e2760038361598c565b91507f434e4200000000000000000000000000000000000000000000000000000000006000830152602082019050919050565b6000614e6760048361598c565b91507f43445056000000000000000000000000000000000000000000000000000000006000830152602082019050919050565b6000614ea760208361598c565b91507f4552433732313a206d696e7420746f20746865207a65726f20616464726573736000830152602082019050919050565b6000614ee7602c8361598c565b91507f4552433732313a20617070726f76656420717565727920666f72206e6f6e657860008301527f697374656e7420746f6b656e00000000000000000000000000000000000000006020830152604082019050919050565b6000614f4d60298361598c565b91507f4552433732313a207472616e73666572206f6620746f6b656e2074686174206960008301527f73206e6f74206f776e00000000000000000000000000000000000000000000006020830152604082019050919050565b6000614fb3602f8361598c565b91507f4552433732314d657461646174613a2055524920717565727920666f72206e6f60008301527f6e6578697374656e7420746f6b656e00000000000000000000000000000000006020830152604082019050919050565b600061501960218361598c565b91507f4552433732313a20617070726f76616c20746f2063757272656e74206f776e6560008301527f72000000000000000000000000000000000000000000000000000000000000006020830152604082019050919050565b600061507f60058361598c565b91507f43484e424f0000000000000000000000000000000000000000000000000000006000830152602082019050919050565b60006150bf60318361598c565b91507f4552433732313a207472616e736665722063616c6c6572206973206e6f74206f60008301527f776e6572206e6f7220617070726f7665640000000000000000000000000000006020830152604082019050919050565b600061014083016000830151615131600086018261533f565b506020830151615144602086018261476d565b506040830151615157604086018261476d565b50606083015161516a606086018261533f565b506080830151848203608086015261518282826148da565b91505060a083015184820360a086015261519c82826148da565b91505060c083015184820360c08601526151b682826148da565b91505060e08301516151cb60e0860182614883565b506101008301516151e061010086018261533f565b506101208301516151f561012086018261533f565b508091505092915050565b600061014083016000830151615219600086018261533f565b50602083015161522c602086018261476d565b50604083015161523f604086018261476d565b506060830151615252606086018261533f565b506080830151848203608086015261526a82826148da565b91505060a083015184820360a086015261528482826148da565b91505060c083015184820360c086015261529e82826148da565b91505060e08301516152b360e0860182614883565b506101008301516152c861010086018261533f565b506101208301516152dd61012086018261533f565b508091505092915050565b6000606083016000830151615300600086018261533f565b506020830151848203602086015261531882826148da565b9150506040830151848203604086015261533282826148da565b9150508091505092915050565b61534881615b38565b82525050565b61535781615b38565b82525050565b61536681615b38565b82525050565b60006153788285614985565b91506153848284614985565b91508190509392505050565b60006020820190506153a5600083018461477c565b92915050565b60006060820190506153c0600083018661477c565b6153cd602083018561477c565b6153da604083018461534e565b949350505050565b60006080820190506153f7600083018761477c565b615404602083018661477c565b615411604083018561534e565b818103606083015261542381846148a1565b905095945050505050565b600060208201905081810360008301526154488184614792565b905092915050565b6000602082019050818103600083015261546a8184614807565b905092915050565b6000604082019050615487600083018561487c565b615494602083018461535d565b9392505050565b60006020820190506154b06000830184614892565b92915050565b600060208201905081810360008301526154d08184614913565b905092915050565b600060408201905081810360008301526154f2818561494c565b9050615501602083018461478b565b9392505050565b60006020820190508181036000830152615521816149b6565b9050919050565b60006020820190508181036000830152615541816149f6565b9050919050565b6000602082019050818103600083015261556181614a36565b9050919050565b6000602082019050818103600083015261558181614a9c565b9050919050565b600060208201905081810360008301526155a181614adc565b9050919050565b600060208201905081810360008301526155c181614b1c565b9050919050565b600060208201905081810360008301526155e181614b5c565b9050919050565b6000602082019050818103600083015261560181614bc2565b9050919050565b6000602082019050818103600083015261562181614c02565b9050919050565b6000602082019050818103600083015261564181614c42565b9050919050565b6000602082019050818103600083015261566181614c82565b9050919050565b6000602082019050818103600083015261568181614ce8565b9050919050565b600060208201905081810360008301526156a181614d4e565b9050919050565b600060208201905081810360008301526156c181614db4565b9050919050565b600060208201905081810360008301526156e181614e1a565b9050919050565b6000602082019050818103600083015261570181614e5a565b9050919050565b6000602082019050818103600083015261572181614e9a565b9050919050565b6000602082019050818103600083015261574181614eda565b9050919050565b6000602082019050818103600083015261576181614f40565b9050919050565b6000602082019050818103600083015261578181614fa6565b9050919050565b600060208201905081810360008301526157a18161500c565b9050919050565b600060208201905081810360008301526157c181615072565b9050919050565b600060208201905081810360008301526157e1816150b2565b9050919050565b600060208201905081810360008301526158028184615200565b905092915050565b600060208201905061581f600083018461534e565b92915050565b6000604051905081810181811067ffffffffffffffff8211171561584c5761584b615cbd565b5b8060405250919050565b600067ffffffffffffffff82111561587157615870615cbd565b5b602082029050602081019050919050565b600067ffffffffffffffff82111561589d5761589c615cbd565b5b601f19601f8301169050602081019050919050565b600067ffffffffffffffff8211156158cd576158cc615cbd565b5b601f19601f8301169050602081019050919050565b6000819050602082019050919050565b6000819050602082019050919050565b600081519050919050565b600081519050919050565b600081519050919050565b600081519050919050565b6000602082019050919050565b6000602082019050919050565b600082825260208201905092915050565b600082825260208201905092915050565b600082825260208201905092915050565b600082825260208201905092915050565b600082825260208201905092915050565b600082825260208201905092915050565b600081905092915050565b60006159c482615b38565b91506159cf83615b38565b9250827fffffffffffffffffffffffffffffffffffffffffffffffffffffffffffffffff03821115615a0457615a03615c30565b5b828201905092915050565b6000615a1a82615b38565b9150615a2583615b38565b925082615a3557615a34615c5f565b5b828204905092915050565b6000615a4b82615b38565b9150615a5683615b38565b9250817fffffffffffffffffffffffffffffffffffffffffffffffffffffffffffffffff0483118215151615615a8f57615a8e615c30565b5b828202905092915050565b6000615aa582615b38565b9150615ab083615b38565b925082821015615ac357615ac2615c30565b5b828203905092915050565b6000615ad982615b18565b9050919050565b60008115159050919050565b60007fffffffff0000000000000000000000000000000000000000000000000000000082169050919050565b600073ffffffffffffffffffffffffffffffffffffffff82169050919050565b6000819050919050565b82818337600083830152505050565b60005b83811015615b6f578082015181840152602081019050615b54565b83811115615b7e576000848401525b50505050565b60006002820490506001821680615b9c57607f821691505b60208210811415615bb057615baf615c8e565b5b50919050565b6000615bc182615b38565b91507fffffffffffffffffffffffffffffffffffffffffffffffffffffffffffffffff821415615bf457615bf3615c30565b5b600182019050919050565b6000615c0a82615b38565b9150615c1583615b38565b925082615c2557615c24615c5f565b5b828206905092915050565b7f4e487b7100000000000000000000000000000000000000000000000000000000600052601160045260246000fd5b7f4e487b7100000000000000000000000000000000000000000000000000000000600052601260045260246000fd5b7f4e487b7100000000000000000000000000000000000000000000000000000000600052602260045260246000fd5b7f4e487b7100000000000000000000000000000000000000000000000000000000600052604160045260246000fd5b6000601f19601f8301169050919050565b615d0681615ace565b8114615d1157600080fd5b50565b615d1d81615ae0565b8114615d2857600080fd5b50565b615d3481615aec565b8114615d3f57600080fd5b50565b615d4b81615b38565b8114615d5657600080fd5b5056fea26469706673582212206664b378341d7e7cc5808d176ae6cdeb9bcbfc19733bf74652a6cfa5e2cd9fb464736f6c63430008000033",
  "linkReferences": {
    "contracts/BlockdemyCourseLib.sol": {
      "BlockdemyCourseLib": [
        {
          "length": 20,
          "start": 6657
        },
        {
          "length": 20,
          "start": 10124
        },
        {
          "length": 20,
          "start": 12378
        },
        {
          "length": 20,
          "start": 14036
        }
      ]
    }
  },
  "deployedLinkReferences": {
    "contracts/BlockdemyCourseLib.sol": {
      "BlockdemyCourseLib": [
        {
          "length": 20,
          "start": 6115
        },
        {
          "length": 20,
          "start": 9582
        },
        {
          "length": 20,
          "start": 11836
        },
        {
          "length": 20,
          "start": 13494
        }
      ]
    }
  }
}