{
  "_format": "hh-sol-artifact-1",
  "contractName": "BlockdemyCourseLib",
  "sourceName": "contracts/BlockdemyCourseLib.sol",
  "abi": [
    {
      "inputs": [
        {
          "internalType": "string",
          "name": "a",
          "type": "string"
        },
        {
          "internalType": "string",
          "name": "b",
          "type": "string"
        }
      ],
      "name": "compareStrings",
      "outputs": [
        {
          "internalType": "bool",
          "name": "",
          "type": "bool"
        }
      ],
      "stateMutability": "pure",
      "type": "function"
    }
  ],
  "bytecode": "0x6108d6610053600b82828239805160001a607314610046577f4e487b7100000000000000000000000000000000000000000000000000000000600052600060045260246000fd5b30600052607381538281f3fe73000000000000000000000000000000000000000030146080604052600436106100565760003560e01c806309b84dfb1461005b578063956436611461008b578063bed34bba146100b4578063e4d2ada0146100e4575b600080fd5b61007560048036038101906100709190610467565b610114565b6040516100829190610609565b60405180910390f35b81801561009757600080fd5b506100b260048036038101906100ad9190610467565b61019c565b005b6100ce60048036038101906100c991906104f7565b6101d7565b6040516100db9190610609565b60405180910390f35b6100fe60048036038101906100f991906104a3565b610230565b60405161010b9190610644565b60405180910390f35b600080600090505b838054905081101561019057838181548110610161577f4e487b7100000000000000000000000000000000000000000000000000000000600052603260045260246000fd5b906000526020600020015483141561017d576001915050610196565b808061018890610785565b91505061011c565b50600090505b92915050565b6101a68282610114565b6101d357818190806001815401808255809150506001900390600052602060002001600090919091909150555b5050565b6000816040516020016101ea91906105f2565b604051602081830303815290604052805190602001208360405160200161021191906105f2565b6040516020818303038152906040528051906020012014905092915050565b60008082805480602002602001604051908101604052809291908181526020016000905b8282101561030057838290600052602060002001805461027390610753565b80601f016020809104026020016040519081016040528092919081815260200182805461029f90610753565b80156102ec5780601f106102c1576101008083540402835291602001916102ec565b820191906000526020600020905b8154815290600101906020018083116102cf57829003601f168201915b505050505081526020019060010190610254565b50505050905060005b815181101561037e5761035c82828151811061034e577f4e487b7100000000000000000000000000000000000000000000000000000000600052603260045260246000fd5b6020026020010151866101d7565b1561036b5780925050506103ba565b808061037690610785565b915050610309565b506040517f08c379a00000000000000000000000000000000000000000000000000000000081526004016103b190610624565b60405180910390fd5b92915050565b60006103d36103ce84610690565b61065f565b9050828152602081018484840111156103eb57600080fd5b6103f6848285610711565b509392505050565b60008135905061040d8161085b565b92915050565b60008135905061042281610872565b92915050565b600082601f83011261043957600080fd5b81356104498482602086016103c0565b91505092915050565b60008135905061046181610889565b92915050565b6000806040838503121561047a57600080fd5b600061048885828601610413565b925050602061049985828601610452565b9150509250929050565b600080604083850312156104b657600080fd5b600083013567ffffffffffffffff8111156104d057600080fd5b6104dc85828601610428565b92505060206104ed858286016103fe565b9150509250929050565b6000806040838503121561050a57600080fd5b600083013567ffffffffffffffff81111561052457600080fd5b61053085828601610428565b925050602083013567ffffffffffffffff81111561054d57600080fd5b61055985828601610428565b9150509250929050565b61056c816106fb565b82525050565b600061057d826106c0565b61058781856106dc565b9350610597818560208601610720565b80840191505092915050565b60006105b06011836106cb565b91507f6e6f6e206578697374656e7420686173680000000000000000000000000000006000830152602082019050919050565b6105ec81610707565b82525050565b60006105fe8284610572565b915081905092915050565b600060208201905061061e6000830184610563565b92915050565b6000602082019050818103600083015261063d816105a3565b9050919050565b600060208201905061065960008301846105e3565b92915050565b6000604051905081810181811067ffffffffffffffff821117156106865761068561082c565b5b8060405250919050565b600067ffffffffffffffff8211156106ab576106aa61082c565b5b601f19601f8301169050602081019050919050565b600081519050919050565b600082825260208201905092915050565b600081905092915050565b6000819050919050565b6000819050919050565b60008115159050919050565b6000819050919050565b82818337600083830152505050565b60005b8381101561073e578082015181840152602081019050610723565b8381111561074d576000848401525b50505050565b6000600282049050600182168061076b57607f821691505b6020821081141561077f5761077e6107fd565b5b50919050565b600061079082610707565b91507fffffffffffffffffffffffffffffffffffffffffffffffffffffffffffffffff8214156107c3576107c26107ce565b5b600182019050919050565b7f4e487b7100000000000000000000000000000000000000000000000000000000600052601160045260246000fd5b7f4e487b7100000000000000000000000000000000000000000000000000000000600052602260045260246000fd5b7f4e487b7100000000000000000000000000000000000000000000000000000000600052604160045260246000fd5b610864816106e7565b811461086f57600080fd5b50565b61087b816106f1565b811461088657600080fd5b50565b61089281610707565b811461089d57600080fd5b5056fea2646970667358221220f79edd35856b4872c72e01c77b5b2673146172b6de04d4b5eb0bc04bc4142aed64736f6c63430008000033",
  "linkReferences": {},
  "deployedLinkReferences": {}
}